{
  "_format": "hh-sol-artifact-1",
  "contractName": "ERC721PresetMinterPauserAutoId",
  "sourceName": "contracts/dependencies/authorization-platform/contracts/dependencies/holyzeppelin/contracts/token/ERC721/presets/ERC721PresetMinterPauserAutoId.sol",
  "abi": [
    {
      "inputs": [
        {
          "internalType": "string",
          "name": "name",
          "type": "string"
        },
        {
          "internalType": "string",
          "name": "symbol",
          "type": "string"
        },
        {
          "internalType": "string",
          "name": "baseURI",
          "type": "string"
        }
      ],
      "stateMutability": "nonpayable",
      "type": "constructor"
    },
    {
      "anonymous": false,
      "inputs": [
        {
          "indexed": true,
          "internalType": "address",
          "name": "owner",
          "type": "address"
        },
        {
          "indexed": true,
          "internalType": "address",
          "name": "approved",
          "type": "address"
        },
        {
          "indexed": true,
          "internalType": "uint256",
          "name": "tokenId",
          "type": "uint256"
        }
      ],
      "name": "Approval",
      "type": "event"
    },
    {
      "anonymous": false,
      "inputs": [
        {
          "indexed": true,
          "internalType": "address",
          "name": "owner",
          "type": "address"
        },
        {
          "indexed": true,
          "internalType": "address",
          "name": "operator",
          "type": "address"
        },
        {
          "indexed": false,
          "internalType": "bool",
          "name": "approved",
          "type": "bool"
        }
      ],
      "name": "ApprovalForAll",
      "type": "event"
    },
    {
      "anonymous": false,
      "inputs": [
        {
          "indexed": false,
          "internalType": "address",
          "name": "account",
          "type": "address"
        }
      ],
      "name": "Paused",
      "type": "event"
    },
    {
      "anonymous": false,
      "inputs": [
        {
          "indexed": true,
          "internalType": "bytes32",
          "name": "role",
          "type": "bytes32"
        },
        {
          "indexed": true,
          "internalType": "bytes32",
          "name": "previousAdminRole",
          "type": "bytes32"
        },
        {
          "indexed": true,
          "internalType": "bytes32",
          "name": "newAdminRole",
          "type": "bytes32"
        }
      ],
      "name": "RoleAdminChanged",
      "type": "event"
    },
    {
      "anonymous": false,
      "inputs": [
        {
          "indexed": true,
          "internalType": "bytes32",
          "name": "role",
          "type": "bytes32"
        },
        {
          "indexed": true,
          "internalType": "address",
          "name": "account",
          "type": "address"
        },
        {
          "indexed": true,
          "internalType": "address",
          "name": "sender",
          "type": "address"
        }
      ],
      "name": "RoleGranted",
      "type": "event"
    },
    {
      "anonymous": false,
      "inputs": [
        {
          "indexed": true,
          "internalType": "bytes32",
          "name": "role",
          "type": "bytes32"
        },
        {
          "indexed": true,
          "internalType": "address",
          "name": "account",
          "type": "address"
        },
        {
          "indexed": true,
          "internalType": "address",
          "name": "sender",
          "type": "address"
        }
      ],
      "name": "RoleRevoked",
      "type": "event"
    },
    {
      "anonymous": false,
      "inputs": [
        {
          "indexed": true,
          "internalType": "address",
          "name": "from",
          "type": "address"
        },
        {
          "indexed": true,
          "internalType": "address",
          "name": "to",
          "type": "address"
        },
        {
          "indexed": true,
          "internalType": "uint256",
          "name": "tokenId",
          "type": "uint256"
        }
      ],
      "name": "Transfer",
      "type": "event"
    },
    {
      "anonymous": false,
      "inputs": [
        {
          "indexed": false,
          "internalType": "address",
          "name": "account",
          "type": "address"
        }
      ],
      "name": "Unpaused",
      "type": "event"
    },
    {
      "inputs": [],
      "name": "DEFAULT_ADMIN_ROLE",
      "outputs": [
        {
          "internalType": "bytes32",
          "name": "",
          "type": "bytes32"
        }
      ],
      "stateMutability": "view",
      "type": "function"
    },
    {
      "inputs": [],
      "name": "ERC165_INTERFACE_ID",
      "outputs": [
        {
          "internalType": "bytes4",
          "name": "",
          "type": "bytes4"
        }
      ],
      "stateMutability": "view",
      "type": "function"
    },
    {
      "inputs": [],
      "name": "MINTER_ROLE",
      "outputs": [
        {
          "internalType": "bytes32",
          "name": "",
          "type": "bytes32"
        }
      ],
      "stateMutability": "view",
      "type": "function"
    },
    {
      "inputs": [],
      "name": "PAUSER_ROLE",
      "outputs": [
        {
          "internalType": "bytes32",
          "name": "",
          "type": "bytes32"
        }
      ],
      "stateMutability": "view",
      "type": "function"
    },
    {
      "inputs": [
        {
          "internalType": "address",
          "name": "to",
          "type": "address"
        },
        {
          "internalType": "uint256",
          "name": "tokenId",
          "type": "uint256"
        }
      ],
      "name": "approve",
      "outputs": [],
      "stateMutability": "nonpayable",
      "type": "function"
    },
    {
      "inputs": [
        {
          "internalType": "address",
          "name": "owner",
          "type": "address"
        }
      ],
      "name": "balanceOf",
      "outputs": [
        {
          "internalType": "uint256",
          "name": "",
          "type": "uint256"
        }
      ],
      "stateMutability": "view",
      "type": "function"
    },
    {
      "inputs": [],
      "name": "baseURI",
      "outputs": [
        {
          "internalType": "string",
          "name": "",
          "type": "string"
        }
      ],
      "stateMutability": "view",
      "type": "function"
    },
    {
      "inputs": [
        {
          "internalType": "uint256",
          "name": "tokenId",
          "type": "uint256"
        }
      ],
      "name": "burn",
      "outputs": [],
      "stateMutability": "nonpayable",
      "type": "function"
    },
    {
      "inputs": [
        {
          "internalType": "uint256",
          "name": "tokenId",
          "type": "uint256"
        }
      ],
      "name": "getApproved",
      "outputs": [
        {
          "internalType": "address",
          "name": "",
          "type": "address"
        }
      ],
      "stateMutability": "view",
      "type": "function"
    },
    {
      "inputs": [
        {
          "internalType": "bytes32",
          "name": "role",
          "type": "bytes32"
        }
      ],
      "name": "getRoleAdmin",
      "outputs": [
        {
          "internalType": "bytes32",
          "name": "",
          "type": "bytes32"
        }
      ],
      "stateMutability": "view",
      "type": "function"
    },
    {
      "inputs": [
        {
          "internalType": "bytes32",
          "name": "role",
          "type": "bytes32"
        },
        {
          "internalType": "uint256",
          "name": "index",
          "type": "uint256"
        }
      ],
      "name": "getRoleMember",
      "outputs": [
        {
          "internalType": "address",
          "name": "",
          "type": "address"
        }
      ],
      "stateMutability": "view",
      "type": "function"
    },
    {
      "inputs": [
        {
          "internalType": "bytes32",
          "name": "role",
          "type": "bytes32"
        }
      ],
      "name": "getRoleMemberCount",
      "outputs": [
        {
          "internalType": "uint256",
          "name": "",
          "type": "uint256"
        }
      ],
      "stateMutability": "view",
      "type": "function"
    },
    {
      "inputs": [
        {
          "internalType": "bytes32",
          "name": "role",
          "type": "bytes32"
        },
        {
          "internalType": "address",
          "name": "account",
          "type": "address"
        }
      ],
      "name": "grantRole",
      "outputs": [],
      "stateMutability": "nonpayable",
      "type": "function"
    },
    {
      "inputs": [
        {
          "internalType": "bytes32",
          "name": "role",
          "type": "bytes32"
        },
        {
          "internalType": "address",
          "name": "account",
          "type": "address"
        }
      ],
      "name": "hasRole",
      "outputs": [
        {
          "internalType": "bool",
          "name": "",
          "type": "bool"
        }
      ],
      "stateMutability": "view",
      "type": "function"
    },
    {
      "inputs": [
        {
          "internalType": "address",
          "name": "owner",
          "type": "address"
        },
        {
          "internalType": "address",
          "name": "operator",
          "type": "address"
        }
      ],
      "name": "isApprovedForAll",
      "outputs": [
        {
          "internalType": "bool",
          "name": "",
          "type": "bool"
        }
      ],
      "stateMutability": "view",
      "type": "function"
    },
    {
      "inputs": [
        {
          "internalType": "address",
          "name": "to",
          "type": "address"
        }
      ],
      "name": "mint",
      "outputs": [],
      "stateMutability": "nonpayable",
      "type": "function"
    },
    {
      "inputs": [],
      "name": "name",
      "outputs": [
        {
          "internalType": "string",
          "name": "",
          "type": "string"
        }
      ],
      "stateMutability": "view",
      "type": "function"
    },
    {
      "inputs": [
        {
          "internalType": "uint256",
          "name": "tokenId",
          "type": "uint256"
        }
      ],
      "name": "ownerOf",
      "outputs": [
        {
          "internalType": "address",
          "name": "",
          "type": "address"
        }
      ],
      "stateMutability": "view",
      "type": "function"
    },
    {
      "inputs": [],
      "name": "pause",
      "outputs": [],
      "stateMutability": "nonpayable",
      "type": "function"
    },
    {
      "inputs": [],
      "name": "paused",
      "outputs": [
        {
          "internalType": "bool",
          "name": "",
          "type": "bool"
        }
      ],
      "stateMutability": "view",
      "type": "function"
    },
    {
      "inputs": [
        {
          "internalType": "bytes32",
          "name": "role",
          "type": "bytes32"
        },
        {
          "internalType": "address",
          "name": "account",
          "type": "address"
        }
      ],
      "name": "renounceRole",
      "outputs": [],
      "stateMutability": "nonpayable",
      "type": "function"
    },
    {
      "inputs": [
        {
          "internalType": "bytes32",
          "name": "role",
          "type": "bytes32"
        },
        {
          "internalType": "address",
          "name": "account",
          "type": "address"
        }
      ],
      "name": "revokeRole",
      "outputs": [],
      "stateMutability": "nonpayable",
      "type": "function"
    },
    {
      "inputs": [
        {
          "internalType": "address",
          "name": "from",
          "type": "address"
        },
        {
          "internalType": "address",
          "name": "to",
          "type": "address"
        },
        {
          "internalType": "uint256",
          "name": "tokenId",
          "type": "uint256"
        }
      ],
      "name": "safeTransferFrom",
      "outputs": [],
      "stateMutability": "nonpayable",
      "type": "function"
    },
    {
      "inputs": [
        {
          "internalType": "address",
          "name": "from",
          "type": "address"
        },
        {
          "internalType": "address",
          "name": "to",
          "type": "address"
        },
        {
          "internalType": "uint256",
          "name": "tokenId",
          "type": "uint256"
        },
        {
          "internalType": "bytes",
          "name": "_data",
          "type": "bytes"
        }
      ],
      "name": "safeTransferFrom",
      "outputs": [],
      "stateMutability": "nonpayable",
      "type": "function"
    },
    {
      "inputs": [
        {
          "internalType": "address",
          "name": "operator",
          "type": "address"
        },
        {
          "internalType": "bool",
          "name": "approved",
          "type": "bool"
        }
      ],
      "name": "setApprovalForAll",
      "outputs": [],
      "stateMutability": "nonpayable",
      "type": "function"
    },
    {
      "inputs": [
        {
          "internalType": "bytes4",
          "name": "interfaceId_",
          "type": "bytes4"
        }
      ],
      "name": "supportsInterface",
      "outputs": [
        {
          "internalType": "bool",
          "name": "",
          "type": "bool"
        }
      ],
      "stateMutability": "view",
      "type": "function"
    },
    {
      "inputs": [],
      "name": "symbol",
      "outputs": [
        {
          "internalType": "string",
          "name": "",
          "type": "string"
        }
      ],
      "stateMutability": "view",
      "type": "function"
    },
    {
      "inputs": [
        {
          "internalType": "uint256",
          "name": "index",
          "type": "uint256"
        }
      ],
      "name": "tokenByIndex",
      "outputs": [
        {
          "internalType": "uint256",
          "name": "",
          "type": "uint256"
        }
      ],
      "stateMutability": "view",
      "type": "function"
    },
    {
      "inputs": [
        {
          "internalType": "address",
          "name": "owner",
          "type": "address"
        },
        {
          "internalType": "uint256",
          "name": "index",
          "type": "uint256"
        }
      ],
      "name": "tokenOfOwnerByIndex",
      "outputs": [
        {
          "internalType": "uint256",
          "name": "",
          "type": "uint256"
        }
      ],
      "stateMutability": "view",
      "type": "function"
    },
    {
      "inputs": [
        {
          "internalType": "uint256",
          "name": "tokenId",
          "type": "uint256"
        }
      ],
      "name": "tokenURI",
      "outputs": [
        {
          "internalType": "string",
          "name": "",
          "type": "string"
        }
      ],
      "stateMutability": "view",
      "type": "function"
    },
    {
      "inputs": [],
      "name": "totalSupply",
      "outputs": [
        {
          "internalType": "uint256",
          "name": "",
          "type": "uint256"
        }
      ],
      "stateMutability": "view",
      "type": "function"
    },
    {
      "inputs": [
        {
          "internalType": "address",
          "name": "from",
          "type": "address"
        },
        {
          "internalType": "address",
          "name": "to",
          "type": "address"
        },
        {
          "internalType": "uint256",
          "name": "tokenId",
          "type": "uint256"
        }
      ],
      "name": "transferFrom",
      "outputs": [],
      "stateMutability": "nonpayable",
      "type": "function"
    },
    {
      "inputs": [],
      "name": "unpause",
      "outputs": [],
      "stateMutability": "nonpayable",
      "type": "function"
    }
  ],
  "bytecode": "0x60806040523480156200001157600080fd5b50604051620035fe380380620035fe833981810160405260608110156200003757600080fd5b81019080805160405193929190846401000000008211156200005857600080fd5b9083019060208201858111156200006e57600080fd5b82516401000000008111828201881017156200008957600080fd5b82525081516020918201929091019080838360005b83811015620000b85781810151838201526020016200009e565b50505050905090810190601f168015620000e65780820380516001836020036101000a031916815260200191505b50604052602001805160405193929190846401000000008211156200010a57600080fd5b9083019060208201858111156200012057600080fd5b82516401000000008111828201881017156200013b57600080fd5b82525081516020918201929091019080838360005b838110156200016a57818101518382015260200162000150565b50505050905090810190601f168015620001985780820380516001836020036101000a031916815260200191505b5060405260200180516040519392919084640100000000821115620001bc57600080fd5b908301906020820185811115620001d257600080fd5b8251640100000000811182820188101715620001ed57600080fd5b82525081516020918201929091019080838360005b838110156200021c57818101518382015260200162000202565b50505050905090810190601f1680156200024a5780820380516001836020036101000a031916815260200191505b5060608101604052602b8082528794508693506200027d9250620035d360208301396200048860201b6200134b1760201c565b620002c96040518060600160405280602d815260200162003414602d9139600080516020620034418339815191526001600160e01b03191660001c6200053b60201b620013f11760201c565b620002f860405180606001604052806040815260200162003543604091396200048860201b6200134b1760201c565b620003126000805160206200344183398151915262000600565b620003416040518060600160405280603f8152602001620034b3603f91396200048860201b6200134b1760201c565b620003706040518060600160405280602a8152602001620033ea602a91396200048860201b6200134b1760201c565b815162000385906007906020850190620008cc565b5080516200039b906008906020840190620008cc565b50620003ae6380ac58cd60e01b62000600565b620003c0635b5e139f60e01b62000600565b620003d263780e9d6360e01b62000600565b5050600b805460ff19169055620004006000620003fa6200077b602090811b620014a817901c565b6200077f565b6200043a7f9f2df0fed2c77648de5860a4cc508cd0818c85b8b8a1ab4ceeef8d981c8956a6620003fa6200077b60201b620014a81760201c565b620004747f65d7a28e3265b37a6474929f336521b332c1681b933f6cb9f3376673440d862a620003fa6200077b60201b620014a81760201c565b6200047f816200078b565b50505062000978565b62000538816040516024018080602001828103825283818151815260200191508051906020019080838360005b83811015620004cf578181015183820152602001620004b5565b50505050905090810190601f168015620004fd5780820380516001836020036101000a031916815260200191505b5060408051601f198184030181529190526020810180516001600160e01b0390811663104c13eb60e21b17909152909350620007a016915050565b50565b620005fc82826040516024018080602001836001600160a01b03168152602001828103825284818151815260200191508051906020019080838360005b838110156200059257818101518382015260200162000578565b50505050905090810190601f168015620005c05780820380516001836020036101000a031916815260200191505b5060408051601f198184030181529190526020810180516001600160e01b0390811663319af33360e01b17909152909450620007a01692505050565b5050565b6200063d6040518060800160405280605281526020016200346160529139826001600160e01b03191660001c6200053b60201b620013f11760201c565b6001600160e01b031980821614156200069d576040805162461bcd60e51b815260206004820152601c60248201527f4552433136353a20696e76616c696420696e7465726661636520696400000000604482015290519081900360640190fd5b620006da604051806080016040528060518152602001620034f260519139826001600160e01b03191660001c6200053b60201b620013f11760201c565b620007176040518060800160405280605081526020016200358360509139826001600160e01b03191660001c6200053b60201b620013f11760201c565b6001600160e01b03198116600090815260016020818152604092839020805460ff1916909217909155815160808101909252604c8083526200053892916200339e90830139826001600160e01b03191660001c6200053b60201b620013f11760201c565b3390565b620005fc8282620007c1565b8051620005fc90600a906020840190620008cc565b80516a636f6e736f6c652e6c6f67602083016000808483855afa5050505050565b600082815260208181526040909120620007e6918390620014ac62000845821b17901c565b15620005fc57620008016200077b60201b620014a81760201c565b6001600160a01b0316816001600160a01b0316837f2f8788117e7eff1d82e926ec794901d17c78024a50270940304540a733656f0d60405160405180910390a45050565b60006200085c836001600160a01b03841662000865565b90505b92915050565b6000620008738383620008b4565b620008ab575081546001818101845560008481526020808220909301849055845484825282860190935260409020919091556200085f565b5060006200085f565b60009081526001919091016020526040902054151590565b828054600181600116156101000203166002900490600052602060002090601f0160209004810192826200090457600085556200094f565b82601f106200091f57805160ff19168380011785556200094f565b828001600101855582156200094f579182015b828111156200094f57825182559160200191906001019062000932565b506200095d92915062000961565b5090565b5b808211156200095d576000815560010162000962565b612a1680620009886000396000f3fe608060405234801561001057600080fd5b50600436106101fb5760003560e01c80636a6278421161011a578063a217fddf116100ad578063ca15c8731161007c578063ca15c8731461069e578063d5391393146106bb578063d547741f146106c3578063e63ab1e9146106ef578063e985e9c5146106f7576101fb565b8063a217fddf14610585578063a22cb4651461058d578063b88d4fde146105bb578063c87b56dd14610681576101fb565b80639010d07c116100e95780639010d07c1461050957806391d148541461052c578063950d7f6f1461055857806395d89b411461057d576101fb565b80636a627842146104ad5780636c0360eb146104d357806370a08231146104db5780638456cb5914610501576101fb565b80632f745c591161019257806342966c681161016157806342966c681461044e5780634f6ccce71461046b5780635c975abb146104885780636352211e14610490576101fb565b80632f745c59146103b857806336568abe146103e45780633f4ba83a1461041057806342842e0e14610418576101fb565b806318160ddd116101ce57806318160ddd1461031f57806323b872dd14610339578063248a9ca31461036f5780632f2ff15d1461038c576101fb565b806301ffc9a71461020057806306fdde031461023b578063081812fc146102b8578063095ea7b3146102f1575b600080fd5b6102276004803603602081101561021657600080fd5b50356001600160e01b031916610725565b604080519115158252519081900360200190f35b610243610778565b6040805160208082528351818301528351919283929083019185019080838360005b8381101561027d578181015183820152602001610265565b50505050905090810190601f1680156102aa5780820380516001836020036101000a031916815260200191505b509250505060405180910390f35b6102d5600480360360208110156102ce57600080fd5b503561080e565b604080516001600160a01b039092168252519081900360200190f35b61031d6004803603604081101561030757600080fd5b506001600160a01b038135169060200135610870565b005b61032761094b565b60408051918252519081900360200190f35b61031d6004803603606081101561034f57600080fd5b506001600160a01b0381358116916020810135909116906040013561095c565b6103276004803603602081101561038557600080fd5b50356109b3565b61031d600480360360408110156103a257600080fd5b50803590602001356001600160a01b03166109c8565b610327600480360360408110156103ce57600080fd5b506001600160a01b038135169060200135610a34565b61031d600480360360408110156103fa57600080fd5b50803590602001356001600160a01b0316610a5f565b61031d610ac0565b61031d6004803603606081101561042e57600080fd5b506001600160a01b03813581169160208101359091169060400135610b31565b61031d6004803603602081101561046457600080fd5b5035610b4c565b6103276004803603602081101561048157600080fd5b5035610b9e565b610227610bb4565b6102d5600480360360208110156104a657600080fd5b5035610bbd565b61031d600480360360208110156104c357600080fd5b50356001600160a01b0316610be5565b610243610c69565b610327600480360360208110156104f157600080fd5b50356001600160a01b0316610cca565b61031d610d32565b6102d56004803603604081101561051f57600080fd5b5080359060200135610da1565b6102276004803603604081101561054257600080fd5b50803590602001356001600160a01b0316610db9565b610560610dd1565b604080516001600160e01b03199092168252519081900360200190f35b610243610df5565b610327610e56565b61031d600480360360408110156105a357600080fd5b506001600160a01b0381351690602001351515610e5b565b61031d600480360360808110156105d157600080fd5b6001600160a01b0382358116926020810135909116916040820135919081019060808101606082013564010000000081111561060c57600080fd5b82018360208201111561061e57600080fd5b8035906020019184600183028401116401000000008311171561064057600080fd5b91908080601f016020809104026020016040519081016040528093929190818152602001838380828437600092019190915250929550610f60945050505050565b6102436004803603602081101561069757600080fd5b5035610fbe565b610327600480360360208110156106b457600080fd5b5035611265565b61032761127c565b61031d600480360360408110156106d957600080fd5b50803590602001356001600160a01b03166112a0565b6103276112f9565b6102276004803603604081101561070d57600080fd5b506001600160a01b038135811691602001351661131d565b60006107546040518060800160405280604d8152602001612705604d9139306001600160e01b031985166114c1565b506001600160e01b0319811660009081526001602052604090205460ff165b919050565b60078054604080516020601f60026000196101006001881615020190951694909404938401819004810282018101909252828152606093909290918301828280156108045780601f106107d957610100808354040283529160200191610804565b820191906000526020600020905b8154815290600101906020018083116107e757829003601f168201915b5050505050905090565b600061081982611589565b6108545760405162461bcd60e51b815260040180806020018281038252602c81526020018061282f602c913960400191505060405180910390fd5b506000908152600560205260409020546001600160a01b031690565b600061087b82610bbd565b9050806001600160a01b0316836001600160a01b031614156108ce5760405162461bcd60e51b81526004018080602001828103825260218152602001806128b36021913960400191505060405180910390fd5b806001600160a01b03166108e06114a8565b6001600160a01b031614806109015750610901816108fc6114a8565b61131d565b61093c5760405162461bcd60e51b81526004018080602001828103825260388152602001806127826038913960400191505060405180910390fd5b6109468383611596565b505050565b60006109576003611604565b905090565b61096d6109676114a8565b8261160f565b6109a85760405162461bcd60e51b81526004018080602001828103825260318152602001806128d46031913960400191505060405180910390fd5b6109468383836116b3565b60009081526020819052604090206002015490565b6000828152602081905260409020600201546109eb906109e66114a8565b610db9565b610a265760405162461bcd60e51b815260040180806020018281038252602f815260200180612616602f913960400191505060405180910390fd5b610a3082826117ff565b5050565b6001600160a01b0382166000908152600260205260408120610a569083611868565b90505b92915050565b610a676114a8565b6001600160a01b0316816001600160a01b031614610ab65760405162461bcd60e51b815260040180806020018281038252602f8152602001806129b2602f913960400191505060405180910390fd5b610a308282611874565b610aec7f65d7a28e3265b37a6474929f336521b332c1681b933f6cb9f3376673440d862a6109e66114a8565b610b275760405162461bcd60e51b81526004018080602001828103825260408152602001806129726040913960400191505060405180910390fd5b610b2f6118dd565b565b61094683838360405180602001604052806000815250610f60565b610b576109676114a8565b610b925760405162461bcd60e51b81526004018080602001828103825260308152602001806129426030913960400191505060405180910390fd5b610b9b8161197b565b50565b600080610bac600384611a48565b509392505050565b600b5460ff1690565b6000610a59826040518060600160405280602981526020016127e46029913960039190611a64565b610c117f9f2df0fed2c77648de5860a4cc508cd0818c85b8b8a1ab4ceeef8d981c8956a66109e66114a8565b610c4c5760405162461bcd60e51b815260040180806020018281038252603d815260200180612905603d913960400191505060405180910390fd5b610c5f81610c5a600c611a7b565b611a7f565b610b9b600c611bad565b600a8054604080516020601f60026000196101006001881615020190951694909404938401819004810282018101909252828152606093909290918301828280156108045780601f106107d957610100808354040283529160200191610804565b60006001600160a01b038216610d115760405162461bcd60e51b815260040180806020018281038252602a8152602001806127ba602a913960400191505060405180910390fd5b6001600160a01b0382166000908152600260205260409020610a5990611604565b610d5e7f65d7a28e3265b37a6474929f336521b332c1681b933f6cb9f3376673440d862a6109e66114a8565b610d995760405162461bcd60e51b815260040180806020018281038252603e815260200180612677603e913960400191505060405180910390fd5b610b2f611bb6565b6000828152602081905260408120610a569083611868565b6000828152602081905260408120610a569083611c37565b7f01ffc9a7a5cef8baa21ed3c5c0d7e23accb804b619e9333b597f47a0d84076e281565b60088054604080516020601f60026000196101006001881615020190951694909404938401819004810282018101909252828152606093909290918301828280156108045780601f106107d957610100808354040283529160200191610804565b600081565b610e636114a8565b6001600160a01b0316826001600160a01b03161415610ec9576040805162461bcd60e51b815260206004820152601960248201527f4552433732313a20617070726f766520746f2063616c6c657200000000000000604482015290519081900360640190fd5b8060066000610ed66114a8565b6001600160a01b03908116825260208083019390935260409182016000908120918716808252919093529120805460ff191692151592909217909155610f1a6114a8565b6001600160a01b03167f17307eab39ab6107e8899845ad3d59bd9653f200f220920489ca2b5937696c318360405180821515815260200191505060405180910390a35050565b610f71610f6b6114a8565b8361160f565b610fac5760405162461bcd60e51b81526004018080602001828103825260318152602001806128d46031913960400191505060405180910390fd5b610fb884848484611c4c565b50505050565b6060610fc982611589565b6110045760405162461bcd60e51b815260040180806020018281038252602f815260200180612884602f913960400191505060405180910390fd5b60008281526009602090815260409182902080548351601f60026000196101006001861615020190931692909204918201849004840281018401909452808452606093928301828280156110995780601f1061106e57610100808354040283529160200191611099565b820191906000526020600020905b81548152906001019060200180831161107c57829003601f168201915b5050600a54939450505050600260001961010060018416150201909116046110c2579050610773565b80511561119357600a81604051602001808380546001816001161561010002031660029004801561112a5780601f1061110857610100808354040283529182019161112a565b820191906000526020600020905b815481529060010190602001808311611116575b5050825160208401908083835b602083106111565780518252601f199092019160209182019101611137565b6001836020036101000a03801982511681845116808217855250505050505090500192505050604051602081830303815290604052915050610773565b600a61119e84611c9e565b60405160200180838054600181600116156101000203166002900480156111fc5780601f106111da5761010080835404028352918201916111fc565b820191906000526020600020905b8154815290600101906020018083116111e8575b5050825160208401908083835b602083106112285780518252601f199092019160209182019101611209565b6001836020036101000a03801982511681845116808217855250505050505090500192505050604051602081830303815290604052915050919050565b6000818152602081905260408120610a5990611604565b7f9f2df0fed2c77648de5860a4cc508cd0818c85b8b8a1ab4ceeef8d981c8956a681565b6000828152602081905260409020600201546112be906109e66114a8565b610ab65760405162461bcd60e51b81526004018080602001828103825260308152602001806127526030913960400191505060405180910390fd5b7f65d7a28e3265b37a6474929f336521b332c1681b933f6cb9f3376673440d862a81565b6001600160a01b03918216600090815260066020908152604080832093909416825291909152205460ff1690565b610b9b816040516024018080602001828103825283818151815260200191508051906020019080838360005b8381101561138f578181015183820152602001611377565b50505050905090810190601f1680156113bc5780820380516001836020036101000a031916815260200191505b5060408051601f198184030181529190526020810180516001600160e01b031663104c13eb60e21b1790529250611d79915050565b610a3082826040516024018080602001836001600160a01b03168152602001828103825284818151815260200191508051906020019080838360005b8381101561144557818101518382015260200161142d565b50505050905090810190601f1680156114725780820380516001836020036101000a031916815260200191505b5060408051601f198184030181529190526020810180516001600160e01b031663319af33360e01b1790529350611d7992505050565b3390565b6000610a56836001600160a01b038416611d9a565b6109468383836040516024018080602001846001600160a01b03168152602001836001600160a01b03168152602001828103825285818151815260200191508051906020019080838360005b8381101561152557818101518382015260200161150d565b50505050905090810190601f1680156115525780820380516001836020036101000a031916815260200191505b5060408051601f198184030181529190526020810180516001600160e01b03166307e763af60e51b1790529450611d799350505050565b6000610a59600383611de4565b600081815260056020526040902080546001600160a01b0319166001600160a01b03841690811790915581906115cb82610bbd565b6001600160a01b03167f8c5be1e5ebec7d5bd14f71427d1e84f3dd0314c0f7b2291e5b200ac8c7c3b92560405160405180910390a45050565b6000610a5982611a7b565b600061161a82611589565b6116555760405162461bcd60e51b815260040180806020018281038252602c8152602001806126d9602c913960400191505060405180910390fd5b600061166083610bbd565b9050806001600160a01b0316846001600160a01b0316148061169b5750836001600160a01b03166116908461080e565b6001600160a01b0316145b806116ab57506116ab818561131d565b949350505050565b826001600160a01b03166116c682610bbd565b6001600160a01b03161461170b5760405162461bcd60e51b815260040180806020018281038252602981526020018061285b6029913960400191505060405180910390fd5b6001600160a01b0382166117505760405162461bcd60e51b81526004018080602001828103825260248152602001806126b56024913960400191505060405180910390fd5b61175b838383611df0565b611766600082611596565b6001600160a01b03831660009081526002602052604090206117889082611dfb565b506001600160a01b03821660009081526002602052604090206117ab9082611e07565b506117b860038284611e13565b5080826001600160a01b0316846001600160a01b03167fddf252ad1be2c89b69c2b068fc378daa952ba7f163c4a11628f55a4df523b3ef60405160405180910390a4505050565b600082815260208190526040902061181790826114ac565b15610a30576118246114a8565b6001600160a01b0316816001600160a01b0316837f2f8788117e7eff1d82e926ec794901d17c78024a50270940304540a733656f0d60405160405180910390a45050565b6000610a568383611e29565b600082815260208190526040902061188c9082611e8d565b15610a30576118996114a8565b6001600160a01b0316816001600160a01b0316837ff6391f5c32d9c69d2a47ea670b442974b53935d1edc7fd64eb21e047a839171b60405160405180910390a45050565b600b5460ff1661192b576040805162461bcd60e51b815260206004820152601460248201527314185d5cd8589b194e881b9bdd081c185d5cd95960621b604482015290519081900360640190fd5b600b805460ff191690557f5db9ee0a495bf2e6ff9c91a7834c1ba4fdd244a5e8aa4e537bd38aeae4b073aa61195e6114a8565b604080516001600160a01b039092168252519081900360200190a1565b600061198682610bbd565b905061199481600084611df0565b61199f600083611596565b60008281526009602052604090205460026000196101006001841615020190911604156119dd5760008281526009602052604081206119dd91612570565b6001600160a01b03811660009081526002602052604090206119ff9083611dfb565b50611a0b600383611ea2565b5060405182906000906001600160a01b038416907fddf252ad1be2c89b69c2b068fc378daa952ba7f163c4a11628f55a4df523b3ef908390a45050565b6000808080611a578686611eae565b9097909650945050505050565b6000611a71848484611f29565b90505b9392505050565b5490565b6001600160a01b038216611ada576040805162461bcd60e51b815260206004820181905260248201527f4552433732313a206d696e7420746f20746865207a65726f2061646472657373604482015290519081900360640190fd5b611ae381611589565b15611b35576040805162461bcd60e51b815260206004820152601c60248201527f4552433732313a20746f6b656e20616c7265616479206d696e74656400000000604482015290519081900360640190fd5b611b4160008383611df0565b6001600160a01b0382166000908152600260205260409020611b639082611e07565b50611b7060038284611e13565b5060405181906001600160a01b038416906000907fddf252ad1be2c89b69c2b068fc378daa952ba7f163c4a11628f55a4df523b3ef908290a45050565b80546001019055565b600b5460ff1615611c01576040805162461bcd60e51b815260206004820152601060248201526f14185d5cd8589b194e881c185d5cd95960821b604482015290519081900360640190fd5b600b805460ff191660011790557f62e78cea01bee320cd4e420270b5ea74000d11b0c9f74754ebdbfc544b05a25861195e6114a8565b6000610a56836001600160a01b038416611ff3565b611c578484846116b3565b611c638484848461200b565b610fb85760405162461bcd60e51b81526004018080602001828103825260328152602001806126456032913960400191505060405180910390fd5b606081611cc357506040805180820190915260018152600360fc1b6020820152610773565b8160005b8115611cdb57600101600a82049150611cc7565b60608167ffffffffffffffff81118015611cf457600080fd5b506040519080825280601f01601f191660200182016040528015611d1f576020820181803683370190505b50859350905060001982015b8315611d7057600a840660300160f81b82828060019003935081518110611d4e57fe5b60200101906001600160f81b031916908160001a905350600a84049350611d2b565b50949350505050565b80516a636f6e736f6c652e6c6f67602083016000808483855afa5050505050565b6000611da68383611ff3565b611ddc57508154600181810184556000848152602080822090930184905584548482528286019093526040902091909155610a59565b506000610a59565b6000610a568383611ff3565b610946838383612173565b6000610a5683836121c2565b6000610a568383611d9a565b6000611a7184846001600160a01b038516612288565b81546000908210611e6b5760405162461bcd60e51b81526004018080602001828103825260228152602001806125c96022913960400191505060405180910390fd5b826000018281548110611e7a57fe5b9060005260206000200154905092915050565b6000610a56836001600160a01b0384166121c2565b6000610a56838361231f565b815460009081908310611ef25760405162461bcd60e51b815260040180806020018281038252602281526020018061280d6022913960400191505060405180910390fd5b6000846000018481548110611f0357fe5b906000526020600020906002020190508060000154816001015492509250509250929050565b60008281526001840160205260408120548281611fc45760405162461bcd60e51b81526004018080602001828103825283818151815260200191508051906020019080838360005b83811015611f89578181015183820152602001611f71565b50505050905090810190601f168015611fb65780820380516001836020036101000a031916815260200191505b509250505060405180910390fd5b50846000016001820381548110611fd757fe5b9060005260206000209060020201600101549150509392505050565b60009081526001919091016020526040902054151590565b600061201f846001600160a01b03166123f3565b61202b575060016116ab565b6060612139630a85bd0160e11b6120406114a8565b88878760405160240180856001600160a01b03168152602001846001600160a01b0316815260200183815260200180602001828103825283818151815260200191508051906020019080838360005b838110156120a757818101518382015260200161208f565b50505050905090810190601f1680156120d45780820380516001836020036101000a031916815260200191505b5095505050505050604051602081830303815290604052906001600160e01b0319166020820180516001600160e01b038381831617835250505050604051806060016040528060328152602001612645603291396001600160a01b03881691906123f9565b9050600081806020019051602081101561215257600080fd5b50516001600160e01b031916630a85bd0160e11b1492505050949350505050565b61217e838383610946565b612186610bb4565b156109465760405162461bcd60e51b815260040180806020018281038252602b8152602001806125eb602b913960400191505060405180910390fd5b6000818152600183016020526040812054801561227e57835460001980830191908101906000908790839081106121f557fe5b906000526020600020015490508087600001848154811061221257fe5b60009182526020808320909101929092558281526001898101909252604090209084019055865487908061224257fe5b60019003818190600052602060002001600090559055866001016000878152602001908152602001600020600090556001945050505050610a59565b6000915050610a59565b6000828152600184016020526040812054806122ed575050604080518082018252838152602080820184815286546001818101895560008981528481209551600290930290950191825591519082015586548684528188019092529290912055611a74565b8285600001600183038154811061230057fe5b9060005260206000209060020201600101819055506000915050611a74565b6000818152600183016020526040812054801561227e578354600019808301919081019060009087908390811061235257fe5b906000526020600020906002020190508087600001848154811061237257fe5b6000918252602080832084546002909302019182556001938401549184019190915583548252898301905260409020908401905586548790806123b157fe5b6000828152602080822060026000199094019384020182815560019081018390559290935588815289820190925260408220919091559450610a599350505050565b3b151590565b6060611a718484600085606061240e856123f3565b61245f576040805162461bcd60e51b815260206004820152601d60248201527f416464726573733a2063616c6c20746f206e6f6e2d636f6e7472616374000000604482015290519081900360640190fd5b60006060866001600160a01b031685876040518082805190602001908083835b6020831061249e5780518252601f19909201916020918201910161247f565b6001836020036101000a03801982511681845116808217855250505050505090500191505060006040518083038185875af1925050503d8060008114612500576040519150601f19603f3d011682016040523d82523d6000602084013e612505565b606091505b509150915081156125195791506116ab9050565b8051156125295780518082602001fd5b60405162461bcd60e51b8152602060048201818152865160248401528651879391928392604401919085019080838360008315611f89578181015183820152602001611f71565b50805460018160011615610100020316600290046000825580601f106125965750610b9b565b601f016020900490600052602060002090810190610b9b91905b808211156125c457600081556001016125b0565b509056fe456e756d657261626c655365743a20696e646578206f7574206f6620626f756e64734552433732315061757361626c653a20746f6b656e207472616e73666572207768696c6520706175736564416363657373436f6e74726f6c3a2073656e646572206d75737420626520616e2061646d696e20746f206772616e744552433732313a207472616e7366657220746f206e6f6e20455243373231526563656976657220696d706c656d656e7465724552433732315072657365744d696e7465725061757365724175746f49643a206d75737420686176652070617573657220726f6c6520746f2070617573654552433732313a207472616e7366657220746f20746865207a65726f20616464726573734552433732313a206f70657261746f7220717565727920666f72206e6f6e6578697374656e7420746f6b656e4552433136353a3a737570706f727473496e746572666163653a312053656c66206964656e74696679696e67207468617420257320696d706c656d656e747320696e746572666163652025732e416363657373436f6e74726f6c3a2073656e646572206d75737420626520616e2061646d696e20746f207265766f6b654552433732313a20617070726f76652063616c6c6572206973206e6f74206f776e6572206e6f7220617070726f76656420666f7220616c6c4552433732313a2062616c616e636520717565727920666f7220746865207a65726f20616464726573734552433732313a206f776e657220717565727920666f72206e6f6e6578697374656e7420746f6b656e456e756d657261626c654d61703a20696e646578206f7574206f6620626f756e64734552433732313a20617070726f76656420717565727920666f72206e6f6e6578697374656e7420746f6b656e4552433732313a207472616e73666572206f6620746f6b656e2074686174206973206e6f74206f776e4552433732314d657461646174613a2055524920717565727920666f72206e6f6e6578697374656e7420746f6b656e4552433732313a20617070726f76616c20746f2063757272656e74206f776e65724552433732313a207472616e736665722063616c6c6572206973206e6f74206f776e6572206e6f7220617070726f7665644552433732315072657365744d696e7465725061757365724175746f49643a206d7573742068617665206d696e74657220726f6c6520746f206d696e744552433732314275726e61626c653a2063616c6c6572206973206e6f74206f776e6572206e6f7220617070726f7665644552433732315072657365744d696e7465725061757365724175746f49643a206d75737420686176652070617573657220726f6c6520746f20756e7061757365416363657373436f6e74726f6c3a2063616e206f6e6c792072656e6f756e636520726f6c657320666f722073656c66a264697066735822122021fe73a106e3abcc1cecdbf303736cc90211b7e8907fc2d65c4615f2218429d864736f6c634300070500334552433136353a3a5f7265676973746572496e746572666163653a342053657420696d706c656d656e746174696f6e2073656c66207265706f7274206f6620696e746572666163652025732e4552433136353a3a636f6e7374727563746f723a3520496e7374616e746961746564204552433136352e4552433136353a3a636f6e7374727563746f723a322045524331363520696e746572666163652049443a20257301ffc9a7a5cef8baa21ed3c5c0d7e23accb804b619e9333b597f47a0d84076e24552433136353a3a5f7265676973746572496e746572666163653a3120436f6e6669726d696e6720696e746572666163652025732069732076616c69642045524331363520696e746572666163652049442e4552433136353a3a636f6e7374727563746f723a342052656769737465726564204552433136355f494e544552464143455f494420776974682073656c662e4552433136353a3a5f7265676973746572496e746572666163653a3220436f6e6669726d656420696e746572666163652025732069732076616c69642045524331363520696e746572666163652049442e4552433136353a3a636f6e7374727563746f723a33205265676973746572696e67204552433136355f494e544552464143455f494420776974682073656c662e4552433136353a3a5f7265676973746572496e746572666163653a332053657474696e6720696d706c656d656e746174696f6e2073656c66207265706f7274206f6620696e746572666163652025732e4552433136353a3a636f6e7374727563746f723a3120496e7374616e74696174696e67204552433136352e",
  "linkReferences": {},
  "deployedLinkReferences": {}
}