{
  "_format": "hh-sol-artifact-1",
  "contractName": "ERC185",
  "sourceName": "contracts/dependencies/holyzeppelin/contracts/token/ERC185/ERC185.sol",
  "abi": [
    {
      "inputs": [
        {
          "internalType": "string",
          "name": "name_",
          "type": "string"
        },
        {
          "internalType": "string",
          "name": "symbol_",
          "type": "string"
        },
        {
          "internalType": "uint8",
          "name": "decimals_",
          "type": "uint8"
        }
      ],
      "stateMutability": "nonpayable",
      "type": "constructor"
    },
    {
      "anonymous": false,
      "inputs": [
        {
          "indexed": true,
          "internalType": "address",
          "name": "owner",
          "type": "address"
        },
        {
          "indexed": true,
          "internalType": "address",
          "name": "spender",
          "type": "address"
        },
        {
          "indexed": false,
          "internalType": "uint256",
          "name": "value",
          "type": "uint256"
        }
      ],
      "name": "Approval",
      "type": "event"
    },
    {
      "anonymous": false,
      "inputs": [
        {
          "indexed": true,
          "internalType": "address",
          "name": "from",
          "type": "address"
        },
        {
          "indexed": true,
          "internalType": "address",
          "name": "to",
          "type": "address"
        },
        {
          "indexed": false,
          "internalType": "uint256",
          "name": "value",
          "type": "uint256"
        }
      ],
      "name": "Transfer",
      "type": "event"
    },
    {
      "inputs": [],
      "name": "ERC1820_ACCEPT_MAGIC",
      "outputs": [
        {
          "internalType": "bytes32",
          "name": "",
          "type": "bytes32"
        }
      ],
      "stateMutability": "view",
      "type": "function"
    },
    {
      "inputs": [],
      "name": "ERC1820_IMPLEMENTER_INTERFACE_ID",
      "outputs": [
        {
          "internalType": "bytes32",
          "name": "",
          "type": "bytes32"
        }
      ],
      "stateMutability": "view",
      "type": "function"
    },
    {
      "inputs": [
        {
          "internalType": "address",
          "name": "owner",
          "type": "address"
        },
        {
          "internalType": "address",
          "name": "spender",
          "type": "address"
        }
      ],
      "name": "allowance",
      "outputs": [
        {
          "internalType": "uint256",
          "name": "",
          "type": "uint256"
        }
      ],
      "stateMutability": "view",
      "type": "function"
    },
    {
      "inputs": [
        {
          "internalType": "address",
          "name": "spender",
          "type": "address"
        },
        {
          "internalType": "uint256",
          "name": "amount",
          "type": "uint256"
        }
      ],
      "name": "approve",
      "outputs": [
        {
          "internalType": "bool",
          "name": "",
          "type": "bool"
        }
      ],
      "stateMutability": "nonpayable",
      "type": "function"
    },
    {
      "inputs": [
        {
          "internalType": "address",
          "name": "account",
          "type": "address"
        }
      ],
      "name": "balanceOf",
      "outputs": [
        {
          "internalType": "uint256",
          "name": "",
          "type": "uint256"
        }
      ],
      "stateMutability": "view",
      "type": "function"
    },
    {
      "inputs": [
        {
          "internalType": "bytes32",
          "name": "interfaceHashQuery_",
          "type": "bytes32"
        },
        {
          "internalType": "address",
          "name": "account",
          "type": "address"
        }
      ],
      "name": "canImplementInterfaceForAddress",
      "outputs": [
        {
          "internalType": "bytes32",
          "name": "",
          "type": "bytes32"
        }
      ],
      "stateMutability": "view",
      "type": "function"
    },
    {
      "inputs": [],
      "name": "decimals",
      "outputs": [
        {
          "internalType": "uint8",
          "name": "",
          "type": "uint8"
        }
      ],
      "stateMutability": "view",
      "type": "function"
    },
    {
      "inputs": [
        {
          "internalType": "address",
          "name": "spender",
          "type": "address"
        },
        {
          "internalType": "uint256",
          "name": "subtractedValue",
          "type": "uint256"
        }
      ],
      "name": "decreaseAllowance",
      "outputs": [
        {
          "internalType": "bool",
          "name": "",
          "type": "bool"
        }
      ],
      "stateMutability": "nonpayable",
      "type": "function"
    },
    {
      "inputs": [
        {
          "internalType": "address",
          "name": "spender",
          "type": "address"
        },
        {
          "internalType": "uint256",
          "name": "addedValue",
          "type": "uint256"
        }
      ],
      "name": "increaseAllowance",
      "outputs": [
        {
          "internalType": "bool",
          "name": "",
          "type": "bool"
        }
      ],
      "stateMutability": "nonpayable",
      "type": "function"
    },
    {
      "inputs": [],
      "name": "name",
      "outputs": [
        {
          "internalType": "string",
          "name": "",
          "type": "string"
        }
      ],
      "stateMutability": "view",
      "type": "function"
    },
    {
      "inputs": [],
      "name": "symbol",
      "outputs": [
        {
          "internalType": "string",
          "name": "",
          "type": "string"
        }
      ],
      "stateMutability": "view",
      "type": "function"
    },
    {
      "inputs": [],
      "name": "totalSupply",
      "outputs": [
        {
          "internalType": "uint256",
          "name": "",
          "type": "uint256"
        }
      ],
      "stateMutability": "view",
      "type": "function"
    },
    {
      "inputs": [
        {
          "internalType": "address",
          "name": "recipient",
          "type": "address"
        },
        {
          "internalType": "uint256",
          "name": "amount",
          "type": "uint256"
        }
      ],
      "name": "transfer",
      "outputs": [
        {
          "internalType": "bool",
          "name": "",
          "type": "bool"
        }
      ],
      "stateMutability": "nonpayable",
      "type": "function"
    },
    {
      "inputs": [
        {
          "internalType": "address",
          "name": "sender",
          "type": "address"
        },
        {
          "internalType": "address",
          "name": "recipient",
          "type": "address"
        },
        {
          "internalType": "uint256",
          "name": "amount",
          "type": "uint256"
        }
      ],
      "name": "transferFrom",
      "outputs": [
        {
          "internalType": "bool",
          "name": "",
          "type": "bool"
        }
      ],
      "stateMutability": "nonpayable",
      "type": "function"
    }
  ],
  "bytecode": "0x60806040523480156200001157600080fd5b506040516200181c3803806200181c833981810160405260608110156200003757600080fd5b81019080805160405193929190846401000000008211156200005857600080fd5b9083019060208201858111156200006e57600080fd5b82516401000000008111828201881017156200008957600080fd5b82525081516020918201929091019080838360005b83811015620000b85781810151838201526020016200009e565b50505050905090810190601f168015620000e65780820380516001836020036101000a031916815260200191505b50604052602001805160405193929190846401000000008211156200010a57600080fd5b9083019060208201858111156200012057600080fd5b82516401000000008111828201881017156200013b57600080fd5b82525081516020918201929091019080838360005b838110156200016a57818101518382015260200162000150565b50505050905090810190601f168015620001985780820380516001836020036101000a031916815260200191505b5060405260200180519060200190929190505050828282620001de6040518060800160405280605b8152602001620016a3605b91396200032860201b620006d91760201c565b620002206040518060a00160405280606b815260200162001638606b91396000805160206200176683398151915260001c620003db60201b620007821760201c565b620002636040518060a0016040528060668152602001620015d2606691396000805160206200176683398151915260001c30620004a060201b6200083d1760201c565b6200027e600080516020620017668339815191523062000577565b620002ad6040518060800160405280605881526020016200157a605891396200032860201b620006d91760201c565b620002dc6040518060a0016040528060688152602001620016fe606891396200032860201b620006d91760201c565b8251620002f19060049060208601906200062a565b508151620003079060059060208501906200062a565b506006805460ff191660ff9290921691909117905550620006d69350505050565b620003d8816040516024018080602001828103825283818151815260200191508051906020019080838360005b838110156200036f57818101518382015260200162000355565b50505050905090810190601f1680156200039d5780820380516001836020036101000a031916815260200191505b5060408051601f198184030181529190526020810180516001600160e01b0390811663104c13eb60e21b179091529093506200060916915050565b50565b6200049c82826040516024018080602001836001600160a01b03168152602001828103825284818151815260200191508051906020019080838360005b838110156200043257818101518382015260200162000418565b50505050905090810190601f168015620004605780820380516001836020036101000a031916815260200191505b5060408051601f198184030181529190526020810180516001600160e01b0390811663319af33360e01b17909152909450620006091692505050565b5050565b620005728383836040516024018080602001846001600160a01b03168152602001836001600160a01b03168152602001828103825285818151815260200191508051906020019080838360005b8381101562000507578181015183820152602001620004ed565b50505050905090810190601f168015620005355780820380516001836020036101000a031916815260200191505b5060408051601f198184030181529190526020810180516001600160e01b039081166307e763af60e51b1790915290955062000609169350505050565b505050565b620005ab6040518060c001604052806096815260200162001786609691398360001c83620004a060201b6200083d1760201c565b6000828152602081815260408083206001600160a01b0385168452825291829020805460ff19166001179055815160c0810190925260968083526200049c929162001786908301398360001c83620004a060201b6200083d1760201c565b80516a636f6e736f6c652e6c6f67602083016000808483855afa5050505050565b828054600181600116156101000203166002900490600052602060002090601f016020900481019282620006625760008555620006ad565b82601f106200067d57805160ff1916838001178555620006ad565b82800160010185558215620006ad579182015b82811115620006ad57825182559160200191906001019062000690565b50620006bb929150620006bf565b5090565b5b80821115620006bb5760008155600101620006c0565b610e9480620006e66000396000f3fe608060405234801561001057600080fd5b50600436106100ea5760003560e01c806370a082311161008c578063a457c2d711610066578063a457c2d7146102a8578063a9059cbb146102d4578063dd62ed3e14610300578063ec38fa421461032e576100ea565b806370a082311461027257806395d89b4114610298578063a3cff9b5146102a0576100ea565b806323b872dd116100c857806323b872dd146101c6578063249cb3fa146101fc578063313ce567146102285780633950935114610246576100ea565b806306fdde03146100ef578063095ea7b31461016c57806318160ddd146101ac575b600080fd5b6100f7610336565b6040805160208082528351818301528351919283929083019185019080838360005b83811015610131578181015183820152602001610119565b50505050905090810190601f16801561015e5780820380516001836020036101000a031916815260200191505b509250505060405180910390f35b6101986004803603604081101561018257600080fd5b506001600160a01b0381351690602001356103cc565b604080519115158252519081900360200190f35b6101b46103e9565b60408051918252519081900360200190f35b610198600480360360608110156101dc57600080fd5b506001600160a01b038135811691602081013590911690604001356103ef565b6101b46004803603604081101561021257600080fd5b50803590602001356001600160a01b0316610476565b610230610517565b6040805160ff9092168252519081900360200190f35b6101986004803603604081101561025c57600080fd5b506001600160a01b038135169060200135610520565b6101b46004803603602081101561028857600080fd5b50356001600160a01b031661056e565b6100f7610589565b6101b46105ea565b610198600480360360408110156102be57600080fd5b506001600160a01b03813516906020013561060e565b610198600480360360408110156102ea57600080fd5b506001600160a01b038135169060200135610676565b6101b46004803603604081101561031657600080fd5b506001600160a01b038135811691602001351661068a565b6101b46106b5565b60048054604080516020601f60026000196101006001881615020190951694909404938401819004810282018101909252828152606093909290918301828280156103c25780601f10610397576101008083540402835291602001916103c2565b820191906000526020600020905b8154815290600101906020018083116103a557829003601f168201915b5050505050905090565b60006103e06103d961090a565b848461090e565b50600192915050565b60035490565b60006103fc8484846109fa565b61046c8461040861090a565b61046785604051806060016040528060288152602001610dc9602891396001600160a01b038a1660009081526002602052604081209061044661090a565b6001600160a01b031681526020810191909152604001600020549190610b57565b61090e565b5060019392505050565b600061049a6040518060a0016040528060788152602001610d516078913984610782565b6000838152602081815260408083206001600160a01b038616845290915281205460ff166104c95760006104eb565b7fa2ef4600d742022d532d4747cb3547474667d6f13804902513b2ec01c848f4b45b90506105106040518060a00160405280607c8152602001610cd5607c9139828661083d565b9392505050565b60065460ff1690565b60006103e061052d61090a565b84610467856002600061053e61090a565b6001600160a01b03908116825260208083019390935260409182016000908120918c168152925290205490610bee565b6001600160a01b031660009081526001602052604090205490565b60058054604080516020601f60026000196101006001881615020190951694909404938401819004810282018101909252828152606093909290918301828280156103c25780601f10610397576101008083540402835291602001916103c2565b7f470b4a2a26dde857b9ba255135703cf0ab5f7ca71341df27a8b3d9cc5cb4b47581565b60006103e061061b61090a565b8461046785604051806060016040528060258152602001610e3a602591396002600061064561090a565b6001600160a01b03908116825260208083019390935260409182016000908120918d16815292529020549190610b57565b60006103e061068361090a565b84846109fa565b6001600160a01b03918216600090815260026020908152604080832093909416825291909152205490565b7fa2ef4600d742022d532d4747cb3547474667d6f13804902513b2ec01c848f4b481565b61077f816040516024018080602001828103825283818151815260200191508051906020019080838360005b8381101561071d578181015183820152602001610705565b50505050905090810190601f16801561074a5780820380516001836020036101000a031916815260200191505b5060408051601f198184030181529190526020810180516001600160e01b031663104c13eb60e21b1790529250610c48915050565b50565b61083982826040516024018080602001836001600160a01b03168152602001828103825284818151815260200191508051906020019080838360005b838110156107d65781810151838201526020016107be565b50505050905090810190601f1680156108035780820380516001836020036101000a031916815260200191505b5060408051601f198184030181529190526020810180516001600160e01b031663319af33360e01b1790529350610c4892505050565b5050565b6109058383836040516024018080602001846001600160a01b03168152602001836001600160a01b03168152602001828103825285818151815260200191508051906020019080838360005b838110156108a1578181015183820152602001610889565b50505050905090810190601f1680156108ce5780820380516001836020036101000a031916815260200191505b5060408051601f198184030181529190526020810180516001600160e01b03166307e763af60e51b1790529450610c489350505050565b505050565b3390565b6001600160a01b0383166109535760405162461bcd60e51b8152600401808060200182810382526024815260200180610e166024913960400191505060405180910390fd5b6001600160a01b0382166109985760405162461bcd60e51b8152600401808060200182810382526022815260200180610c8d6022913960400191505060405180910390fd5b6001600160a01b03808416600081815260026020908152604080832094871680845294825291829020859055815185815291517f8c5be1e5ebec7d5bd14f71427d1e84f3dd0314c0f7b2291e5b200ac8c7c3b9259281900390910190a3505050565b6001600160a01b038316610a3f5760405162461bcd60e51b8152600401808060200182810382526025815260200180610df16025913960400191505060405180910390fd5b6001600160a01b038216610a845760405162461bcd60e51b8152600401808060200182810382526023815260200180610c6a6023913960400191505060405180910390fd5b610a8f838383610905565b610acc81604051806060016040528060268152602001610caf602691396001600160a01b0386166000908152600160205260409020549190610b57565b6001600160a01b038085166000908152600160205260408082209390935590841681522054610afb9082610bee565b6001600160a01b0380841660008181526001602090815260409182902094909455805185815290519193928716927fddf252ad1be2c89b69c2b068fc378daa952ba7f163c4a11628f55a4df523b3ef92918290030190a3505050565b60008184841115610be65760405162461bcd60e51b81526004018080602001828103825283818151815260200191508051906020019080838360005b83811015610bab578181015183820152602001610b93565b50505050905090810190601f168015610bd85780820380516001836020036101000a031916815260200191505b509250505060405180910390fd5b505050900390565b600082820183811015610510576040805162461bcd60e51b815260206004820152601b60248201527f536166654d6174683a206164646974696f6e206f766572666c6f770000000000604482015290519081900360640190fd5b80516a636f6e736f6c652e6c6f67602083016000808483855afa505050505056fe45524332303a207472616e7366657220746f20746865207a65726f206164647265737345524332303a20617070726f766520746f20746865207a65726f206164647265737345524332303a207472616e7366657220616d6f756e7420657863656564732062616c616e6365436f6e74726163743a3a686f6c797a657070656c696e3a3a45524331383230496d706c656d656e7465723a3a63616e496d706c656d656e74496e74657266616365466f72416464726573733a322052657475726e696e672025732074686174207468697320636f6e747261637420696d70656c6d656e74732025732e436f6e74726163743a3a686f6c797a657070656c696e3a3a45524331383230496d706c656d656e7465723a3a63616e496d706c656d656e74496e74657266616365466f72416464726573733a3120436865636b696e672074686174207468697320636f6e747261637420696d70656c6d656e74732025732e45524332303a207472616e7366657220616d6f756e74206578636565647320616c6c6f77616e636545524332303a207472616e736665722066726f6d20746865207a65726f206164647265737345524332303a20617070726f76652066726f6d20746865207a65726f206164647265737345524332303a2064656372656173656420616c6c6f77616e63652062656c6f77207a65726fa2646970667358221220da26d090af35ac1e4ebe3047bfba9baac201170e1528458ce4d6154cf06ce0c864736f6c63430007050033436f6e74726163743a3a686f6c797a657070656c696e3a3a45524331383230496d706c656d656e7465723a3a636f6e7374727563746f723a3420526567697374657265642045524331383230496d706c656d656e7465722e436f6e74726163743a3a686f6c797a657070656c696e3a3a45524331383230496d706c656d656e7465723a3a636f6e7374727563746f723a33205265676973746572696e672045524331383230496d706c656d656e746572206f6620257320666f722025732e436f6e74726163743a3a686f6c797a657070656c696e3a3a45524331383230496d706c656d656e7465723a3a636f6e7374727563746f723a3220455243313832305f494d504c454d454e5445525f494e544552464143455f494420696e746572666163652049443a202573436f6e74726163743a3a686f6c797a657070656c696e3a3a45524331383230496d706c656d656e7465723a3a636f6e7374727563746f723a3120496e7374616e74696174696e672045524331383230496d706c656d656e7465722e436f6e74726163743a3a686f6c797a657070656c696e3a3a45524331383230496d706c656d656e7465723a3a636f6e7374727563746f723a3520496e7374616e74696174656420455243313832305f494d504c454d454e5445525f494e544552464143455f49442e470b4a2a26dde857b9ba255135703cf0ab5f7ca71341df27a8b3d9cc5cb4b475436f6e74726163743a3a686f6c797a657070656c696e3a3a45524331383230496d706c656d656e7465723a3a5f7265676973746572496e74657266616365466f72416464726573733a312053656c66207265676973746572696e672074686174207468697320636f6e747261637420696d706c656d656e747320696e7465726661636520257320666f7220616464726573732025732e",
  "linkReferences": {},
  "deployedLinkReferences": {}
}