{
  "_format": "hh-sol-artifact-1",
  "contractName": "ERC20PermitMock",
  "sourceName": "contracts/dependencies/holyzeppelin/contracts/token/ERC20/EIP2612/mock/ERC20PermitMock.sol",
  "abi": [
    {
      "inputs": [
        {
          "internalType": "uint256",
          "name": "initialSupply",
          "type": "uint256"
        }
      ],
      "stateMutability": "nonpayable",
      "type": "constructor"
    },
    {
      "anonymous": false,
      "inputs": [
        {
          "indexed": true,
          "internalType": "address",
          "name": "owner",
          "type": "address"
        },
        {
          "indexed": true,
          "internalType": "address",
          "name": "spender",
          "type": "address"
        },
        {
          "indexed": false,
          "internalType": "uint256",
          "name": "value",
          "type": "uint256"
        }
      ],
      "name": "Approval",
      "type": "event"
    },
    {
      "anonymous": false,
      "inputs": [
        {
          "indexed": true,
          "internalType": "address",
          "name": "from",
          "type": "address"
        },
        {
          "indexed": true,
          "internalType": "address",
          "name": "to",
          "type": "address"
        },
        {
          "indexed": false,
          "internalType": "uint256",
          "name": "value",
          "type": "uint256"
        }
      ],
      "name": "Transfer",
      "type": "event"
    },
    {
      "inputs": [],
      "name": "ERC1820_ACCEPT_MAGIC",
      "outputs": [
        {
          "internalType": "bytes32",
          "name": "",
          "type": "bytes32"
        }
      ],
      "stateMutability": "view",
      "type": "function"
    },
    {
      "inputs": [],
      "name": "ERC1820_IMPLEMENTER_INTERFACE_ID",
      "outputs": [
        {
          "internalType": "bytes32",
          "name": "",
          "type": "bytes32"
        }
      ],
      "stateMutability": "view",
      "type": "function"
    },
    {
      "inputs": [
        {
          "internalType": "address",
          "name": "owner",
          "type": "address"
        },
        {
          "internalType": "address",
          "name": "spender",
          "type": "address"
        }
      ],
      "name": "allowance",
      "outputs": [
        {
          "internalType": "uint256",
          "name": "",
          "type": "uint256"
        }
      ],
      "stateMutability": "view",
      "type": "function"
    },
    {
      "inputs": [
        {
          "internalType": "address",
          "name": "spender",
          "type": "address"
        },
        {
          "internalType": "uint256",
          "name": "amount",
          "type": "uint256"
        }
      ],
      "name": "approve",
      "outputs": [
        {
          "internalType": "bool",
          "name": "",
          "type": "bool"
        }
      ],
      "stateMutability": "nonpayable",
      "type": "function"
    },
    {
      "inputs": [
        {
          "internalType": "address",
          "name": "account",
          "type": "address"
        }
      ],
      "name": "balanceOf",
      "outputs": [
        {
          "internalType": "uint256",
          "name": "",
          "type": "uint256"
        }
      ],
      "stateMutability": "view",
      "type": "function"
    },
    {
      "inputs": [
        {
          "internalType": "bytes32",
          "name": "interfaceHashQuery_",
          "type": "bytes32"
        },
        {
          "internalType": "address",
          "name": "account",
          "type": "address"
        }
      ],
      "name": "canImplementInterfaceForAddress",
      "outputs": [
        {
          "internalType": "bytes32",
          "name": "",
          "type": "bytes32"
        }
      ],
      "stateMutability": "view",
      "type": "function"
    },
    {
      "inputs": [],
      "name": "decimals",
      "outputs": [
        {
          "internalType": "uint8",
          "name": "",
          "type": "uint8"
        }
      ],
      "stateMutability": "view",
      "type": "function"
    },
    {
      "inputs": [
        {
          "internalType": "address",
          "name": "spender",
          "type": "address"
        },
        {
          "internalType": "uint256",
          "name": "subtractedValue",
          "type": "uint256"
        }
      ],
      "name": "decreaseAllowance",
      "outputs": [
        {
          "internalType": "bool",
          "name": "",
          "type": "bool"
        }
      ],
      "stateMutability": "nonpayable",
      "type": "function"
    },
    {
      "inputs": [
        {
          "internalType": "uint256",
          "name": "",
          "type": "uint256"
        }
      ],
      "name": "domainSeparators",
      "outputs": [
        {
          "internalType": "bytes32",
          "name": "",
          "type": "bytes32"
        }
      ],
      "stateMutability": "view",
      "type": "function"
    },
    {
      "inputs": [
        {
          "internalType": "address",
          "name": "spender",
          "type": "address"
        },
        {
          "internalType": "uint256",
          "name": "addedValue",
          "type": "uint256"
        }
      ],
      "name": "increaseAllowance",
      "outputs": [
        {
          "internalType": "bool",
          "name": "",
          "type": "bool"
        }
      ],
      "stateMutability": "nonpayable",
      "type": "function"
    },
    {
      "inputs": [],
      "name": "name",
      "outputs": [
        {
          "internalType": "string",
          "name": "",
          "type": "string"
        }
      ],
      "stateMutability": "view",
      "type": "function"
    },
    {
      "inputs": [
        {
          "internalType": "address",
          "name": "owner",
          "type": "address"
        }
      ],
      "name": "nonces",
      "outputs": [
        {
          "internalType": "uint256",
          "name": "",
          "type": "uint256"
        }
      ],
      "stateMutability": "view",
      "type": "function"
    },
    {
      "inputs": [
        {
          "internalType": "address",
          "name": "owner",
          "type": "address"
        },
        {
          "internalType": "address",
          "name": "spender",
          "type": "address"
        },
        {
          "internalType": "uint256",
          "name": "amount",
          "type": "uint256"
        },
        {
          "internalType": "uint256",
          "name": "deadline",
          "type": "uint256"
        },
        {
          "internalType": "uint8",
          "name": "v",
          "type": "uint8"
        },
        {
          "internalType": "bytes32",
          "name": "r",
          "type": "bytes32"
        },
        {
          "internalType": "bytes32",
          "name": "s",
          "type": "bytes32"
        }
      ],
      "name": "permit",
      "outputs": [],
      "stateMutability": "nonpayable",
      "type": "function"
    },
    {
      "inputs": [],
      "name": "symbol",
      "outputs": [
        {
          "internalType": "string",
          "name": "",
          "type": "string"
        }
      ],
      "stateMutability": "view",
      "type": "function"
    },
    {
      "inputs": [],
      "name": "totalSupply",
      "outputs": [
        {
          "internalType": "uint256",
          "name": "",
          "type": "uint256"
        }
      ],
      "stateMutability": "view",
      "type": "function"
    },
    {
      "inputs": [
        {
          "internalType": "address",
          "name": "recipient",
          "type": "address"
        },
        {
          "internalType": "uint256",
          "name": "amount",
          "type": "uint256"
        }
      ],
      "name": "transfer",
      "outputs": [
        {
          "internalType": "bool",
          "name": "",
          "type": "bool"
        }
      ],
      "stateMutability": "nonpayable",
      "type": "function"
    },
    {
      "inputs": [
        {
          "internalType": "address",
          "name": "sender",
          "type": "address"
        },
        {
          "internalType": "address",
          "name": "recipient",
          "type": "address"
        },
        {
          "internalType": "uint256",
          "name": "amount",
          "type": "uint256"
        }
      ],
      "name": "transferFrom",
      "outputs": [
        {
          "internalType": "bool",
          "name": "",
          "type": "bool"
        }
      ],
      "stateMutability": "nonpayable",
      "type": "function"
    }
  ],
  "bytecode": "0x60806040523480156200001157600080fd5b50604051620029dc380380620029dc833981810160405260208110156200003757600080fd5b5051604080518082018252601181527022a92199182832b936b4ba16aa37b5b2b760791b60208281019190915282518084018452600381526211541560ea1b81830152835160808101909452605b80855292939092601292620000af92919062002753908301396200020e60201b620009691760201c565b620000f16040518060a00160405280606b8152602001620026e8606b9139600080516020620028fd83398151915260001c620002c160201b62000a121760201c565b620001346040518060a00160405280606681526020016200268260669139600080516020620028fd83398151915260001c306200038660201b62000acd1760201c565b6200014f600080516020620028fd833981519152306200045d565b6200017e60405180608001604052806058815260200162002545605891396200020e60201b620009691760201c565b620001ad6040518060a00160405280606881526020016200286f606891396200020e60201b620009691760201c565b8251620001c290600490602086019062000db9565b508151620001d890600590602085019062000db9565b506006805460ff191660ff9290921691909117905550620001fa9050620004ef565b50620002073382620005bf565b5062000e65565b620002be816040516024018080602001828103825283818151815260200191508051906020019080838360005b83811015620002555781810151838201526020016200023b565b50505050905090810190601f168015620002835780820380516001836020036101000a031916815260200191505b5060408051601f198184030181529190526020810180516001600160e01b0390811663104c13eb60e21b17909152909350620009de16915050565b50565b6200038282826040516024018080602001836001600160a01b03168152602001828103825284818151815260200191508051906020019080838360005b8381101562000318578181015183820152602001620002fe565b50505050905090810190601f168015620003465780820380516001836020036101000a031916815260200191505b5060408051601f198184030181529190526020810180516001600160e01b0390811663319af33360e01b17909152909450620009de1692505050565b5050565b620004588383836040516024018080602001846001600160a01b03168152602001836001600160a01b03168152602001828103825285818151815260200191508051906020019080838360005b83811015620003ed578181015183820152602001620003d3565b50505050905090810190601f1680156200041b5780820380516001836020036101000a031916815260200191505b5060408051601f198184030181529190526020810180516001600160e01b039081166307e763af60e51b17909152909550620009de169350505050565b505050565b620004916040518060c00160405280609681526020016200291d609691398360001c836200038660201b62000acd1760201c565b6000828152602081815260408083206001600160a01b0385168452825291829020805460ff19166001179055815160c0810190925260968083526200038292916200291d908301398360001c836200038660201b62000acd1760201c565b600080620004fc620009ff565b905060007f8b73c3c69bb8fe3d512ecc4cf759cc79239f7b179b0ffacaa9a75d522b39400f6200052b62000a03565b805160209182012060408051808201825260018152603160f81b90840152805180840194909452838101919091527fc89efdaa54c0f20c7adf612882df0950f5a951637e0307cdcb4c672f298b8bc66060840152608083018590523060a0808501919091528151808503909101815260c0909301815282519282019290922060009485526008909152922082905550905090565b620006836040518060600160405280602a815260200162002805602a913960058054604080516020601f600260001961010060018816150201909516949094049384018190048102820181019092528281528693909290918301828280156200066c5780601f1062000640576101008083540402835291602001916200066c565b820191906000526020600020905b8154815290600101906020018083116200064e57829003601f168201915b50505050508562000a9d60201b62000b9a1760201c565b620006b2604051806080016040528060418152602001620025f2604191396200020e60201b620009691760201c565b6001600160a01b0382166200070e576040805162461bcd60e51b815260206004820152601f60248201527f45524332303a206d696e7420746f20746865207a65726f206164647265737300604482015290519081900360640190fd5b6200073d6040518060600160405280604081526020016200282f604091396200020e60201b620009691760201c565b6200076c6040518060600160405280602c8152602001620027d9602c91396200020e60201b620009691760201c565b6200077930838362000458565b620007a86040518060600160405280602b8152602001620027ae602b91396200020e60201b620009691760201c565b620007d8604051806060016040528060298152602001620029b3602991398262000bd660201b62000cc61760201c565b620007f48160035462000c8e60201b62000d741790919060201c565b6003819055506200082c604051806060016040528060228152602001620025d06022913960035462000bd660201b62000cc61760201c565b6200085e604051806060016040528060278152602001620026336027913960035462000bd660201b62000cc61760201c565b6200088f6040518060600160405280603381526020016200251260339139828462000cf060201b62000dce1760201c565b6001600160a01b038216600090815260016020908152604090912054620008c191839062000d7462000c8e821b17901c565b60016000846001600160a01b03166001600160a01b0316815260200190815260200160002081905550620009406040518060600160405280603381526020016200259d6033913960016000856001600160a01b03166001600160a01b03168152602001908152602001600020548462000cf060201b62000dce1760201c565b6200096f6040518060600160405280602881526020016200265a602891396200020e60201b620009691760201c565b6040805182815290516001600160a01b0384169130917fddf252ad1be2c89b69c2b068fc378daa952ba7f163c4a11628f55a4df523b3ef9181900360200190a362000382604051806060016040528060268152602001620028d7602691396200020e60201b620009691760201c565b80516a636f6e736f6c652e6c6f67602083016000808483855afa5050505050565b4690565b60048054604080516020601f600260001961010060018816150201909516949094049384018190048102820181019092528281526060939092909183018282801562000a935780601f1062000a675761010080835404028352916020019162000a93565b820191906000526020600020905b81548152906001019060200180831162000a7557829003601f168201915b5050505050905090565b62000bd084848484604051602401808060200185815260200180602001846001600160a01b03168152602001838103835287818151815260200191508051906020019080838360005b8381101562000b0057818101518382015260200162000ae6565b50505050905090810190601f16801562000b2e5780820380516001836020036101000a031916815260200191505b50838103825285518152855160209182019187019080838360005b8381101562000b6357818101518382015260200162000b49565b50505050905090810190601f16801562000b915780820380516001836020036101000a031916815260200191505b5060408051601f198184030181529190526020810180516001600160e01b0390811663bb7235e960e01b17909152909750620009de1695505050505050565b50505050565b6200038282826040516024018080602001838152602001828103825284818151815260200191508051906020019080838360005b8381101562000c2457818101518382015260200162000c0a565b50505050905090810190601f16801562000c525780820380516001836020036101000a031916815260200191505b5060408051601f198184030181529190526020810180516001600160e01b039081166309710a9d60e41b17909152909450620009de1692505050565b60008282018381101562000ce9576040805162461bcd60e51b815260206004820152601b60248201527f536166654d6174683a206164646974696f6e206f766572666c6f770000000000604482015290519081900360640190fd5b9392505050565b620004588383836040516024018080602001848152602001836001600160a01b03168152602001828103825285818151815260200191508051906020019080838360005b8381101562000d4e57818101518382015260200162000d34565b50505050905090810190601f16801562000d7c5780820380516001836020036101000a031916815260200191505b5060408051601f198184030181529190526020810180516001600160e01b0390811663e3849f7960e01b17909152909550620009de169350505050565b828054600181600116156101000203166002900490600052602060002090601f01602090048101928262000df1576000855562000e3c565b82601f1062000e0c57805160ff191683800117855562000e3c565b8280016001018555821562000e3c579182015b8281111562000e3c57825182559160200191906001019062000e1f565b5062000e4a92915062000e4e565b5090565b5b8082111562000e4a576000815560010162000e4f565b61169d8062000e756000396000f3fe608060405234801561001057600080fd5b506004361061010b5760003560e01c80637ecebe00116100a2578063a457c2d711610071578063a457c2d71461030c578063a9059cbb14610338578063d505accf14610364578063dd62ed3e146103b7578063ec38fa42146103e55761010b565b80637ecebe00146102b957806395d89b41146102df57806399740a18146102e7578063a3cff9b5146103045761010b565b8063249cb3fa116100de578063249cb3fa1461021d578063313ce56714610249578063395093511461026757806370a08231146102935761010b565b806306fdde0314610110578063095ea7b31461018d57806318160ddd146101cd57806323b872dd146101e7575b600080fd5b6101186103ed565b6040805160208082528351818301528351919283929083019185019080838360005b8381101561015257818101518382015260200161013a565b50505050905090810190601f16801561017f5780820380516001836020036101000a031916815260200191505b509250505060405180910390f35b6101b9600480360360408110156101a357600080fd5b506001600160a01b038135169060200135610484565b604080519115158252519081900360200190f35b6101d56104a1565b60408051918252519081900360200190f35b6101b9600480360360608110156101fd57600080fd5b506001600160a01b038135811691602081013590911690604001356104a7565b6101d56004803603604081101561023357600080fd5b50803590602001356001600160a01b031661052e565b6102516105cf565b6040805160ff9092168252519081900360200190f35b6101b96004803603604081101561027d57600080fd5b506001600160a01b0381351690602001356105d8565b6101d5600480360360208110156102a957600080fd5b50356001600160a01b0316610626565b6101d5600480360360208110156102cf57600080fd5b50356001600160a01b0316610641565b610118610668565b6101d5600480360360208110156102fd57600080fd5b50356106c9565b6101d56106db565b6101b96004803603604081101561032257600080fd5b506001600160a01b0381351690602001356106ff565b6101b96004803603604081101561034e57600080fd5b506001600160a01b038135169060200135610767565b6103b5600480360360e081101561037a57600080fd5b506001600160a01b03813581169160208101359091169060408101359060608101359060ff6080820135169060a08101359060c0013561077b565b005b6101d5600480360360408110156103cd57600080fd5b506001600160a01b038135811691602001351661091a565b6101d5610945565b60048054604080516020601f60026000196101006001881615020190951694909404938401819004810282018101909252828152606093909290918301828280156104795780601f1061044e57610100808354040283529160200191610479565b820191906000526020600020905b81548152906001019060200180831161045c57829003601f168201915b505050505090505b90565b6000610498610491610e8d565b8484610e91565b50600192915050565b60035490565b60006104b4848484610f7d565b610524846104c0610e8d565b61051f856040518060600160405280602881526020016115d2602891396001600160a01b038a166000908152600260205260408120906104fe610e8d565b6001600160a01b0316815260208101919091526040016000205491906110da565b610e91565b5060019392505050565b60006105526040518060a001604052806078815260200161155a6078913984610a12565b6000838152602081815260408083206001600160a01b038616845290915281205460ff166105815760006105a3565b7fa2ef4600d742022d532d4747cb3547474667d6f13804902513b2ec01c848f4b45b90506105c86040518060a00160405280607c81526020016114bc607c91398286610acd565b9392505050565b60065460ff1690565b60006104986105e5610e8d565b8461051f85600260006105f6610e8d565b6001600160a01b03908116825260208083019390935260409182016000908120918c168152925290205490610d74565b6001600160a01b031660009081526001602052604090205490565b6001600160a01b038116600090815260076020526040812061066290611171565b92915050565b60058054604080516020601f60026000196101006001881615020190951694909404938401819004810282018101909252828152606093909290918301828280156104795780601f1061044e57610100808354040283529160200191610479565b60086020526000908152604090205481565b7f470b4a2a26dde857b9ba255135703cf0ab5f7ca71341df27a8b3d9cc5cb4b47581565b600061049861070c610e8d565b8461051f856040518060600160405280602581526020016116436025913960026000610736610e8d565b6001600160a01b03908116825260208083019390935260409182016000908120918d168152925290205491906110da565b6000610498610774610e8d565b8484610f7d565b834211156107d0576040805162461bcd60e51b815260206004820152601d60248201527f45524332305065726d69743a206578706972656420646561646c696e65000000604482015290519081900360640190fd5b6001600160a01b038716600090815260076020526040812081906107f390611171565b90506040517f6e71edae12b1b97f4d1f60370fef10105fa2faae0126114a169c64845d6126c981528960208201528860408201528760608201528160808201528660a082015260c08120925050600061084a611175565b60405161190160f01b81526002810182905260228101859052604290209091506000610878828989896111b2565b90508b6001600160a01b0316816001600160a01b0316146108e0576040805162461bcd60e51b815260206004820152601e60248201527f45524332305065726d69743a20696e76616c6964207369676e61747572650000604482015290519081900360640190fd5b6001600160a01b038c16600090815260076020526040902061090190611334565b61090c8c8c8c610e91565b505050505050505050505050565b6001600160a01b03918216600090815260026020908152604080832093909416825291909152205490565b7fa2ef4600d742022d532d4747cb3547474667d6f13804902513b2ec01c848f4b481565b610a0f816040516024018080602001828103825283818151815260200191508051906020019080838360005b838110156109ad578181015183820152602001610995565b50505050905090810190601f1680156109da5780820380516001836020036101000a031916815260200191505b5060408051601f198184030181529190526020810180516001600160e01b031663104c13eb60e21b179052925061133d915050565b50565b610ac982826040516024018080602001836001600160a01b03168152602001828103825284818151815260200191508051906020019080838360005b83811015610a66578181015183820152602001610a4e565b50505050905090810190601f168015610a935780820380516001836020036101000a031916815260200191505b5060408051601f198184030181529190526020810180516001600160e01b031663319af33360e01b179052935061133d92505050565b5050565b610b958383836040516024018080602001846001600160a01b03168152602001836001600160a01b03168152602001828103825285818151815260200191508051906020019080838360005b83811015610b31578181015183820152602001610b19565b50505050905090810190601f168015610b5e5780820380516001836020036101000a031916815260200191505b5060408051601f198184030181529190526020810180516001600160e01b03166307e763af60e51b179052945061133d9350505050565b505050565b610cc084848484604051602401808060200185815260200180602001846001600160a01b03168152602001838103835287818151815260200191508051906020019080838360005b83811015610bfa578181015183820152602001610be2565b50505050905090810190601f168015610c275780820380516001836020036101000a031916815260200191505b50838103825285518152855160209182019187019080838360005b83811015610c5a578181015183820152602001610c42565b50505050905090810190601f168015610c875780820380516001836020036101000a031916815260200191505b5060408051601f198184030181529190526020810180516001600160e01b031663bb7235e960e01b179052965061133d95505050505050565b50505050565b610ac982826040516024018080602001838152602001828103825284818151815260200191508051906020019080838360005b83811015610d11578181015183820152602001610cf9565b50505050905090810190601f168015610d3e5780820380516001836020036101000a031916815260200191505b5060408051601f198184030181529190526020810180516001600160e01b03166309710a9d60e41b179052935061133d92505050565b6000828201838110156105c8576040805162461bcd60e51b815260206004820152601b60248201527f536166654d6174683a206164646974696f6e206f766572666c6f770000000000604482015290519081900360640190fd5b610b958383836040516024018080602001848152602001836001600160a01b03168152602001828103825285818151815260200191508051906020019080838360005b83811015610e29578181015183820152602001610e11565b50505050905090810190601f168015610e565780820380516001836020036101000a031916815260200191505b5060408051601f198184030181529190526020810180516001600160e01b031663e3849f7960e01b179052945061133d9350505050565b3390565b6001600160a01b038316610ed65760405162461bcd60e51b815260040180806020018281038252602481526020018061161f6024913960400191505060405180910390fd5b6001600160a01b038216610f1b5760405162461bcd60e51b81526004018080602001828103825260228152602001806114526022913960400191505060405180910390fd5b6001600160a01b03808416600081815260026020908152604080832094871680845294825291829020859055815185815291517f8c5be1e5ebec7d5bd14f71427d1e84f3dd0314c0f7b2291e5b200ac8c7c3b9259281900390910190a3505050565b6001600160a01b038316610fc25760405162461bcd60e51b81526004018080602001828103825260258152602001806115fa6025913960400191505060405180910390fd5b6001600160a01b0382166110075760405162461bcd60e51b815260040180806020018281038252602381526020018061142f6023913960400191505060405180910390fd5b611012838383610b95565b61104f81604051806060016040528060268152602001611474602691396001600160a01b03861660009081526001602052604090205491906110da565b6001600160a01b03808516600090815260016020526040808220939093559084168152205461107e9082610d74565b6001600160a01b0380841660008181526001602090815260409182902094909455805185815290519193928716927fddf252ad1be2c89b69c2b068fc378daa952ba7f163c4a11628f55a4df523b3ef92918290030190a3505050565b600081848411156111695760405162461bcd60e51b81526004018080602001828103825283818151815260200191508051906020019080838360005b8381101561112e578181015183820152602001611116565b50505050905090810190601f16801561115b5780820380516001836020036101000a031916815260200191505b509250505060405180910390fd5b505050900390565b5490565b6000806008600061118461135e565b8152602081019190915260400160002054905080156111a4579050610481565b6111ac611362565b91505090565b60007f7fffffffffffffffffffffffffffffff5d576e7357a4501ddfe92f46681b20a08211156112135760405162461bcd60e51b815260040180806020018281038252602281526020018061149a6022913960400191505060405180910390fd5b8360ff16601b1415801561122b57508360ff16601c14155b156112675760405162461bcd60e51b81526004018080602001828103825260228152602001806115386022913960400191505060405180910390fd5b600060018686868660405160008152602001604052604051808581526020018460ff1681526020018381526020018281526020019450505050506020604051602081039080840390855afa1580156112c3573d6000803e3d6000fd5b5050604051601f1901519150506001600160a01b03811661132b576040805162461bcd60e51b815260206004820152601860248201527f45434453413a20696e76616c6964207369676e61747572650000000000000000604482015290519081900360640190fd5b95945050505050565b80546001019055565b80516a636f6e736f6c652e6c6f67602083016000808483855afa5050505050565b4690565b60008061136d61135e565b905060007f8b73c3c69bb8fe3d512ecc4cf759cc79239f7b179b0ffacaa9a75d522b39400f61139a6103ed565b805160209182012060408051808201825260018152603160f81b90840152805180840194909452838101919091527fc89efdaa54c0f20c7adf612882df0950f5a951637e0307cdcb4c672f298b8bc66060840152608083018590523060a0808501919091528151808503909101815260c090930181528251928201929092206000948552600890915292208290555090509056fe45524332303a207472616e7366657220746f20746865207a65726f206164647265737345524332303a20617070726f766520746f20746865207a65726f206164647265737345524332303a207472616e7366657220616d6f756e7420657863656564732062616c616e636545434453413a20696e76616c6964207369676e6174757265202773272076616c7565436f6e74726163743a3a686f6c797a657070656c696e3a3a45524331383230496d706c656d656e7465723a3a63616e496d706c656d656e74496e74657266616365466f72416464726573733a322052657475726e696e672025732074686174207468697320636f6e747261637420696d70656c6d656e74732025732e45434453413a20696e76616c6964207369676e6174757265202776272076616c7565436f6e74726163743a3a686f6c797a657070656c696e3a3a45524331383230496d706c656d656e7465723a3a63616e496d706c656d656e74496e74657266616365466f72416464726573733a3120436865636b696e672074686174207468697320636f6e747261637420696d70656c6d656e74732025732e45524332303a207472616e7366657220616d6f756e74206578636565647320616c6c6f77616e636545524332303a207472616e736665722066726f6d20746865207a65726f206164647265737345524332303a20617070726f76652066726f6d20746865207a65726f206164647265737345524332303a2064656372656173656420616c6c6f77616e63652062656c6f77207a65726fa2646970667358221220e06df6f4dd56eb614a205d27c36ff1c424053d46afbf91f0a6d4912ea834b84e64736f6c6343000705003345524332303a3a5f6d696e743a3920416464696e6720257320746f2062616c616e636520666f7220616464726573732025732e436f6e74726163743a3a686f6c797a657070656c696e3a3a45524331383230496d706c656d656e7465723a3a636f6e7374727563746f723a3420526567697374657265642045524331383230496d706c656d656e7465722e45524332303a3a5f6d696e743a313020416464656420257320746f2062616c616e636520666f7220616464726573732025732e45524332303a3a5f6d696e743a37205f746f74616c537570706c792069732025732e45524332303a3a5f6d696e743a3220436f6e6669726d696e672074686174206d696e74696e6720726563697069656e742069736e2774206164647265737320302e45524332303a3a5f6d696e743a3820416464656420257320746f20746f74616c537570706c792e45524332303a3a5f6d696e743a313120456d697474696e67205472616e73666572206576656e742e436f6e74726163743a3a686f6c797a657070656c696e3a3a45524331383230496d706c656d656e7465723a3a636f6e7374727563746f723a33205265676973746572696e672045524331383230496d706c656d656e746572206f6620257320666f722025732e436f6e74726163743a3a686f6c797a657070656c696e3a3a45524331383230496d706c656d656e7465723a3a636f6e7374727563746f723a3220455243313832305f494d504c454d454e5445525f494e544552464143455f494420696e746572666163652049443a202573436f6e74726163743a3a686f6c797a657070656c696e3a3a45524331383230496d706c656d656e7465723a3a636f6e7374727563746f723a3120496e7374616e74696174696e672045524331383230496d706c656d656e7465722e45524332303a3a5f6d696e743a352043616c6c6564205f6265666f7265546f6b656e5472616e736665722e45524332303a3a5f6d696e743a342043616c6c696e67205f6265666f7265546f6b656e5472616e736665722e45524332303a3a5f6d696e743a31204d696e74696e6720257320257320746f6b656e7320746f2025732e45524332303a3a5f6d696e743a3320436f6e6669726d65642074686174206d696e74696e6720726563697069656e742069736e2774206164647265737320302e436f6e74726163743a3a686f6c797a657070656c696e3a3a45524331383230496d706c656d656e7465723a3a636f6e7374727563746f723a3520496e7374616e74696174656420455243313832305f494d504c454d454e5445525f494e544552464143455f49442e45524332303a3a5f6d696e743a313220456d69746564205472616e73666572206576656e742e470b4a2a26dde857b9ba255135703cf0ab5f7ca71341df27a8b3d9cc5cb4b475436f6e74726163743a3a686f6c797a657070656c696e3a3a45524331383230496d706c656d656e7465723a3a5f7265676973746572496e74657266616365466f72416464726573733a312053656c66207265676973746572696e672074686174207468697320636f6e747261637420696d706c656d656e747320696e7465726661636520257320666f7220616464726573732025732e45524332303a3a5f6d696e743a3620416464696e6720257320746f205f746f74616c537570706c792e",
  "linkReferences": {},
  "deployedLinkReferences": {}
}