{
  "contracts/dependencies/authorization-platform/contracts/dependencies/holyzeppelin/test/token/ERC20/examples/chi/contracts/TestHelper.sol": {
    "TestHelper": {
      "abi": [
        {
          "inputs": [
            {
              "internalType": "uint256",
              "name": "burn",
              "type": "uint256"
            }
          ],
          "name": "burnGas",
          "outputs": [],
          "stateMutability": "nonpayable",
          "type": "function"
        },
        {
          "inputs": [
            {
              "internalType": "address",
              "name": "gas_token",
              "type": "address"
            },
            {
              "internalType": "uint256",
              "name": "burn",
              "type": "uint256"
            },
            {
              "internalType": "uint256",
              "name": "free",
              "type": "uint256"
            }
          ],
          "name": "burnGasAndFree",
          "outputs": [],
          "stateMutability": "nonpayable",
          "type": "function"
        },
        {
          "inputs": [
            {
              "internalType": "address",
              "name": "gas_token",
              "type": "address"
            },
            {
              "internalType": "uint256",
              "name": "burn",
              "type": "uint256"
            },
            {
              "internalType": "uint256",
              "name": "free",
              "type": "uint256"
            }
          ],
          "name": "burnGasAndFreeFrom",
          "outputs": [],
          "stateMutability": "nonpayable",
          "type": "function"
        },
        {
          "inputs": [
            {
              "internalType": "address",
              "name": "gas_token",
              "type": "address"
            },
            {
              "internalType": "uint256",
              "name": "burn",
              "type": "uint256"
            },
            {
              "internalType": "uint256",
              "name": "free",
              "type": "uint256"
            }
          ],
          "name": "burnGasAndFreeFromUpTo",
          "outputs": [],
          "stateMutability": "nonpayable",
          "type": "function"
        },
        {
          "inputs": [
            {
              "internalType": "address",
              "name": "gas_token",
              "type": "address"
            },
            {
              "internalType": "uint256",
              "name": "burn",
              "type": "uint256"
            },
            {
              "internalType": "uint256",
              "name": "free",
              "type": "uint256"
            }
          ],
          "name": "burnGasAndFreeUpTo",
          "outputs": [],
          "stateMutability": "nonpayable",
          "type": "function"
        },
        {
          "inputs": [],
          "name": "dummy",
          "outputs": [],
          "stateMutability": "pure",
          "type": "function"
        }
      ],
      "evm": {
        "bytecode": {
          "linkReferences": {},
          "object": "608060405234801561001057600080fd5b506104d5806100206000396000f3fe608060405234801561001057600080fd5b50600436106100625760003560e01c806301e569a91461006757806316edf3e31461009b57806332e43a11146100cd5780634ad5d16f146100d5578063a2063679146100f2578063f3389f6214610124575b600080fd5b6100996004803603606081101561007d57600080fd5b506001600160a01b038135169060208101359060400135610156565b005b610099600480360360608110156100b157600080fd5b506001600160a01b03813516906020810135906040013561021b565b6100996102de565b610099600480360360208110156100eb57600080fd5b50356102e0565b6100996004803603606081101561010857600080fd5b506001600160a01b0381351690602081013590604001356102fa565b6100996004803603606081101561013a57600080fd5b506001600160a01b0381351690602081013590604001356103ca565b61015f826102e0565b6000836001600160a01b031663d8ccd0f3836040518263ffffffff1660e01b815260040180828152602001915050602060405180830381600087803b1580156101a757600080fd5b505af11580156101bb573d6000803e3d6000fd5b505050506040513d60208110156101d157600080fd5b505111610216576040805162461bcd60e51b815260206004820152600e60248201526d6275726e476173416e644672656560901b604482015290519081900360640190fd5b505050565b610224826102e0565b826001600160a01b0316636366b936826040518263ffffffff1660e01b815260040180828152602001915050602060405180830381600087803b15801561026a57600080fd5b505af115801561027e573d6000803e3d6000fd5b505050506040513d602081101561029457600080fd5b50518114610216576040805162461bcd60e51b81526020600482015260126024820152716275726e476173416e64467265655570546f60701b604482015290519081900360640190fd5bfe5b6332e43a1160e01b60005260008060046000803086f15050565b610303826102e0565b6040805163079d229f60e01b81523260048201526024810183905290516001600160a01b0385169163079d229f9160448083019260209291908290030181600087803b15801561035257600080fd5b505af1158015610366573d6000803e3d6000fd5b505050506040513d602081101561037c57600080fd5b50518114610216576040805162461bcd60e51b81526020600482015260166024820152756275726e476173416e644672656546726f6d5570546f60501b604482015290519081900360640190fd5b6103d3826102e0565b6000836001600160a01b0316635f2e2b4532846040518363ffffffff1660e01b815260040180836001600160a01b0316815260200182815260200192505050602060405180830381600087803b15801561042c57600080fd5b505af1158015610440573d6000803e3d6000fd5b505050506040513d602081101561045657600080fd5b505111610216576040805162461bcd60e51b81526020600482015260126024820152716275726e476173416e644672656546726f6d60701b604482015290519081900360640190fdfea2646970667358221220e4084a2d3b0ab212921999136cc2f25dff7808024d7662b349d9d404bc2ba7fc64736f6c63430007050033",
          "opcodes": "PUSH1 0x80 PUSH1 0x40 MSTORE CALLVALUE DUP1 ISZERO PUSH2 0x10 JUMPI PUSH1 0x0 DUP1 REVERT JUMPDEST POP PUSH2 0x4D5 DUP1 PUSH2 0x20 PUSH1 0x0 CODECOPY PUSH1 0x0 RETURN INVALID PUSH1 0x80 PUSH1 0x40 MSTORE CALLVALUE DUP1 ISZERO PUSH2 0x10 JUMPI PUSH1 0x0 DUP1 REVERT JUMPDEST POP PUSH1 0x4 CALLDATASIZE LT PUSH2 0x62 JUMPI PUSH1 0x0 CALLDATALOAD PUSH1 0xE0 SHR DUP1 PUSH4 0x1E569A9 EQ PUSH2 0x67 JUMPI DUP1 PUSH4 0x16EDF3E3 EQ PUSH2 0x9B JUMPI DUP1 PUSH4 0x32E43A11 EQ PUSH2 0xCD JUMPI DUP1 PUSH4 0x4AD5D16F EQ PUSH2 0xD5 JUMPI DUP1 PUSH4 0xA2063679 EQ PUSH2 0xF2 JUMPI DUP1 PUSH4 0xF3389F62 EQ PUSH2 0x124 JUMPI JUMPDEST PUSH1 0x0 DUP1 REVERT JUMPDEST PUSH2 0x99 PUSH1 0x4 DUP1 CALLDATASIZE SUB PUSH1 0x60 DUP2 LT ISZERO PUSH2 0x7D JUMPI PUSH1 0x0 DUP1 REVERT JUMPDEST POP PUSH1 0x1 PUSH1 0x1 PUSH1 0xA0 SHL SUB DUP2 CALLDATALOAD AND SWAP1 PUSH1 0x20 DUP2 ADD CALLDATALOAD SWAP1 PUSH1 0x40 ADD CALLDATALOAD PUSH2 0x156 JUMP JUMPDEST STOP JUMPDEST PUSH2 0x99 PUSH1 0x4 DUP1 CALLDATASIZE SUB PUSH1 0x60 DUP2 LT ISZERO PUSH2 0xB1 JUMPI PUSH1 0x0 DUP1 REVERT JUMPDEST POP PUSH1 0x1 PUSH1 0x1 PUSH1 0xA0 SHL SUB DUP2 CALLDATALOAD AND SWAP1 PUSH1 0x20 DUP2 ADD CALLDATALOAD SWAP1 PUSH1 0x40 ADD CALLDATALOAD PUSH2 0x21B JUMP JUMPDEST PUSH2 0x99 PUSH2 0x2DE JUMP JUMPDEST PUSH2 0x99 PUSH1 0x4 DUP1 CALLDATASIZE SUB PUSH1 0x20 DUP2 LT ISZERO PUSH2 0xEB JUMPI PUSH1 0x0 DUP1 REVERT JUMPDEST POP CALLDATALOAD PUSH2 0x2E0 JUMP JUMPDEST PUSH2 0x99 PUSH1 0x4 DUP1 CALLDATASIZE SUB PUSH1 0x60 DUP2 LT ISZERO PUSH2 0x108 JUMPI PUSH1 0x0 DUP1 REVERT JUMPDEST POP PUSH1 0x1 PUSH1 0x1 PUSH1 0xA0 SHL SUB DUP2 CALLDATALOAD AND SWAP1 PUSH1 0x20 DUP2 ADD CALLDATALOAD SWAP1 PUSH1 0x40 ADD CALLDATALOAD PUSH2 0x2FA JUMP JUMPDEST PUSH2 0x99 PUSH1 0x4 DUP1 CALLDATASIZE SUB PUSH1 0x60 DUP2 LT ISZERO PUSH2 0x13A JUMPI PUSH1 0x0 DUP1 REVERT JUMPDEST POP PUSH1 0x1 PUSH1 0x1 PUSH1 0xA0 SHL SUB DUP2 CALLDATALOAD AND SWAP1 PUSH1 0x20 DUP2 ADD CALLDATALOAD SWAP1 PUSH1 0x40 ADD CALLDATALOAD PUSH2 0x3CA JUMP JUMPDEST PUSH2 0x15F DUP3 PUSH2 0x2E0 JUMP JUMPDEST PUSH1 0x0 DUP4 PUSH1 0x1 PUSH1 0x1 PUSH1 0xA0 SHL SUB AND PUSH4 0xD8CCD0F3 DUP4 PUSH1 0x40 MLOAD DUP3 PUSH4 0xFFFFFFFF AND PUSH1 0xE0 SHL DUP2 MSTORE PUSH1 0x4 ADD DUP1 DUP3 DUP2 MSTORE PUSH1 0x20 ADD SWAP2 POP POP PUSH1 0x20 PUSH1 0x40 MLOAD DUP1 DUP4 SUB DUP2 PUSH1 0x0 DUP8 DUP1 EXTCODESIZE ISZERO DUP1 ISZERO PUSH2 0x1A7 JUMPI PUSH1 0x0 DUP1 REVERT JUMPDEST POP GAS CALL ISZERO DUP1 ISZERO PUSH2 0x1BB JUMPI RETURNDATASIZE PUSH1 0x0 DUP1 RETURNDATACOPY RETURNDATASIZE PUSH1 0x0 REVERT JUMPDEST POP POP POP POP PUSH1 0x40 MLOAD RETURNDATASIZE PUSH1 0x20 DUP2 LT ISZERO PUSH2 0x1D1 JUMPI PUSH1 0x0 DUP1 REVERT JUMPDEST POP MLOAD GT PUSH2 0x216 JUMPI PUSH1 0x40 DUP1 MLOAD PUSH3 0x461BCD PUSH1 0xE5 SHL DUP2 MSTORE PUSH1 0x20 PUSH1 0x4 DUP3 ADD MSTORE PUSH1 0xE PUSH1 0x24 DUP3 ADD MSTORE PUSH14 0x6275726E476173416E6446726565 PUSH1 0x90 SHL PUSH1 0x44 DUP3 ADD MSTORE SWAP1 MLOAD SWAP1 DUP2 SWAP1 SUB PUSH1 0x64 ADD SWAP1 REVERT JUMPDEST POP POP POP JUMP JUMPDEST PUSH2 0x224 DUP3 PUSH2 0x2E0 JUMP JUMPDEST DUP3 PUSH1 0x1 PUSH1 0x1 PUSH1 0xA0 SHL SUB AND PUSH4 0x6366B936 DUP3 PUSH1 0x40 MLOAD DUP3 PUSH4 0xFFFFFFFF AND PUSH1 0xE0 SHL DUP2 MSTORE PUSH1 0x4 ADD DUP1 DUP3 DUP2 MSTORE PUSH1 0x20 ADD SWAP2 POP POP PUSH1 0x20 PUSH1 0x40 MLOAD DUP1 DUP4 SUB DUP2 PUSH1 0x0 DUP8 DUP1 EXTCODESIZE ISZERO DUP1 ISZERO PUSH2 0x26A JUMPI PUSH1 0x0 DUP1 REVERT JUMPDEST POP GAS CALL ISZERO DUP1 ISZERO PUSH2 0x27E JUMPI RETURNDATASIZE PUSH1 0x0 DUP1 RETURNDATACOPY RETURNDATASIZE PUSH1 0x0 REVERT JUMPDEST POP POP POP POP PUSH1 0x40 MLOAD RETURNDATASIZE PUSH1 0x20 DUP2 LT ISZERO PUSH2 0x294 JUMPI PUSH1 0x0 DUP1 REVERT JUMPDEST POP MLOAD DUP2 EQ PUSH2 0x216 JUMPI PUSH1 0x40 DUP1 MLOAD PUSH3 0x461BCD PUSH1 0xE5 SHL DUP2 MSTORE PUSH1 0x20 PUSH1 0x4 DUP3 ADD MSTORE PUSH1 0x12 PUSH1 0x24 DUP3 ADD MSTORE PUSH18 0x6275726E476173416E64467265655570546F PUSH1 0x70 SHL PUSH1 0x44 DUP3 ADD MSTORE SWAP1 MLOAD SWAP1 DUP2 SWAP1 SUB PUSH1 0x64 ADD SWAP1 REVERT JUMPDEST INVALID JUMPDEST PUSH4 0x32E43A11 PUSH1 0xE0 SHL PUSH1 0x0 MSTORE PUSH1 0x0 DUP1 PUSH1 0x4 PUSH1 0x0 DUP1 ADDRESS DUP7 CALL POP POP JUMP JUMPDEST PUSH2 0x303 DUP3 PUSH2 0x2E0 JUMP JUMPDEST PUSH1 0x40 DUP1 MLOAD PUSH4 0x79D229F PUSH1 0xE0 SHL DUP2 MSTORE ORIGIN PUSH1 0x4 DUP3 ADD MSTORE PUSH1 0x24 DUP2 ADD DUP4 SWAP1 MSTORE SWAP1 MLOAD PUSH1 0x1 PUSH1 0x1 PUSH1 0xA0 SHL SUB DUP6 AND SWAP2 PUSH4 0x79D229F SWAP2 PUSH1 0x44 DUP1 DUP4 ADD SWAP3 PUSH1 0x20 SWAP3 SWAP2 SWAP1 DUP3 SWAP1 SUB ADD DUP2 PUSH1 0x0 DUP8 DUP1 EXTCODESIZE ISZERO DUP1 ISZERO PUSH2 0x352 JUMPI PUSH1 0x0 DUP1 REVERT JUMPDEST POP GAS CALL ISZERO DUP1 ISZERO PUSH2 0x366 JUMPI RETURNDATASIZE PUSH1 0x0 DUP1 RETURNDATACOPY RETURNDATASIZE PUSH1 0x0 REVERT JUMPDEST POP POP POP POP PUSH1 0x40 MLOAD RETURNDATASIZE PUSH1 0x20 DUP2 LT ISZERO PUSH2 0x37C JUMPI PUSH1 0x0 DUP1 REVERT JUMPDEST POP MLOAD DUP2 EQ PUSH2 0x216 JUMPI PUSH1 0x40 DUP1 MLOAD PUSH3 0x461BCD PUSH1 0xE5 SHL DUP2 MSTORE PUSH1 0x20 PUSH1 0x4 DUP3 ADD MSTORE PUSH1 0x16 PUSH1 0x24 DUP3 ADD MSTORE PUSH22 0x6275726E476173416E644672656546726F6D5570546F PUSH1 0x50 SHL PUSH1 0x44 DUP3 ADD MSTORE SWAP1 MLOAD SWAP1 DUP2 SWAP1 SUB PUSH1 0x64 ADD SWAP1 REVERT JUMPDEST PUSH2 0x3D3 DUP3 PUSH2 0x2E0 JUMP JUMPDEST PUSH1 0x0 DUP4 PUSH1 0x1 PUSH1 0x1 PUSH1 0xA0 SHL SUB AND PUSH4 0x5F2E2B45 ORIGIN DUP5 PUSH1 0x40 MLOAD DUP4 PUSH4 0xFFFFFFFF AND PUSH1 0xE0 SHL DUP2 MSTORE PUSH1 0x4 ADD DUP1 DUP4 PUSH1 0x1 PUSH1 0x1 PUSH1 0xA0 SHL SUB AND DUP2 MSTORE PUSH1 0x20 ADD DUP3 DUP2 MSTORE PUSH1 0x20 ADD SWAP3 POP POP POP PUSH1 0x20 PUSH1 0x40 MLOAD DUP1 DUP4 SUB DUP2 PUSH1 0x0 DUP8 DUP1 EXTCODESIZE ISZERO DUP1 ISZERO PUSH2 0x42C JUMPI PUSH1 0x0 DUP1 REVERT JUMPDEST POP GAS CALL ISZERO DUP1 ISZERO PUSH2 0x440 JUMPI RETURNDATASIZE PUSH1 0x0 DUP1 RETURNDATACOPY RETURNDATASIZE PUSH1 0x0 REVERT JUMPDEST POP POP POP POP PUSH1 0x40 MLOAD RETURNDATASIZE PUSH1 0x20 DUP2 LT ISZERO PUSH2 0x456 JUMPI PUSH1 0x0 DUP1 REVERT JUMPDEST POP MLOAD GT PUSH2 0x216 JUMPI PUSH1 0x40 DUP1 MLOAD PUSH3 0x461BCD PUSH1 0xE5 SHL DUP2 MSTORE PUSH1 0x20 PUSH1 0x4 DUP3 ADD MSTORE PUSH1 0x12 PUSH1 0x24 DUP3 ADD MSTORE PUSH18 0x6275726E476173416E644672656546726F6D PUSH1 0x70 SHL PUSH1 0x44 DUP3 ADD MSTORE SWAP1 MLOAD SWAP1 DUP2 SWAP1 SUB PUSH1 0x64 ADD SWAP1 REVERT INVALID LOG2 PUSH5 0x6970667358 0x22 SLT KECCAK256 0xE4 ADDMOD 0x4A 0x2D EXTCODESIZE EXP 0xB2 SLT SWAP3 NOT SWAP10 SGT PUSH13 0xC2F25DFF7808024D7662B349D9 0xD4 DIV 0xBC 0x2B 0xA7 0xFC PUSH5 0x736F6C6343 STOP SMOD SDIV STOP CALLER "
        },
        "methodIdentifiers": {
          "burnGas(uint256)": "4ad5d16f",
          "burnGasAndFree(address,uint256,uint256)": "01e569a9",
          "burnGasAndFreeFrom(address,uint256,uint256)": "f3389f62",
          "burnGasAndFreeFromUpTo(address,uint256,uint256)": "a2063679",
          "burnGasAndFreeUpTo(address,uint256,uint256)": "16edf3e3",
          "dummy()": "32e43a11"
        }
      }
    }
  }
}