{
  "contracts/dependencies/authorization-platform/contracts/dependencies/holyzeppelin/contracts/token/ERC20/examples/velo/feeCharger/VELOFeeCharger.sol": {
    "VELOFeeCharger": {
      "abi": [
        {
          "inputs": [],
          "stateMutability": "nonpayable",
          "type": "constructor"
        },
        {
          "inputs": [],
          "name": "beneficiary",
          "outputs": [
            {
              "internalType": "address",
              "name": "",
              "type": "address"
            }
          ],
          "stateMutability": "view",
          "type": "function"
        },
        {
          "inputs": [
            {
              "internalType": "uint256",
              "name": "max_gas_block_",
              "type": "uint256"
            },
            {
              "internalType": "uint256",
              "name": "min_gas_tx_",
              "type": "uint256"
            },
            {
              "internalType": "uint256",
              "name": "ema_long_",
              "type": "uint256"
            },
            {
              "internalType": "uint256",
              "name": "tx_size_",
              "type": "uint256"
            },
            {
              "internalType": "uint256",
              "name": "total_supply_",
              "type": "uint256"
            },
            {
              "internalType": "uint256",
              "name": "_gov_fee_factor",
              "type": "uint256"
            }
          ],
          "name": "calc_fee_gas",
          "outputs": [
            {
              "internalType": "uint256",
              "name": "",
              "type": "uint256"
            }
          ],
          "stateMutability": "pure",
          "type": "function"
        },
        {
          "inputs": [
            {
              "internalType": "uint256",
              "name": "sEMA",
              "type": "uint256"
            },
            {
              "internalType": "uint256",
              "name": "totalSupply",
              "type": "uint256"
            },
            {
              "internalType": "uint256",
              "name": "_amount",
              "type": "uint256"
            }
          ],
          "name": "chargeFee",
          "outputs": [],
          "stateMutability": "nonpayable",
          "type": "function"
        },
        {
          "inputs": [],
          "name": "chi",
          "outputs": [
            {
              "internalType": "contract ICHI",
              "name": "",
              "type": "address"
            }
          ],
          "stateMutability": "view",
          "type": "function"
        },
        {
          "inputs": [],
          "name": "chi_fee_remaining",
          "outputs": [
            {
              "internalType": "uint256",
              "name": "",
              "type": "uint256"
            }
          ],
          "stateMutability": "view",
          "type": "function"
        },
        {
          "inputs": [],
          "name": "gov",
          "outputs": [
            {
              "internalType": "address",
              "name": "",
              "type": "address"
            }
          ],
          "stateMutability": "view",
          "type": "function"
        },
        {
          "inputs": [],
          "name": "govFactor",
          "outputs": [
            {
              "internalType": "uint256",
              "name": "",
              "type": "uint256"
            }
          ],
          "stateMutability": "view",
          "type": "function"
        },
        {
          "inputs": [],
          "name": "gov_fee_factor",
          "outputs": [
            {
              "internalType": "uint256",
              "name": "",
              "type": "uint256"
            }
          ],
          "stateMutability": "view",
          "type": "function"
        },
        {
          "inputs": [],
          "name": "last_block_number",
          "outputs": [
            {
              "internalType": "uint256",
              "name": "",
              "type": "uint256"
            }
          ],
          "stateMutability": "view",
          "type": "function"
        },
        {
          "inputs": [],
          "name": "max_gas_block",
          "outputs": [
            {
              "internalType": "uint256",
              "name": "",
              "type": "uint256"
            }
          ],
          "stateMutability": "view",
          "type": "function"
        },
        {
          "inputs": [],
          "name": "min_gas_tx",
          "outputs": [
            {
              "internalType": "uint256",
              "name": "",
              "type": "uint256"
            }
          ],
          "stateMutability": "view",
          "type": "function"
        },
        {
          "inputs": [
            {
              "internalType": "address",
              "name": "beneficiary_",
              "type": "address"
            }
          ],
          "name": "setBeneficiary",
          "outputs": [],
          "stateMutability": "nonpayable",
          "type": "function"
        },
        {
          "inputs": [
            {
              "internalType": "address",
              "name": "newGov",
              "type": "address"
            }
          ],
          "name": "setGov",
          "outputs": [],
          "stateMutability": "nonpayable",
          "type": "function"
        },
        {
          "inputs": [
            {
              "internalType": "uint256",
              "name": "factor",
              "type": "uint256"
            }
          ],
          "name": "setGovFactor",
          "outputs": [],
          "stateMutability": "nonpayable",
          "type": "function"
        },
        {
          "inputs": [
            {
              "internalType": "uint256",
              "name": "value",
              "type": "uint256"
            }
          ],
          "name": "setGovFeeFactor",
          "outputs": [],
          "stateMutability": "nonpayable",
          "type": "function"
        },
        {
          "inputs": [
            {
              "internalType": "uint256",
              "name": "value",
              "type": "uint256"
            }
          ],
          "name": "setMaxGasBlock",
          "outputs": [],
          "stateMutability": "nonpayable",
          "type": "function"
        },
        {
          "inputs": [
            {
              "internalType": "uint256",
              "name": "value",
              "type": "uint256"
            }
          ],
          "name": "setMinGasTx",
          "outputs": [],
          "stateMutability": "nonpayable",
          "type": "function"
        }
      ],
      "evm": {
        "bytecode": {
          "linkReferences": {},
          "object": "608060405234801561001057600080fd5b50600180546001600160a01b03191633179055670de0b6b3a76400006005556807518058bd45bc0000600355671bc16d674ec800006004556000600681905560075561076e806100616000396000f3fe608060405234801561001057600080fd5b506004361061010b5760003560e01c8063c74090a4116100a2578063cfad57a211610071578063cfad57a214610212578063da6eb36a14610238578063f1949bde14610261578063fa7aa1611461029c578063ff9e2a23146102a45761010b565b8063c74090a4146101c8578063c7c34e98146101e5578063c92aecc4146101ed578063c9473379146101f55761010b565b80634df053fd116100de5780634df053fd1461017e5780638665ff1b146101865780639dd923dc146101a3578063c70b623e146101c05761010b565b806312d43a51146101105780631c31f710146101345780631eeaebb21461015c57806338af3eed14610176575b600080fd5b6101186102ac565b604080516001600160a01b039092168252519081900360200190f35b61015a6004803603602081101561014a57600080fd5b50356001600160a01b03166102bb565b005b610164610325565b60408051918252519081900360200190f35b61011861032b565b61016461033a565b61015a6004803603602081101561019c57600080fd5b5035610340565b61015a600480360360208110156101b957600080fd5b5035610345565b61016461034a565b61015a600480360360208110156101de57600080fd5b5035610350565b61016461039d565b6101186103a3565b61015a6004803603602081101561020b57600080fd5b50356103b5565b61015a6004803603602081101561022857600080fd5b50356001600160a01b03166103ba565b61015a6004803603606081101561024e57600080fd5b5080359060208101359060400135610424565b610164600480360360c081101561027757600080fd5b5080359060208101359060408101359060608101359060808101359060a0013561060d565b610164610649565b61016461064f565b6001546001600160a01b031681565b6001546001600160a01b03163314610303576040805162461bcd60e51b8152602060048083019190915260248201526310b3b7bb60e11b604482015290519081900360640190fd5b600280546001600160a01b0319166001600160a01b0392909216919091179055565b60065481565b6002546001600160a01b031681565b60055481565b600455565b600555565b60005481565b6001546001600160a01b03163314610398576040805162461bcd60e51b8152602060048083019190915260248201526310b3b7bb60e11b604482015290519081900360640190fd5b600055565b60075481565b6d4946c0e9f43f4dee607b0ef1fa1c81565b600355565b6001546001600160a01b03163314610402576040805162461bcd60e51b8152602060048083019190915260248201526310b3b7bb60e11b604482015290519081900360640190fd5b600180546001600160a01b0319166001600160a01b0392909216919091179055565b600061043a60035460045486858760055461060d565b90504360065414156104635780600754101561045557506007545b600780548290039055610471565b436006556003548190036007555b60008111801561048b57506002546001600160a01b031615155b15610607576d4946c0e9f43f4dee607b0ef1fa1c63a0712d68670de0b6b3a764000083046040518263ffffffff1660e01b815260040180828152602001915050600060405180830381600087803b1580156104e557600080fd5b505af11580156104f9573d6000803e3d6000fd5b5050600254604080516370a0823160e01b815230600482015290516d4946c0e9f43f4dee607b0ef1fa1c945063a9059cbb93506001600160a01b039092169184916370a08231916024808301926020929190829003018186803b15801561055f57600080fd5b505afa158015610573573d6000803e3d6000fd5b505050506040513d602081101561058957600080fd5b5051604080516001600160e01b031960e086901b1681526001600160a01b03909316600484015260248301919091525160448083019260209291908290030181600087803b1580156105da57600080fd5b505af11580156105ee573d6000803e3d6000fd5b505050506040513d602081101561060457600080fd5b50505b50505050565b600086868261061e88888888610655565b9050670de0b6b3a7640000606484830204048281101561063b5750815b9a9950505050505050505050565b60035481565b60045481565b600084678ac7230489e80000610254850486116106745750600661071b565b610171850486116106875750600961071b565b60e4850486116106995750600f61071b565b608d850486116106ab5750601761071b565b6057850486116106bd5750602561071b565b6036850486116106cf5750603761071b565b6021850486116106e15750604c61071b565b6015850486116106f35750605c61071b565b600d850486116107055750606261071b565b6006850486116107175750606361071b565b5060645b670de0b6b3a764000060648383020485020497965050505050505056fea2646970667358221220c384792f28db45acb9f68e875bb902949f1bbe836af991054a7c4ab3a7a8eb6064736f6c63430007050033",
          "opcodes": "PUSH1 0x80 PUSH1 0x40 MSTORE CALLVALUE DUP1 ISZERO PUSH2 0x10 JUMPI PUSH1 0x0 DUP1 REVERT JUMPDEST POP PUSH1 0x1 DUP1 SLOAD PUSH1 0x1 PUSH1 0x1 PUSH1 0xA0 SHL SUB NOT AND CALLER OR SWAP1 SSTORE PUSH8 0xDE0B6B3A7640000 PUSH1 0x5 SSTORE PUSH9 0x7518058BD45BC0000 PUSH1 0x3 SSTORE PUSH8 0x1BC16D674EC80000 PUSH1 0x4 SSTORE PUSH1 0x0 PUSH1 0x6 DUP2 SWAP1 SSTORE PUSH1 0x7 SSTORE PUSH2 0x76E DUP1 PUSH2 0x61 PUSH1 0x0 CODECOPY PUSH1 0x0 RETURN INVALID PUSH1 0x80 PUSH1 0x40 MSTORE CALLVALUE DUP1 ISZERO PUSH2 0x10 JUMPI PUSH1 0x0 DUP1 REVERT JUMPDEST POP PUSH1 0x4 CALLDATASIZE LT PUSH2 0x10B JUMPI PUSH1 0x0 CALLDATALOAD PUSH1 0xE0 SHR DUP1 PUSH4 0xC74090A4 GT PUSH2 0xA2 JUMPI DUP1 PUSH4 0xCFAD57A2 GT PUSH2 0x71 JUMPI DUP1 PUSH4 0xCFAD57A2 EQ PUSH2 0x212 JUMPI DUP1 PUSH4 0xDA6EB36A EQ PUSH2 0x238 JUMPI DUP1 PUSH4 0xF1949BDE EQ PUSH2 0x261 JUMPI DUP1 PUSH4 0xFA7AA161 EQ PUSH2 0x29C JUMPI DUP1 PUSH4 0xFF9E2A23 EQ PUSH2 0x2A4 JUMPI PUSH2 0x10B JUMP JUMPDEST DUP1 PUSH4 0xC74090A4 EQ PUSH2 0x1C8 JUMPI DUP1 PUSH4 0xC7C34E98 EQ PUSH2 0x1E5 JUMPI DUP1 PUSH4 0xC92AECC4 EQ PUSH2 0x1ED JUMPI DUP1 PUSH4 0xC9473379 EQ PUSH2 0x1F5 JUMPI PUSH2 0x10B JUMP JUMPDEST DUP1 PUSH4 0x4DF053FD GT PUSH2 0xDE JUMPI DUP1 PUSH4 0x4DF053FD EQ PUSH2 0x17E JUMPI DUP1 PUSH4 0x8665FF1B EQ PUSH2 0x186 JUMPI DUP1 PUSH4 0x9DD923DC EQ PUSH2 0x1A3 JUMPI DUP1 PUSH4 0xC70B623E EQ PUSH2 0x1C0 JUMPI PUSH2 0x10B JUMP JUMPDEST DUP1 PUSH4 0x12D43A51 EQ PUSH2 0x110 JUMPI DUP1 PUSH4 0x1C31F710 EQ PUSH2 0x134 JUMPI DUP1 PUSH4 0x1EEAEBB2 EQ PUSH2 0x15C JUMPI DUP1 PUSH4 0x38AF3EED EQ PUSH2 0x176 JUMPI JUMPDEST PUSH1 0x0 DUP1 REVERT JUMPDEST PUSH2 0x118 PUSH2 0x2AC JUMP JUMPDEST PUSH1 0x40 DUP1 MLOAD PUSH1 0x1 PUSH1 0x1 PUSH1 0xA0 SHL SUB SWAP1 SWAP3 AND DUP3 MSTORE MLOAD SWAP1 DUP2 SWAP1 SUB PUSH1 0x20 ADD SWAP1 RETURN JUMPDEST PUSH2 0x15A PUSH1 0x4 DUP1 CALLDATASIZE SUB PUSH1 0x20 DUP2 LT ISZERO PUSH2 0x14A JUMPI PUSH1 0x0 DUP1 REVERT JUMPDEST POP CALLDATALOAD PUSH1 0x1 PUSH1 0x1 PUSH1 0xA0 SHL SUB AND PUSH2 0x2BB JUMP JUMPDEST STOP JUMPDEST PUSH2 0x164 PUSH2 0x325 JUMP JUMPDEST PUSH1 0x40 DUP1 MLOAD SWAP2 DUP3 MSTORE MLOAD SWAP1 DUP2 SWAP1 SUB PUSH1 0x20 ADD SWAP1 RETURN JUMPDEST PUSH2 0x118 PUSH2 0x32B JUMP JUMPDEST PUSH2 0x164 PUSH2 0x33A JUMP JUMPDEST PUSH2 0x15A PUSH1 0x4 DUP1 CALLDATASIZE SUB PUSH1 0x20 DUP2 LT ISZERO PUSH2 0x19C JUMPI PUSH1 0x0 DUP1 REVERT JUMPDEST POP CALLDATALOAD PUSH2 0x340 JUMP JUMPDEST PUSH2 0x15A PUSH1 0x4 DUP1 CALLDATASIZE SUB PUSH1 0x20 DUP2 LT ISZERO PUSH2 0x1B9 JUMPI PUSH1 0x0 DUP1 REVERT JUMPDEST POP CALLDATALOAD PUSH2 0x345 JUMP JUMPDEST PUSH2 0x164 PUSH2 0x34A JUMP JUMPDEST PUSH2 0x15A PUSH1 0x4 DUP1 CALLDATASIZE SUB PUSH1 0x20 DUP2 LT ISZERO PUSH2 0x1DE JUMPI PUSH1 0x0 DUP1 REVERT JUMPDEST POP CALLDATALOAD PUSH2 0x350 JUMP JUMPDEST PUSH2 0x164 PUSH2 0x39D JUMP JUMPDEST PUSH2 0x118 PUSH2 0x3A3 JUMP JUMPDEST PUSH2 0x15A PUSH1 0x4 DUP1 CALLDATASIZE SUB PUSH1 0x20 DUP2 LT ISZERO PUSH2 0x20B JUMPI PUSH1 0x0 DUP1 REVERT JUMPDEST POP CALLDATALOAD PUSH2 0x3B5 JUMP JUMPDEST PUSH2 0x15A PUSH1 0x4 DUP1 CALLDATASIZE SUB PUSH1 0x20 DUP2 LT ISZERO PUSH2 0x228 JUMPI PUSH1 0x0 DUP1 REVERT JUMPDEST POP CALLDATALOAD PUSH1 0x1 PUSH1 0x1 PUSH1 0xA0 SHL SUB AND PUSH2 0x3BA JUMP JUMPDEST PUSH2 0x15A PUSH1 0x4 DUP1 CALLDATASIZE SUB PUSH1 0x60 DUP2 LT ISZERO PUSH2 0x24E JUMPI PUSH1 0x0 DUP1 REVERT JUMPDEST POP DUP1 CALLDATALOAD SWAP1 PUSH1 0x20 DUP2 ADD CALLDATALOAD SWAP1 PUSH1 0x40 ADD CALLDATALOAD PUSH2 0x424 JUMP JUMPDEST PUSH2 0x164 PUSH1 0x4 DUP1 CALLDATASIZE SUB PUSH1 0xC0 DUP2 LT ISZERO PUSH2 0x277 JUMPI PUSH1 0x0 DUP1 REVERT JUMPDEST POP DUP1 CALLDATALOAD SWAP1 PUSH1 0x20 DUP2 ADD CALLDATALOAD SWAP1 PUSH1 0x40 DUP2 ADD CALLDATALOAD SWAP1 PUSH1 0x60 DUP2 ADD CALLDATALOAD SWAP1 PUSH1 0x80 DUP2 ADD CALLDATALOAD SWAP1 PUSH1 0xA0 ADD CALLDATALOAD PUSH2 0x60D JUMP JUMPDEST PUSH2 0x164 PUSH2 0x649 JUMP JUMPDEST PUSH2 0x164 PUSH2 0x64F JUMP JUMPDEST PUSH1 0x1 SLOAD PUSH1 0x1 PUSH1 0x1 PUSH1 0xA0 SHL SUB AND DUP2 JUMP JUMPDEST PUSH1 0x1 SLOAD PUSH1 0x1 PUSH1 0x1 PUSH1 0xA0 SHL SUB AND CALLER EQ PUSH2 0x303 JUMPI PUSH1 0x40 DUP1 MLOAD PUSH3 0x461BCD PUSH1 0xE5 SHL DUP2 MSTORE PUSH1 0x20 PUSH1 0x4 DUP1 DUP4 ADD SWAP2 SWAP1 SWAP2 MSTORE PUSH1 0x24 DUP3 ADD MSTORE PUSH4 0x10B3B7BB PUSH1 0xE1 SHL PUSH1 0x44 DUP3 ADD MSTORE SWAP1 MLOAD SWAP1 DUP2 SWAP1 SUB PUSH1 0x64 ADD SWAP1 REVERT JUMPDEST PUSH1 0x2 DUP1 SLOAD PUSH1 0x1 PUSH1 0x1 PUSH1 0xA0 SHL SUB NOT AND PUSH1 0x1 PUSH1 0x1 PUSH1 0xA0 SHL SUB SWAP3 SWAP1 SWAP3 AND SWAP2 SWAP1 SWAP2 OR SWAP1 SSTORE JUMP JUMPDEST PUSH1 0x6 SLOAD DUP2 JUMP JUMPDEST PUSH1 0x2 SLOAD PUSH1 0x1 PUSH1 0x1 PUSH1 0xA0 SHL SUB AND DUP2 JUMP JUMPDEST PUSH1 0x5 SLOAD DUP2 JUMP JUMPDEST PUSH1 0x4 SSTORE JUMP JUMPDEST PUSH1 0x5 SSTORE JUMP JUMPDEST PUSH1 0x0 SLOAD DUP2 JUMP JUMPDEST PUSH1 0x1 SLOAD PUSH1 0x1 PUSH1 0x1 PUSH1 0xA0 SHL SUB AND CALLER EQ PUSH2 0x398 JUMPI PUSH1 0x40 DUP1 MLOAD PUSH3 0x461BCD PUSH1 0xE5 SHL DUP2 MSTORE PUSH1 0x20 PUSH1 0x4 DUP1 DUP4 ADD SWAP2 SWAP1 SWAP2 MSTORE PUSH1 0x24 DUP3 ADD MSTORE PUSH4 0x10B3B7BB PUSH1 0xE1 SHL PUSH1 0x44 DUP3 ADD MSTORE SWAP1 MLOAD SWAP1 DUP2 SWAP1 SUB PUSH1 0x64 ADD SWAP1 REVERT JUMPDEST PUSH1 0x0 SSTORE JUMP JUMPDEST PUSH1 0x7 SLOAD DUP2 JUMP JUMPDEST PUSH14 0x4946C0E9F43F4DEE607B0EF1FA1C DUP2 JUMP JUMPDEST PUSH1 0x3 SSTORE JUMP JUMPDEST PUSH1 0x1 SLOAD PUSH1 0x1 PUSH1 0x1 PUSH1 0xA0 SHL SUB AND CALLER EQ PUSH2 0x402 JUMPI PUSH1 0x40 DUP1 MLOAD PUSH3 0x461BCD PUSH1 0xE5 SHL DUP2 MSTORE PUSH1 0x20 PUSH1 0x4 DUP1 DUP4 ADD SWAP2 SWAP1 SWAP2 MSTORE PUSH1 0x24 DUP3 ADD MSTORE PUSH4 0x10B3B7BB PUSH1 0xE1 SHL PUSH1 0x44 DUP3 ADD MSTORE SWAP1 MLOAD SWAP1 DUP2 SWAP1 SUB PUSH1 0x64 ADD SWAP1 REVERT JUMPDEST PUSH1 0x1 DUP1 SLOAD PUSH1 0x1 PUSH1 0x1 PUSH1 0xA0 SHL SUB NOT AND PUSH1 0x1 PUSH1 0x1 PUSH1 0xA0 SHL SUB SWAP3 SWAP1 SWAP3 AND SWAP2 SWAP1 SWAP2 OR SWAP1 SSTORE JUMP JUMPDEST PUSH1 0x0 PUSH2 0x43A PUSH1 0x3 SLOAD PUSH1 0x4 SLOAD DUP7 DUP6 DUP8 PUSH1 0x5 SLOAD PUSH2 0x60D JUMP JUMPDEST SWAP1 POP NUMBER PUSH1 0x6 SLOAD EQ ISZERO PUSH2 0x463 JUMPI DUP1 PUSH1 0x7 SLOAD LT ISZERO PUSH2 0x455 JUMPI POP PUSH1 0x7 SLOAD JUMPDEST PUSH1 0x7 DUP1 SLOAD DUP3 SWAP1 SUB SWAP1 SSTORE PUSH2 0x471 JUMP JUMPDEST NUMBER PUSH1 0x6 SSTORE PUSH1 0x3 SLOAD DUP2 SWAP1 SUB PUSH1 0x7 SSTORE JUMPDEST PUSH1 0x0 DUP2 GT DUP1 ISZERO PUSH2 0x48B JUMPI POP PUSH1 0x2 SLOAD PUSH1 0x1 PUSH1 0x1 PUSH1 0xA0 SHL SUB AND ISZERO ISZERO JUMPDEST ISZERO PUSH2 0x607 JUMPI PUSH14 0x4946C0E9F43F4DEE607B0EF1FA1C PUSH4 0xA0712D68 PUSH8 0xDE0B6B3A7640000 DUP4 DIV PUSH1 0x40 MLOAD DUP3 PUSH4 0xFFFFFFFF AND PUSH1 0xE0 SHL DUP2 MSTORE PUSH1 0x4 ADD DUP1 DUP3 DUP2 MSTORE PUSH1 0x20 ADD SWAP2 POP POP PUSH1 0x0 PUSH1 0x40 MLOAD DUP1 DUP4 SUB DUP2 PUSH1 0x0 DUP8 DUP1 EXTCODESIZE ISZERO DUP1 ISZERO PUSH2 0x4E5 JUMPI PUSH1 0x0 DUP1 REVERT JUMPDEST POP GAS CALL ISZERO DUP1 ISZERO PUSH2 0x4F9 JUMPI RETURNDATASIZE PUSH1 0x0 DUP1 RETURNDATACOPY RETURNDATASIZE PUSH1 0x0 REVERT JUMPDEST POP POP PUSH1 0x2 SLOAD PUSH1 0x40 DUP1 MLOAD PUSH4 0x70A08231 PUSH1 0xE0 SHL DUP2 MSTORE ADDRESS PUSH1 0x4 DUP3 ADD MSTORE SWAP1 MLOAD PUSH14 0x4946C0E9F43F4DEE607B0EF1FA1C SWAP5 POP PUSH4 0xA9059CBB SWAP4 POP PUSH1 0x1 PUSH1 0x1 PUSH1 0xA0 SHL SUB SWAP1 SWAP3 AND SWAP2 DUP5 SWAP2 PUSH4 0x70A08231 SWAP2 PUSH1 0x24 DUP1 DUP4 ADD SWAP3 PUSH1 0x20 SWAP3 SWAP2 SWAP1 DUP3 SWAP1 SUB ADD DUP2 DUP7 DUP1 EXTCODESIZE ISZERO DUP1 ISZERO PUSH2 0x55F JUMPI PUSH1 0x0 DUP1 REVERT JUMPDEST POP GAS STATICCALL ISZERO DUP1 ISZERO PUSH2 0x573 JUMPI RETURNDATASIZE PUSH1 0x0 DUP1 RETURNDATACOPY RETURNDATASIZE PUSH1 0x0 REVERT JUMPDEST POP POP POP POP PUSH1 0x40 MLOAD RETURNDATASIZE PUSH1 0x20 DUP2 LT ISZERO PUSH2 0x589 JUMPI PUSH1 0x0 DUP1 REVERT JUMPDEST POP MLOAD PUSH1 0x40 DUP1 MLOAD PUSH1 0x1 PUSH1 0x1 PUSH1 0xE0 SHL SUB NOT PUSH1 0xE0 DUP7 SWAP1 SHL AND DUP2 MSTORE PUSH1 0x1 PUSH1 0x1 PUSH1 0xA0 SHL SUB SWAP1 SWAP4 AND PUSH1 0x4 DUP5 ADD MSTORE PUSH1 0x24 DUP4 ADD SWAP2 SWAP1 SWAP2 MSTORE MLOAD PUSH1 0x44 DUP1 DUP4 ADD SWAP3 PUSH1 0x20 SWAP3 SWAP2 SWAP1 DUP3 SWAP1 SUB ADD DUP2 PUSH1 0x0 DUP8 DUP1 EXTCODESIZE ISZERO DUP1 ISZERO PUSH2 0x5DA JUMPI PUSH1 0x0 DUP1 REVERT JUMPDEST POP GAS CALL ISZERO DUP1 ISZERO PUSH2 0x5EE JUMPI RETURNDATASIZE PUSH1 0x0 DUP1 RETURNDATACOPY RETURNDATASIZE PUSH1 0x0 REVERT JUMPDEST POP POP POP POP PUSH1 0x40 MLOAD RETURNDATASIZE PUSH1 0x20 DUP2 LT ISZERO PUSH2 0x604 JUMPI PUSH1 0x0 DUP1 REVERT JUMPDEST POP POP JUMPDEST POP POP POP POP JUMP JUMPDEST PUSH1 0x0 DUP7 DUP7 DUP3 PUSH2 0x61E DUP9 DUP9 DUP9 DUP9 PUSH2 0x655 JUMP JUMPDEST SWAP1 POP PUSH8 0xDE0B6B3A7640000 PUSH1 0x64 DUP5 DUP4 MUL DIV DIV DUP3 DUP2 LT ISZERO PUSH2 0x63B JUMPI POP DUP2 JUMPDEST SWAP11 SWAP10 POP POP POP POP POP POP POP POP POP POP JUMP JUMPDEST PUSH1 0x3 SLOAD DUP2 JUMP JUMPDEST PUSH1 0x4 SLOAD DUP2 JUMP JUMPDEST PUSH1 0x0 DUP5 PUSH8 0x8AC7230489E80000 PUSH2 0x254 DUP6 DIV DUP7 GT PUSH2 0x674 JUMPI POP PUSH1 0x6 PUSH2 0x71B JUMP JUMPDEST PUSH2 0x171 DUP6 DIV DUP7 GT PUSH2 0x687 JUMPI POP PUSH1 0x9 PUSH2 0x71B JUMP JUMPDEST PUSH1 0xE4 DUP6 DIV DUP7 GT PUSH2 0x699 JUMPI POP PUSH1 0xF PUSH2 0x71B JUMP JUMPDEST PUSH1 0x8D DUP6 DIV DUP7 GT PUSH2 0x6AB JUMPI POP PUSH1 0x17 PUSH2 0x71B JUMP JUMPDEST PUSH1 0x57 DUP6 DIV DUP7 GT PUSH2 0x6BD JUMPI POP PUSH1 0x25 PUSH2 0x71B JUMP JUMPDEST PUSH1 0x36 DUP6 DIV DUP7 GT PUSH2 0x6CF JUMPI POP PUSH1 0x37 PUSH2 0x71B JUMP JUMPDEST PUSH1 0x21 DUP6 DIV DUP7 GT PUSH2 0x6E1 JUMPI POP PUSH1 0x4C PUSH2 0x71B JUMP JUMPDEST PUSH1 0x15 DUP6 DIV DUP7 GT PUSH2 0x6F3 JUMPI POP PUSH1 0x5C PUSH2 0x71B JUMP JUMPDEST PUSH1 0xD DUP6 DIV DUP7 GT PUSH2 0x705 JUMPI POP PUSH1 0x62 PUSH2 0x71B JUMP JUMPDEST PUSH1 0x6 DUP6 DIV DUP7 GT PUSH2 0x717 JUMPI POP PUSH1 0x63 PUSH2 0x71B JUMP JUMPDEST POP PUSH1 0x64 JUMPDEST PUSH8 0xDE0B6B3A7640000 PUSH1 0x64 DUP4 DUP4 MUL DIV DUP6 MUL DIV SWAP8 SWAP7 POP POP POP POP POP POP POP JUMP INVALID LOG2 PUSH5 0x6970667358 0x22 SLT KECCAK256 0xC3 DUP5 PUSH26 0x2F28DB45ACB9F68E875BB902949F1BBE836AF991054A7C4AB3A7 0xA8 0xEB PUSH1 0x64 PUSH20 0x6F6C634300070500330000000000000000000000 "
        },
        "methodIdentifiers": {
          "beneficiary()": "38af3eed",
          "calc_fee_gas(uint256,uint256,uint256,uint256,uint256,uint256)": "f1949bde",
          "chargeFee(uint256,uint256,uint256)": "da6eb36a",
          "chi()": "c92aecc4",
          "chi_fee_remaining()": "c7c34e98",
          "gov()": "12d43a51",
          "govFactor()": "c70b623e",
          "gov_fee_factor()": "4df053fd",
          "last_block_number()": "1eeaebb2",
          "max_gas_block()": "fa7aa161",
          "min_gas_tx()": "ff9e2a23",
          "setBeneficiary(address)": "1c31f710",
          "setGov(address)": "cfad57a2",
          "setGovFactor(uint256)": "c74090a4",
          "setGovFeeFactor(uint256)": "9dd923dc",
          "setMaxGasBlock(uint256)": "c9473379",
          "setMinGasTx(uint256)": "8665ff1b"
        }
      }
    }
  }
}