{
  "contracts/dependencies/authorization-platform/contracts/dependencies/holyzeppelin/test/token/ERC20/examples/velo/contracts/BMath.sol": {
    "BMath": {
      "abi": [
        {
          "inputs": [],
          "name": "BONE",
          "outputs": [
            {
              "internalType": "uint256",
              "name": "",
              "type": "uint256"
            }
          ],
          "stateMutability": "view",
          "type": "function"
        },
        {
          "inputs": [],
          "name": "BPOW_PRECISION",
          "outputs": [
            {
              "internalType": "uint256",
              "name": "",
              "type": "uint256"
            }
          ],
          "stateMutability": "view",
          "type": "function"
        },
        {
          "inputs": [],
          "name": "EXIT_FEE",
          "outputs": [
            {
              "internalType": "uint256",
              "name": "",
              "type": "uint256"
            }
          ],
          "stateMutability": "view",
          "type": "function"
        },
        {
          "inputs": [],
          "name": "INIT_POOL_SUPPLY",
          "outputs": [
            {
              "internalType": "uint256",
              "name": "",
              "type": "uint256"
            }
          ],
          "stateMutability": "view",
          "type": "function"
        },
        {
          "inputs": [],
          "name": "MAX_BOUND_TOKENS",
          "outputs": [
            {
              "internalType": "uint256",
              "name": "",
              "type": "uint256"
            }
          ],
          "stateMutability": "view",
          "type": "function"
        },
        {
          "inputs": [],
          "name": "MAX_BPOW_BASE",
          "outputs": [
            {
              "internalType": "uint256",
              "name": "",
              "type": "uint256"
            }
          ],
          "stateMutability": "view",
          "type": "function"
        },
        {
          "inputs": [],
          "name": "MAX_FEE",
          "outputs": [
            {
              "internalType": "uint256",
              "name": "",
              "type": "uint256"
            }
          ],
          "stateMutability": "view",
          "type": "function"
        },
        {
          "inputs": [],
          "name": "MAX_IN_RATIO",
          "outputs": [
            {
              "internalType": "uint256",
              "name": "",
              "type": "uint256"
            }
          ],
          "stateMutability": "view",
          "type": "function"
        },
        {
          "inputs": [],
          "name": "MAX_OUT_RATIO",
          "outputs": [
            {
              "internalType": "uint256",
              "name": "",
              "type": "uint256"
            }
          ],
          "stateMutability": "view",
          "type": "function"
        },
        {
          "inputs": [],
          "name": "MAX_TOTAL_WEIGHT",
          "outputs": [
            {
              "internalType": "uint256",
              "name": "",
              "type": "uint256"
            }
          ],
          "stateMutability": "view",
          "type": "function"
        },
        {
          "inputs": [],
          "name": "MAX_WEIGHT",
          "outputs": [
            {
              "internalType": "uint256",
              "name": "",
              "type": "uint256"
            }
          ],
          "stateMutability": "view",
          "type": "function"
        },
        {
          "inputs": [],
          "name": "MIN_BALANCE",
          "outputs": [
            {
              "internalType": "uint256",
              "name": "",
              "type": "uint256"
            }
          ],
          "stateMutability": "view",
          "type": "function"
        },
        {
          "inputs": [],
          "name": "MIN_BOUND_TOKENS",
          "outputs": [
            {
              "internalType": "uint256",
              "name": "",
              "type": "uint256"
            }
          ],
          "stateMutability": "view",
          "type": "function"
        },
        {
          "inputs": [],
          "name": "MIN_BPOW_BASE",
          "outputs": [
            {
              "internalType": "uint256",
              "name": "",
              "type": "uint256"
            }
          ],
          "stateMutability": "view",
          "type": "function"
        },
        {
          "inputs": [],
          "name": "MIN_FEE",
          "outputs": [
            {
              "internalType": "uint256",
              "name": "",
              "type": "uint256"
            }
          ],
          "stateMutability": "view",
          "type": "function"
        },
        {
          "inputs": [],
          "name": "MIN_WEIGHT",
          "outputs": [
            {
              "internalType": "uint256",
              "name": "",
              "type": "uint256"
            }
          ],
          "stateMutability": "view",
          "type": "function"
        },
        {
          "inputs": [
            {
              "internalType": "uint256",
              "name": "tokenBalanceIn",
              "type": "uint256"
            },
            {
              "internalType": "uint256",
              "name": "tokenWeightIn",
              "type": "uint256"
            },
            {
              "internalType": "uint256",
              "name": "tokenBalanceOut",
              "type": "uint256"
            },
            {
              "internalType": "uint256",
              "name": "tokenWeightOut",
              "type": "uint256"
            },
            {
              "internalType": "uint256",
              "name": "tokenAmountOut",
              "type": "uint256"
            },
            {
              "internalType": "uint256",
              "name": "swapFee",
              "type": "uint256"
            }
          ],
          "name": "calcInGivenOut",
          "outputs": [
            {
              "internalType": "uint256",
              "name": "tokenAmountIn",
              "type": "uint256"
            }
          ],
          "stateMutability": "pure",
          "type": "function"
        },
        {
          "inputs": [
            {
              "internalType": "uint256",
              "name": "tokenBalanceIn",
              "type": "uint256"
            },
            {
              "internalType": "uint256",
              "name": "tokenWeightIn",
              "type": "uint256"
            },
            {
              "internalType": "uint256",
              "name": "tokenBalanceOut",
              "type": "uint256"
            },
            {
              "internalType": "uint256",
              "name": "tokenWeightOut",
              "type": "uint256"
            },
            {
              "internalType": "uint256",
              "name": "tokenAmountIn",
              "type": "uint256"
            },
            {
              "internalType": "uint256",
              "name": "swapFee",
              "type": "uint256"
            }
          ],
          "name": "calcOutGivenIn",
          "outputs": [
            {
              "internalType": "uint256",
              "name": "tokenAmountOut",
              "type": "uint256"
            }
          ],
          "stateMutability": "pure",
          "type": "function"
        },
        {
          "inputs": [
            {
              "internalType": "uint256",
              "name": "tokenBalanceOut",
              "type": "uint256"
            },
            {
              "internalType": "uint256",
              "name": "tokenWeightOut",
              "type": "uint256"
            },
            {
              "internalType": "uint256",
              "name": "poolSupply",
              "type": "uint256"
            },
            {
              "internalType": "uint256",
              "name": "totalWeight",
              "type": "uint256"
            },
            {
              "internalType": "uint256",
              "name": "tokenAmountOut",
              "type": "uint256"
            },
            {
              "internalType": "uint256",
              "name": "swapFee",
              "type": "uint256"
            }
          ],
          "name": "calcPoolInGivenSingleOut",
          "outputs": [
            {
              "internalType": "uint256",
              "name": "poolAmountIn",
              "type": "uint256"
            }
          ],
          "stateMutability": "pure",
          "type": "function"
        },
        {
          "inputs": [
            {
              "internalType": "uint256",
              "name": "tokenBalanceIn",
              "type": "uint256"
            },
            {
              "internalType": "uint256",
              "name": "tokenWeightIn",
              "type": "uint256"
            },
            {
              "internalType": "uint256",
              "name": "poolSupply",
              "type": "uint256"
            },
            {
              "internalType": "uint256",
              "name": "totalWeight",
              "type": "uint256"
            },
            {
              "internalType": "uint256",
              "name": "tokenAmountIn",
              "type": "uint256"
            },
            {
              "internalType": "uint256",
              "name": "swapFee",
              "type": "uint256"
            }
          ],
          "name": "calcPoolOutGivenSingleIn",
          "outputs": [
            {
              "internalType": "uint256",
              "name": "poolAmountOut",
              "type": "uint256"
            }
          ],
          "stateMutability": "pure",
          "type": "function"
        },
        {
          "inputs": [
            {
              "internalType": "uint256",
              "name": "tokenBalanceIn",
              "type": "uint256"
            },
            {
              "internalType": "uint256",
              "name": "tokenWeightIn",
              "type": "uint256"
            },
            {
              "internalType": "uint256",
              "name": "poolSupply",
              "type": "uint256"
            },
            {
              "internalType": "uint256",
              "name": "totalWeight",
              "type": "uint256"
            },
            {
              "internalType": "uint256",
              "name": "poolAmountOut",
              "type": "uint256"
            },
            {
              "internalType": "uint256",
              "name": "swapFee",
              "type": "uint256"
            }
          ],
          "name": "calcSingleInGivenPoolOut",
          "outputs": [
            {
              "internalType": "uint256",
              "name": "tokenAmountIn",
              "type": "uint256"
            }
          ],
          "stateMutability": "pure",
          "type": "function"
        },
        {
          "inputs": [
            {
              "internalType": "uint256",
              "name": "tokenBalanceOut",
              "type": "uint256"
            },
            {
              "internalType": "uint256",
              "name": "tokenWeightOut",
              "type": "uint256"
            },
            {
              "internalType": "uint256",
              "name": "poolSupply",
              "type": "uint256"
            },
            {
              "internalType": "uint256",
              "name": "totalWeight",
              "type": "uint256"
            },
            {
              "internalType": "uint256",
              "name": "poolAmountIn",
              "type": "uint256"
            },
            {
              "internalType": "uint256",
              "name": "swapFee",
              "type": "uint256"
            }
          ],
          "name": "calcSingleOutGivenPoolIn",
          "outputs": [
            {
              "internalType": "uint256",
              "name": "tokenAmountOut",
              "type": "uint256"
            }
          ],
          "stateMutability": "pure",
          "type": "function"
        },
        {
          "inputs": [
            {
              "internalType": "uint256",
              "name": "tokenBalanceIn",
              "type": "uint256"
            },
            {
              "internalType": "uint256",
              "name": "tokenWeightIn",
              "type": "uint256"
            },
            {
              "internalType": "uint256",
              "name": "tokenBalanceOut",
              "type": "uint256"
            },
            {
              "internalType": "uint256",
              "name": "tokenWeightOut",
              "type": "uint256"
            },
            {
              "internalType": "uint256",
              "name": "swapFee",
              "type": "uint256"
            }
          ],
          "name": "calcSpotPrice",
          "outputs": [
            {
              "internalType": "uint256",
              "name": "spotPrice",
              "type": "uint256"
            }
          ],
          "stateMutability": "pure",
          "type": "function"
        },
        {
          "inputs": [],
          "name": "getColor",
          "outputs": [
            {
              "internalType": "bytes32",
              "name": "",
              "type": "bytes32"
            }
          ],
          "stateMutability": "pure",
          "type": "function"
        }
      ],
      "evm": {
        "bytecode": {
          "linkReferences": {},
          "object": "608060405234801561001057600080fd5b50610dbc806100206000396000f3fe608060405234801561001057600080fd5b50600436106101585760003560e01c8063a221ee49116100c3578063bc694ea21161007c578063bc694ea21461032b578063c36596a61461017f578063c6580d1214610333578063e4a28a521461015d578063ec0930211461033b578063f8d6aed41461034357610158565b8063a221ee491461029b578063b0e0d136146102d0578063b7b800a4146102d8578063ba019dab146102e0578063ba9530a6146102e8578063bc063e1a1461032357610158565b80638656b653116101155780638656b65314610205578063867378c51461024057806389298012146102485780639381cd2b14610283578063992e2a921461028b5780639a86139b1461029357610158565b806309a3bbe41461015d578063189d00ca14610177578063218b53821461017f5780635c1bbaf71461018757806376c7a3c7146101c257806382f652ad146101ca575b600080fd5b61016561037e565b60408051918252519081900360200190f35b61016561038b565b61016561039f565b610165600480360360c081101561019d57600080fd5b5080359060208101359060408101359060608101359060808101359060a001356103ab565b610165610463565b610165600480360360c08110156101e057600080fd5b5080359060208101359060408101359060608101359060808101359060a00135610475565b610165600480360360c081101561021b57600080fd5b5080359060208101359060408101359060608101359060808101359060a00135610534565b6101656105d5565b610165600480360360c081101561025e57600080fd5b5080359060208101359060408101359060608101359060808101359060a001356105e9565b610165610699565b6101656106a6565b6101656106b2565b610165600480360360a08110156102b157600080fd5b50803590602081013590604081013590606081013590608001356106bf565b610165610724565b610165610729565b61016561072e565b610165600480360360c08110156102fe57600080fd5b5080359060208101359060408101359060608101359060808101359060a00135610733565b6101656107b4565b6101656107c4565b6101656107d0565b6101656107d5565b610165600480360360c081101561035957600080fd5b5080359060208101359060408101359060608101359060808101359060a001356107e5565b6802b5e3af16b188000081565b6402540be400670de0b6b3a76400005b0481565b670de0b6b3a764000081565b6000806103b88786610868565b905060006103c6878661097d565b905060006103d48289610868565b905060006103ea670de0b6b3a764000085610868565b905060006103f883836109d1565b90506000610406828e610adf565b90506000610414828f610ba1565b9050600061043361042d670de0b6b3a76400008a610ba1565b8b610adf565b90506104508261044b670de0b6b3a764000084610ba1565b610868565b9f9e505050505050505050505050505050565b620f4240670de0b6b3a764000061039b565b6000806104828786610868565b90506000610498670de0b6b3a764000083610ba1565b905060006104a68286610adf565b905060006104c08761044b670de0b6b3a764000085610ba1565b905060006104ce8c83610ba1565b905060006104dc828e610868565b905060006104ea82886109d1565b905060006104f8828e610adf565b905060006105068e83610ba1565b905061051f8161044b670de0b6b3a76400006000610ba1565b99505050505050505050509695505050505050565b6000806105418786610868565b9050600061056061055a670de0b6b3a764000084610ba1565b85610adf565b9050600061057f8661057a670de0b6b3a764000085610ba1565b610adf565b9050600061058d8b8361097d565b9050600061059b828d610868565b905060006105a982876109d1565b905060006105b7828d610adf565b90506105c3818d610ba1565b9e9d5050505050505050505050505050565b64e8d4a51000670de0b6b3a764000061039b565b6000806105f68786610868565b905060006106118561057a670de0b6b3a76400006000610ba1565b9050600061061f8883610ba1565b9050600061062d828a610868565b9050600061064c82610647670de0b6b3a764000088610868565b6109d1565b9050600061065a828e610adf565b905060006106688e83610ba1565b9050600061068161042d670de0b6b3a76400008a610ba1565b90506104508261057a670de0b6b3a764000084610ba1565b68056bc75e2d6310000081565b6704a03ce68d21555681565b6542524f4e5a4560d01b90565b6000806106cc8787610868565b905060006106da8686610868565b905060006106e88383610868565b9050600061070a670de0b6b3a764000061044b670de0b6b3a764000089610ba1565b90506107168282610adf565b9a9950505050505050505050565b600881565b600281565b600181565b6000806107408786610868565b90506000610756670de0b6b3a764000085610ba1565b90506107628582610adf565b905060006107748a61044b8c8561097d565b9050600061078282856109d1565b90506000610798670de0b6b3a764000083610ba1565b90506107a48a82610adf565b9c9b505050505050505050505050565b600a670de0b6b3a764000061039b565b671bc16d674ec7ffff81565b600081565b6002670de0b6b3a764000061039b565b6000806107f28588610868565b905060006108008786610ba1565b9050600061080e8883610868565b9050600061081c82856109d1565b905061083081670de0b6b3a7640000610ba1565b9050610844670de0b6b3a764000087610ba1565b94506108596108538c83610adf565b86610868565b9b9a5050505050505050505050565b6000816108ab576040805162461bcd60e51b815260206004820152600c60248201526b4552525f4449565f5a45524f60a01b604482015290519081900360640190fd5b670de0b6b3a764000083028315806108d35750670de0b6b3a76400008482816108d057fe5b04145b610917576040805162461bcd60e51b815260206004820152601060248201526f11549497d1125597d25395115493905360821b604482015290519081900360640190fd5b60028304810181811015610965576040805162461bcd60e51b815260206004820152601060248201526f11549497d1125597d25395115493905360821b604482015290519081900360640190fd5b600084828161097057fe5b0493505050505b92915050565b6000828201838110156109ca576040805162461bcd60e51b815260206004820152601060248201526f4552525f4144445f4f564552464c4f5760801b604482015290519081900360640190fd5b9392505050565b60006001831015610a21576040805162461bcd60e51b81526020600482015260156024820152744552525f42504f575f424153455f544f4f5f4c4f5760581b604482015290519081900360640190fd5b671bc16d674ec7ffff831115610a77576040805162461bcd60e51b815260206004820152601660248201527508aa4a4be84a09eaebe8482a68abea89e9ebe90928e960531b604482015290519081900360640190fd5b6000610a8283610c03565b90506000610a908483610ba1565b90506000610aa686610aa185610c1e565b610c2c565b905081610ab7579250610977915050565b6000610ac887846305f5e100610c83565b9050610ad48282610adf565b979650505050505050565b6000828202831580610af9575082848281610af657fe5b04145b610b3d576040805162461bcd60e51b815260206004820152601060248201526f4552525f4d554c5f4f564552464c4f5760801b604482015290519081900360640190fd5b6706f05b59d3b20000810181811015610b90576040805162461bcd60e51b815260206004820152601060248201526f4552525f4d554c5f4f564552464c4f5760801b604482015290519081900360640190fd5b6000670de0b6b3a764000082610970565b6000806000610bb08585610d61565b915091508015610bfb576040805162461bcd60e51b81526020600482015260116024820152704552525f5355425f554e444552464c4f5760781b604482015290519081900360640190fd5b509392505050565b6000670de0b6b3a7640000610c1783610c1e565b0292915050565b670de0b6b3a7640000900490565b60008060028306610c4557670de0b6b3a7640000610c47565b835b90506002830492505b82156109ca57610c608485610adf565b93506002830615610c7857610c758185610adf565b90505b600283049250610c50565b6000828180610c9a87670de0b6b3a7640000610d61565b9092509050670de0b6b3a764000080600060015b888410610d52576000670de0b6b3a764000082029050600080610ce28a610cdd85670de0b6b3a7640000610ba1565b610d61565b91509150610cf48761057a848c610adf565b9650610d008784610868565b965086610d0f57505050610d52565b8715610d19579315935b8015610d23579315935b8415610d3a57610d338688610ba1565b9550610d47565b610d44868861097d565b95505b505050600101610cae565b50909998505050505050505050565b600080828410610d775750508082036000610d7f565b505081810360015b925092905056fea26469706673582212200d6201278a1d53afe37800172bd7579137b41eb2fda5a0fb02c43824e0d9d9fe64736f6c63430007050033",
          "opcodes": "PUSH1 0x80 PUSH1 0x40 MSTORE CALLVALUE DUP1 ISZERO PUSH2 0x10 JUMPI PUSH1 0x0 DUP1 REVERT JUMPDEST POP PUSH2 0xDBC DUP1 PUSH2 0x20 PUSH1 0x0 CODECOPY PUSH1 0x0 RETURN INVALID PUSH1 0x80 PUSH1 0x40 MSTORE CALLVALUE DUP1 ISZERO PUSH2 0x10 JUMPI PUSH1 0x0 DUP1 REVERT JUMPDEST POP PUSH1 0x4 CALLDATASIZE LT PUSH2 0x158 JUMPI PUSH1 0x0 CALLDATALOAD PUSH1 0xE0 SHR DUP1 PUSH4 0xA221EE49 GT PUSH2 0xC3 JUMPI DUP1 PUSH4 0xBC694EA2 GT PUSH2 0x7C JUMPI DUP1 PUSH4 0xBC694EA2 EQ PUSH2 0x32B JUMPI DUP1 PUSH4 0xC36596A6 EQ PUSH2 0x17F JUMPI DUP1 PUSH4 0xC6580D12 EQ PUSH2 0x333 JUMPI DUP1 PUSH4 0xE4A28A52 EQ PUSH2 0x15D JUMPI DUP1 PUSH4 0xEC093021 EQ PUSH2 0x33B JUMPI DUP1 PUSH4 0xF8D6AED4 EQ PUSH2 0x343 JUMPI PUSH2 0x158 JUMP JUMPDEST DUP1 PUSH4 0xA221EE49 EQ PUSH2 0x29B JUMPI DUP1 PUSH4 0xB0E0D136 EQ PUSH2 0x2D0 JUMPI DUP1 PUSH4 0xB7B800A4 EQ PUSH2 0x2D8 JUMPI DUP1 PUSH4 0xBA019DAB EQ PUSH2 0x2E0 JUMPI DUP1 PUSH4 0xBA9530A6 EQ PUSH2 0x2E8 JUMPI DUP1 PUSH4 0xBC063E1A EQ PUSH2 0x323 JUMPI PUSH2 0x158 JUMP JUMPDEST DUP1 PUSH4 0x8656B653 GT PUSH2 0x115 JUMPI DUP1 PUSH4 0x8656B653 EQ PUSH2 0x205 JUMPI DUP1 PUSH4 0x867378C5 EQ PUSH2 0x240 JUMPI DUP1 PUSH4 0x89298012 EQ PUSH2 0x248 JUMPI DUP1 PUSH4 0x9381CD2B EQ PUSH2 0x283 JUMPI DUP1 PUSH4 0x992E2A92 EQ PUSH2 0x28B JUMPI DUP1 PUSH4 0x9A86139B EQ PUSH2 0x293 JUMPI PUSH2 0x158 JUMP JUMPDEST DUP1 PUSH4 0x9A3BBE4 EQ PUSH2 0x15D JUMPI DUP1 PUSH4 0x189D00CA EQ PUSH2 0x177 JUMPI DUP1 PUSH4 0x218B5382 EQ PUSH2 0x17F JUMPI DUP1 PUSH4 0x5C1BBAF7 EQ PUSH2 0x187 JUMPI DUP1 PUSH4 0x76C7A3C7 EQ PUSH2 0x1C2 JUMPI DUP1 PUSH4 0x82F652AD EQ PUSH2 0x1CA JUMPI JUMPDEST PUSH1 0x0 DUP1 REVERT JUMPDEST PUSH2 0x165 PUSH2 0x37E JUMP JUMPDEST PUSH1 0x40 DUP1 MLOAD SWAP2 DUP3 MSTORE MLOAD SWAP1 DUP2 SWAP1 SUB PUSH1 0x20 ADD SWAP1 RETURN JUMPDEST PUSH2 0x165 PUSH2 0x38B JUMP JUMPDEST PUSH2 0x165 PUSH2 0x39F JUMP JUMPDEST PUSH2 0x165 PUSH1 0x4 DUP1 CALLDATASIZE SUB PUSH1 0xC0 DUP2 LT ISZERO PUSH2 0x19D JUMPI PUSH1 0x0 DUP1 REVERT JUMPDEST POP DUP1 CALLDATALOAD SWAP1 PUSH1 0x20 DUP2 ADD CALLDATALOAD SWAP1 PUSH1 0x40 DUP2 ADD CALLDATALOAD SWAP1 PUSH1 0x60 DUP2 ADD CALLDATALOAD SWAP1 PUSH1 0x80 DUP2 ADD CALLDATALOAD SWAP1 PUSH1 0xA0 ADD CALLDATALOAD PUSH2 0x3AB JUMP JUMPDEST PUSH2 0x165 PUSH2 0x463 JUMP JUMPDEST PUSH2 0x165 PUSH1 0x4 DUP1 CALLDATASIZE SUB PUSH1 0xC0 DUP2 LT ISZERO PUSH2 0x1E0 JUMPI PUSH1 0x0 DUP1 REVERT JUMPDEST POP DUP1 CALLDATALOAD SWAP1 PUSH1 0x20 DUP2 ADD CALLDATALOAD SWAP1 PUSH1 0x40 DUP2 ADD CALLDATALOAD SWAP1 PUSH1 0x60 DUP2 ADD CALLDATALOAD SWAP1 PUSH1 0x80 DUP2 ADD CALLDATALOAD SWAP1 PUSH1 0xA0 ADD CALLDATALOAD PUSH2 0x475 JUMP JUMPDEST PUSH2 0x165 PUSH1 0x4 DUP1 CALLDATASIZE SUB PUSH1 0xC0 DUP2 LT ISZERO PUSH2 0x21B JUMPI PUSH1 0x0 DUP1 REVERT JUMPDEST POP DUP1 CALLDATALOAD SWAP1 PUSH1 0x20 DUP2 ADD CALLDATALOAD SWAP1 PUSH1 0x40 DUP2 ADD CALLDATALOAD SWAP1 PUSH1 0x60 DUP2 ADD CALLDATALOAD SWAP1 PUSH1 0x80 DUP2 ADD CALLDATALOAD SWAP1 PUSH1 0xA0 ADD CALLDATALOAD PUSH2 0x534 JUMP JUMPDEST PUSH2 0x165 PUSH2 0x5D5 JUMP JUMPDEST PUSH2 0x165 PUSH1 0x4 DUP1 CALLDATASIZE SUB PUSH1 0xC0 DUP2 LT ISZERO PUSH2 0x25E JUMPI PUSH1 0x0 DUP1 REVERT JUMPDEST POP DUP1 CALLDATALOAD SWAP1 PUSH1 0x20 DUP2 ADD CALLDATALOAD SWAP1 PUSH1 0x40 DUP2 ADD CALLDATALOAD SWAP1 PUSH1 0x60 DUP2 ADD CALLDATALOAD SWAP1 PUSH1 0x80 DUP2 ADD CALLDATALOAD SWAP1 PUSH1 0xA0 ADD CALLDATALOAD PUSH2 0x5E9 JUMP JUMPDEST PUSH2 0x165 PUSH2 0x699 JUMP JUMPDEST PUSH2 0x165 PUSH2 0x6A6 JUMP JUMPDEST PUSH2 0x165 PUSH2 0x6B2 JUMP JUMPDEST PUSH2 0x165 PUSH1 0x4 DUP1 CALLDATASIZE SUB PUSH1 0xA0 DUP2 LT ISZERO PUSH2 0x2B1 JUMPI PUSH1 0x0 DUP1 REVERT JUMPDEST POP DUP1 CALLDATALOAD SWAP1 PUSH1 0x20 DUP2 ADD CALLDATALOAD SWAP1 PUSH1 0x40 DUP2 ADD CALLDATALOAD SWAP1 PUSH1 0x60 DUP2 ADD CALLDATALOAD SWAP1 PUSH1 0x80 ADD CALLDATALOAD PUSH2 0x6BF JUMP JUMPDEST PUSH2 0x165 PUSH2 0x724 JUMP JUMPDEST PUSH2 0x165 PUSH2 0x729 JUMP JUMPDEST PUSH2 0x165 PUSH2 0x72E JUMP JUMPDEST PUSH2 0x165 PUSH1 0x4 DUP1 CALLDATASIZE SUB PUSH1 0xC0 DUP2 LT ISZERO PUSH2 0x2FE JUMPI PUSH1 0x0 DUP1 REVERT JUMPDEST POP DUP1 CALLDATALOAD SWAP1 PUSH1 0x20 DUP2 ADD CALLDATALOAD SWAP1 PUSH1 0x40 DUP2 ADD CALLDATALOAD SWAP1 PUSH1 0x60 DUP2 ADD CALLDATALOAD SWAP1 PUSH1 0x80 DUP2 ADD CALLDATALOAD SWAP1 PUSH1 0xA0 ADD CALLDATALOAD PUSH2 0x733 JUMP JUMPDEST PUSH2 0x165 PUSH2 0x7B4 JUMP JUMPDEST PUSH2 0x165 PUSH2 0x7C4 JUMP JUMPDEST PUSH2 0x165 PUSH2 0x7D0 JUMP JUMPDEST PUSH2 0x165 PUSH2 0x7D5 JUMP JUMPDEST PUSH2 0x165 PUSH1 0x4 DUP1 CALLDATASIZE SUB PUSH1 0xC0 DUP2 LT ISZERO PUSH2 0x359 JUMPI PUSH1 0x0 DUP1 REVERT JUMPDEST POP DUP1 CALLDATALOAD SWAP1 PUSH1 0x20 DUP2 ADD CALLDATALOAD SWAP1 PUSH1 0x40 DUP2 ADD CALLDATALOAD SWAP1 PUSH1 0x60 DUP2 ADD CALLDATALOAD SWAP1 PUSH1 0x80 DUP2 ADD CALLDATALOAD SWAP1 PUSH1 0xA0 ADD CALLDATALOAD PUSH2 0x7E5 JUMP JUMPDEST PUSH9 0x2B5E3AF16B1880000 DUP2 JUMP JUMPDEST PUSH5 0x2540BE400 PUSH8 0xDE0B6B3A7640000 JUMPDEST DIV DUP2 JUMP JUMPDEST PUSH8 0xDE0B6B3A7640000 DUP2 JUMP JUMPDEST PUSH1 0x0 DUP1 PUSH2 0x3B8 DUP8 DUP7 PUSH2 0x868 JUMP JUMPDEST SWAP1 POP PUSH1 0x0 PUSH2 0x3C6 DUP8 DUP7 PUSH2 0x97D JUMP JUMPDEST SWAP1 POP PUSH1 0x0 PUSH2 0x3D4 DUP3 DUP10 PUSH2 0x868 JUMP JUMPDEST SWAP1 POP PUSH1 0x0 PUSH2 0x3EA PUSH8 0xDE0B6B3A7640000 DUP6 PUSH2 0x868 JUMP JUMPDEST SWAP1 POP PUSH1 0x0 PUSH2 0x3F8 DUP4 DUP4 PUSH2 0x9D1 JUMP JUMPDEST SWAP1 POP PUSH1 0x0 PUSH2 0x406 DUP3 DUP15 PUSH2 0xADF JUMP JUMPDEST SWAP1 POP PUSH1 0x0 PUSH2 0x414 DUP3 DUP16 PUSH2 0xBA1 JUMP JUMPDEST SWAP1 POP PUSH1 0x0 PUSH2 0x433 PUSH2 0x42D PUSH8 0xDE0B6B3A7640000 DUP11 PUSH2 0xBA1 JUMP JUMPDEST DUP12 PUSH2 0xADF JUMP JUMPDEST SWAP1 POP PUSH2 0x450 DUP3 PUSH2 0x44B PUSH8 0xDE0B6B3A7640000 DUP5 PUSH2 0xBA1 JUMP JUMPDEST PUSH2 0x868 JUMP JUMPDEST SWAP16 SWAP15 POP POP POP POP POP POP POP POP POP POP POP POP POP POP POP JUMP JUMPDEST PUSH3 0xF4240 PUSH8 0xDE0B6B3A7640000 PUSH2 0x39B JUMP JUMPDEST PUSH1 0x0 DUP1 PUSH2 0x482 DUP8 DUP7 PUSH2 0x868 JUMP JUMPDEST SWAP1 POP PUSH1 0x0 PUSH2 0x498 PUSH8 0xDE0B6B3A7640000 DUP4 PUSH2 0xBA1 JUMP JUMPDEST SWAP1 POP PUSH1 0x0 PUSH2 0x4A6 DUP3 DUP7 PUSH2 0xADF JUMP JUMPDEST SWAP1 POP PUSH1 0x0 PUSH2 0x4C0 DUP8 PUSH2 0x44B PUSH8 0xDE0B6B3A7640000 DUP6 PUSH2 0xBA1 JUMP JUMPDEST SWAP1 POP PUSH1 0x0 PUSH2 0x4CE DUP13 DUP4 PUSH2 0xBA1 JUMP JUMPDEST SWAP1 POP PUSH1 0x0 PUSH2 0x4DC DUP3 DUP15 PUSH2 0x868 JUMP JUMPDEST SWAP1 POP PUSH1 0x0 PUSH2 0x4EA DUP3 DUP9 PUSH2 0x9D1 JUMP JUMPDEST SWAP1 POP PUSH1 0x0 PUSH2 0x4F8 DUP3 DUP15 PUSH2 0xADF JUMP JUMPDEST SWAP1 POP PUSH1 0x0 PUSH2 0x506 DUP15 DUP4 PUSH2 0xBA1 JUMP JUMPDEST SWAP1 POP PUSH2 0x51F DUP2 PUSH2 0x44B PUSH8 0xDE0B6B3A7640000 PUSH1 0x0 PUSH2 0xBA1 JUMP JUMPDEST SWAP10 POP POP POP POP POP POP POP POP POP POP SWAP7 SWAP6 POP POP POP POP POP POP JUMP JUMPDEST PUSH1 0x0 DUP1 PUSH2 0x541 DUP8 DUP7 PUSH2 0x868 JUMP JUMPDEST SWAP1 POP PUSH1 0x0 PUSH2 0x560 PUSH2 0x55A PUSH8 0xDE0B6B3A7640000 DUP5 PUSH2 0xBA1 JUMP JUMPDEST DUP6 PUSH2 0xADF JUMP JUMPDEST SWAP1 POP PUSH1 0x0 PUSH2 0x57F DUP7 PUSH2 0x57A PUSH8 0xDE0B6B3A7640000 DUP6 PUSH2 0xBA1 JUMP JUMPDEST PUSH2 0xADF JUMP JUMPDEST SWAP1 POP PUSH1 0x0 PUSH2 0x58D DUP12 DUP4 PUSH2 0x97D JUMP JUMPDEST SWAP1 POP PUSH1 0x0 PUSH2 0x59B DUP3 DUP14 PUSH2 0x868 JUMP JUMPDEST SWAP1 POP PUSH1 0x0 PUSH2 0x5A9 DUP3 DUP8 PUSH2 0x9D1 JUMP JUMPDEST SWAP1 POP PUSH1 0x0 PUSH2 0x5B7 DUP3 DUP14 PUSH2 0xADF JUMP JUMPDEST SWAP1 POP PUSH2 0x5C3 DUP2 DUP14 PUSH2 0xBA1 JUMP JUMPDEST SWAP15 SWAP14 POP POP POP POP POP POP POP POP POP POP POP POP POP POP JUMP JUMPDEST PUSH5 0xE8D4A51000 PUSH8 0xDE0B6B3A7640000 PUSH2 0x39B JUMP JUMPDEST PUSH1 0x0 DUP1 PUSH2 0x5F6 DUP8 DUP7 PUSH2 0x868 JUMP JUMPDEST SWAP1 POP PUSH1 0x0 PUSH2 0x611 DUP6 PUSH2 0x57A PUSH8 0xDE0B6B3A7640000 PUSH1 0x0 PUSH2 0xBA1 JUMP JUMPDEST SWAP1 POP PUSH1 0x0 PUSH2 0x61F DUP9 DUP4 PUSH2 0xBA1 JUMP JUMPDEST SWAP1 POP PUSH1 0x0 PUSH2 0x62D DUP3 DUP11 PUSH2 0x868 JUMP JUMPDEST SWAP1 POP PUSH1 0x0 PUSH2 0x64C DUP3 PUSH2 0x647 PUSH8 0xDE0B6B3A7640000 DUP9 PUSH2 0x868 JUMP JUMPDEST PUSH2 0x9D1 JUMP JUMPDEST SWAP1 POP PUSH1 0x0 PUSH2 0x65A DUP3 DUP15 PUSH2 0xADF JUMP JUMPDEST SWAP1 POP PUSH1 0x0 PUSH2 0x668 DUP15 DUP4 PUSH2 0xBA1 JUMP JUMPDEST SWAP1 POP PUSH1 0x0 PUSH2 0x681 PUSH2 0x42D PUSH8 0xDE0B6B3A7640000 DUP11 PUSH2 0xBA1 JUMP JUMPDEST SWAP1 POP PUSH2 0x450 DUP3 PUSH2 0x57A PUSH8 0xDE0B6B3A7640000 DUP5 PUSH2 0xBA1 JUMP JUMPDEST PUSH9 0x56BC75E2D63100000 DUP2 JUMP JUMPDEST PUSH8 0x4A03CE68D215556 DUP2 JUMP JUMPDEST PUSH6 0x42524F4E5A45 PUSH1 0xD0 SHL SWAP1 JUMP JUMPDEST PUSH1 0x0 DUP1 PUSH2 0x6CC DUP8 DUP8 PUSH2 0x868 JUMP JUMPDEST SWAP1 POP PUSH1 0x0 PUSH2 0x6DA DUP7 DUP7 PUSH2 0x868 JUMP JUMPDEST SWAP1 POP PUSH1 0x0 PUSH2 0x6E8 DUP4 DUP4 PUSH2 0x868 JUMP JUMPDEST SWAP1 POP PUSH1 0x0 PUSH2 0x70A PUSH8 0xDE0B6B3A7640000 PUSH2 0x44B PUSH8 0xDE0B6B3A7640000 DUP10 PUSH2 0xBA1 JUMP JUMPDEST SWAP1 POP PUSH2 0x716 DUP3 DUP3 PUSH2 0xADF JUMP JUMPDEST SWAP11 SWAP10 POP POP POP POP POP POP POP POP POP POP JUMP JUMPDEST PUSH1 0x8 DUP2 JUMP JUMPDEST PUSH1 0x2 DUP2 JUMP JUMPDEST PUSH1 0x1 DUP2 JUMP JUMPDEST PUSH1 0x0 DUP1 PUSH2 0x740 DUP8 DUP7 PUSH2 0x868 JUMP JUMPDEST SWAP1 POP PUSH1 0x0 PUSH2 0x756 PUSH8 0xDE0B6B3A7640000 DUP6 PUSH2 0xBA1 JUMP JUMPDEST SWAP1 POP PUSH2 0x762 DUP6 DUP3 PUSH2 0xADF JUMP JUMPDEST SWAP1 POP PUSH1 0x0 PUSH2 0x774 DUP11 PUSH2 0x44B DUP13 DUP6 PUSH2 0x97D JUMP JUMPDEST SWAP1 POP PUSH1 0x0 PUSH2 0x782 DUP3 DUP6 PUSH2 0x9D1 JUMP JUMPDEST SWAP1 POP PUSH1 0x0 PUSH2 0x798 PUSH8 0xDE0B6B3A7640000 DUP4 PUSH2 0xBA1 JUMP JUMPDEST SWAP1 POP PUSH2 0x7A4 DUP11 DUP3 PUSH2 0xADF JUMP JUMPDEST SWAP13 SWAP12 POP POP POP POP POP POP POP POP POP POP POP POP JUMP JUMPDEST PUSH1 0xA PUSH8 0xDE0B6B3A7640000 PUSH2 0x39B JUMP JUMPDEST PUSH8 0x1BC16D674EC7FFFF DUP2 JUMP JUMPDEST PUSH1 0x0 DUP2 JUMP JUMPDEST PUSH1 0x2 PUSH8 0xDE0B6B3A7640000 PUSH2 0x39B JUMP JUMPDEST PUSH1 0x0 DUP1 PUSH2 0x7F2 DUP6 DUP9 PUSH2 0x868 JUMP JUMPDEST SWAP1 POP PUSH1 0x0 PUSH2 0x800 DUP8 DUP7 PUSH2 0xBA1 JUMP JUMPDEST SWAP1 POP PUSH1 0x0 PUSH2 0x80E DUP9 DUP4 PUSH2 0x868 JUMP JUMPDEST SWAP1 POP PUSH1 0x0 PUSH2 0x81C DUP3 DUP6 PUSH2 0x9D1 JUMP JUMPDEST SWAP1 POP PUSH2 0x830 DUP2 PUSH8 0xDE0B6B3A7640000 PUSH2 0xBA1 JUMP JUMPDEST SWAP1 POP PUSH2 0x844 PUSH8 0xDE0B6B3A7640000 DUP8 PUSH2 0xBA1 JUMP JUMPDEST SWAP5 POP PUSH2 0x859 PUSH2 0x853 DUP13 DUP4 PUSH2 0xADF JUMP JUMPDEST DUP7 PUSH2 0x868 JUMP JUMPDEST SWAP12 SWAP11 POP POP POP POP POP POP POP POP POP POP POP JUMP JUMPDEST PUSH1 0x0 DUP2 PUSH2 0x8AB JUMPI PUSH1 0x40 DUP1 MLOAD PUSH3 0x461BCD PUSH1 0xE5 SHL DUP2 MSTORE PUSH1 0x20 PUSH1 0x4 DUP3 ADD MSTORE PUSH1 0xC PUSH1 0x24 DUP3 ADD MSTORE PUSH12 0x4552525F4449565F5A45524F PUSH1 0xA0 SHL PUSH1 0x44 DUP3 ADD MSTORE SWAP1 MLOAD SWAP1 DUP2 SWAP1 SUB PUSH1 0x64 ADD SWAP1 REVERT JUMPDEST PUSH8 0xDE0B6B3A7640000 DUP4 MUL DUP4 ISZERO DUP1 PUSH2 0x8D3 JUMPI POP PUSH8 0xDE0B6B3A7640000 DUP5 DUP3 DUP2 PUSH2 0x8D0 JUMPI INVALID JUMPDEST DIV EQ JUMPDEST PUSH2 0x917 JUMPI PUSH1 0x40 DUP1 MLOAD PUSH3 0x461BCD PUSH1 0xE5 SHL DUP2 MSTORE PUSH1 0x20 PUSH1 0x4 DUP3 ADD MSTORE PUSH1 0x10 PUSH1 0x24 DUP3 ADD MSTORE PUSH16 0x11549497D1125597D253951154939053 PUSH1 0x82 SHL PUSH1 0x44 DUP3 ADD MSTORE SWAP1 MLOAD SWAP1 DUP2 SWAP1 SUB PUSH1 0x64 ADD SWAP1 REVERT JUMPDEST PUSH1 0x2 DUP4 DIV DUP2 ADD DUP2 DUP2 LT ISZERO PUSH2 0x965 JUMPI PUSH1 0x40 DUP1 MLOAD PUSH3 0x461BCD PUSH1 0xE5 SHL DUP2 MSTORE PUSH1 0x20 PUSH1 0x4 DUP3 ADD MSTORE PUSH1 0x10 PUSH1 0x24 DUP3 ADD MSTORE PUSH16 0x11549497D1125597D253951154939053 PUSH1 0x82 SHL PUSH1 0x44 DUP3 ADD MSTORE SWAP1 MLOAD SWAP1 DUP2 SWAP1 SUB PUSH1 0x64 ADD SWAP1 REVERT JUMPDEST PUSH1 0x0 DUP5 DUP3 DUP2 PUSH2 0x970 JUMPI INVALID JUMPDEST DIV SWAP4 POP POP POP POP JUMPDEST SWAP3 SWAP2 POP POP JUMP JUMPDEST PUSH1 0x0 DUP3 DUP3 ADD DUP4 DUP2 LT ISZERO PUSH2 0x9CA JUMPI PUSH1 0x40 DUP1 MLOAD PUSH3 0x461BCD PUSH1 0xE5 SHL DUP2 MSTORE PUSH1 0x20 PUSH1 0x4 DUP3 ADD MSTORE PUSH1 0x10 PUSH1 0x24 DUP3 ADD MSTORE PUSH16 0x4552525F4144445F4F564552464C4F57 PUSH1 0x80 SHL PUSH1 0x44 DUP3 ADD MSTORE SWAP1 MLOAD SWAP1 DUP2 SWAP1 SUB PUSH1 0x64 ADD SWAP1 REVERT JUMPDEST SWAP4 SWAP3 POP POP POP JUMP JUMPDEST PUSH1 0x0 PUSH1 0x1 DUP4 LT ISZERO PUSH2 0xA21 JUMPI PUSH1 0x40 DUP1 MLOAD PUSH3 0x461BCD PUSH1 0xE5 SHL DUP2 MSTORE PUSH1 0x20 PUSH1 0x4 DUP3 ADD MSTORE PUSH1 0x15 PUSH1 0x24 DUP3 ADD MSTORE PUSH21 0x4552525F42504F575F424153455F544F4F5F4C4F57 PUSH1 0x58 SHL PUSH1 0x44 DUP3 ADD MSTORE SWAP1 MLOAD SWAP1 DUP2 SWAP1 SUB PUSH1 0x64 ADD SWAP1 REVERT JUMPDEST PUSH8 0x1BC16D674EC7FFFF DUP4 GT ISZERO PUSH2 0xA77 JUMPI PUSH1 0x40 DUP1 MLOAD PUSH3 0x461BCD PUSH1 0xE5 SHL DUP2 MSTORE PUSH1 0x20 PUSH1 0x4 DUP3 ADD MSTORE PUSH1 0x16 PUSH1 0x24 DUP3 ADD MSTORE PUSH22 0x8AA4A4BE84A09EAEBE8482A68ABEA89E9EBE90928E9 PUSH1 0x53 SHL PUSH1 0x44 DUP3 ADD MSTORE SWAP1 MLOAD SWAP1 DUP2 SWAP1 SUB PUSH1 0x64 ADD SWAP1 REVERT JUMPDEST PUSH1 0x0 PUSH2 0xA82 DUP4 PUSH2 0xC03 JUMP JUMPDEST SWAP1 POP PUSH1 0x0 PUSH2 0xA90 DUP5 DUP4 PUSH2 0xBA1 JUMP JUMPDEST SWAP1 POP PUSH1 0x0 PUSH2 0xAA6 DUP7 PUSH2 0xAA1 DUP6 PUSH2 0xC1E JUMP JUMPDEST PUSH2 0xC2C JUMP JUMPDEST SWAP1 POP DUP2 PUSH2 0xAB7 JUMPI SWAP3 POP PUSH2 0x977 SWAP2 POP POP JUMP JUMPDEST PUSH1 0x0 PUSH2 0xAC8 DUP8 DUP5 PUSH4 0x5F5E100 PUSH2 0xC83 JUMP JUMPDEST SWAP1 POP PUSH2 0xAD4 DUP3 DUP3 PUSH2 0xADF JUMP JUMPDEST SWAP8 SWAP7 POP POP POP POP POP POP POP JUMP JUMPDEST PUSH1 0x0 DUP3 DUP3 MUL DUP4 ISZERO DUP1 PUSH2 0xAF9 JUMPI POP DUP3 DUP5 DUP3 DUP2 PUSH2 0xAF6 JUMPI INVALID JUMPDEST DIV EQ JUMPDEST PUSH2 0xB3D JUMPI PUSH1 0x40 DUP1 MLOAD PUSH3 0x461BCD PUSH1 0xE5 SHL DUP2 MSTORE PUSH1 0x20 PUSH1 0x4 DUP3 ADD MSTORE PUSH1 0x10 PUSH1 0x24 DUP3 ADD MSTORE PUSH16 0x4552525F4D554C5F4F564552464C4F57 PUSH1 0x80 SHL PUSH1 0x44 DUP3 ADD MSTORE SWAP1 MLOAD SWAP1 DUP2 SWAP1 SUB PUSH1 0x64 ADD SWAP1 REVERT JUMPDEST PUSH8 0x6F05B59D3B20000 DUP2 ADD DUP2 DUP2 LT ISZERO PUSH2 0xB90 JUMPI PUSH1 0x40 DUP1 MLOAD PUSH3 0x461BCD PUSH1 0xE5 SHL DUP2 MSTORE PUSH1 0x20 PUSH1 0x4 DUP3 ADD MSTORE PUSH1 0x10 PUSH1 0x24 DUP3 ADD MSTORE PUSH16 0x4552525F4D554C5F4F564552464C4F57 PUSH1 0x80 SHL PUSH1 0x44 DUP3 ADD MSTORE SWAP1 MLOAD SWAP1 DUP2 SWAP1 SUB PUSH1 0x64 ADD SWAP1 REVERT JUMPDEST PUSH1 0x0 PUSH8 0xDE0B6B3A7640000 DUP3 PUSH2 0x970 JUMP JUMPDEST PUSH1 0x0 DUP1 PUSH1 0x0 PUSH2 0xBB0 DUP6 DUP6 PUSH2 0xD61 JUMP JUMPDEST SWAP2 POP SWAP2 POP DUP1 ISZERO PUSH2 0xBFB JUMPI PUSH1 0x40 DUP1 MLOAD PUSH3 0x461BCD PUSH1 0xE5 SHL DUP2 MSTORE PUSH1 0x20 PUSH1 0x4 DUP3 ADD MSTORE PUSH1 0x11 PUSH1 0x24 DUP3 ADD MSTORE PUSH17 0x4552525F5355425F554E444552464C4F57 PUSH1 0x78 SHL PUSH1 0x44 DUP3 ADD MSTORE SWAP1 MLOAD SWAP1 DUP2 SWAP1 SUB PUSH1 0x64 ADD SWAP1 REVERT JUMPDEST POP SWAP4 SWAP3 POP POP POP JUMP JUMPDEST PUSH1 0x0 PUSH8 0xDE0B6B3A7640000 PUSH2 0xC17 DUP4 PUSH2 0xC1E JUMP JUMPDEST MUL SWAP3 SWAP2 POP POP JUMP JUMPDEST PUSH8 0xDE0B6B3A7640000 SWAP1 DIV SWAP1 JUMP JUMPDEST PUSH1 0x0 DUP1 PUSH1 0x2 DUP4 MOD PUSH2 0xC45 JUMPI PUSH8 0xDE0B6B3A7640000 PUSH2 0xC47 JUMP JUMPDEST DUP4 JUMPDEST SWAP1 POP PUSH1 0x2 DUP4 DIV SWAP3 POP JUMPDEST DUP3 ISZERO PUSH2 0x9CA JUMPI PUSH2 0xC60 DUP5 DUP6 PUSH2 0xADF JUMP JUMPDEST SWAP4 POP PUSH1 0x2 DUP4 MOD ISZERO PUSH2 0xC78 JUMPI PUSH2 0xC75 DUP2 DUP6 PUSH2 0xADF JUMP JUMPDEST SWAP1 POP JUMPDEST PUSH1 0x2 DUP4 DIV SWAP3 POP PUSH2 0xC50 JUMP JUMPDEST PUSH1 0x0 DUP3 DUP2 DUP1 PUSH2 0xC9A DUP8 PUSH8 0xDE0B6B3A7640000 PUSH2 0xD61 JUMP JUMPDEST SWAP1 SWAP3 POP SWAP1 POP PUSH8 0xDE0B6B3A7640000 DUP1 PUSH1 0x0 PUSH1 0x1 JUMPDEST DUP9 DUP5 LT PUSH2 0xD52 JUMPI PUSH1 0x0 PUSH8 0xDE0B6B3A7640000 DUP3 MUL SWAP1 POP PUSH1 0x0 DUP1 PUSH2 0xCE2 DUP11 PUSH2 0xCDD DUP6 PUSH8 0xDE0B6B3A7640000 PUSH2 0xBA1 JUMP JUMPDEST PUSH2 0xD61 JUMP JUMPDEST SWAP2 POP SWAP2 POP PUSH2 0xCF4 DUP8 PUSH2 0x57A DUP5 DUP13 PUSH2 0xADF JUMP JUMPDEST SWAP7 POP PUSH2 0xD00 DUP8 DUP5 PUSH2 0x868 JUMP JUMPDEST SWAP7 POP DUP7 PUSH2 0xD0F JUMPI POP POP POP PUSH2 0xD52 JUMP JUMPDEST DUP8 ISZERO PUSH2 0xD19 JUMPI SWAP4 ISZERO SWAP4 JUMPDEST DUP1 ISZERO PUSH2 0xD23 JUMPI SWAP4 ISZERO SWAP4 JUMPDEST DUP5 ISZERO PUSH2 0xD3A JUMPI PUSH2 0xD33 DUP7 DUP9 PUSH2 0xBA1 JUMP JUMPDEST SWAP6 POP PUSH2 0xD47 JUMP JUMPDEST PUSH2 0xD44 DUP7 DUP9 PUSH2 0x97D JUMP JUMPDEST SWAP6 POP JUMPDEST POP POP POP PUSH1 0x1 ADD PUSH2 0xCAE JUMP JUMPDEST POP SWAP1 SWAP10 SWAP9 POP POP POP POP POP POP POP POP POP JUMP JUMPDEST PUSH1 0x0 DUP1 DUP3 DUP5 LT PUSH2 0xD77 JUMPI POP POP DUP1 DUP3 SUB PUSH1 0x0 PUSH2 0xD7F JUMP JUMPDEST POP POP DUP2 DUP2 SUB PUSH1 0x1 JUMPDEST SWAP3 POP SWAP3 SWAP1 POP JUMP INVALID LOG2 PUSH5 0x6970667358 0x22 SLT KECCAK256 0xD PUSH3 0x1278A SAR MSTORE8 0xAF 0xE3 PUSH25 0x172BD7579137B41EB2FDA5A0FB02C43824E0D9D9FE64736F PUSH13 0x63430007050033000000000000 "
        },
        "methodIdentifiers": {
          "BONE()": "c36596a6",
          "BPOW_PRECISION()": "189d00ca",
          "EXIT_FEE()": "c6580d12",
          "INIT_POOL_SUPPLY()": "9381cd2b",
          "MAX_BOUND_TOKENS()": "b0e0d136",
          "MAX_BPOW_BASE()": "bc694ea2",
          "MAX_FEE()": "bc063e1a",
          "MAX_IN_RATIO()": "ec093021",
          "MAX_OUT_RATIO()": "992e2a92",
          "MAX_TOTAL_WEIGHT()": "09a3bbe4",
          "MAX_WEIGHT()": "e4a28a52",
          "MIN_BALANCE()": "867378c5",
          "MIN_BOUND_TOKENS()": "b7b800a4",
          "MIN_BPOW_BASE()": "ba019dab",
          "MIN_FEE()": "76c7a3c7",
          "MIN_WEIGHT()": "218b5382",
          "calcInGivenOut(uint256,uint256,uint256,uint256,uint256,uint256)": "f8d6aed4",
          "calcOutGivenIn(uint256,uint256,uint256,uint256,uint256,uint256)": "ba9530a6",
          "calcPoolInGivenSingleOut(uint256,uint256,uint256,uint256,uint256,uint256)": "82f652ad",
          "calcPoolOutGivenSingleIn(uint256,uint256,uint256,uint256,uint256,uint256)": "8656b653",
          "calcSingleInGivenPoolOut(uint256,uint256,uint256,uint256,uint256,uint256)": "5c1bbaf7",
          "calcSingleOutGivenPoolIn(uint256,uint256,uint256,uint256,uint256,uint256)": "89298012",
          "calcSpotPrice(uint256,uint256,uint256,uint256,uint256)": "a221ee49",
          "getColor()": "9a86139b"
        }
      }
    }
  }
}