{
  "_format": "hh-sol-artifact-1",
  "contractName": "ERC20PresetFixedSupply",
  "sourceName": "contracts/dependencies/authorization-platform/contracts/dependencies/holyzeppelin/contracts/token/ERC20/presets/ERC20PresetFixedSupply.sol",
  "abi": [
    {
      "inputs": [
        {
          "internalType": "string",
          "name": "name",
          "type": "string"
        },
        {
          "internalType": "string",
          "name": "symbol",
          "type": "string"
        },
        {
          "internalType": "uint256",
          "name": "initialSupply",
          "type": "uint256"
        },
        {
          "internalType": "address",
          "name": "owner",
          "type": "address"
        }
      ],
      "stateMutability": "nonpayable",
      "type": "constructor"
    },
    {
      "anonymous": false,
      "inputs": [
        {
          "indexed": true,
          "internalType": "address",
          "name": "owner",
          "type": "address"
        },
        {
          "indexed": true,
          "internalType": "address",
          "name": "spender",
          "type": "address"
        },
        {
          "indexed": false,
          "internalType": "uint256",
          "name": "value",
          "type": "uint256"
        }
      ],
      "name": "Approval",
      "type": "event"
    },
    {
      "anonymous": false,
      "inputs": [
        {
          "indexed": true,
          "internalType": "address",
          "name": "from",
          "type": "address"
        },
        {
          "indexed": true,
          "internalType": "address",
          "name": "to",
          "type": "address"
        },
        {
          "indexed": false,
          "internalType": "uint256",
          "name": "value",
          "type": "uint256"
        }
      ],
      "name": "Transfer",
      "type": "event"
    },
    {
      "inputs": [],
      "name": "ERC1820_ACCEPT_MAGIC",
      "outputs": [
        {
          "internalType": "bytes32",
          "name": "",
          "type": "bytes32"
        }
      ],
      "stateMutability": "view",
      "type": "function"
    },
    {
      "inputs": [],
      "name": "ERC1820_IMPLEMENTER_INTERFACE_ID",
      "outputs": [
        {
          "internalType": "bytes32",
          "name": "",
          "type": "bytes32"
        }
      ],
      "stateMutability": "view",
      "type": "function"
    },
    {
      "inputs": [
        {
          "internalType": "address",
          "name": "account_",
          "type": "address"
        },
        {
          "internalType": "uint256",
          "name": "amount_",
          "type": "uint256"
        }
      ],
      "name": "_burnFrom",
      "outputs": [],
      "stateMutability": "nonpayable",
      "type": "function"
    },
    {
      "inputs": [
        {
          "internalType": "address",
          "name": "owner",
          "type": "address"
        },
        {
          "internalType": "address",
          "name": "spender",
          "type": "address"
        }
      ],
      "name": "allowance",
      "outputs": [
        {
          "internalType": "uint256",
          "name": "",
          "type": "uint256"
        }
      ],
      "stateMutability": "view",
      "type": "function"
    },
    {
      "inputs": [
        {
          "internalType": "address",
          "name": "spender",
          "type": "address"
        },
        {
          "internalType": "uint256",
          "name": "amount",
          "type": "uint256"
        }
      ],
      "name": "approve",
      "outputs": [
        {
          "internalType": "bool",
          "name": "",
          "type": "bool"
        }
      ],
      "stateMutability": "nonpayable",
      "type": "function"
    },
    {
      "inputs": [
        {
          "internalType": "address",
          "name": "account",
          "type": "address"
        }
      ],
      "name": "balanceOf",
      "outputs": [
        {
          "internalType": "uint256",
          "name": "",
          "type": "uint256"
        }
      ],
      "stateMutability": "view",
      "type": "function"
    },
    {
      "inputs": [
        {
          "internalType": "uint256",
          "name": "amount",
          "type": "uint256"
        }
      ],
      "name": "burn",
      "outputs": [],
      "stateMutability": "nonpayable",
      "type": "function"
    },
    {
      "inputs": [
        {
          "internalType": "address",
          "name": "account_",
          "type": "address"
        },
        {
          "internalType": "uint256",
          "name": "amount_",
          "type": "uint256"
        }
      ],
      "name": "burnFrom",
      "outputs": [],
      "stateMutability": "nonpayable",
      "type": "function"
    },
    {
      "inputs": [
        {
          "internalType": "bytes32",
          "name": "interfaceHashQuery_",
          "type": "bytes32"
        },
        {
          "internalType": "address",
          "name": "account",
          "type": "address"
        }
      ],
      "name": "canImplementInterfaceForAddress",
      "outputs": [
        {
          "internalType": "bytes32",
          "name": "",
          "type": "bytes32"
        }
      ],
      "stateMutability": "view",
      "type": "function"
    },
    {
      "inputs": [],
      "name": "decimals",
      "outputs": [
        {
          "internalType": "uint8",
          "name": "",
          "type": "uint8"
        }
      ],
      "stateMutability": "view",
      "type": "function"
    },
    {
      "inputs": [
        {
          "internalType": "address",
          "name": "spender",
          "type": "address"
        },
        {
          "internalType": "uint256",
          "name": "subtractedValue",
          "type": "uint256"
        }
      ],
      "name": "decreaseAllowance",
      "outputs": [
        {
          "internalType": "bool",
          "name": "",
          "type": "bool"
        }
      ],
      "stateMutability": "nonpayable",
      "type": "function"
    },
    {
      "inputs": [
        {
          "internalType": "address",
          "name": "spender",
          "type": "address"
        },
        {
          "internalType": "uint256",
          "name": "addedValue",
          "type": "uint256"
        }
      ],
      "name": "increaseAllowance",
      "outputs": [
        {
          "internalType": "bool",
          "name": "",
          "type": "bool"
        }
      ],
      "stateMutability": "nonpayable",
      "type": "function"
    },
    {
      "inputs": [],
      "name": "name",
      "outputs": [
        {
          "internalType": "string",
          "name": "",
          "type": "string"
        }
      ],
      "stateMutability": "view",
      "type": "function"
    },
    {
      "inputs": [],
      "name": "symbol",
      "outputs": [
        {
          "internalType": "string",
          "name": "",
          "type": "string"
        }
      ],
      "stateMutability": "view",
      "type": "function"
    },
    {
      "inputs": [],
      "name": "totalSupply",
      "outputs": [
        {
          "internalType": "uint256",
          "name": "",
          "type": "uint256"
        }
      ],
      "stateMutability": "view",
      "type": "function"
    },
    {
      "inputs": [
        {
          "internalType": "address",
          "name": "recipient",
          "type": "address"
        },
        {
          "internalType": "uint256",
          "name": "amount",
          "type": "uint256"
        }
      ],
      "name": "transfer",
      "outputs": [
        {
          "internalType": "bool",
          "name": "",
          "type": "bool"
        }
      ],
      "stateMutability": "nonpayable",
      "type": "function"
    },
    {
      "inputs": [
        {
          "internalType": "address",
          "name": "sender",
          "type": "address"
        },
        {
          "internalType": "address",
          "name": "recipient",
          "type": "address"
        },
        {
          "internalType": "uint256",
          "name": "amount",
          "type": "uint256"
        }
      ],
      "name": "transferFrom",
      "outputs": [
        {
          "internalType": "bool",
          "name": "",
          "type": "bool"
        }
      ],
      "stateMutability": "nonpayable",
      "type": "function"
    }
  ],
  "bytecode": "0x60806040523480156200001157600080fd5b506040516200264e3803806200264e833981810160405260808110156200003757600080fd5b81019080805160405193929190846401000000008211156200005857600080fd5b9083019060208201858111156200006e57600080fd5b82516401000000008111828201881017156200008957600080fd5b82525081516020918201929091019080838360005b83811015620000b85781810151838201526020016200009e565b50505050905090810190601f168015620000e65780820380516001836020036101000a031916815260200191505b50604052602001805160405193929190846401000000008211156200010a57600080fd5b9083019060208201858111156200012057600080fd5b82516401000000008111828201881017156200013b57600080fd5b82525081516020918201929091019080838360005b838110156200016a57818101518382015260200162000150565b50505050905090810190601f168015620001985780820380516001836020036101000a031916815260200191505b5060408181526020838101519382015160808401909252604380845293955090935086928692601292620001e0929062002305908301396200033760201b620008271760201c565b62000222604051806080016040528060538152602001620025b2605391396000805160206200260583398151915260001c620003ea60201b620008cd1760201c565b620002656040518060800160405280604e81526020016200247d604e91396000805160206200260583398151915260001c30620004af60201b620009841760201c565b62000280600080516020620026058339815191523062000586565b620002af60405180606001604052806040815260200162002247604091396200033760201b620008271760201c565b620002de6040518060800160405280605081526020016200242d605091396200033760201b620008271760201c565b8251620002f390600490602086019062000d74565b5081516200030990600590602085019062000d74565b506006805460ff191660ff92909216919091179055506200032d9050818362000618565b5050505062000e20565b620003e7816040516024018080602001828103825283818151815260200191508051906020019080838360005b838110156200037e57818101518382015260200162000364565b50505050905090810190601f168015620003ac5780820380516001836020036101000a031916815260200191505b5060408051601f198184030181529190526020810180516001600160e01b0390811663104c13eb60e21b1790915290935062000a3716915050565b50565b620004ab82826040516024018080602001836001600160a01b03168152602001828103825284818151815260200191508051906020019080838360005b838110156200044157818101518382015260200162000427565b50505050905090810190601f1680156200046f5780820380516001836020036101000a031916815260200191505b5060408051601f198184030181529190526020810180516001600160e01b0390811663319af33360e01b1790915290945062000a371692505050565b5050565b620005818383836040516024018080602001846001600160a01b03168152602001836001600160a01b03168152602001828103825285818151815260200191508051906020019080838360005b8381101562000516578181015183820152602001620004fc565b50505050905090810190601f168015620005445780820380516001836020036101000a031916815260200191505b5060408051601f198184030181529190526020810180516001600160e01b039081166307e763af60e51b1790915290955062000a37169350505050565b505050565b620005ba6040518060a00160405280607e815260200162002287607e91398360001c83620004af60201b620009841760201c565b6000828152602081815260408083206001600160a01b0385168452825291829020805460ff19166001179055815160a08101909252607e808352620004ab929162002287908301398360001c83620004af60201b620009841760201c565b620006dc6040518060600160405280602a815260200162002522602a913960058054604080516020601f60026000196101006001881615020190951694909404938401819004810282018101909252828152869390929091830182828015620006c55780601f106200069957610100808354040283529160200191620006c5565b820191906000526020600020905b815481529060010190602001808311620006a757829003601f168201915b50505050508562000a5860201b62000a4c1760201c565b6200070b6040518060800160405280604181526020016200239d604191396200033760201b620008271760201c565b6001600160a01b03821662000767576040805162461bcd60e51b815260206004820152601f60248201527f45524332303a206d696e7420746f20746865207a65726f206164647265737300604482015290519081900360640190fd5b620007966040518060600160405280604081526020016200254c604091396200033760201b620008271760201c565b620007c56040518060600160405280602c8152602001620024f6602c91396200033760201b620008271760201c565b620007d230838362000581565b620008016040518060600160405280602b8152602001620024cb602b91396200033760201b620008271760201c565b6200083160405180606001604052806029815260200162002625602991398262000b9160201b62000b781760201c565b6200084d8160035462000c4960201b62000c261790919060201c565b600381905550620008856040518060600160405280602281526020016200237b6022913960035462000b9160201b62000b781760201c565b620008b7604051806060016040528060278152602001620023de6027913960035462000b9160201b62000b781760201c565b620008e86040518060600160405280603381526020016200221460339139828462000cab60201b62000c801760201c565b6001600160a01b0382166000908152600160209081526040909120546200091a91839062000c2662000c49821b17901c565b60016000846001600160a01b03166001600160a01b031681526020019081526020016000208190555062000999604051806060016040528060338152602001620023486033913960016000856001600160a01b03166001600160a01b03168152602001908152602001600020548462000cab60201b62000c801760201c565b620009c860405180606001604052806028815260200162002405602891396200033760201b620008271760201c565b6040805182815290516001600160a01b0384169130917fddf252ad1be2c89b69c2b068fc378daa952ba7f163c4a11628f55a4df523b3ef9181900360200190a3620004ab6040518060600160405280602681526020016200258c602691396200033760201b620008271760201c565b80516a636f6e736f6c652e6c6f67602083016000808483855afa5050505050565b62000b8b84848484604051602401808060200185815260200180602001846001600160a01b03168152602001838103835287818151815260200191508051906020019080838360005b8381101562000abb57818101518382015260200162000aa1565b50505050905090810190601f16801562000ae95780820380516001836020036101000a031916815260200191505b50838103825285518152855160209182019187019080838360005b8381101562000b1e57818101518382015260200162000b04565b50505050905090810190601f16801562000b4c5780820380516001836020036101000a031916815260200191505b5060408051601f198184030181529190526020810180516001600160e01b0390811663bb7235e960e01b1790915290975062000a371695505050505050565b50505050565b620004ab82826040516024018080602001838152602001828103825284818151815260200191508051906020019080838360005b8381101562000bdf57818101518382015260200162000bc5565b50505050905090810190601f16801562000c0d5780820380516001836020036101000a031916815260200191505b5060408051601f198184030181529190526020810180516001600160e01b039081166309710a9d60e41b1790915290945062000a371692505050565b60008282018381101562000ca4576040805162461bcd60e51b815260206004820152601b60248201527f536166654d6174683a206164646974696f6e206f766572666c6f770000000000604482015290519081900360640190fd5b9392505050565b620005818383836040516024018080602001848152602001836001600160a01b03168152602001828103825285818151815260200191508051906020019080838360005b8381101562000d0957818101518382015260200162000cef565b50505050905090810190601f16801562000d375780820380516001836020036101000a031916815260200191505b5060408051601f198184030181529190526020810180516001600160e01b0390811663e3849f7960e01b1790915290955062000a37169350505050565b828054600181600116156101000203166002900490600052602060002090601f01602090048101928262000dac576000855562000df7565b82601f1062000dc757805160ff191683800117855562000df7565b8280016001018555821562000df7579182015b8281111562000df757825182559160200191906001019062000dda565b5062000e0592915062000e09565b5090565b5b8082111562000e05576000815560010162000e0a565b6113e48062000e306000396000f3fe608060405234801561001057600080fd5b506004361061010b5760003560e01c806370a08231116100a2578063a3cff9b511610071578063a3cff9b514610338578063a457c2d714610340578063a9059cbb1461036c578063dd62ed3e14610398578063ec38fa42146103c65761010b565b806370a08231146102b257806379cc6790146102d857806395d89b4114610304578063a22b35ce1461030c5761010b565b8063249cb3fa116100de578063249cb3fa1461021d578063313ce56714610249578063395093511461026757806342966c68146102935761010b565b806306fdde0314610110578063095ea7b31461018d57806318160ddd146101cd57806323b872dd146101e7575b600080fd5b6101186103ce565b6040805160208082528351818301528351919283929083019185019080838360005b8381101561015257818101518382015260200161013a565b50505050905090810190601f16801561017f5780820380516001836020036101000a031916815260200191505b509250505060405180910390f35b6101b9600480360360408110156101a357600080fd5b506001600160a01b038135169060200135610464565b604080519115158252519081900360200190f35b6101d5610481565b60408051918252519081900360200190f35b6101b9600480360360608110156101fd57600080fd5b506001600160a01b03813581169160208101359091169060400135610487565b6101d56004803603604081101561023357600080fd5b50803590602001356001600160a01b031661050e565b6102516105cc565b6040805160ff9092168252519081900360200190f35b6101b96004803603604081101561027d57600080fd5b506001600160a01b0381351690602001356105d5565b6102b0600480360360208110156102a957600080fd5b5035610623565b005b6101d5600480360360208110156102c857600080fd5b50356001600160a01b0316610637565b6102b0600480360360408110156102ee57600080fd5b506001600160a01b038135169060200135610652565b610118610660565b6102b06004803603604081101561032257600080fd5b506001600160a01b0381351690602001356106c1565b6101d561071b565b6101b96004803603604081101561035657600080fd5b506001600160a01b03813516906020013561073f565b6101b96004803603604081101561038257600080fd5b506001600160a01b0381351690602001356107a7565b6101d5600480360360408110156103ae57600080fd5b506001600160a01b03813581169160200135166107bb565b6101d56107e6565b60048054604080516020601f600260001961010060018816150201909516949094049384018190048102820181019092528281526060939092909183018282801561045a5780601f1061042f5761010080835404028352916020019161045a565b820191906000526020600020905b81548152906001019060200180831161043d57829003601f168201915b5050505050905090565b6000610478610471610d3f565b8484610d43565b50600192915050565b60035490565b6000610494848484610e2f565b610504846104a0610d3f565b6104ff85604051806060016040528060288152602001611270602891396001600160a01b038a166000908152600260205260408120906104de610d3f565b6001600160a01b031681526020810191909152604001600020549190610f8c565b610d43565b5060019392505050565b600061053260405180608001604052806060815260200161121060609139846108cd565b6000838152602081815260408083206001600160a01b038616845290915281205460ff166105615760006105a0565b604051602001808073455243313832305f4143434550545f4d4147494360601b8152506014019050604051602081830303815290604052805190602001205b90506105c56040518060a0016040528060648152602001611326606491398286610984565b9392505050565b60065460ff1690565b60006104786105e2610d3f565b846104ff85600260006105f3610d3f565b6001600160a01b03908116825260208083019390935260409182016000908120918c168152925290205490610c26565b61063461062e610d3f565b82611023565b50565b6001600160a01b031660009081526001602052604090205490565b61065c82826106c1565b5050565b60058054604080516020601f600260001961010060018816150201909516949094049384018190048102820181019092528281526060939092909183018282801561045a5780601f1061042f5761010080835404028352916020019161045a565b60006106f882604051806060016040528060248152602001611298602491396106f1866106ec610d3f565b6107bb565b9190610f8c565b905061070c83610706610d3f565b83610d43565b6107168383611023565b505050565b7f470b4a2a26dde857b9ba255135703cf0ab5f7ca71341df27a8b3d9cc5cb4b47581565b600061047861074c610d3f565b846104ff8560405180606001604052806025815260200161138a6025913960026000610776610d3f565b6001600160a01b03908116825260208083019390935260409182016000908120918d16815292529020549190610f8c565b60006104786107b4610d3f565b8484610e2f565b6001600160a01b03918216600090815260026020908152604080832093909416825291909152205490565b604051602001808073455243313832305f4143434550545f4d4147494360601b81525060140190506040516020818303038152906040528051906020012081565b610634816040516024018080602001828103825283818151815260200191508051906020019080838360005b8381101561086b578181015183820152602001610853565b50505050905090810190601f1680156108985780820380516001836020036101000a031916815260200191505b5060408051601f198184030181529190526020810180516001600160e01b031663104c13eb60e21b179052925061111f915050565b61065c82826040516024018080602001836001600160a01b03168152602001828103825284818151815260200191508051906020019080838360005b83811015610921578181015183820152602001610909565b50505050905090810190601f16801561094e5780820380516001836020036101000a031916815260200191505b5060408051601f198184030181529190526020810180516001600160e01b031663319af33360e01b179052935061111f92505050565b6107168383836040516024018080602001846001600160a01b03168152602001836001600160a01b03168152602001828103825285818151815260200191508051906020019080838360005b838110156109e85781810151838201526020016109d0565b50505050905090810190601f168015610a155780820380516001836020036101000a031916815260200191505b5060408051601f198184030181529190526020810180516001600160e01b03166307e763af60e51b179052945061111f9350505050565b610b7284848484604051602401808060200185815260200180602001846001600160a01b03168152602001838103835287818151815260200191508051906020019080838360005b83811015610aac578181015183820152602001610a94565b50505050905090810190601f168015610ad95780820380516001836020036101000a031916815260200191505b50838103825285518152855160209182019187019080838360005b83811015610b0c578181015183820152602001610af4565b50505050905090810190601f168015610b395780820380516001836020036101000a031916815260200191505b5060408051601f198184030181529190526020810180516001600160e01b031663bb7235e960e01b179052965061111f95505050505050565b50505050565b61065c82826040516024018080602001838152602001828103825284818151815260200191508051906020019080838360005b83811015610bc3578181015183820152602001610bab565b50505050905090810190601f168015610bf05780820380516001836020036101000a031916815260200191505b5060408051601f198184030181529190526020810180516001600160e01b03166309710a9d60e41b179052935061111f92505050565b6000828201838110156105c5576040805162461bcd60e51b815260206004820152601b60248201527f536166654d6174683a206164646974696f6e206f766572666c6f770000000000604482015290519081900360640190fd5b6107168383836040516024018080602001848152602001836001600160a01b03168152602001828103825285818151815260200191508051906020019080838360005b83811015610cdb578181015183820152602001610cc3565b50505050905090810190601f168015610d085780820380516001836020036101000a031916815260200191505b5060408051601f198184030181529190526020810180516001600160e01b031663e3849f7960e01b179052945061111f9350505050565b3390565b6001600160a01b038316610d885760405162461bcd60e51b81526004018080602001828103825260248152602001806113026024913960400191505060405180910390fd5b6001600160a01b038216610dcd5760405162461bcd60e51b81526004018080602001828103825260228152602001806111c86022913960400191505060405180910390fd5b6001600160a01b03808416600081815260026020908152604080832094871680845294825291829020859055815185815291517f8c5be1e5ebec7d5bd14f71427d1e84f3dd0314c0f7b2291e5b200ac8c7c3b9259281900390910190a3505050565b6001600160a01b038316610e745760405162461bcd60e51b81526004018080602001828103825260258152602001806112dd6025913960400191505060405180910390fd5b6001600160a01b038216610eb95760405162461bcd60e51b81526004018080602001828103825260238152602001806111836023913960400191505060405180910390fd5b610ec4838383610716565b610f01816040518060600160405280602681526020016111ea602691396001600160a01b0386166000908152600160205260409020549190610f8c565b6001600160a01b038085166000908152600160205260408082209390935590841681522054610f309082610c26565b6001600160a01b0380841660008181526001602090815260409182902094909455805185815290519193928716927fddf252ad1be2c89b69c2b068fc378daa952ba7f163c4a11628f55a4df523b3ef92918290030190a3505050565b6000818484111561101b5760405162461bcd60e51b81526004018080602001828103825283818151815260200191508051906020019080838360005b83811015610fe0578181015183820152602001610fc8565b50505050905090810190601f16801561100d5780820380516001836020036101000a031916815260200191505b509250505060405180910390fd5b505050900390565b6001600160a01b0382166110685760405162461bcd60e51b81526004018080602001828103825260218152602001806112bc6021913960400191505060405180910390fd5b61107482600083610716565b6110b1816040518060600160405280602281526020016111a6602291396001600160a01b0385166000908152600160205260409020549190610f8c565b6001600160a01b0383166000908152600160205260409020556003546110d79082611140565b6003556040805182815290516000916001600160a01b038516917fddf252ad1be2c89b69c2b068fc378daa952ba7f163c4a11628f55a4df523b3ef9181900360200190a35050565b80516a636f6e736f6c652e6c6f67602083016000808483855afa5050505050565b60006105c583836040518060400160405280601e81526020017f536166654d6174683a207375627472616374696f6e206f766572666c6f770000815250610f8c56fe45524332303a207472616e7366657220746f20746865207a65726f206164647265737345524332303a206275726e20616d6f756e7420657863656564732062616c616e636545524332303a20617070726f766520746f20746865207a65726f206164647265737345524332303a207472616e7366657220616d6f756e7420657863656564732062616c616e636545524331383230496d706c656d656e7465723a3a63616e496d706c656d656e74496e74657266616365466f72416464726573733a3120436865636b696e672074686174207468697320636f6e747261637420696d70656c6d656e74732025732e45524332303a207472616e7366657220616d6f756e74206578636565647320616c6c6f77616e636545524332303a206275726e20616d6f756e74206578636565647320616c6c6f77616e636545524332303a206275726e2066726f6d20746865207a65726f206164647265737345524332303a207472616e736665722066726f6d20746865207a65726f206164647265737345524332303a20617070726f76652066726f6d20746865207a65726f206164647265737345524331383230496d706c656d656e7465723a3a63616e496d706c656d656e74496e74657266616365466f72416464726573733a322052657475726e696e672025732074686174207468697320636f6e747261637420696d70656c6d656e74732025732e45524332303a2064656372656173656420616c6c6f77616e63652062656c6f77207a65726fa2646970667358221220d3afa3b8fba19ddd8810a0ee19598d4ea9326a4b200010f78edb2da57cefe55764736f6c6343000705003345524332303a3a5f6d696e743a3920416464696e6720257320746f2062616c616e636520666f7220616464726573732025732e45524331383230496d706c656d656e7465723a3a636f6e7374727563746f723a3420526567697374657265642045524331383230496d706c656d656e7465722e45524331383230496d706c656d656e7465723a3a5f7265676973746572496e74657266616365466f72416464726573733a312053656c66207265676973746572696e672074686174207468697320636f6e747261637420696d706c656d656e747320696e7465726661636520257320666f7220616464726573732025732e45524331383230496d706c656d656e7465723a3a636f6e7374727563746f723a3120496e7374616e74696174696e672045524331383230496d706c656d656e7465722e45524332303a3a5f6d696e743a313020416464656420257320746f2062616c616e636520666f7220616464726573732025732e45524332303a3a5f6d696e743a37205f746f74616c537570706c792069732025732e45524332303a3a5f6d696e743a3220436f6e6669726d696e672074686174206d696e74696e6720726563697069656e742069736e2774206164647265737320302e45524332303a3a5f6d696e743a3820416464656420257320746f20746f74616c537570706c792e45524332303a3a5f6d696e743a313120456d697474696e67205472616e73666572206576656e742e45524331383230496d706c656d656e7465723a3a636f6e7374727563746f723a3520496e7374616e74696174656420455243313832305f494d504c454d454e5445525f494e544552464143455f49442e45524331383230496d706c656d656e7465723a3a636f6e7374727563746f723a33205265676973746572696e672045524331383230496d706c656d656e746572206f6620257320666f722025732e45524332303a3a5f6d696e743a352043616c6c6564205f6265666f7265546f6b656e5472616e736665722e45524332303a3a5f6d696e743a342043616c6c696e67205f6265666f7265546f6b656e5472616e736665722e45524332303a3a5f6d696e743a31204d696e74696e6720257320257320746f6b656e7320746f2025732e45524332303a3a5f6d696e743a3320436f6e6669726d65642074686174206d696e74696e6720726563697069656e742069736e2774206164647265737320302e45524332303a3a5f6d696e743a313220456d69746564205472616e73666572206576656e742e45524331383230496d706c656d656e7465723a3a636f6e7374727563746f723a3220455243313832305f494d504c454d454e5445525f494e544552464143455f494420696e746572666163652049443a202573470b4a2a26dde857b9ba255135703cf0ab5f7ca71341df27a8b3d9cc5cb4b47545524332303a3a5f6d696e743a3620416464696e6720257320746f205f746f74616c537570706c792e",
  "linkReferences": {},
  "deployedLinkReferences": {}
}