{
  "_format": "hh-sol-artifact-1",
  "contractName": "ERC721",
  "sourceName": "contracts/dependencies/holyzeppelin/contracts/token/ERC721/ERC721.sol",
  "abi": [
    {
      "inputs": [
        {
          "internalType": "string",
          "name": "name_",
          "type": "string"
        },
        {
          "internalType": "string",
          "name": "symbol_",
          "type": "string"
        }
      ],
      "stateMutability": "nonpayable",
      "type": "constructor"
    },
    {
      "anonymous": false,
      "inputs": [
        {
          "indexed": true,
          "internalType": "address",
          "name": "owner",
          "type": "address"
        },
        {
          "indexed": true,
          "internalType": "address",
          "name": "approved",
          "type": "address"
        },
        {
          "indexed": true,
          "internalType": "uint256",
          "name": "tokenId",
          "type": "uint256"
        }
      ],
      "name": "Approval",
      "type": "event"
    },
    {
      "anonymous": false,
      "inputs": [
        {
          "indexed": true,
          "internalType": "address",
          "name": "owner",
          "type": "address"
        },
        {
          "indexed": true,
          "internalType": "address",
          "name": "operator",
          "type": "address"
        },
        {
          "indexed": false,
          "internalType": "bool",
          "name": "approved",
          "type": "bool"
        }
      ],
      "name": "ApprovalForAll",
      "type": "event"
    },
    {
      "anonymous": false,
      "inputs": [
        {
          "indexed": true,
          "internalType": "address",
          "name": "from",
          "type": "address"
        },
        {
          "indexed": true,
          "internalType": "address",
          "name": "to",
          "type": "address"
        },
        {
          "indexed": true,
          "internalType": "uint256",
          "name": "tokenId",
          "type": "uint256"
        }
      ],
      "name": "Transfer",
      "type": "event"
    },
    {
      "inputs": [],
      "name": "ERC165_INTERFACE_ID",
      "outputs": [
        {
          "internalType": "bytes4",
          "name": "",
          "type": "bytes4"
        }
      ],
      "stateMutability": "view",
      "type": "function"
    },
    {
      "inputs": [
        {
          "internalType": "address",
          "name": "to",
          "type": "address"
        },
        {
          "internalType": "uint256",
          "name": "tokenId",
          "type": "uint256"
        }
      ],
      "name": "approve",
      "outputs": [],
      "stateMutability": "nonpayable",
      "type": "function"
    },
    {
      "inputs": [
        {
          "internalType": "address",
          "name": "owner",
          "type": "address"
        }
      ],
      "name": "balanceOf",
      "outputs": [
        {
          "internalType": "uint256",
          "name": "",
          "type": "uint256"
        }
      ],
      "stateMutability": "view",
      "type": "function"
    },
    {
      "inputs": [],
      "name": "baseURI",
      "outputs": [
        {
          "internalType": "string",
          "name": "",
          "type": "string"
        }
      ],
      "stateMutability": "view",
      "type": "function"
    },
    {
      "inputs": [
        {
          "internalType": "uint256",
          "name": "tokenId",
          "type": "uint256"
        }
      ],
      "name": "getApproved",
      "outputs": [
        {
          "internalType": "address",
          "name": "",
          "type": "address"
        }
      ],
      "stateMutability": "view",
      "type": "function"
    },
    {
      "inputs": [
        {
          "internalType": "address",
          "name": "owner",
          "type": "address"
        },
        {
          "internalType": "address",
          "name": "operator",
          "type": "address"
        }
      ],
      "name": "isApprovedForAll",
      "outputs": [
        {
          "internalType": "bool",
          "name": "",
          "type": "bool"
        }
      ],
      "stateMutability": "view",
      "type": "function"
    },
    {
      "inputs": [],
      "name": "name",
      "outputs": [
        {
          "internalType": "string",
          "name": "",
          "type": "string"
        }
      ],
      "stateMutability": "view",
      "type": "function"
    },
    {
      "inputs": [
        {
          "internalType": "uint256",
          "name": "tokenId",
          "type": "uint256"
        }
      ],
      "name": "ownerOf",
      "outputs": [
        {
          "internalType": "address",
          "name": "",
          "type": "address"
        }
      ],
      "stateMutability": "view",
      "type": "function"
    },
    {
      "inputs": [
        {
          "internalType": "address",
          "name": "from",
          "type": "address"
        },
        {
          "internalType": "address",
          "name": "to",
          "type": "address"
        },
        {
          "internalType": "uint256",
          "name": "tokenId",
          "type": "uint256"
        }
      ],
      "name": "safeTransferFrom",
      "outputs": [],
      "stateMutability": "nonpayable",
      "type": "function"
    },
    {
      "inputs": [
        {
          "internalType": "address",
          "name": "from",
          "type": "address"
        },
        {
          "internalType": "address",
          "name": "to",
          "type": "address"
        },
        {
          "internalType": "uint256",
          "name": "tokenId",
          "type": "uint256"
        },
        {
          "internalType": "bytes",
          "name": "_data",
          "type": "bytes"
        }
      ],
      "name": "safeTransferFrom",
      "outputs": [],
      "stateMutability": "nonpayable",
      "type": "function"
    },
    {
      "inputs": [
        {
          "internalType": "address",
          "name": "operator",
          "type": "address"
        },
        {
          "internalType": "bool",
          "name": "approved",
          "type": "bool"
        }
      ],
      "name": "setApprovalForAll",
      "outputs": [],
      "stateMutability": "nonpayable",
      "type": "function"
    },
    {
      "inputs": [
        {
          "internalType": "bytes4",
          "name": "interfaceId_",
          "type": "bytes4"
        }
      ],
      "name": "supportsInterface",
      "outputs": [
        {
          "internalType": "bool",
          "name": "",
          "type": "bool"
        }
      ],
      "stateMutability": "view",
      "type": "function"
    },
    {
      "inputs": [],
      "name": "symbol",
      "outputs": [
        {
          "internalType": "string",
          "name": "",
          "type": "string"
        }
      ],
      "stateMutability": "view",
      "type": "function"
    },
    {
      "inputs": [
        {
          "internalType": "uint256",
          "name": "index",
          "type": "uint256"
        }
      ],
      "name": "tokenByIndex",
      "outputs": [
        {
          "internalType": "uint256",
          "name": "",
          "type": "uint256"
        }
      ],
      "stateMutability": "view",
      "type": "function"
    },
    {
      "inputs": [
        {
          "internalType": "address",
          "name": "owner",
          "type": "address"
        },
        {
          "internalType": "uint256",
          "name": "index",
          "type": "uint256"
        }
      ],
      "name": "tokenOfOwnerByIndex",
      "outputs": [
        {
          "internalType": "uint256",
          "name": "",
          "type": "uint256"
        }
      ],
      "stateMutability": "view",
      "type": "function"
    },
    {
      "inputs": [
        {
          "internalType": "uint256",
          "name": "tokenId",
          "type": "uint256"
        }
      ],
      "name": "tokenURI",
      "outputs": [
        {
          "internalType": "string",
          "name": "",
          "type": "string"
        }
      ],
      "stateMutability": "view",
      "type": "function"
    },
    {
      "inputs": [],
      "name": "totalSupply",
      "outputs": [
        {
          "internalType": "uint256",
          "name": "",
          "type": "uint256"
        }
      ],
      "stateMutability": "view",
      "type": "function"
    },
    {
      "inputs": [
        {
          "internalType": "address",
          "name": "from",
          "type": "address"
        },
        {
          "internalType": "address",
          "name": "to",
          "type": "address"
        },
        {
          "internalType": "uint256",
          "name": "tokenId",
          "type": "uint256"
        }
      ],
      "name": "transferFrom",
      "outputs": [],
      "stateMutability": "nonpayable",
      "type": "function"
    }
  ],
  "bytecode": "0x60806040523480156200001157600080fd5b506040516200223138038062002231833981810160405260408110156200003757600080fd5b81019080805160405193929190846401000000008211156200005857600080fd5b9083019060208201858111156200006e57600080fd5b82516401000000008111828201881017156200008957600080fd5b82525081516020918201929091019080838360005b83811015620000b85781810151838201526020016200009e565b50505050905090810190601f168015620000e65780820380516001836020036101000a031916815260200191505b50604052602001805160405193929190846401000000008211156200010a57600080fd5b9083019060208201858111156200012057600080fd5b82516401000000008111828201881017156200013b57600080fd5b82525081516020918201929091019080838360005b838110156200016a57818101518382015260200162000150565b50505050905090810190601f168015620001985780820380516001836020036101000a031916815260200191505b50608081016040526044808252620001ca945090925090506200210d6020830139620002d360201b62000d531760201c565b620001f96040518060800160405280604f8152602001620021e2604f9139620002d360201b62000d531760201c565b6200020b6301ffc9a760e01b62000386565b6200023a6040518060800160405280604e815260200162002194604e9139620002d360201b62000d531760201c565b620002696040518060800160405280604381526020016200215160439139620002d360201b62000d531760201c565b81516200027e9060069060208501906200042c565b508051620002949060079060208401906200042c565b50620002a76380ac58cd60e01b62000386565b620002b9635b5e139f60e01b62000386565b620002cb63780e9d6360e01b62000386565b5050620004d8565b62000383816040516024018080602001828103825283818151815260200191508051906020019080838360005b838110156200031a57818101518382015260200162000300565b50505050905090810190601f168015620003485780820380516001836020036101000a031916815260200191505b5060408051601f198184030181529190526020810180516001600160e01b0390811663104c13eb60e21b179091529093506200040b16915050565b50565b6001600160e01b03198082161415620003e6576040805162461bcd60e51b815260206004820152601c60248201527f4552433136353a20696e76616c696420696e7465726661636520696400000000604482015290519081900360640190fd5b6001600160e01b0319166000908152602081905260409020805460ff19166001179055565b80516a636f6e736f6c652e6c6f67602083016000808483855afa5050505050565b828054600181600116156101000203166002900490600052602060002090601f016020900481019282620004645760008555620004af565b82601f106200047f57805160ff1916838001178555620004af565b82800160010185558215620004af579182015b82811115620004af57825182559160200191906001019062000492565b50620004bd929150620004c1565b5090565b5b80821115620004bd5760008155600101620004c2565b611c2580620004e86000396000f3fe608060405234801561001057600080fd5b50600436106101165760003560e01c80636352211e116100a257806395d89b411161007157806395d89b4114610379578063a22cb46514610381578063b88d4fde146103af578063c87b56dd14610475578063e985e9c51461049257610116565b80636352211e146103095780636c0360eb1461032657806370a082311461032e578063950d7f6f1461035457610116565b806318160ddd116100e957806318160ddd1461023a57806323b872dd146102545780632f745c591461028a57806342842e0e146102b65780634f6ccce7146102ec57610116565b806301ffc9a71461011b57806306fdde0314610156578063081812fc146101d3578063095ea7b31461020c575b600080fd5b6101426004803603602081101561013157600080fd5b50356001600160e01b0319166104c0565b604080519115158252519081900360200190f35b61015e610527565b6040805160208082528351818301528351919283929083019185019080838360005b83811015610198578181015183820152602001610180565b50505050905090810190601f1680156101c55780820380516001836020036101000a031916815260200191505b509250505060405180910390f35b6101f0600480360360208110156101e957600080fd5b50356105bd565b604080516001600160a01b039092168252519081900360200190f35b6102386004803603604081101561022257600080fd5b506001600160a01b03813516906020013561061f565b005b6102426106fa565b60408051918252519081900360200190f35b6102386004803603606081101561026a57600080fd5b506001600160a01b0381358116916020810135909116906040013561070b565b610242600480360360408110156102a057600080fd5b506001600160a01b038135169060200135610762565b610238600480360360608110156102cc57600080fd5b506001600160a01b0381358116916020810135909116906040013561078d565b6102426004803603602081101561030257600080fd5b50356107a8565b6101f06004803603602081101561031f57600080fd5b50356107be565b61015e6107e6565b6102426004803603602081101561034457600080fd5b50356001600160a01b0316610847565b61035c6108af565b604080516001600160e01b03199092168252519081900360200190f35b61015e6108ba565b6102386004803603604081101561039757600080fd5b506001600160a01b038135169060200135151561091b565b610238600480360360808110156103c557600080fd5b6001600160a01b0382358116926020810135909116916040820135919081019060808101606082013564010000000081111561040057600080fd5b82018360208201111561041257600080fd5b8035906020019184600183028401116401000000008311171561043457600080fd5b91908080601f016020809104026020016040519081016040528093929190818152602001838380828437600092019190915250929550610a20945050505050565b61015e6004803603602081101561048b57600080fd5b5035610a7e565b610142600480360360408110156104a857600080fd5b506001600160a01b0381358116916020013516610d25565b60006105036040518060a00160405280606881526020016119b5606891396001600160e01b0319841660008181526020819052604090205430919060ff16610dfc565b506001600160e01b0319811660009081526020819052604090205460ff165b919050565b60068054604080516020601f60026000196101006001881615020190951694909404938401819004810282018101909252828152606093909290918301828280156105b35780601f10610588576101008083540402835291602001916105b3565b820191906000526020600020905b81548152906001019060200180831161059657829003601f168201915b5050505050905090565b60006105c882610ece565b6106035760405162461bcd60e51b815260040180806020018281038252602c815260200180611b1a602c913960400191505060405180910390fd5b506000908152600460205260409020546001600160a01b031690565b600061062a826107be565b9050806001600160a01b0316836001600160a01b0316141561067d5760405162461bcd60e51b8152600401808060200182810382526021815260200180611b9e6021913960400191505060405180910390fd5b806001600160a01b031661068f610edb565b6001600160a01b031614806106b057506106b0816106ab610edb565b610d25565b6106eb5760405162461bcd60e51b8152600401808060200182810382526038815260200180611a6d6038913960400191505060405180910390fd5b6106f58383610edf565b505050565b60006107066002610f4d565b905090565b61071c610716610edb565b82610f58565b6107575760405162461bcd60e51b8152600401808060200182810382526031815260200180611bbf6031913960400191505060405180910390fd5b6106f5838383610ffc565b6001600160a01b03821660009081526001602052604081206107849083611148565b90505b92915050565b6106f583838360405180602001604052806000815250610a20565b6000806107b6600284611154565b509392505050565b600061078782604051806060016040528060298152602001611acf6029913960029190611170565b60098054604080516020601f60026000196101006001881615020190951694909404938401819004810282018101909252828152606093909290918301828280156105b35780601f10610588576101008083540402835291602001916105b3565b60006001600160a01b03821661088e5760405162461bcd60e51b815260040180806020018281038252602a815260200180611aa5602a913960400191505060405180910390fd5b6001600160a01b038216600090815260016020526040902061078790610f4d565b6301ffc9a760e01b81565b60078054604080516020601f60026000196101006001881615020190951694909404938401819004810282018101909252828152606093909290918301828280156105b35780601f10610588576101008083540402835291602001916105b3565b610923610edb565b6001600160a01b0316826001600160a01b03161415610989576040805162461bcd60e51b815260206004820152601960248201527f4552433732313a20617070726f766520746f2063616c6c657200000000000000604482015290519081900360640190fd5b8060056000610996610edb565b6001600160a01b03908116825260208083019390935260409182016000908120918716808252919093529120805460ff1916921515929092179091556109da610edb565b6001600160a01b03167f17307eab39ab6107e8899845ad3d59bd9653f200f220920489ca2b5937696c318360405180821515815260200191505060405180910390a35050565b610a31610a2b610edb565b83610f58565b610a6c5760405162461bcd60e51b8152600401808060200182810382526031815260200180611bbf6031913960400191505060405180910390fd5b610a7884848484611187565b50505050565b6060610a8982610ece565b610ac45760405162461bcd60e51b815260040180806020018281038252602f815260200180611b6f602f913960400191505060405180910390fd5b60008281526008602090815260409182902080548351601f6002600019610100600186161502019093169290920491820184900484028101840190945280845260609392830182828015610b595780601f10610b2e57610100808354040283529160200191610b59565b820191906000526020600020905b815481529060010190602001808311610b3c57829003601f168201915b505060095493945050505060026000196101006001841615020190911604610b82579050610522565b805115610c53576009816040516020018083805460018160011615610100020316600290048015610bea5780601f10610bc8576101008083540402835291820191610bea565b820191906000526020600020905b815481529060010190602001808311610bd6575b5050825160208401908083835b60208310610c165780518252601f199092019160209182019101610bf7565b6001836020036101000a03801982511681845116808217855250505050505090500192505050604051602081830303815290604052915050610522565b6009610c5e846111d9565b6040516020018083805460018160011615610100020316600290048015610cbc5780601f10610c9a576101008083540402835291820191610cbc565b820191906000526020600020905b815481529060010190602001808311610ca8575b5050825160208401908083835b60208310610ce85780518252601f199092019160209182019101610cc9565b6001836020036101000a03801982511681845116808217855250505050505090500192505050604051602081830303815290604052915050919050565b6001600160a01b03918216600090815260056020908152604080832093909416825291909152205460ff1690565b610df9816040516024018080602001828103825283818151815260200191508051906020019080838360005b83811015610d97578181015183820152602001610d7f565b50505050905090810190601f168015610dc45780820380516001836020036101000a031916815260200191505b5060408051601f198184030181529190526020810180516001600160e01b031663104c13eb60e21b17905292506112b4915050565b50565b610a78848484846040516024018080602001856001600160a01b03168152602001846001600160a01b031681526020018315158152602001828103825286818151815260200191508051906020019080838360005b83811015610e69578181015183820152602001610e51565b50505050905090810190601f168015610e965780820380516001836020036101000a031916815260200191505b5060408051601f198184030181529190526020810180516001600160e01b03166305acedeb60e51b17905295506112b4945050505050565b60006107876002836112d5565b3390565b600081815260046020526040902080546001600160a01b0319166001600160a01b0384169081179091558190610f14826107be565b6001600160a01b03167f8c5be1e5ebec7d5bd14f71427d1e84f3dd0314c0f7b2291e5b200ac8c7c3b92560405160405180910390a45050565b6000610787826112e1565b6000610f6382610ece565b610f9e5760405162461bcd60e51b815260040180806020018281038252602c815260200180611a41602c913960400191505060405180910390fd5b6000610fa9836107be565b9050806001600160a01b0316846001600160a01b03161480610fe45750836001600160a01b0316610fd9846105bd565b6001600160a01b0316145b80610ff45750610ff48185610d25565b949350505050565b826001600160a01b031661100f826107be565b6001600160a01b0316146110545760405162461bcd60e51b8152600401808060200182810382526029815260200180611b466029913960400191505060405180910390fd5b6001600160a01b0382166110995760405162461bcd60e51b8152600401808060200182810382526024815260200180611a1d6024913960400191505060405180910390fd5b6110a48383836106f5565b6110af600082610edf565b6001600160a01b03831660009081526001602052604090206110d190826112e5565b506001600160a01b03821660009081526001602052604090206110f490826112f1565b50611101600282846112fd565b5080826001600160a01b0316846001600160a01b03167fddf252ad1be2c89b69c2b068fc378daa952ba7f163c4a11628f55a4df523b3ef60405160405180910390a4505050565b60006107848383611313565b60008080806111638686611377565b9097909650945050505050565b600061117d8484846113f2565b90505b9392505050565b611192848484610ffc565b61119e848484846114bc565b610a785760405162461bcd60e51b81526004018080602001828103825260328152602001806119836032913960400191505060405180910390fd5b6060816111fe57506040805180820190915260018152600360fc1b6020820152610522565b8160005b811561121657600101600a82049150611202565b60608167ffffffffffffffff8111801561122f57600080fd5b506040519080825280601f01601f19166020018201604052801561125a576020820181803683370190505b50859350905060001982015b83156112ab57600a840660300160f81b8282806001900393508151811061128957fe5b60200101906001600160f81b031916908160001a905350600a84049350611266565b50949350505050565b80516a636f6e736f6c652e6c6f67602083016000808483855afa5050505050565b60006107848383611624565b5490565b6000610784838361163c565b60006107848383611702565b600061117d84846001600160a01b03851661174c565b815460009082106113555760405162461bcd60e51b81526004018080602001828103825260228152602001806119616022913960400191505060405180910390fd5b82600001828154811061136457fe5b9060005260206000200154905092915050565b8154600090819083106113bb5760405162461bcd60e51b8152600401808060200182810382526022815260200180611af86022913960400191505060405180910390fd5b60008460000184815481106113cc57fe5b906000526020600020906002020190508060000154816001015492509250509250929050565b6000828152600184016020526040812054828161148d5760405162461bcd60e51b81526004018080602001828103825283818151815260200191508051906020019080838360005b8381101561145257818101518382015260200161143a565b50505050905090810190601f16801561147f5780820380516001836020036101000a031916815260200191505b509250505060405180910390fd5b508460000160018203815481106114a057fe5b9060005260206000209060020201600101549150509392505050565b60006114d0846001600160a01b03166117e3565b6114dc57506001610ff4565b60606115ea630a85bd0160e11b6114f1610edb565b88878760405160240180856001600160a01b03168152602001846001600160a01b0316815260200183815260200180602001828103825283818151815260200191508051906020019080838360005b83811015611558578181015183820152602001611540565b50505050905090810190601f1680156115855780820380516001836020036101000a031916815260200191505b5095505050505050604051602081830303815290604052906001600160e01b0319166020820180516001600160e01b038381831617835250505050604051806060016040528060328152602001611983603291396001600160a01b03881691906117e9565b9050600081806020019051602081101561160357600080fd5b50516001600160e01b031916630a85bd0160e11b1492505050949350505050565b60009081526001919091016020526040902054151590565b600081815260018301602052604081205480156116f8578354600019808301919081019060009087908390811061166f57fe5b906000526020600020015490508087600001848154811061168c57fe5b6000918252602080832090910192909255828152600189810190925260409020908401905586548790806116bc57fe5b60019003818190600052602060002001600090559055866001016000878152602001908152602001600020600090556001945050505050610787565b6000915050610787565b600061170e8383611624565b61174457508154600181810184556000848152602080822090930184905584548482528286019093526040902091909155610787565b506000610787565b6000828152600184016020526040812054806117b1575050604080518082018252838152602080820184815286546001818101895560008981528481209551600290930290950191825591519082015586548684528188019092529290912055611180565b828560000160018303815481106117c457fe5b9060005260206000209060020201600101819055506000915050611180565b3b151590565b606061117d848460008560606117fe856117e3565b61184f576040805162461bcd60e51b815260206004820152601d60248201527f416464726573733a2063616c6c20746f206e6f6e2d636f6e7472616374000000604482015290519081900360640190fd5b60006060866001600160a01b031685876040518082805190602001908083835b6020831061188e5780518252601f19909201916020918201910161186f565b6001836020036101000a03801982511681845116808217855250505050505090500191505060006040518083038185875af1925050503d80600081146118f0576040519150601f19603f3d011682016040523d82523d6000602084013e6118f5565b606091505b50915091508115611909579150610ff49050565b8051156119195780518082602001fd5b60405162461bcd60e51b815260206004820181815286516024840152865187939192839260440191908501908083836000831561145257818101518382015260200161143a56fe456e756d657261626c655365743a20696e646578206f7574206f6620626f756e64734552433732313a207472616e7366657220746f206e6f6e20455243373231526563656976657220696d706c656d656e746572436f6e74726163743a3a686f6c797a657070656c696e3a3a4552433136353a3a737570706f727473496e746572666163653a303120446f6573207468697320636f6e747261637420617420257320696d706c656d656e7420696e746572666163652025733f2025734552433732313a207472616e7366657220746f20746865207a65726f20616464726573734552433732313a206f70657261746f7220717565727920666f72206e6f6e6578697374656e7420746f6b656e4552433732313a20617070726f76652063616c6c6572206973206e6f74206f776e6572206e6f7220617070726f76656420666f7220616c6c4552433732313a2062616c616e636520717565727920666f7220746865207a65726f20616464726573734552433732313a206f776e657220717565727920666f72206e6f6e6578697374656e7420746f6b656e456e756d657261626c654d61703a20696e646578206f7574206f6620626f756e64734552433732313a20617070726f76656420717565727920666f72206e6f6e6578697374656e7420746f6b656e4552433732313a207472616e73666572206f6620746f6b656e2074686174206973206e6f74206f776e4552433732314d657461646174613a2055524920717565727920666f72206e6f6e6578697374656e7420746f6b656e4552433732313a20617070726f76616c20746f2063757272656e74206f776e65724552433732313a207472616e736665722063616c6c6572206973206e6f74206f776e6572206e6f7220617070726f766564a26469706673582212204dd562b31ded10a892f9d3680b768dde2f989b3b474f96e3417c7d96a2fe05dc64736f6c63430007050033436f6e74726163743a3a686f6c797a657070656c696e3a3a4552433136353a3a636f6e7374727563746f723a303120496e7374616e74696174696e67204552433136352e436f6e74726163743a3a686f6c797a657070656c696e3a3a4552433136353a3a636f6e7374727563746f723a303420496e7374616e746961746564204552433136352e436f6e74726163743a3a686f6c797a657070656c696e3a3a4552433136353a3a636f6e7374727563746f723a30332052656769737465726564204552433136355f494e544552464143455f49442e436f6e74726163743a3a686f6c797a657070656c696e3a3a4552433136353a3a636f6e7374727563746f723a3032205265676973746572696e67204552433136355f494e544552464143455f49442e",
  "linkReferences": {},
  "deployedLinkReferences": {}
}