{
  "_format": "hh-sol-artifact-1",
  "contractName": "Token",
  "sourceName": "contracts/dependencies/holyzeppelin/test/token/ERC20/examples/velo/contracts/mock/Token.sol",
  "abi": [
    {
      "inputs": [],
      "stateMutability": "nonpayable",
      "type": "constructor"
    },
    {
      "anonymous": false,
      "inputs": [
        {
          "indexed": true,
          "internalType": "address",
          "name": "owner",
          "type": "address"
        },
        {
          "indexed": true,
          "internalType": "address",
          "name": "spender",
          "type": "address"
        },
        {
          "indexed": false,
          "internalType": "uint256",
          "name": "value",
          "type": "uint256"
        }
      ],
      "name": "Approval",
      "type": "event"
    },
    {
      "anonymous": false,
      "inputs": [
        {
          "indexed": true,
          "internalType": "address",
          "name": "from",
          "type": "address"
        },
        {
          "indexed": true,
          "internalType": "address",
          "name": "to",
          "type": "address"
        },
        {
          "indexed": false,
          "internalType": "uint256",
          "name": "value",
          "type": "uint256"
        }
      ],
      "name": "Transfer",
      "type": "event"
    },
    {
      "inputs": [],
      "name": "ERC1820_ACCEPT_MAGIC",
      "outputs": [
        {
          "internalType": "bytes32",
          "name": "",
          "type": "bytes32"
        }
      ],
      "stateMutability": "view",
      "type": "function"
    },
    {
      "inputs": [],
      "name": "ERC1820_IMPLEMENTER_INTERFACE_ID",
      "outputs": [
        {
          "internalType": "bytes32",
          "name": "",
          "type": "bytes32"
        }
      ],
      "stateMutability": "view",
      "type": "function"
    },
    {
      "inputs": [
        {
          "internalType": "address",
          "name": "owner",
          "type": "address"
        },
        {
          "internalType": "address",
          "name": "spender",
          "type": "address"
        }
      ],
      "name": "allowance",
      "outputs": [
        {
          "internalType": "uint256",
          "name": "",
          "type": "uint256"
        }
      ],
      "stateMutability": "view",
      "type": "function"
    },
    {
      "inputs": [
        {
          "internalType": "address",
          "name": "spender",
          "type": "address"
        },
        {
          "internalType": "uint256",
          "name": "amount",
          "type": "uint256"
        }
      ],
      "name": "approve",
      "outputs": [
        {
          "internalType": "bool",
          "name": "",
          "type": "bool"
        }
      ],
      "stateMutability": "nonpayable",
      "type": "function"
    },
    {
      "inputs": [
        {
          "internalType": "address",
          "name": "account",
          "type": "address"
        }
      ],
      "name": "balanceOf",
      "outputs": [
        {
          "internalType": "uint256",
          "name": "",
          "type": "uint256"
        }
      ],
      "stateMutability": "view",
      "type": "function"
    },
    {
      "inputs": [
        {
          "internalType": "bytes32",
          "name": "interfaceHashQuery_",
          "type": "bytes32"
        },
        {
          "internalType": "address",
          "name": "account",
          "type": "address"
        }
      ],
      "name": "canImplementInterfaceForAddress",
      "outputs": [
        {
          "internalType": "bytes32",
          "name": "",
          "type": "bytes32"
        }
      ],
      "stateMutability": "view",
      "type": "function"
    },
    {
      "inputs": [],
      "name": "decimals",
      "outputs": [
        {
          "internalType": "uint8",
          "name": "",
          "type": "uint8"
        }
      ],
      "stateMutability": "view",
      "type": "function"
    },
    {
      "inputs": [
        {
          "internalType": "address",
          "name": "spender",
          "type": "address"
        },
        {
          "internalType": "uint256",
          "name": "subtractedValue",
          "type": "uint256"
        }
      ],
      "name": "decreaseAllowance",
      "outputs": [
        {
          "internalType": "bool",
          "name": "",
          "type": "bool"
        }
      ],
      "stateMutability": "nonpayable",
      "type": "function"
    },
    {
      "inputs": [
        {
          "internalType": "address",
          "name": "spender",
          "type": "address"
        },
        {
          "internalType": "uint256",
          "name": "addedValue",
          "type": "uint256"
        }
      ],
      "name": "increaseAllowance",
      "outputs": [
        {
          "internalType": "bool",
          "name": "",
          "type": "bool"
        }
      ],
      "stateMutability": "nonpayable",
      "type": "function"
    },
    {
      "inputs": [],
      "name": "name",
      "outputs": [
        {
          "internalType": "string",
          "name": "",
          "type": "string"
        }
      ],
      "stateMutability": "view",
      "type": "function"
    },
    {
      "inputs": [],
      "name": "symbol",
      "outputs": [
        {
          "internalType": "string",
          "name": "",
          "type": "string"
        }
      ],
      "stateMutability": "view",
      "type": "function"
    },
    {
      "inputs": [],
      "name": "totalSupply",
      "outputs": [
        {
          "internalType": "uint256",
          "name": "",
          "type": "uint256"
        }
      ],
      "stateMutability": "view",
      "type": "function"
    },
    {
      "inputs": [
        {
          "internalType": "address",
          "name": "recipient",
          "type": "address"
        },
        {
          "internalType": "uint256",
          "name": "amount",
          "type": "uint256"
        }
      ],
      "name": "transfer",
      "outputs": [
        {
          "internalType": "bool",
          "name": "",
          "type": "bool"
        }
      ],
      "stateMutability": "nonpayable",
      "type": "function"
    },
    {
      "inputs": [
        {
          "internalType": "address",
          "name": "sender",
          "type": "address"
        },
        {
          "internalType": "address",
          "name": "recipient",
          "type": "address"
        },
        {
          "internalType": "uint256",
          "name": "amount",
          "type": "uint256"
        }
      ],
      "name": "transferFrom",
      "outputs": [
        {
          "internalType": "bool",
          "name": "",
          "type": "bool"
        }
      ],
      "stateMutability": "nonpayable",
      "type": "function"
    }
  ],
  "bytecode": "0x60806040523480156200001157600080fd5b506040518060400160405280600481526020016315195cdd60e21b815250604051806040016040528060038152602001621514d560ea1b81525060126200007c6040518060800160405280605b815260200162002053605b9139620001ec60201b620006d91760201c565b620000be6040518060a00160405280606b815260200162001fe8606b9139600080516020620021fd83398151915260001c6200029f60201b620007821760201c565b620001016040518060a001604052806066815260200162001f8260669139600080516020620021fd83398151915260001c306200036460201b6200083d1760201c565b6200011c600080516020620021fd833981519152306200043b565b6200014b60405180608001604052806058815260200162001e4560589139620001ec60201b620006d91760201c565b6200017a6040518060a00160405280606881526020016200216f60689139620001ec60201b620006d91760201c565b82516200018f90600490602086019062000c29565b508151620001a590600590602085019062000c29565b506006805460ff191660ff9290921691909117905550620001e69050337c03b58e88c75313ec9d329eaaa18fb92f75215b17100000000000000000620004cd565b62000cd5565b6200029c816040516024018080602001828103825283818151815260200191508051906020019080838360005b838110156200023357818101518382015260200162000219565b50505050905090810190601f168015620002615780820380516001836020036101000a031916815260200191505b5060408051601f198184030181529190526020810180516001600160e01b0390811663104c13eb60e21b17909152909350620008ec16915050565b50565b6200036082826040516024018080602001836001600160a01b03168152602001828103825284818151815260200191508051906020019080838360005b83811015620002f6578181015183820152602001620002dc565b50505050905090810190601f168015620003245780820380516001836020036101000a031916815260200191505b5060408051601f198184030181529190526020810180516001600160e01b0390811663319af33360e01b17909152909450620008ec1692505050565b5050565b620004368383836040516024018080602001846001600160a01b03168152602001836001600160a01b03168152602001828103825285818151815260200191508051906020019080838360005b83811015620003cb578181015183820152602001620003b1565b50505050905090810190601f168015620003f95780820380516001836020036101000a031916815260200191505b5060408051601f198184030181529190526020810180516001600160e01b039081166307e763af60e51b17909152909550620008ec169350505050565b505050565b6200046f6040518060c00160405280609681526020016200221d609691398360001c836200036460201b6200083d1760201c565b6000828152602081815260408083206001600160a01b0385168452825291829020805460ff19166001179055815160c0810190925260968083526200036092916200221d908301398360001c836200036460201b6200083d1760201c565b620005916040518060600160405280602a815260200162002105602a913960058054604080516020601f600260001961010060018816150201909516949094049384018190048102820181019092528281528693909290918301828280156200057a5780601f106200054e576101008083540402835291602001916200057a565b820191906000526020600020905b8154815290600101906020018083116200055c57829003601f168201915b5050505050856200090d60201b6200090a1760201c565b620005c060405180608001604052806041815260200162001ef260419139620001ec60201b620006d91760201c565b6001600160a01b0382166200061c576040805162461bcd60e51b815260206004820152601f60248201527f45524332303a206d696e7420746f20746865207a65726f206164647265737300604482015290519081900360640190fd5b6200064b6040518060600160405280604081526020016200212f60409139620001ec60201b620006d91760201c565b6200067a6040518060600160405280602c8152602001620020d9602c9139620001ec60201b620006d91760201c565b6200068730838362000436565b620006b66040518060600160405280602b8152602001620020ae602b9139620001ec60201b620006d91760201c565b620006e6604051806060016040528060298152602001620022b3602991398262000a4660201b62000a361760201c565b620007028160035462000afe60201b62000ae41790919060201c565b6003819055506200073a60405180606001604052806022815260200162001ed06022913960035462000a4660201b62000a361760201c565b6200076c60405180606001604052806027815260200162001f336027913960035462000a4660201b62000a361760201c565b6200079d60405180606001604052806033815260200162001e1260339139828462000b6060201b62000b3e1760201c565b6001600160a01b038216600090815260016020908152604090912054620007cf91839062000ae462000afe821b17901c565b60016000846001600160a01b03166001600160a01b03168152602001908152602001600020819055506200084e60405180606001604052806033815260200162001e9d6033913960016000856001600160a01b03166001600160a01b03168152602001908152602001600020548462000b6060201b62000b3e1760201c565b6200087d60405180606001604052806028815260200162001f5a60289139620001ec60201b620006d91760201c565b6040805182815290516001600160a01b0384169130917fddf252ad1be2c89b69c2b068fc378daa952ba7f163c4a11628f55a4df523b3ef9181900360200190a362000360604051806060016040528060268152602001620021d760269139620001ec60201b620006d91760201c565b80516a636f6e736f6c652e6c6f67602083016000808483855afa5050505050565b62000a4084848484604051602401808060200185815260200180602001846001600160a01b03168152602001838103835287818151815260200191508051906020019080838360005b838110156200097057818101518382015260200162000956565b50505050905090810190601f1680156200099e5780820380516001836020036101000a031916815260200191505b50838103825285518152855160209182019187019080838360005b83811015620009d3578181015183820152602001620009b9565b50505050905090810190601f16801562000a015780820380516001836020036101000a031916815260200191505b5060408051601f198184030181529190526020810180516001600160e01b0390811663bb7235e960e01b17909152909750620008ec1695505050505050565b50505050565b6200036082826040516024018080602001838152602001828103825284818151815260200191508051906020019080838360005b8381101562000a9457818101518382015260200162000a7a565b50505050905090810190601f16801562000ac25780820380516001836020036101000a031916815260200191505b5060408051601f198184030181529190526020810180516001600160e01b039081166309710a9d60e41b17909152909450620008ec1692505050565b60008282018381101562000b59576040805162461bcd60e51b815260206004820152601b60248201527f536166654d6174683a206164646974696f6e206f766572666c6f770000000000604482015290519081900360640190fd5b9392505050565b620004368383836040516024018080602001848152602001836001600160a01b03168152602001828103825285818151815260200191508051906020019080838360005b8381101562000bbe57818101518382015260200162000ba4565b50505050905090810190601f16801562000bec5780820380516001836020036101000a031916815260200191505b5060408051601f198184030181529190526020810180516001600160e01b0390811663e3849f7960e01b17909152909550620008ec169350505050565b828054600181600116156101000203166002900490600052602060002090601f01602090048101928262000c61576000855562000cac565b82601f1062000c7c57805160ff191683800117855562000cac565b8280016001018555821562000cac579182015b8281111562000cac57825182559160200191906001019062000c8f565b5062000cba92915062000cbe565b5090565b5b8082111562000cba576000815560010162000cbf565b61112d8062000ce56000396000f3fe608060405234801561001057600080fd5b50600436106100ea5760003560e01c806370a082311161008c578063a457c2d711610066578063a457c2d7146102a8578063a9059cbb146102d4578063dd62ed3e14610300578063ec38fa421461032e576100ea565b806370a082311461027257806395d89b4114610298578063a3cff9b5146102a0576100ea565b806323b872dd116100c857806323b872dd146101c6578063249cb3fa146101fc578063313ce567146102285780633950935114610246576100ea565b806306fdde03146100ef578063095ea7b31461016c57806318160ddd146101ac575b600080fd5b6100f7610336565b6040805160208082528351818301528351919283929083019185019080838360005b83811015610131578181015183820152602001610119565b50505050905090810190601f16801561015e5780820380516001836020036101000a031916815260200191505b509250505060405180910390f35b6101986004803603604081101561018257600080fd5b506001600160a01b0381351690602001356103cc565b604080519115158252519081900360200190f35b6101b46103e9565b60408051918252519081900360200190f35b610198600480360360608110156101dc57600080fd5b506001600160a01b038135811691602081013590911690604001356103ef565b6101b46004803603604081101561021257600080fd5b50803590602001356001600160a01b0316610476565b610230610517565b6040805160ff9092168252519081900360200190f35b6101986004803603604081101561025c57600080fd5b506001600160a01b038135169060200135610520565b6101b46004803603602081101561028857600080fd5b50356001600160a01b031661056e565b6100f7610589565b6101b46105ea565b610198600480360360408110156102be57600080fd5b506001600160a01b03813516906020013561060e565b610198600480360360408110156102ea57600080fd5b506001600160a01b038135169060200135610676565b6101b46004803603604081101561031657600080fd5b506001600160a01b038135811691602001351661068a565b6101b46106b5565b60048054604080516020601f60026000196101006001881615020190951694909404938401819004810282018101909252828152606093909290918301828280156103c25780601f10610397576101008083540402835291602001916103c2565b820191906000526020600020905b8154815290600101906020018083116103a557829003601f168201915b5050505050905090565b60006103e06103d9610bfd565b8484610c01565b50600192915050565b60035490565b60006103fc848484610ced565b61046c84610408610bfd565b61046785604051806060016040528060288152602001611062602891396001600160a01b038a16600090815260026020526040812090610446610bfd565b6001600160a01b031681526020810191909152604001600020549190610e4a565b610c01565b5060019392505050565b600061049a6040518060a0016040528060788152602001610fea6078913984610782565b6000838152602081815260408083206001600160a01b038616845290915281205460ff166104c95760006104eb565b7fa2ef4600d742022d532d4747cb3547474667d6f13804902513b2ec01c848f4b45b90506105106040518060a00160405280607c8152602001610f6e607c9139828661083d565b9392505050565b60065460ff1690565b60006103e061052d610bfd565b84610467856002600061053e610bfd565b6001600160a01b03908116825260208083019390935260409182016000908120918c168152925290205490610ae4565b6001600160a01b031660009081526001602052604090205490565b60058054604080516020601f60026000196101006001881615020190951694909404938401819004810282018101909252828152606093909290918301828280156103c25780601f10610397576101008083540402835291602001916103c2565b7f470b4a2a26dde857b9ba255135703cf0ab5f7ca71341df27a8b3d9cc5cb4b47581565b60006103e061061b610bfd565b84610467856040518060600160405280602581526020016110d36025913960026000610645610bfd565b6001600160a01b03908116825260208083019390935260409182016000908120918d16815292529020549190610e4a565b60006103e0610683610bfd565b8484610ced565b6001600160a01b03918216600090815260026020908152604080832093909416825291909152205490565b7fa2ef4600d742022d532d4747cb3547474667d6f13804902513b2ec01c848f4b481565b61077f816040516024018080602001828103825283818151815260200191508051906020019080838360005b8381101561071d578181015183820152602001610705565b50505050905090810190601f16801561074a5780820380516001836020036101000a031916815260200191505b5060408051601f198184030181529190526020810180516001600160e01b031663104c13eb60e21b1790529250610ee1915050565b50565b61083982826040516024018080602001836001600160a01b03168152602001828103825284818151815260200191508051906020019080838360005b838110156107d65781810151838201526020016107be565b50505050905090810190601f1680156108035780820380516001836020036101000a031916815260200191505b5060408051601f198184030181529190526020810180516001600160e01b031663319af33360e01b1790529350610ee192505050565b5050565b6109058383836040516024018080602001846001600160a01b03168152602001836001600160a01b03168152602001828103825285818151815260200191508051906020019080838360005b838110156108a1578181015183820152602001610889565b50505050905090810190601f1680156108ce5780820380516001836020036101000a031916815260200191505b5060408051601f198184030181529190526020810180516001600160e01b03166307e763af60e51b1790529450610ee19350505050565b505050565b610a3084848484604051602401808060200185815260200180602001846001600160a01b03168152602001838103835287818151815260200191508051906020019080838360005b8381101561096a578181015183820152602001610952565b50505050905090810190601f1680156109975780820380516001836020036101000a031916815260200191505b50838103825285518152855160209182019187019080838360005b838110156109ca5781810151838201526020016109b2565b50505050905090810190601f1680156109f75780820380516001836020036101000a031916815260200191505b5060408051601f198184030181529190526020810180516001600160e01b031663bb7235e960e01b1790529650610ee195505050505050565b50505050565b61083982826040516024018080602001838152602001828103825284818151815260200191508051906020019080838360005b83811015610a81578181015183820152602001610a69565b50505050905090810190601f168015610aae5780820380516001836020036101000a031916815260200191505b5060408051601f198184030181529190526020810180516001600160e01b03166309710a9d60e41b1790529350610ee192505050565b600082820183811015610510576040805162461bcd60e51b815260206004820152601b60248201527f536166654d6174683a206164646974696f6e206f766572666c6f770000000000604482015290519081900360640190fd5b6109058383836040516024018080602001848152602001836001600160a01b03168152602001828103825285818151815260200191508051906020019080838360005b83811015610b99578181015183820152602001610b81565b50505050905090810190601f168015610bc65780820380516001836020036101000a031916815260200191505b5060408051601f198184030181529190526020810180516001600160e01b031663e3849f7960e01b1790529450610ee19350505050565b3390565b6001600160a01b038316610c465760405162461bcd60e51b81526004018080602001828103825260248152602001806110af6024913960400191505060405180910390fd5b6001600160a01b038216610c8b5760405162461bcd60e51b8152600401808060200182810382526022815260200180610f266022913960400191505060405180910390fd5b6001600160a01b03808416600081815260026020908152604080832094871680845294825291829020859055815185815291517f8c5be1e5ebec7d5bd14f71427d1e84f3dd0314c0f7b2291e5b200ac8c7c3b9259281900390910190a3505050565b6001600160a01b038316610d325760405162461bcd60e51b815260040180806020018281038252602581526020018061108a6025913960400191505060405180910390fd5b6001600160a01b038216610d775760405162461bcd60e51b8152600401808060200182810382526023815260200180610f036023913960400191505060405180910390fd5b610d82838383610905565b610dbf81604051806060016040528060268152602001610f48602691396001600160a01b0386166000908152600160205260409020549190610e4a565b6001600160a01b038085166000908152600160205260408082209390935590841681522054610dee9082610ae4565b6001600160a01b0380841660008181526001602090815260409182902094909455805185815290519193928716927fddf252ad1be2c89b69c2b068fc378daa952ba7f163c4a11628f55a4df523b3ef92918290030190a3505050565b60008184841115610ed95760405162461bcd60e51b81526004018080602001828103825283818151815260200191508051906020019080838360005b83811015610e9e578181015183820152602001610e86565b50505050905090810190601f168015610ecb5780820380516001836020036101000a031916815260200191505b509250505060405180910390fd5b505050900390565b80516a636f6e736f6c652e6c6f67602083016000808483855afa505050505056fe45524332303a207472616e7366657220746f20746865207a65726f206164647265737345524332303a20617070726f766520746f20746865207a65726f206164647265737345524332303a207472616e7366657220616d6f756e7420657863656564732062616c616e6365436f6e74726163743a3a686f6c797a657070656c696e3a3a45524331383230496d706c656d656e7465723a3a63616e496d706c656d656e74496e74657266616365466f72416464726573733a322052657475726e696e672025732074686174207468697320636f6e747261637420696d70656c6d656e74732025732e436f6e74726163743a3a686f6c797a657070656c696e3a3a45524331383230496d706c656d656e7465723a3a63616e496d706c656d656e74496e74657266616365466f72416464726573733a3120436865636b696e672074686174207468697320636f6e747261637420696d70656c6d656e74732025732e45524332303a207472616e7366657220616d6f756e74206578636565647320616c6c6f77616e636545524332303a207472616e736665722066726f6d20746865207a65726f206164647265737345524332303a20617070726f76652066726f6d20746865207a65726f206164647265737345524332303a2064656372656173656420616c6c6f77616e63652062656c6f77207a65726fa2646970667358221220cc04a3cb8784955949eb748ba3dacc411090ef14ab023f41ae77773d4f931f2f64736f6c6343000705003345524332303a3a5f6d696e743a3920416464696e6720257320746f2062616c616e636520666f7220616464726573732025732e436f6e74726163743a3a686f6c797a657070656c696e3a3a45524331383230496d706c656d656e7465723a3a636f6e7374727563746f723a3420526567697374657265642045524331383230496d706c656d656e7465722e45524332303a3a5f6d696e743a313020416464656420257320746f2062616c616e636520666f7220616464726573732025732e45524332303a3a5f6d696e743a37205f746f74616c537570706c792069732025732e45524332303a3a5f6d696e743a3220436f6e6669726d696e672074686174206d696e74696e6720726563697069656e742069736e2774206164647265737320302e45524332303a3a5f6d696e743a3820416464656420257320746f20746f74616c537570706c792e45524332303a3a5f6d696e743a313120456d697474696e67205472616e73666572206576656e742e436f6e74726163743a3a686f6c797a657070656c696e3a3a45524331383230496d706c656d656e7465723a3a636f6e7374727563746f723a33205265676973746572696e672045524331383230496d706c656d656e746572206f6620257320666f722025732e436f6e74726163743a3a686f6c797a657070656c696e3a3a45524331383230496d706c656d656e7465723a3a636f6e7374727563746f723a3220455243313832305f494d504c454d454e5445525f494e544552464143455f494420696e746572666163652049443a202573436f6e74726163743a3a686f6c797a657070656c696e3a3a45524331383230496d706c656d656e7465723a3a636f6e7374727563746f723a3120496e7374616e74696174696e672045524331383230496d706c656d656e7465722e45524332303a3a5f6d696e743a352043616c6c6564205f6265666f7265546f6b656e5472616e736665722e45524332303a3a5f6d696e743a342043616c6c696e67205f6265666f7265546f6b656e5472616e736665722e45524332303a3a5f6d696e743a31204d696e74696e6720257320257320746f6b656e7320746f2025732e45524332303a3a5f6d696e743a3320436f6e6669726d65642074686174206d696e74696e6720726563697069656e742069736e2774206164647265737320302e436f6e74726163743a3a686f6c797a657070656c696e3a3a45524331383230496d706c656d656e7465723a3a636f6e7374727563746f723a3520496e7374616e74696174656420455243313832305f494d504c454d454e5445525f494e544552464143455f49442e45524332303a3a5f6d696e743a313220456d69746564205472616e73666572206576656e742e470b4a2a26dde857b9ba255135703cf0ab5f7ca71341df27a8b3d9cc5cb4b475436f6e74726163743a3a686f6c797a657070656c696e3a3a45524331383230496d706c656d656e7465723a3a5f7265676973746572496e74657266616365466f72416464726573733a312053656c66207265676973746572696e672074686174207468697320636f6e747261637420696d706c656d656e747320696e7465726661636520257320666f7220616464726573732025732e45524332303a3a5f6d696e743a3620416464696e6720257320746f205f746f74616c537570706c792e",
  "linkReferences": {},
  "deployedLinkReferences": {}
}