{
  "_format": "hh-sol-artifact-1",
  "contractName": "ERC20PresetMinterPauser",
  "sourceName": "contracts/dependencies/authorization-platform/contracts/dependencies/holyzeppelin/contracts/token/ERC20/presets/ERC20PresetMinterPauser.sol",
  "abi": [
    {
      "inputs": [
        {
          "internalType": "string",
          "name": "name",
          "type": "string"
        },
        {
          "internalType": "string",
          "name": "symbol",
          "type": "string"
        },
        {
          "internalType": "uint8",
          "name": "decimals",
          "type": "uint8"
        }
      ],
      "stateMutability": "nonpayable",
      "type": "constructor"
    },
    {
      "anonymous": false,
      "inputs": [
        {
          "indexed": true,
          "internalType": "address",
          "name": "owner",
          "type": "address"
        },
        {
          "indexed": true,
          "internalType": "address",
          "name": "spender",
          "type": "address"
        },
        {
          "indexed": false,
          "internalType": "uint256",
          "name": "value",
          "type": "uint256"
        }
      ],
      "name": "Approval",
      "type": "event"
    },
    {
      "anonymous": false,
      "inputs": [
        {
          "indexed": false,
          "internalType": "address",
          "name": "account",
          "type": "address"
        }
      ],
      "name": "Paused",
      "type": "event"
    },
    {
      "anonymous": false,
      "inputs": [
        {
          "indexed": true,
          "internalType": "bytes32",
          "name": "role",
          "type": "bytes32"
        },
        {
          "indexed": true,
          "internalType": "bytes32",
          "name": "previousAdminRole",
          "type": "bytes32"
        },
        {
          "indexed": true,
          "internalType": "bytes32",
          "name": "newAdminRole",
          "type": "bytes32"
        }
      ],
      "name": "RoleAdminChanged",
      "type": "event"
    },
    {
      "anonymous": false,
      "inputs": [
        {
          "indexed": true,
          "internalType": "bytes32",
          "name": "role",
          "type": "bytes32"
        },
        {
          "indexed": true,
          "internalType": "address",
          "name": "account",
          "type": "address"
        },
        {
          "indexed": true,
          "internalType": "address",
          "name": "sender",
          "type": "address"
        }
      ],
      "name": "RoleGranted",
      "type": "event"
    },
    {
      "anonymous": false,
      "inputs": [
        {
          "indexed": true,
          "internalType": "bytes32",
          "name": "role",
          "type": "bytes32"
        },
        {
          "indexed": true,
          "internalType": "address",
          "name": "account",
          "type": "address"
        },
        {
          "indexed": true,
          "internalType": "address",
          "name": "sender",
          "type": "address"
        }
      ],
      "name": "RoleRevoked",
      "type": "event"
    },
    {
      "anonymous": false,
      "inputs": [
        {
          "indexed": true,
          "internalType": "address",
          "name": "from",
          "type": "address"
        },
        {
          "indexed": true,
          "internalType": "address",
          "name": "to",
          "type": "address"
        },
        {
          "indexed": false,
          "internalType": "uint256",
          "name": "value",
          "type": "uint256"
        }
      ],
      "name": "Transfer",
      "type": "event"
    },
    {
      "anonymous": false,
      "inputs": [
        {
          "indexed": false,
          "internalType": "address",
          "name": "account",
          "type": "address"
        }
      ],
      "name": "Unpaused",
      "type": "event"
    },
    {
      "inputs": [],
      "name": "DEFAULT_ADMIN_ROLE",
      "outputs": [
        {
          "internalType": "bytes32",
          "name": "",
          "type": "bytes32"
        }
      ],
      "stateMutability": "view",
      "type": "function"
    },
    {
      "inputs": [],
      "name": "ERC1820_ACCEPT_MAGIC",
      "outputs": [
        {
          "internalType": "bytes32",
          "name": "",
          "type": "bytes32"
        }
      ],
      "stateMutability": "view",
      "type": "function"
    },
    {
      "inputs": [],
      "name": "ERC1820_IMPLEMENTER_INTERFACE_ID",
      "outputs": [
        {
          "internalType": "bytes32",
          "name": "",
          "type": "bytes32"
        }
      ],
      "stateMutability": "view",
      "type": "function"
    },
    {
      "inputs": [],
      "name": "MINTER_ROLE",
      "outputs": [
        {
          "internalType": "bytes32",
          "name": "",
          "type": "bytes32"
        }
      ],
      "stateMutability": "view",
      "type": "function"
    },
    {
      "inputs": [],
      "name": "PAUSER_ROLE",
      "outputs": [
        {
          "internalType": "bytes32",
          "name": "",
          "type": "bytes32"
        }
      ],
      "stateMutability": "view",
      "type": "function"
    },
    {
      "inputs": [
        {
          "internalType": "address",
          "name": "account_",
          "type": "address"
        },
        {
          "internalType": "uint256",
          "name": "amount_",
          "type": "uint256"
        }
      ],
      "name": "_burnFrom",
      "outputs": [],
      "stateMutability": "nonpayable",
      "type": "function"
    },
    {
      "inputs": [
        {
          "internalType": "address",
          "name": "owner",
          "type": "address"
        },
        {
          "internalType": "address",
          "name": "spender",
          "type": "address"
        }
      ],
      "name": "allowance",
      "outputs": [
        {
          "internalType": "uint256",
          "name": "",
          "type": "uint256"
        }
      ],
      "stateMutability": "view",
      "type": "function"
    },
    {
      "inputs": [
        {
          "internalType": "address",
          "name": "spender",
          "type": "address"
        },
        {
          "internalType": "uint256",
          "name": "amount",
          "type": "uint256"
        }
      ],
      "name": "approve",
      "outputs": [
        {
          "internalType": "bool",
          "name": "",
          "type": "bool"
        }
      ],
      "stateMutability": "nonpayable",
      "type": "function"
    },
    {
      "inputs": [
        {
          "internalType": "address",
          "name": "account",
          "type": "address"
        }
      ],
      "name": "balanceOf",
      "outputs": [
        {
          "internalType": "uint256",
          "name": "",
          "type": "uint256"
        }
      ],
      "stateMutability": "view",
      "type": "function"
    },
    {
      "inputs": [
        {
          "internalType": "uint256",
          "name": "amount",
          "type": "uint256"
        }
      ],
      "name": "burn",
      "outputs": [],
      "stateMutability": "nonpayable",
      "type": "function"
    },
    {
      "inputs": [
        {
          "internalType": "address",
          "name": "account_",
          "type": "address"
        },
        {
          "internalType": "uint256",
          "name": "amount_",
          "type": "uint256"
        }
      ],
      "name": "burnFrom",
      "outputs": [],
      "stateMutability": "nonpayable",
      "type": "function"
    },
    {
      "inputs": [
        {
          "internalType": "bytes32",
          "name": "interfaceHashQuery_",
          "type": "bytes32"
        },
        {
          "internalType": "address",
          "name": "account",
          "type": "address"
        }
      ],
      "name": "canImplementInterfaceForAddress",
      "outputs": [
        {
          "internalType": "bytes32",
          "name": "",
          "type": "bytes32"
        }
      ],
      "stateMutability": "view",
      "type": "function"
    },
    {
      "inputs": [],
      "name": "decimals",
      "outputs": [
        {
          "internalType": "uint8",
          "name": "",
          "type": "uint8"
        }
      ],
      "stateMutability": "view",
      "type": "function"
    },
    {
      "inputs": [
        {
          "internalType": "address",
          "name": "spender",
          "type": "address"
        },
        {
          "internalType": "uint256",
          "name": "subtractedValue",
          "type": "uint256"
        }
      ],
      "name": "decreaseAllowance",
      "outputs": [
        {
          "internalType": "bool",
          "name": "",
          "type": "bool"
        }
      ],
      "stateMutability": "nonpayable",
      "type": "function"
    },
    {
      "inputs": [
        {
          "internalType": "bytes32",
          "name": "role",
          "type": "bytes32"
        }
      ],
      "name": "getRoleAdmin",
      "outputs": [
        {
          "internalType": "bytes32",
          "name": "",
          "type": "bytes32"
        }
      ],
      "stateMutability": "view",
      "type": "function"
    },
    {
      "inputs": [
        {
          "internalType": "bytes32",
          "name": "role",
          "type": "bytes32"
        },
        {
          "internalType": "uint256",
          "name": "index",
          "type": "uint256"
        }
      ],
      "name": "getRoleMember",
      "outputs": [
        {
          "internalType": "address",
          "name": "",
          "type": "address"
        }
      ],
      "stateMutability": "view",
      "type": "function"
    },
    {
      "inputs": [
        {
          "internalType": "bytes32",
          "name": "role",
          "type": "bytes32"
        }
      ],
      "name": "getRoleMemberCount",
      "outputs": [
        {
          "internalType": "uint256",
          "name": "",
          "type": "uint256"
        }
      ],
      "stateMutability": "view",
      "type": "function"
    },
    {
      "inputs": [
        {
          "internalType": "bytes32",
          "name": "role",
          "type": "bytes32"
        },
        {
          "internalType": "address",
          "name": "account",
          "type": "address"
        }
      ],
      "name": "grantRole",
      "outputs": [],
      "stateMutability": "nonpayable",
      "type": "function"
    },
    {
      "inputs": [
        {
          "internalType": "bytes32",
          "name": "role",
          "type": "bytes32"
        },
        {
          "internalType": "address",
          "name": "account",
          "type": "address"
        }
      ],
      "name": "hasRole",
      "outputs": [
        {
          "internalType": "bool",
          "name": "",
          "type": "bool"
        }
      ],
      "stateMutability": "view",
      "type": "function"
    },
    {
      "inputs": [
        {
          "internalType": "address",
          "name": "spender",
          "type": "address"
        },
        {
          "internalType": "uint256",
          "name": "addedValue",
          "type": "uint256"
        }
      ],
      "name": "increaseAllowance",
      "outputs": [
        {
          "internalType": "bool",
          "name": "",
          "type": "bool"
        }
      ],
      "stateMutability": "nonpayable",
      "type": "function"
    },
    {
      "inputs": [
        {
          "internalType": "address",
          "name": "to",
          "type": "address"
        },
        {
          "internalType": "uint256",
          "name": "amount",
          "type": "uint256"
        }
      ],
      "name": "mint",
      "outputs": [],
      "stateMutability": "nonpayable",
      "type": "function"
    },
    {
      "inputs": [],
      "name": "name",
      "outputs": [
        {
          "internalType": "string",
          "name": "",
          "type": "string"
        }
      ],
      "stateMutability": "view",
      "type": "function"
    },
    {
      "inputs": [],
      "name": "pause",
      "outputs": [],
      "stateMutability": "nonpayable",
      "type": "function"
    },
    {
      "inputs": [],
      "name": "paused",
      "outputs": [
        {
          "internalType": "bool",
          "name": "",
          "type": "bool"
        }
      ],
      "stateMutability": "view",
      "type": "function"
    },
    {
      "inputs": [
        {
          "internalType": "bytes32",
          "name": "role",
          "type": "bytes32"
        },
        {
          "internalType": "address",
          "name": "account",
          "type": "address"
        }
      ],
      "name": "renounceRole",
      "outputs": [],
      "stateMutability": "nonpayable",
      "type": "function"
    },
    {
      "inputs": [
        {
          "internalType": "bytes32",
          "name": "role",
          "type": "bytes32"
        },
        {
          "internalType": "address",
          "name": "account",
          "type": "address"
        }
      ],
      "name": "revokeRole",
      "outputs": [],
      "stateMutability": "nonpayable",
      "type": "function"
    },
    {
      "inputs": [],
      "name": "symbol",
      "outputs": [
        {
          "internalType": "string",
          "name": "",
          "type": "string"
        }
      ],
      "stateMutability": "view",
      "type": "function"
    },
    {
      "inputs": [],
      "name": "totalSupply",
      "outputs": [
        {
          "internalType": "uint256",
          "name": "",
          "type": "uint256"
        }
      ],
      "stateMutability": "view",
      "type": "function"
    },
    {
      "inputs": [
        {
          "internalType": "address",
          "name": "recipient",
          "type": "address"
        },
        {
          "internalType": "uint256",
          "name": "amount",
          "type": "uint256"
        }
      ],
      "name": "transfer",
      "outputs": [
        {
          "internalType": "bool",
          "name": "",
          "type": "bool"
        }
      ],
      "stateMutability": "nonpayable",
      "type": "function"
    },
    {
      "inputs": [
        {
          "internalType": "address",
          "name": "sender",
          "type": "address"
        },
        {
          "internalType": "address",
          "name": "recipient",
          "type": "address"
        },
        {
          "internalType": "uint256",
          "name": "amount",
          "type": "uint256"
        }
      ],
      "name": "transferFrom",
      "outputs": [
        {
          "internalType": "bool",
          "name": "",
          "type": "bool"
        }
      ],
      "stateMutability": "nonpayable",
      "type": "function"
    },
    {
      "inputs": [],
      "name": "unpause",
      "outputs": [],
      "stateMutability": "nonpayable",
      "type": "function"
    }
  ],
  "bytecode": "0x60806040523480156200001157600080fd5b5060405162002f4c38038062002f4c833981810160405260608110156200003757600080fd5b81019080805160405193929190846401000000008211156200005857600080fd5b9083019060208201858111156200006e57600080fd5b82516401000000008111828201881017156200008957600080fd5b82525081516020918201929091019080838360005b83811015620000b85781810151838201526020016200009e565b50505050905090810190601f168015620000e65780820380516001836020036101000a031916815260200191505b50604052602001805160405193929190846401000000008211156200010a57600080fd5b9083019060208201858111156200012057600080fd5b82516401000000008111828201881017156200013b57600080fd5b82525081516020918201929091019080838360005b838110156200016a57818101518382015260200162000150565b50505050905090810190601f168015620001985780820380516001836020036101000a031916815260200191505b5060405260200180519060200190929190505050828282620001de60405180608001604052806043815260200162002df860439139620003c360201b62000db31760201c565b6200022060405180608001604052806053815260200162002ed96053913960008051602062002f2c83398151915260001c6200047660201b62000e591760201c565b620002636040518060800160405280604e815260200162002e8b604e913960008051602062002f2c83398151915260001c306200053b60201b62000f101760201c565b6200027e60008051602062002f2c8339815191523062000612565b620002ad60405180606001604052806040815260200162002d3a60409139620003c360201b62000db31760201c565b620002dc60405180608001604052806050815260200162002e3b60509139620003c360201b62000db31760201c565b8251620002f1906005906020860190620007e3565b50815162000307906006906020850190620007e3565b506007805460ff191660ff929092169190911761ff001916905550620003469050600062000340620006a7602090811b62000fd817901c565b620006ab565b620003807f9f2df0fed2c77648de5860a4cc508cd0818c85b8b8a1ab4ceeef8d981c8956a662000340620006a760201b62000fd81760201c565b620003ba7f65d7a28e3265b37a6474929f336521b332c1681b933f6cb9f3376673440d862a62000340620006a760201b62000fd81760201c565b5050506200088f565b62000473816040516024018080602001828103825283818151815260200191508051906020019080838360005b838110156200040a578181015183820152602001620003f0565b50505050905090810190601f168015620004385780820380516001836020036101000a031916815260200191505b5060408051601f198184030181529190526020810180516001600160e01b0390811663104c13eb60e21b17909152909350620006b716915050565b50565b6200053782826040516024018080602001836001600160a01b03168152602001828103825284818151815260200191508051906020019080838360005b83811015620004cd578181015183820152602001620004b3565b50505050905090810190601f168015620004fb5780820380516001836020036101000a031916815260200191505b5060408051601f198184030181529190526020810180516001600160e01b0390811663319af33360e01b17909152909450620006b71692505050565b5050565b6200060d8383836040516024018080602001846001600160a01b03168152602001836001600160a01b03168152602001828103825285818151815260200191508051906020019080838360005b83811015620005a257818101518382015260200162000588565b50505050905090810190601f168015620005d05780820380516001836020036101000a031916815260200191505b5060408051601f198184030181529190526020810180516001600160e01b039081166307e763af60e51b17909152909550620006b7169350505050565b505050565b620006466040518060a00160405280607e815260200162002d7a607e91398360001c836200053b60201b62000f101760201c565b60008281526001602081815260408084206001600160a01b0386168552825292839020805460ff1916909217909155815160a08101909252607e80835262000537929162002d7a908301398360001c836200053b60201b62000f101760201c565b3390565b620005378282620006d8565b80516a636f6e736f6c652e6c6f67602083016000808483855afa5050505050565b600082815260208181526040909120620006fd91839062000fdc6200075c821b17901c565b15620005375762000718620006a760201b62000fd81760201c565b6001600160a01b0316816001600160a01b0316837f2f8788117e7eff1d82e926ec794901d17c78024a50270940304540a733656f0d60405160405180910390a45050565b600062000773836001600160a01b0384166200077c565b90505b92915050565b60006200078a8383620007cb565b620007c25750815460018181018455600084815260208082209093018490558454848252828601909352604090209190915562000776565b50600062000776565b60009081526001919091016020526040902054151590565b828054600181600116156101000203166002900490600052602060002090601f0160209004810192826200081b576000855562000866565b82601f106200083657805160ff191683800117855562000866565b8280016001018555821562000866579182015b828111156200086657825182559160200191906001019062000849565b506200087492915062000878565b5090565b5b8082111562000874576000815560010162000879565b61249b806200089f6000396000f3fe608060405234801561001057600080fd5b50600436106101e55760003560e01c806379cc67901161010f578063a457c2d7116100a2578063d547741f11610071578063d547741f146105c3578063dd62ed3e146105ef578063e63ab1e91461061d578063ec38fa4214610625576101e5565b8063a457c2d714610546578063a9059cbb14610572578063ca15c8731461059e578063d5391393146105bb576101e5565b806395d89b41116100de57806395d89b4114610502578063a217fddf1461050a578063a22b35ce14610512578063a3cff9b51461053e576101e5565b806379cc6790146104635780638456cb591461048f5780639010d07c1461049757806391d14854146104d6576101e5565b8063313ce5671161018757806340c10f191161015657806340c10f19146103ec57806342966c68146104185780635c975abb1461043557806370a082311461043d576101e5565b8063313ce5671461036e57806336568abe1461038c57806339509351146103b85780633f4ba83a146103e4576101e5565b806323b872dd116101c357806323b872dd146102c1578063248a9ca3146102f7578063249cb3fa146103145780632f2ff15d14610340576101e5565b806306fdde03146101ea578063095ea7b31461026757806318160ddd146102a7575b600080fd5b6101f261062d565b6040805160208082528351818301528351919283929083019185019080838360005b8381101561022c578181015183820152602001610214565b50505050905090810190601f1680156102595780820380516001836020036101000a031916815260200191505b509250505060405180910390f35b6102936004803603604081101561027d57600080fd5b506001600160a01b0381351690602001356106c3565b604080519115158252519081900360200190f35b6102af6106e1565b60408051918252519081900360200190f35b610293600480360360608110156102d757600080fd5b506001600160a01b038135811691602081013590911690604001356106e7565b6102af6004803603602081101561030d57600080fd5b503561076e565b6102af6004803603604081101561032a57600080fd5b50803590602001356001600160a01b0316610783565b61036c6004803603604081101561035657600080fd5b50803590602001356001600160a01b0316610843565b005b6103766108af565b6040805160ff9092168252519081900360200190f35b61036c600480360360408110156103a257600080fd5b50803590602001356001600160a01b03166108b8565b610293600480360360408110156103ce57600080fd5b506001600160a01b038135169060200135610919565b61036c610967565b61036c6004803603604081101561040257600080fd5b506001600160a01b0381351690602001356109d8565b61036c6004803603602081101561042e57600080fd5b5035610a49565b610293610a5d565b6102af6004803603602081101561045357600080fd5b50356001600160a01b0316610a6b565b61036c6004803603604081101561047957600080fd5b506001600160a01b038135169060200135610a86565b61036c610a90565b6104ba600480360360408110156104ad57600080fd5b5080359060200135610aff565b604080516001600160a01b039092168252519081900360200190f35b610293600480360360408110156104ec57600080fd5b50803590602001356001600160a01b0316610b17565b6101f2610b2f565b6102af610b90565b61036c6004803603604081101561052857600080fd5b506001600160a01b038135169060200135610b95565b6102af610bef565b6102936004803603604081101561055c57600080fd5b506001600160a01b038135169060200135610c13565b6102936004803603604081101561058857600080fd5b506001600160a01b038135169060200135610c7b565b6102af600480360360208110156105b457600080fd5b5035610c8f565b6102af610ca6565b61036c600480360360408110156105d957600080fd5b50803590602001356001600160a01b0316610cca565b6102af6004803603604081101561060557600080fd5b506001600160a01b0381358116916020013516610d23565b6102af610d4e565b6102af610d72565b60058054604080516020601f60026000196101006001881615020190951694909404938401819004810282018101909252828152606093909290918301828280156106b95780601f1061068e576101008083540402835291602001916106b9565b820191906000526020600020905b81548152906001019060200180831161069c57829003601f168201915b5050505050905090565b60006106d76106d0610fd8565b8484610ff1565b5060015b92915050565b60045490565b60006106f48484846110dd565b61076484610700610fd8565b61075f85604051806060016040528060288152602001612151602891396001600160a01b038a1660009081526003602052604081209061073e610fd8565b6001600160a01b03168152602081019190915260400160002054919061123a565b610ff1565b5060019392505050565b60009081526020819052604090206002015490565b60006107a76040518060800160405280606081526020016120f16060913984610e59565b60008381526001602090815260408083206001600160a01b038616845290915281205460ff166107d8576000610817565b604051602001808073455243313832305f4143434550545f4d4147494360601b8152506014019050604051602081830303815290604052805190602001205b905061083c6040518060a0016040528060648152602001612384606491398286610f10565b9392505050565b60008281526020819052604090206002015461086690610861610fd8565b610b17565b6108a15760405162461bcd60e51b815260040180806020018281038252602f815260200180611ed7602f913960400191505060405180910390fd5b6108ab82826112d1565b5050565b60075460ff1690565b6108c0610fd8565b6001600160a01b0316816001600160a01b03161461090f5760405162461bcd60e51b815260040180806020018281038252602f81526020018061240d602f913960400191505060405180910390fd5b6108ab828261133a565b60006106d7610926610fd8565b8461075f8560036000610937610fd8565b6001600160a01b03908116825260208083019390935260409182016000908120918c1681529252902054906113a3565b6109937f65d7a28e3265b37a6474929f336521b332c1681b933f6cb9f3376673440d862a610861610fd8565b6109ce5760405162461bcd60e51b8152600401808060200182810382526039815260200180611f286039913960400191505060405180910390fd5b6109d66113fd565b565b610a047f9f2df0fed2c77648de5860a4cc508cd0818c85b8b8a1ab4ceeef8d981c8956a6610861610fd8565b610a3f5760405162461bcd60e51b81526004018080602001828103825260368152602001806121796036913960400191505060405180910390fd5b6108ab82826114a1565b610a5a610a54610fd8565b826117e6565b50565b600754610100900460ff1690565b6001600160a01b031660009081526002602052604090205490565b6108ab8282610b95565b610abc7f65d7a28e3265b37a6474929f336521b332c1681b933f6cb9f3376673440d862a610861610fd8565b610af75760405162461bcd60e51b81526004018080602001828103825260378152602001806123246037913960400191505060405180910390fd5b6109d66118e2565b600082815260208190526040812061083c908361196a565b600082815260208190526040812061083c9083611976565b60068054604080516020601f60026000196101006001881615020190951694909404938401819004810282018101909252828152606093909290918301828280156106b95780601f1061068e576101008083540402835291602001916106b9565b600081565b6000610bcc826040518060600160405280602481526020016121af60249139610bc586610bc0610fd8565b610d23565b919061123a565b9050610be083610bda610fd8565b83610ff1565b610bea83836117e6565b505050565b7f470b4a2a26dde857b9ba255135703cf0ab5f7ca71341df27a8b3d9cc5cb4b47581565b60006106d7610c20610fd8565b8461075f856040518060600160405280602581526020016123e86025913960036000610c4a610fd8565b6001600160a01b03908116825260208083019390935260409182016000908120918d1681529252902054919061123a565b60006106d7610c88610fd8565b84846110dd565b60008181526020819052604081206106db9061198b565b7f9f2df0fed2c77648de5860a4cc508cd0818c85b8b8a1ab4ceeef8d981c8956a681565b600082815260208190526040902060020154610ce890610861610fd8565b61090f5760405162461bcd60e51b815260040180806020018281038252603081526020018061200f6030913960400191505060405180910390fd5b6001600160a01b03918216600090815260036020908152604080832093909416825291909152205490565b7f65d7a28e3265b37a6474929f336521b332c1681b933f6cb9f3376673440d862a81565b604051602001808073455243313832305f4143434550545f4d4147494360601b81525060140190506040516020818303038152906040528051906020012081565b610a5a816040516024018080602001828103825283818151815260200191508051906020019080838360005b83811015610df7578181015183820152602001610ddf565b50505050905090810190601f168015610e245780820380516001836020036101000a031916815260200191505b5060408051601f198184030181529190526020810180516001600160e01b031663104c13eb60e21b1790529250611996915050565b6108ab82826040516024018080602001836001600160a01b03168152602001828103825284818151815260200191508051906020019080838360005b83811015610ead578181015183820152602001610e95565b50505050905090810190601f168015610eda5780820380516001836020036101000a031916815260200191505b5060408051601f198184030181529190526020810180516001600160e01b031663319af33360e01b179052935061199692505050565b610bea8383836040516024018080602001846001600160a01b03168152602001836001600160a01b03168152602001828103825285818151815260200191508051906020019080838360005b83811015610f74578181015183820152602001610f5c565b50505050905090810190601f168015610fa15780820380516001836020036101000a031916815260200191505b5060408051601f198184030181529190526020810180516001600160e01b03166307e763af60e51b17905294506119969350505050565b3390565b600061083c836001600160a01b0384166119b7565b6001600160a01b0383166110365760405162461bcd60e51b81526004018080602001828103825260248152602001806122446024913960400191505060405180910390fd5b6001600160a01b03821661107b5760405162461bcd60e51b8152600401808060200182810382526022815260200180611f616022913960400191505060405180910390fd5b6001600160a01b03808416600081815260036020908152604080832094871680845294825291829020859055815185815291517f8c5be1e5ebec7d5bd14f71427d1e84f3dd0314c0f7b2291e5b200ac8c7c3b9259281900390910190a3505050565b6001600160a01b0383166111225760405162461bcd60e51b81526004018080602001828103825260258152602001806121f46025913960400191505060405180910390fd5b6001600160a01b0382166111675760405162461bcd60e51b8152600401808060200182810382526023815260200180611eb46023913960400191505060405180910390fd5b611172838383611a01565b6111af81604051806060016040528060268152602001611fb6602691396001600160a01b038616600090815260026020526040902054919061123a565b6001600160a01b0380851660009081526002602052604080822093909355908416815220546111de90826113a3565b6001600160a01b0380841660008181526002602090815260409182902094909455805185815290519193928716927fddf252ad1be2c89b69c2b068fc378daa952ba7f163c4a11628f55a4df523b3ef92918290030190a3505050565b600081848411156112c95760405162461bcd60e51b81526004018080602001828103825283818151815260200191508051906020019080838360005b8381101561128e578181015183820152602001611276565b50505050905090810190601f1680156112bb5780820380516001836020036101000a031916815260200191505b509250505060405180910390fd5b505050900390565b60008281526020819052604090206112e99082610fdc565b156108ab576112f6610fd8565b6001600160a01b0316816001600160a01b0316837f2f8788117e7eff1d82e926ec794901d17c78024a50270940304540a733656f0d60405160405180910390a45050565b60008281526020819052604090206113529082611a0c565b156108ab5761135f610fd8565b6001600160a01b0316816001600160a01b0316837ff6391f5c32d9c69d2a47ea670b442974b53935d1edc7fd64eb21e047a839171b60405160405180910390a45050565b60008282018381101561083c576040805162461bcd60e51b815260206004820152601b60248201527f536166654d6174683a206164646974696f6e206f766572666c6f770000000000604482015290519081900360640190fd5b600754610100900460ff16611450576040805162461bcd60e51b815260206004820152601460248201527314185d5cd8589b194e881b9bdd081c185d5cd95960621b604482015290519081900360640190fd5b6007805461ff00191690557f5db9ee0a495bf2e6ff9c91a7834c1ba4fdd244a5e8aa4e537bd38aeae4b073aa611484610fd8565b604080516001600160a01b039092168252519081900360200190a1565b6115536040518060600160405280602a8152602001612294602a913960068054604080516020601f600260001961010060018816150201909516949094049384018190048102820181019092528281528693909290918301828280156115485780601f1061151d57610100808354040283529160200191611548565b820191906000526020600020905b81548152906001019060200180831161152b57829003601f168201915b505050505085611a21565b61157460405180608001604052806041815260200161206160419139610db3565b6001600160a01b0382166115cf576040805162461bcd60e51b815260206004820152601f60248201527f45524332303a206d696e7420746f20746865207a65726f206164647265737300604482015290519081900360640190fd5b6115f06040518060600160405280604081526020016122be60409139610db3565b6116116040518060600160405280602c8152602001612268602c9139610db3565b61161c308383611a01565b61163d6040518060600160405280602b8152602001612219602b9139610db3565b61165f60405180606001604052806029815260200161235b6029913982611b4d565b60045461166c90826113a3565b60048190555061169660405180606001604052806022815260200161203f60229139600454611b4d565b6116ba6040518060600160405280602781526020016120a260279139600454611b4d565b6116dd604051806060016040528060338152602001611f83603391398284611bfb565b6001600160a01b03821660009081526002602052604090205461170090826113a3565b60026000846001600160a01b03166001600160a01b0316815260200190815260200160002081905550611764604051806060016040528060338152602001611fdc603391396001600160a01b03841660009081526002602052604090205484611bfb565b6117856040518060600160405280602881526020016120c960289139610db3565b6040805182815290516001600160a01b0384169130917fddf252ad1be2c89b69c2b068fc378daa952ba7f163c4a11628f55a4df523b3ef9181900360200190a36108ab6040518060600160405280602681526020016122fe60269139610db3565b6001600160a01b03821661182b5760405162461bcd60e51b81526004018080602001828103825260218152602001806121d36021913960400191505060405180910390fd5b61183782600083611a01565b61187481604051806060016040528060228152602001611f06602291396001600160a01b038516600090815260026020526040902054919061123a565b6001600160a01b03831660009081526002602052604090205560045461189a9082611cba565b6004556040805182815290516000916001600160a01b038516917fddf252ad1be2c89b69c2b068fc378daa952ba7f163c4a11628f55a4df523b3ef9181900360200190a35050565b600754610100900460ff1615611932576040805162461bcd60e51b815260206004820152601060248201526f14185d5cd8589b194e881c185d5cd95960821b604482015290519081900360640190fd5b6007805461ff0019166101001790557f62e78cea01bee320cd4e420270b5ea74000d11b0c9f74754ebdbfc544b05a258611484610fd8565b600061083c8383611cfc565b600061083c836001600160a01b038416611d60565b60006106db82611d78565b80516a636f6e736f6c652e6c6f67602083016000808483855afa5050505050565b60006119c38383611d60565b6119f9575081546001818101845560008481526020808220909301849055845484825282860190935260409020919091556106db565b5060006106db565b610bea838383611d7c565b600061083c836001600160a01b038416611dcb565b611b4784848484604051602401808060200185815260200180602001846001600160a01b03168152602001838103835287818151815260200191508051906020019080838360005b83811015611a81578181015183820152602001611a69565b50505050905090810190601f168015611aae5780820380516001836020036101000a031916815260200191505b50838103825285518152855160209182019187019080838360005b83811015611ae1578181015183820152602001611ac9565b50505050905090810190601f168015611b0e5780820380516001836020036101000a031916815260200191505b5060408051601f198184030181529190526020810180516001600160e01b031663bb7235e960e01b179052965061199695505050505050565b50505050565b6108ab82826040516024018080602001838152602001828103825284818151815260200191508051906020019080838360005b83811015611b98578181015183820152602001611b80565b50505050905090810190601f168015611bc55780820380516001836020036101000a031916815260200191505b5060408051601f198184030181529190526020810180516001600160e01b03166309710a9d60e41b179052935061199692505050565b610bea8383836040516024018080602001848152602001836001600160a01b03168152602001828103825285818151815260200191508051906020019080838360005b83811015611c56578181015183820152602001611c3e565b50505050905090810190601f168015611c835780820380516001836020036101000a031916815260200191505b5060408051601f198184030181529190526020810180516001600160e01b031663e3849f7960e01b17905294506119969350505050565b600061083c83836040518060400160405280601e81526020017f536166654d6174683a207375627472616374696f6e206f766572666c6f77000081525061123a565b81546000908210611d3e5760405162461bcd60e51b8152600401808060200182810382526022815260200180611e926022913960400191505060405180910390fd5b826000018281548110611d4d57fe5b9060005260206000200154905092915050565b60009081526001919091016020526040902054151590565b5490565b611d87838383610bea565b611d8f610a5d565b15610bea5760405162461bcd60e51b815260040180806020018281038252602a81526020018061243c602a913960400191505060405180910390fd5b60008181526001830160205260408120548015611e875783546000198083019190810190600090879083908110611dfe57fe5b9060005260206000200154905080876000018481548110611e1b57fe5b600091825260208083209091019290925582815260018981019092526040902090840190558654879080611e4b57fe5b600190038181906000526020600020016000905590558660010160008781526020019081526020016000206000905560019450505050506106db565b60009150506106db56fe456e756d657261626c655365743a20696e646578206f7574206f6620626f756e647345524332303a207472616e7366657220746f20746865207a65726f2061646472657373416363657373436f6e74726f6c3a2073656e646572206d75737420626520616e2061646d696e20746f206772616e7445524332303a206275726e20616d6f756e7420657863656564732062616c616e636545524332305072657365744d696e7465725061757365723a206d75737420686176652070617573657220726f6c6520746f20756e706175736545524332303a20617070726f766520746f20746865207a65726f206164647265737345524332303a3a5f6d696e743a3920416464696e6720257320746f2062616c616e636520666f7220616464726573732025732e45524332303a207472616e7366657220616d6f756e7420657863656564732062616c616e636545524332303a3a5f6d696e743a313020416464656420257320746f2062616c616e636520666f7220616464726573732025732e416363657373436f6e74726f6c3a2073656e646572206d75737420626520616e2061646d696e20746f207265766f6b6545524332303a3a5f6d696e743a37205f746f74616c537570706c792069732025732e45524332303a3a5f6d696e743a3220436f6e6669726d696e672074686174206d696e74696e6720726563697069656e742069736e2774206164647265737320302e45524332303a3a5f6d696e743a3820416464656420257320746f20746f74616c537570706c792e45524332303a3a5f6d696e743a313120456d697474696e67205472616e73666572206576656e742e45524331383230496d706c656d656e7465723a3a63616e496d706c656d656e74496e74657266616365466f72416464726573733a3120436865636b696e672074686174207468697320636f6e747261637420696d70656c6d656e74732025732e45524332303a207472616e7366657220616d6f756e74206578636565647320616c6c6f77616e636545524332305072657365744d696e7465725061757365723a206d7573742068617665206d696e74657220726f6c6520746f206d696e7445524332303a206275726e20616d6f756e74206578636565647320616c6c6f77616e636545524332303a206275726e2066726f6d20746865207a65726f206164647265737345524332303a207472616e736665722066726f6d20746865207a65726f206164647265737345524332303a3a5f6d696e743a352043616c6c6564205f6265666f7265546f6b656e5472616e736665722e45524332303a20617070726f76652066726f6d20746865207a65726f206164647265737345524332303a3a5f6d696e743a342043616c6c696e67205f6265666f7265546f6b656e5472616e736665722e45524332303a3a5f6d696e743a31204d696e74696e6720257320257320746f6b656e7320746f2025732e45524332303a3a5f6d696e743a3320436f6e6669726d65642074686174206d696e74696e6720726563697069656e742069736e2774206164647265737320302e45524332303a3a5f6d696e743a313220456d69746564205472616e73666572206576656e742e45524332305072657365744d696e7465725061757365723a206d75737420686176652070617573657220726f6c6520746f20706175736545524332303a3a5f6d696e743a3620416464696e6720257320746f205f746f74616c537570706c792e45524331383230496d706c656d656e7465723a3a63616e496d706c656d656e74496e74657266616365466f72416464726573733a322052657475726e696e672025732074686174207468697320636f6e747261637420696d70656c6d656e74732025732e45524332303a2064656372656173656420616c6c6f77616e63652062656c6f77207a65726f416363657373436f6e74726f6c3a2063616e206f6e6c792072656e6f756e636520726f6c657320666f722073656c6645524332305061757361626c653a20746f6b656e207472616e73666572207768696c6520706175736564a26469706673582212200d481e06906cb4e198cfe7a95aa37f2fa32045a22a9c20071a524cded54148b964736f6c6343000705003345524331383230496d706c656d656e7465723a3a636f6e7374727563746f723a3420526567697374657265642045524331383230496d706c656d656e7465722e45524331383230496d706c656d656e7465723a3a5f7265676973746572496e74657266616365466f72416464726573733a312053656c66207265676973746572696e672074686174207468697320636f6e747261637420696d706c656d656e747320696e7465726661636520257320666f7220616464726573732025732e45524331383230496d706c656d656e7465723a3a636f6e7374727563746f723a3120496e7374616e74696174696e672045524331383230496d706c656d656e7465722e45524331383230496d706c656d656e7465723a3a636f6e7374727563746f723a3520496e7374616e74696174656420455243313832305f494d504c454d454e5445525f494e544552464143455f49442e45524331383230496d706c656d656e7465723a3a636f6e7374727563746f723a33205265676973746572696e672045524331383230496d706c656d656e746572206f6620257320666f722025732e45524331383230496d706c656d656e7465723a3a636f6e7374727563746f723a3220455243313832305f494d504c454d454e5445525f494e544552464143455f494420696e746572666163652049443a202573470b4a2a26dde857b9ba255135703cf0ab5f7ca71341df27a8b3d9cc5cb4b475",
  "linkReferences": {},
  "deployedLinkReferences": {}
}