{
  "_format": "hh-sol-artifact-1",
  "contractName": "ERC165Implementor",
  "sourceName": "contracts/dependencies/holyzeppelin/contracts/test/introspection/ERC165/ERC165Implementor.sol",
  "abi": [
    {
      "inputs": [],
      "name": "ERC165_INTERFACE_ID",
      "outputs": [
        {
          "internalType": "bytes4",
          "name": "",
          "type": "bytes4"
        }
      ],
      "stateMutability": "view",
      "type": "function"
    },
    {
      "inputs": [
        {
          "internalType": "bytes4",
          "name": "interfaceId_",
          "type": "bytes4"
        }
      ],
      "name": "supportsInterface",
      "outputs": [
        {
          "internalType": "bool",
          "name": "",
          "type": "bool"
        }
      ],
      "stateMutability": "view",
      "type": "function"
    }
  ],
  "bytecode": "0x608060405234801561001057600080fd5b5061003c60405180608001604052806044815260200161057d604491396100d260201b6101091760201c565b6100676040518060800160405280604f8152602001610652604f91396100d260201b6101091760201c565b6100776301ffc9a760e01b610180565b6100a26040518060800160405280604e8152602001610604604e91396100d260201b6101091760201c565b6100cd6040518060800160405280604381526020016105c1604391396100d260201b6101091760201c565b610225565b61017d816040516024018080602001828103825283818151815260200191508051906020019080838360005b838110156101165781810151838201526020016100fe565b50505050905090810190601f1680156101435780820380516001836020036101000a031916815260200191505b5060408051601f198184030181529190526020810180516001600160e01b0390811663104c13eb60e21b1790915290935061020416915050565b50565b6001600160e01b031980821614156101df576040805162461bcd60e51b815260206004820152601c60248201527f4552433136353a20696e76616c696420696e7465726661636520696400000000604482015290519081900360640190fd5b6001600160e01b0319166000908152602081905260409020805460ff19166001179055565b80516a636f6e736f6c652e6c6f67602083016000808483855afa5050505050565b610349806102346000396000f3fe608060405234801561001057600080fd5b50600436106100365760003560e01c806301ffc9a71461003b578063950d7f6f14610076575b600080fd5b6100626004803603602081101561005157600080fd5b50356001600160e01b03191661009b565b604080519115158252519081900360200190f35b61007e6100fe565b604080516001600160e01b03199092168252519081900360200190f35b60006100de6040518060a00160405280606881526020016102ac606891396001600160e01b0319841660008181526020819052604090205430919060ff166101b2565b506001600160e01b03191660009081526020819052604090205460ff1690565b6301ffc9a760e01b81565b6101af816040516024018080602001828103825283818151815260200191508051906020019080838360005b8381101561014d578181015183820152602001610135565b50505050905090810190601f16801561017a5780820380516001836020036101000a031916815260200191505b5060408051601f198184030181529190526020810180516001600160e01b031663104c13eb60e21b179052925061028a915050565b50565b610284848484846040516024018080602001856001600160a01b03168152602001846001600160a01b031681526020018315158152602001828103825286818151815260200191508051906020019080838360005b8381101561021f578181015183820152602001610207565b50505050905090810190601f16801561024c5780820380516001836020036101000a031916815260200191505b5060408051601f198184030181529190526020810180516001600160e01b03166305acedeb60e51b179052955061028a945050505050565b50505050565b80516a636f6e736f6c652e6c6f67602083016000808483855afa505050505056fe436f6e74726163743a3a686f6c797a657070656c696e3a3a4552433136353a3a737570706f727473496e746572666163653a303120446f6573207468697320636f6e747261637420617420257320696d706c656d656e7420696e746572666163652025733f202573a2646970667358221220f12bd6082ba35d9bba340f8efe1d191eeebf1cb4ae4069d424d58023bb8623c164736f6c63430007050033436f6e74726163743a3a686f6c797a657070656c696e3a3a4552433136353a3a636f6e7374727563746f723a303120496e7374616e74696174696e67204552433136352e436f6e74726163743a3a686f6c797a657070656c696e3a3a4552433136353a3a636f6e7374727563746f723a303420496e7374616e746961746564204552433136352e436f6e74726163743a3a686f6c797a657070656c696e3a3a4552433136353a3a636f6e7374727563746f723a30332052656769737465726564204552433136355f494e544552464143455f49442e436f6e74726163743a3a686f6c797a657070656c696e3a3a4552433136353a3a636f6e7374727563746f723a3032205265676973746572696e67204552433136355f494e544552464143455f49442e",
  "linkReferences": {},
  "deployedLinkReferences": {}
}