{
  "_format": "hh-sol-artifact-1",
  "contractName": "ERC1820ImplementerImplementor",
  "sourceName": "contracts/dependencies/holyzeppelin/contracts/test/introspection/ERC1820/ERC1820ImplementerImplementor.sol",
  "abi": [
    {
      "inputs": [],
      "name": "ERC1820_ACCEPT_MAGIC",
      "outputs": [
        {
          "internalType": "bytes32",
          "name": "",
          "type": "bytes32"
        }
      ],
      "stateMutability": "view",
      "type": "function"
    },
    {
      "inputs": [],
      "name": "ERC1820_IMPLEMENTER_INTERFACE_ID",
      "outputs": [
        {
          "internalType": "bytes32",
          "name": "",
          "type": "bytes32"
        }
      ],
      "stateMutability": "view",
      "type": "function"
    },
    {
      "inputs": [
        {
          "internalType": "bytes32",
          "name": "interfaceHashQuery_",
          "type": "bytes32"
        },
        {
          "internalType": "address",
          "name": "account",
          "type": "address"
        }
      ],
      "name": "canImplementInterfaceForAddress",
      "outputs": [
        {
          "internalType": "bytes32",
          "name": "",
          "type": "bytes32"
        }
      ],
      "stateMutability": "view",
      "type": "function"
    }
  ],
  "bytecode": "0x608060405234801561001057600080fd5b5061003c6040518060800160405280605b8152602001610a46605b913961012a60201b61017d1760201c565b6100796040518060a00160405280606b81526020016109db606b9139600080516020610b0983398151915260001c6101d860201b6102261760201c565b6100b76040518060a001604052806066815260200161097560669139600080516020610b0983398151915260001c3061029860201b6102e11760201c565b6100cf600080516020610b098339815191523061036a565b6100fa60405180608001604052806058815260200161091d6058913961012a60201b61017d1760201c565b6101256040518060a0016040528060688152602001610aa16068913961012a60201b61017d1760201c565b610415565b6101d5816040516024018080602001828103825283818151815260200191508051906020019080838360005b8381101561016e578181015183820152602001610156565b50505050905090810190601f16801561019b5780820380516001836020036101000a031916815260200191505b5060408051601f198184030181529190526020810180516001600160e01b0390811663104c13eb60e21b179091529093506103f416915050565b50565b61029482826040516024018080602001836001600160a01b03168152602001828103825284818151815260200191508051906020019080838360005b8381101561022c578181015183820152602001610214565b50505050905090810190601f1680156102595780820380516001836020036101000a031916815260200191505b5060408051601f198184030181529190526020810180516001600160e01b0390811663319af33360e01b179091529094506103f41692505050565b5050565b6103658383836040516024018080602001846001600160a01b03168152602001836001600160a01b03168152602001828103825285818151815260200191508051906020019080838360005b838110156102fc5781810151838201526020016102e4565b50505050905090810190601f1680156103295780820380516001836020036101000a031916815260200191505b5060408051601f198184030181529190526020810180516001600160e01b039081166307e763af60e51b179091529095506103f4169350505050565b505050565b61039a6040518060c0016040528060968152602001610b29609691398360001c8361029860201b6102e11760201c565b6000828152602081815260408083206001600160a01b0385168452825291829020805460ff19166001179055815160c0810190925260968083526102949291610b29908301398360001c8361029860201b6102e11760201c565b80516a636f6e736f6c652e6c6f67602083016000808483855afa5050505050565b6104f9806104246000396000f3fe608060405234801561001057600080fd5b50600436106100415760003560e01c8063249cb3fa14610046578063a3cff9b514610084578063ec38fa421461008c575b600080fd5b6100726004803603604081101561005c57600080fd5b50803590602001356001600160a01b0316610094565b60408051918252519081900360200190f35b610072610135565b610072610159565b60006100b86040518060a001604052806078815260200161044c6078913984610226565b6000838152602081815260408083206001600160a01b038616845290915281205460ff166100e7576000610109565b7fa2ef4600d742022d532d4747cb3547474667d6f13804902513b2ec01c848f4b45b905061012e6040518060a00160405280607c81526020016103d0607c913982866102e1565b9392505050565b7f470b4a2a26dde857b9ba255135703cf0ab5f7ca71341df27a8b3d9cc5cb4b47581565b7fa2ef4600d742022d532d4747cb3547474667d6f13804902513b2ec01c848f4b481565b610223816040516024018080602001828103825283818151815260200191508051906020019080838360005b838110156101c15781810151838201526020016101a9565b50505050905090810190601f1680156101ee5780820380516001836020036101000a031916815260200191505b5060408051601f198184030181529190526020810180516001600160e01b031663104c13eb60e21b17905292506103ae915050565b50565b6102dd82826040516024018080602001836001600160a01b03168152602001828103825284818151815260200191508051906020019080838360005b8381101561027a578181015183820152602001610262565b50505050905090810190601f1680156102a75780820380516001836020036101000a031916815260200191505b5060408051601f198184030181529190526020810180516001600160e01b031663319af33360e01b17905293506103ae92505050565b5050565b6103a98383836040516024018080602001846001600160a01b03168152602001836001600160a01b03168152602001828103825285818151815260200191508051906020019080838360005b8381101561034557818101518382015260200161032d565b50505050905090810190601f1680156103725780820380516001836020036101000a031916815260200191505b5060408051601f198184030181529190526020810180516001600160e01b03166307e763af60e51b17905294506103ae9350505050565b505050565b80516a636f6e736f6c652e6c6f67602083016000808483855afa505050505056fe436f6e74726163743a3a686f6c797a657070656c696e3a3a45524331383230496d706c656d656e7465723a3a63616e496d706c656d656e74496e74657266616365466f72416464726573733a322052657475726e696e672025732074686174207468697320636f6e747261637420696d70656c6d656e74732025732e436f6e74726163743a3a686f6c797a657070656c696e3a3a45524331383230496d706c656d656e7465723a3a63616e496d706c656d656e74496e74657266616365466f72416464726573733a3120436865636b696e672074686174207468697320636f6e747261637420696d70656c6d656e74732025732ea26469706673582212209402edf048c29c90070befa892d44c1be4c69ecce8236ca64fa50314e681530864736f6c63430007050033436f6e74726163743a3a686f6c797a657070656c696e3a3a45524331383230496d706c656d656e7465723a3a636f6e7374727563746f723a3420526567697374657265642045524331383230496d706c656d656e7465722e436f6e74726163743a3a686f6c797a657070656c696e3a3a45524331383230496d706c656d656e7465723a3a636f6e7374727563746f723a33205265676973746572696e672045524331383230496d706c656d656e746572206f6620257320666f722025732e436f6e74726163743a3a686f6c797a657070656c696e3a3a45524331383230496d706c656d656e7465723a3a636f6e7374727563746f723a3220455243313832305f494d504c454d454e5445525f494e544552464143455f494420696e746572666163652049443a202573436f6e74726163743a3a686f6c797a657070656c696e3a3a45524331383230496d706c656d656e7465723a3a636f6e7374727563746f723a3120496e7374616e74696174696e672045524331383230496d706c656d656e7465722e436f6e74726163743a3a686f6c797a657070656c696e3a3a45524331383230496d706c656d656e7465723a3a636f6e7374727563746f723a3520496e7374616e74696174656420455243313832305f494d504c454d454e5445525f494e544552464143455f49442e470b4a2a26dde857b9ba255135703cf0ab5f7ca71341df27a8b3d9cc5cb4b475436f6e74726163743a3a686f6c797a657070656c696e3a3a45524331383230496d706c656d656e7465723a3a5f7265676973746572496e74657266616365466f72416464726573733a312053656c66207265676973746572696e672074686174207468697320636f6e747261637420696d706c656d656e747320696e7465726661636520257320666f7220616464726573732025732e",
  "linkReferences": {},
  "deployedLinkReferences": {}
}