{
  "_format": "hh-sol-artifact-1",
  "contractName": "NamerTestFakeNoncompliantERC20",
  "sourceName": "contracts/dependencies/holyzeppelin/test/protocols/exchanges/uniswap/lib/contracts/SafeERC20NamerTest.sol",
  "abi": [
    {
      "inputs": [
        {
          "internalType": "bytes32",
          "name": "name_",
          "type": "bytes32"
        },
        {
          "internalType": "bytes32",
          "name": "symbol_",
          "type": "bytes32"
        }
      ],
      "stateMutability": "nonpayable",
      "type": "constructor"
    },
    {
      "inputs": [],
      "name": "name",
      "outputs": [
        {
          "internalType": "bytes32",
          "name": "",
          "type": "bytes32"
        }
      ],
      "stateMutability": "view",
      "type": "function"
    },
    {
      "inputs": [],
      "name": "symbol",
      "outputs": [
        {
          "internalType": "bytes32",
          "name": "",
          "type": "bytes32"
        }
      ],
      "stateMutability": "view",
      "type": "function"
    }
  ],
  "bytecode": "0x608060405234801561001057600080fd5b506040516100ea3803806100ea8339818101604052604081101561003357600080fd5b5080516020909101516000919091556001556097806100536000396000f3fe6080604052348015600f57600080fd5b506004361060325760003560e01c806306fdde0314603757806395d89b4114604f575b600080fd5b603d6055565b60408051918252519081900360200190f35b603d605b565b60005481565b6001548156fea26469706673582212202486ca8ae4c318f979464a303cfbe7d20fcbf1efb5dc59963223743782fddb7d64736f6c63430007050033",
  "linkReferences": {},
  "deployedLinkReferences": {}
}