{
  "_format": "hh-sol-artifact-1",
  "contractName": "ERC1155",
  "sourceName": "contracts/dependencies/holyzeppelin/contracts/token/ERC1155/ERC1155.sol",
  "abi": [
    {
      "inputs": [],
      "stateMutability": "nonpayable",
      "type": "constructor"
    },
    {
      "anonymous": false,
      "inputs": [
        {
          "indexed": true,
          "internalType": "address",
          "name": "account",
          "type": "address"
        },
        {
          "indexed": true,
          "internalType": "address",
          "name": "operator",
          "type": "address"
        },
        {
          "indexed": false,
          "internalType": "bool",
          "name": "approved",
          "type": "bool"
        }
      ],
      "name": "ApprovalForAll",
      "type": "event"
    },
    {
      "anonymous": false,
      "inputs": [
        {
          "indexed": true,
          "internalType": "address",
          "name": "operator",
          "type": "address"
        },
        {
          "indexed": true,
          "internalType": "address",
          "name": "from",
          "type": "address"
        },
        {
          "indexed": true,
          "internalType": "address",
          "name": "to",
          "type": "address"
        },
        {
          "indexed": false,
          "internalType": "uint256[]",
          "name": "ids",
          "type": "uint256[]"
        },
        {
          "indexed": false,
          "internalType": "uint256[]",
          "name": "values",
          "type": "uint256[]"
        }
      ],
      "name": "TransferBatch",
      "type": "event"
    },
    {
      "anonymous": false,
      "inputs": [
        {
          "indexed": true,
          "internalType": "address",
          "name": "operator",
          "type": "address"
        },
        {
          "indexed": true,
          "internalType": "address",
          "name": "from",
          "type": "address"
        },
        {
          "indexed": true,
          "internalType": "address",
          "name": "to",
          "type": "address"
        },
        {
          "indexed": false,
          "internalType": "uint256",
          "name": "id",
          "type": "uint256"
        },
        {
          "indexed": false,
          "internalType": "uint256",
          "name": "value",
          "type": "uint256"
        }
      ],
      "name": "TransferSingle",
      "type": "event"
    },
    {
      "anonymous": false,
      "inputs": [
        {
          "indexed": false,
          "internalType": "string",
          "name": "value",
          "type": "string"
        },
        {
          "indexed": true,
          "internalType": "uint256",
          "name": "id",
          "type": "uint256"
        }
      ],
      "name": "URI",
      "type": "event"
    },
    {
      "inputs": [],
      "name": "ERC165_INTERFACE_ID",
      "outputs": [
        {
          "internalType": "bytes4",
          "name": "",
          "type": "bytes4"
        }
      ],
      "stateMutability": "view",
      "type": "function"
    },
    {
      "inputs": [
        {
          "internalType": "address",
          "name": "account",
          "type": "address"
        },
        {
          "internalType": "uint256",
          "name": "id",
          "type": "uint256"
        }
      ],
      "name": "balanceOf",
      "outputs": [
        {
          "internalType": "uint256",
          "name": "",
          "type": "uint256"
        }
      ],
      "stateMutability": "view",
      "type": "function"
    },
    {
      "inputs": [
        {
          "internalType": "address[]",
          "name": "accounts",
          "type": "address[]"
        },
        {
          "internalType": "uint256[]",
          "name": "ids",
          "type": "uint256[]"
        }
      ],
      "name": "balanceOfBatch",
      "outputs": [
        {
          "internalType": "uint256[]",
          "name": "",
          "type": "uint256[]"
        }
      ],
      "stateMutability": "view",
      "type": "function"
    },
    {
      "inputs": [
        {
          "internalType": "address",
          "name": "account",
          "type": "address"
        },
        {
          "internalType": "address",
          "name": "operator",
          "type": "address"
        }
      ],
      "name": "isApprovedForAll",
      "outputs": [
        {
          "internalType": "bool",
          "name": "",
          "type": "bool"
        }
      ],
      "stateMutability": "view",
      "type": "function"
    },
    {
      "inputs": [
        {
          "internalType": "address",
          "name": "from",
          "type": "address"
        },
        {
          "internalType": "address",
          "name": "to",
          "type": "address"
        },
        {
          "internalType": "uint256[]",
          "name": "ids",
          "type": "uint256[]"
        },
        {
          "internalType": "uint256[]",
          "name": "amounts",
          "type": "uint256[]"
        },
        {
          "internalType": "bytes",
          "name": "data",
          "type": "bytes"
        }
      ],
      "name": "safeBatchTransferFrom",
      "outputs": [],
      "stateMutability": "nonpayable",
      "type": "function"
    },
    {
      "inputs": [
        {
          "internalType": "address",
          "name": "from",
          "type": "address"
        },
        {
          "internalType": "address",
          "name": "to",
          "type": "address"
        },
        {
          "internalType": "uint256",
          "name": "id",
          "type": "uint256"
        },
        {
          "internalType": "uint256",
          "name": "amount",
          "type": "uint256"
        },
        {
          "internalType": "bytes",
          "name": "data",
          "type": "bytes"
        }
      ],
      "name": "safeTransferFrom",
      "outputs": [],
      "stateMutability": "nonpayable",
      "type": "function"
    },
    {
      "inputs": [
        {
          "internalType": "address",
          "name": "operator",
          "type": "address"
        },
        {
          "internalType": "bool",
          "name": "approved",
          "type": "bool"
        }
      ],
      "name": "setApprovalForAll",
      "outputs": [],
      "stateMutability": "nonpayable",
      "type": "function"
    },
    {
      "inputs": [
        {
          "internalType": "bytes4",
          "name": "interfaceId_",
          "type": "bytes4"
        }
      ],
      "name": "supportsInterface",
      "outputs": [
        {
          "internalType": "bool",
          "name": "",
          "type": "bool"
        }
      ],
      "stateMutability": "view",
      "type": "function"
    },
    {
      "inputs": [
        {
          "internalType": "uint256",
          "name": "",
          "type": "uint256"
        }
      ],
      "name": "uri",
      "outputs": [
        {
          "internalType": "string",
          "name": "",
          "type": "string"
        }
      ],
      "stateMutability": "view",
      "type": "function"
    }
  ],
  "bytecode": "0x60806040523480156200001157600080fd5b506200004160405180608001604052806044815260200162001b6c604491396200010a60201b62000efb1760201c565b620000706040518060800160405280604f815260200162001c41604f91396200010a60201b62000efb1760201c565b620000826301ffc9a760e01b620001bd565b620000b16040518060800160405280604e815260200162001bf3604e91396200010a60201b62000efb1760201c565b620000e060405180608001604052806043815260200162001bb0604391396200010a60201b62000efb1760201c565b620000f2636cdb3d1360e11b620001bd565b620001046303a24d0760e21b620001bd565b62000263565b620001ba816040516024018080602001828103825283818151815260200191508051906020019080838360005b838110156200015157818101518382015260200162000137565b50505050905090810190601f1680156200017f5780820380516001836020036101000a031916815260200191505b5060408051601f198184030181529190526020810180516001600160e01b0390811663104c13eb60e21b179091529093506200024216915050565b50565b6001600160e01b031980821614156200021d576040805162461bcd60e51b815260206004820152601c60248201527f4552433136353a20696e76616c696420696e7465726661636520696400000000604482015290519081900360640190fd5b6001600160e01b0319166000908152602081905260409020805460ff19166001179055565b80516a636f6e736f6c652e6c6f67602083016000808483855afa5050505050565b6118f980620002736000396000f3fe608060405234801561001057600080fd5b50600436106100925760003560e01c80634e1273f4116100665780634e1273f414610365578063950d7f6f146104d8578063a22cb465146104fd578063e985e9c51461052b578063f242432a1461055957610092565b8062fdd58e1461009757806301ffc9a7146100d55780630e89341c146101105780632eb2c2d6146101a2575b600080fd5b6100c3600480360360408110156100ad57600080fd5b506001600160a01b038135169060200135610622565b60408051918252519081900360200190f35b6100fc600480360360208110156100eb57600080fd5b50356001600160e01b031916610691565b604080519115158252519081900360200190f35b61012d6004803603602081101561012657600080fd5b50356106f4565b6040805160208082528351818301528351919283929083019185019080838360005b8381101561016757818101518382015260200161014f565b50505050905090810190601f1680156101945780820380516001836020036101000a031916815260200191505b509250505060405180910390f35b610363600480360360a08110156101b857600080fd5b6001600160a01b038235811692602081013590911691810190606081016040820135600160201b8111156101eb57600080fd5b8201836020820111156101fd57600080fd5b803590602001918460208302840111600160201b8311171561021e57600080fd5b9190808060200260200160405190810160405280939291908181526020018383602002808284376000920191909152509295949360208101935035915050600160201b81111561026d57600080fd5b82018360208201111561027f57600080fd5b803590602001918460208302840111600160201b831117156102a057600080fd5b9190808060200260200160405190810160405280939291908181526020018383602002808284376000920191909152509295949360208101935035915050600160201b8111156102ef57600080fd5b82018360208201111561030157600080fd5b803590602001918460018302840111600160201b8311171561032257600080fd5b91908080601f01602080910402602001604051908101604052809392919081815260200183838082843760009201919091525092955061078c945050505050565b005b6104886004803603604081101561037b57600080fd5b810190602081018135600160201b81111561039557600080fd5b8201836020820111156103a757600080fd5b803590602001918460208302840111600160201b831117156103c857600080fd5b9190808060200260200160405190810160405280939291908181526020018383602002808284376000920191909152509295949360208101935035915050600160201b81111561041757600080fd5b82018360208201111561042957600080fd5b803590602001918460208302840111600160201b8311171561044a57600080fd5b919080806020026020016040519081016040528093929190818152602001838360200280828437600092019190915250929550610a8a945050505050565b60408051602080825283518183015283519192839290830191858101910280838360005b838110156104c45781810151838201526020016104ac565b505050509050019250505060405180910390f35b6104e0610c08565b604080516001600160e01b03199092168252519081900360200190f35b6103636004803603604081101561051357600080fd5b506001600160a01b0381351690602001351515610c13565b6100fc6004803603604081101561054157600080fd5b506001600160a01b0381358116916020013516610d02565b610363600480360360a081101561056f57600080fd5b6001600160a01b03823581169260208101359091169160408201359160608101359181019060a081016080820135600160201b8111156105ae57600080fd5b8201836020820111156105c057600080fd5b803590602001918460018302840111600160201b831117156105e157600080fd5b91908080601f016020809104026020016040519081016040528093929190818152602001838380828437600092019190915250929550610d30945050505050565b60006001600160a01b0383166106695760405162461bcd60e51b815260040180806020018281038252602b8152602001806116dc602b913960400191505060405180910390fd5b5060009081526001602090815260408083206001600160a01b03949094168352929052205490565b60006106d46040518060a0016040528060688152602001611738606891396001600160e01b0319841660008181526020819052604090205430919060ff16610fa4565b506001600160e01b03191660009081526020819052604090205460ff1690565b60038054604080516020601f60026000196101006001881615020190951694909404938401819004810282018101909252828152606093909290918301828280156107805780601f1061075557610100808354040283529160200191610780565b820191906000526020600020905b81548152906001019060200180831161076357829003601f168201915b50505050509050919050565b81518351146107cc5760405162461bcd60e51b815260040180806020018281038252602881526020018061189c6028913960400191505060405180910390fd5b6001600160a01b0384166108115760405162461bcd60e51b81526004018080602001828103825260258152602001806117c96025913960400191505060405180910390fd5b61081961107c565b6001600160a01b0316856001600160a01b0316148061084457506108448561083f61107c565b610d02565b61087f5760405162461bcd60e51b81526004018080602001828103825260328152602001806117ee6032913960400191505060405180910390fd5b600061088961107c565b9050610899818787878787610a82565b60005b845181101561099a5760008582815181106108b357fe5b6020026020010151905060008583815181106108cb57fe5b60200260200101519050610938816040518060600160405280602a8152602001611820602a91396001600086815260200190815260200160002060008d6001600160a01b03166001600160a01b03168152602001908152602001600020546110819092919063ffffffff16565b60008381526001602090815260408083206001600160a01b038e811685529252808320939093558a168152205461096f9082611118565b60009283526001602081815260408086206001600160a01b038d16875290915290932055500161089c565b50846001600160a01b0316866001600160a01b0316826001600160a01b03167f4a39dc06d4c0dbc64b70af90fd698a233a518aa5d07e595d983b8c0526c8f7fb8787604051808060200180602001838103835285818151815260200191508051906020019060200280838360005b83811015610a20578181015183820152602001610a08565b50505050905001838103825284818151815260200191508051906020019060200280838360005b83811015610a5f578181015183820152602001610a47565b5050505090500194505050505060405180910390a4610a82818787878787611179565b505050505050565b60608151835114610acc5760405162461bcd60e51b81526004018080602001828103825260298152602001806118736029913960400191505060405180910390fd5b6060835167ffffffffffffffff81118015610ae657600080fd5b50604051908082528060200260200182016040528015610b10578160200160208202803683370190505b50905060005b8451811015610c005760006001600160a01b0316858281518110610b3657fe5b60200260200101516001600160a01b03161415610b845760405162461bcd60e51b81526004018080602001828103825260318152602001806117076031913960400191505060405180910390fd5b60016000858381518110610b9457fe5b602002602001015181526020019081526020016000206000868381518110610bb857fe5b60200260200101516001600160a01b03166001600160a01b0316815260200190815260200160002054828281518110610bed57fe5b6020908102919091010152600101610b16565b509392505050565b6301ffc9a760e01b81565b816001600160a01b0316610c2561107c565b6001600160a01b03161415610c6b5760405162461bcd60e51b815260040180806020018281038252602981526020018061184a6029913960400191505060405180910390fd5b8060026000610c7861107c565b6001600160a01b03908116825260208083019390935260409182016000908120918716808252919093529120805460ff191692151592909217909155610cbc61107c565b6001600160a01b03167f17307eab39ab6107e8899845ad3d59bd9653f200f220920489ca2b5937696c318360405180821515815260200191505060405180910390a35050565b6001600160a01b03918216600090815260026020908152604080832093909416825291909152205460ff1690565b6001600160a01b038416610d755760405162461bcd60e51b81526004018080602001828103825260258152602001806117c96025913960400191505060405180910390fd5b610d7d61107c565b6001600160a01b0316856001600160a01b03161480610da35750610da38561083f61107c565b610dde5760405162461bcd60e51b81526004018080602001828103825260298152602001806117a06029913960400191505060405180910390fd5b6000610de861107c565b9050610e08818787610df9886113f8565b610e02886113f8565b87610a82565b610e4f836040518060600160405280602a8152602001611820602a913960008781526001602090815260408083206001600160a01b038d1684529091529020549190611081565b60008581526001602090815260408083206001600160a01b038b81168552925280832093909355871681522054610e869084611118565b60008581526001602090815260408083206001600160a01b03808b168086529184529382902094909455805188815291820187905280518a8416938616927fc3d58168c5ae7397731d063d5bbf3d657854427343f4c083240f7aacaa2d0f6292908290030190a4610a8281878787878761143c565b610fa1816040516024018080602001828103825283818151815260200191508051906020019080838360005b83811015610f3f578181015183820152602001610f27565b50505050905090810190601f168015610f6c5780820380516001836020036101000a031916815260200191505b5060408051601f198184030181529190526020810180516001600160e01b031663104c13eb60e21b17905292506115ad915050565b50565b611076848484846040516024018080602001856001600160a01b03168152602001846001600160a01b031681526020018315158152602001828103825286818151815260200191508051906020019080838360005b83811015611011578181015183820152602001610ff9565b50505050905090810190601f16801561103e5780820380516001836020036101000a031916815260200191505b5060408051601f198184030181529190526020810180516001600160e01b03166305acedeb60e51b17905295506115ad945050505050565b50505050565b335b90565b600081848411156111105760405162461bcd60e51b81526004018080602001828103825283818151815260200191508051906020019080838360005b838110156110d55781810151838201526020016110bd565b50505050905090810190601f1680156111025780820380516001836020036101000a031916815260200191505b509250505060405180910390fd5b505050900390565b600082820183811015611172576040805162461bcd60e51b815260206004820152601b60248201527f536166654d6174683a206164646974696f6e206f766572666c6f770000000000604482015290519081900360640190fd5b9392505050565b61118b846001600160a01b03166115ce565b15610a8257836001600160a01b031663bc197c8187878686866040518663ffffffff1660e01b815260040180866001600160a01b03168152602001856001600160a01b03168152602001806020018060200180602001848103845287818151815260200191508051906020019060200280838360005b83811015611219578181015183820152602001611201565b50505050905001848103835286818151815260200191508051906020019060200280838360005b83811015611258578181015183820152602001611240565b50505050905001848103825285818151815260200191508051906020019080838360005b8381101561129457818101518382015260200161127c565b50505050905090810190601f1680156112c15780820380516001836020036101000a031916815260200191505b5098505050505050505050602060405180830381600087803b1580156112e657600080fd5b505af192505050801561130b57506040513d602081101561130657600080fd5b505160015b6113a0576113176115da565b806113225750611369565b60405162461bcd60e51b81526020600482018181528351602484015283518493919283926044019190850190808383600083156110d55781810151838201526020016110bd565b60405162461bcd60e51b81526004018080602001828103825260348152602001806116806034913960400191505060405180910390fd5b6001600160e01b0319811663bc197c8160e01b146113ef5760405162461bcd60e51b81526004018080602001828103825260288152602001806116b46028913960400191505060405180910390fd5b50505050505050565b60408051600180825281830190925260609182919060208083019080368337019050509050828160008151811061142b57fe5b602090810291909101015292915050565b61144e846001600160a01b03166115ce565b15610a8257836001600160a01b031663f23a6e6187878686866040518663ffffffff1660e01b815260040180866001600160a01b03168152602001856001600160a01b0316815260200184815260200183815260200180602001828103825283818151815260200191508051906020019080838360005b838110156114dd5781810151838201526020016114c5565b50505050905090810190601f16801561150a5780820380516001836020036101000a031916815260200191505b509650505050505050602060405180830381600087803b15801561152d57600080fd5b505af192505050801561155257506040513d602081101561154d57600080fd5b505160015b61155e576113176115da565b6001600160e01b0319811663f23a6e6160e01b146113ef5760405162461bcd60e51b81526004018080602001828103825260288152602001806116b46028913960400191505060405180910390fd5b80516a636f6e736f6c652e6c6f67602083016000808483855afa5050505050565b3b151590565b60e01c90565b600060443d10156115ea5761107e565b600481823e6308c379a06115fe82516115d4565b146116085761107e565b6040513d600319016004823e80513d67ffffffffffffffff8160248401118184111715611638575050505061107e565b82840192508251915080821115611652575050505061107e565b503d8301602082840101111561166a5750505061107e565b601f01601f191681016020016040529150509056fe455243313135353a207472616e7366657220746f206e6f6e2045524331313535526563656976657220696d706c656d656e746572455243313135353a204552433131353552656365697665722072656a656374656420746f6b656e73455243313135353a2062616c616e636520717565727920666f7220746865207a65726f2061646472657373455243313135353a2062617463682062616c616e636520717565727920666f7220746865207a65726f2061646472657373436f6e74726163743a3a686f6c797a657070656c696e3a3a4552433136353a3a737570706f727473496e746572666163653a303120446f6573207468697320636f6e747261637420617420257320696d706c656d656e7420696e746572666163652025733f202573455243313135353a2063616c6c6572206973206e6f74206f776e6572206e6f7220617070726f766564455243313135353a207472616e7366657220746f20746865207a65726f2061646472657373455243313135353a207472616e736665722063616c6c6572206973206e6f74206f776e6572206e6f7220617070726f766564455243313135353a20696e73756666696369656e742062616c616e636520666f72207472616e73666572455243313135353a2073657474696e6720617070726f76616c2073746174757320666f722073656c66455243313135353a206163636f756e747320616e6420696473206c656e677468206d69736d61746368455243313135353a2069647320616e6420616d6f756e7473206c656e677468206d69736d61746368a2646970667358221220f1346b2cae8ce2803cfcf66841a974eb3a8520573c25b3b78ab0be153476357f64736f6c63430007050033436f6e74726163743a3a686f6c797a657070656c696e3a3a4552433136353a3a636f6e7374727563746f723a303120496e7374616e74696174696e67204552433136352e436f6e74726163743a3a686f6c797a657070656c696e3a3a4552433136353a3a636f6e7374727563746f723a303420496e7374616e746961746564204552433136352e436f6e74726163743a3a686f6c797a657070656c696e3a3a4552433136353a3a636f6e7374727563746f723a30332052656769737465726564204552433136355f494e544552464143455f49442e436f6e74726163743a3a686f6c797a657070656c696e3a3a4552433136353a3a636f6e7374727563746f723a3032205265676973746572696e67204552433136355f494e544552464143455f49442e",
  "linkReferences": {},
  "deployedLinkReferences": {}
}