{
  "_format": "hh-sol-artifact-1",
  "contractName": "AuditorRegistry",
  "sourceName": "contracts/registries/AuditorRegistry.sol",
  "abi": [
    {
      "anonymous": false,
      "inputs": [
        {
          "indexed": true,
          "internalType": "address",
          "name": "previousOwner",
          "type": "address"
        },
        {
          "indexed": true,
          "internalType": "address",
          "name": "newOwner",
          "type": "address"
        }
      ],
      "name": "OwnershipTransferred",
      "type": "event"
    },
    {
      "inputs": [
        {
          "internalType": "address",
          "name": "",
          "type": "address"
        },
        {
          "internalType": "uint256",
          "name": "",
          "type": "uint256"
        }
      ],
      "name": "auditorAddressForRegisteredPlatforms",
      "outputs": [
        {
          "internalType": "address",
          "name": "",
          "type": "address"
        }
      ],
      "stateMutability": "view",
      "type": "function"
    },
    {
      "inputs": [
        {
          "internalType": "address",
          "name": "",
          "type": "address"
        }
      ],
      "name": "isPlatformApproved",
      "outputs": [
        {
          "internalType": "bool",
          "name": "",
          "type": "bool"
        }
      ],
      "stateMutability": "view",
      "type": "function"
    },
    {
      "inputs": [
        {
          "internalType": "address",
          "name": "",
          "type": "address"
        },
        {
          "internalType": "address",
          "name": "",
          "type": "address"
        }
      ],
      "name": "isplatformForAuditorApproved",
      "outputs": [
        {
          "internalType": "bool",
          "name": "",
          "type": "bool"
        }
      ],
      "stateMutability": "view",
      "type": "function"
    },
    {
      "inputs": [],
      "name": "owner",
      "outputs": [
        {
          "internalType": "address",
          "name": "",
          "type": "address"
        }
      ],
      "stateMutability": "view",
      "type": "function"
    },
    {
      "inputs": [
        {
          "internalType": "address",
          "name": "newPlatformToRegister_",
          "type": "address"
        }
      ],
      "name": "registerAuditorForPlatform",
      "outputs": [],
      "stateMutability": "nonpayable",
      "type": "function"
    },
    {
      "inputs": [],
      "name": "renounceOwnership",
      "outputs": [],
      "stateMutability": "nonpayable",
      "type": "function"
    },
    {
      "inputs": [
        {
          "internalType": "address",
          "name": "newAuditor_",
          "type": "address"
        },
        {
          "internalType": "bool",
          "name": "newApproval_",
          "type": "bool"
        }
      ],
      "name": "setApprovalForAuditorForPlatform",
      "outputs": [],
      "stateMutability": "nonpayable",
      "type": "function"
    },
    {
      "inputs": [
        {
          "internalType": "address",
          "name": "newPlatform_",
          "type": "address"
        }
      ],
      "name": "setPlatformRegistration",
      "outputs": [],
      "stateMutability": "nonpayable",
      "type": "function"
    },
    {
      "inputs": [
        {
          "internalType": "address",
          "name": "newOwner",
          "type": "address"
        }
      ],
      "name": "transferOwnership",
      "outputs": [],
      "stateMutability": "nonpayable",
      "type": "function"
    }
  ],
  "bytecode": "0x608060405234801561001057600080fd5b50600061002561007460201b61071e1760201c565b600080546001600160a01b0319166001600160a01b0383169081178255604051929350917f8be0079c531659141344cd1fd0a4f28419497f9722a3daafe3b4186f6b6457e0908290a350610078565b3390565b610d62806100876000396000f3fe608060405234801561001057600080fd5b50600436106100935760003560e01c80637509c3e1116100665780637509c3e1146101385780638da5cb5b1461015e578063c9f4d80314610182578063f2fde38b146101a8578063f919352b146101ce57610093565b806306999b93146100985780633c18548f146100c0578063656f86ff146100ee578063715018a614610130575b600080fd5b6100be600480360360208110156100ae57600080fd5b50356001600160a01b03166101fa565b005b6100be600480360360408110156100d657600080fd5b506001600160a01b03813516906020013515156102d1565b61011c6004803603604081101561010457600080fd5b506001600160a01b03813581169160200135166103e6565b604080519115158252519081900360200190f35b6100be610406565b6100be6004803603602081101561014e57600080fd5b50356001600160a01b03166104ba565b6101666105b8565b604080516001600160a01b039092168252519081900360200190f35b61011c6004803603602081101561019857600080fd5b50356001600160a01b03166105c7565b6100be600480360360208110156101be57600080fd5b50356001600160a01b03166105dc565b610166600480360360408110156101e457600080fd5b506001600160a01b0381351690602001356106e6565b61020261071e565b6000546001600160a01b03908116911614610264576040805162461bcd60e51b815260206004820181905260248201527f4f776e61626c653a2063616c6c6572206973206e6f7420746865206f776e6572604482015290519081900360640190fd5b6102866040518060a0016040528060658152602001610a496065913982610722565b6001600160a01b038116600090815260016020818152604092839020805460ff1916909217909155815160a0810190925260648083526102ce9291610ad49083013982610722565b50565b6103056040518060a00160405280607a8152602001610c40607a91393360008181526001602052604090205460ff166107d9565b3360009081526001602081905260409091205460ff1615151461032757600080fd5b61035b6040518060a0016040528060738152602001610cba607391393360009081526001602052604090205460ff1661089f565b61037f6040518060c0016040528060868152602001610bba6086913933838561094f565b3360009081526002602090815260408083206001600160a01b0386168452825291829020805460ff1916841515179055815160c0810190925260828083526103e29291610b38908301393360008181526001602052604090205460ff168561094f565b5050565b600260209081526000928352604080842090915290825290205460ff1681565b61040e61071e565b6000546001600160a01b03908116911614610470576040805162461bcd60e51b815260206004820181905260248201527f4f776e61626c653a2063616c6c6572206973206e6f7420746865206f776e6572604482015290519081900360640190fd5b600080546040516001600160a01b03909116907f8be0079c531659141344cd1fd0a4f28419497f9722a3daafe3b4186f6b6457e0908390a3600080546001600160a01b0319169055565b6104ee6040518060a00160405280607a8152602001610c40607a91393360008181526001602052604090205460ff166107d9565b3360009081526001602081905260409091205460ff1615151461051057600080fd5b6105446040518060a0016040528060738152602001610cba607391393360009081526001602052604090205460ff1661089f565b6001600160a01b038116600090815260026020908152604080832033845290915290205460ff16151560011461057957600080fd5b3360009081526003602090815260408220805460018101825590835291200180546001600160a01b0319166001600160a01b0392909216919091179055565b6000546001600160a01b031690565b60016020526000908152604090205460ff1681565b6105e461071e565b6000546001600160a01b03908116911614610646576040805162461bcd60e51b815260206004820181905260248201527f4f776e61626c653a2063616c6c6572206973206e6f7420746865206f776e6572604482015290519081900360640190fd5b6001600160a01b03811661068b5760405162461bcd60e51b8152600401808060200182810382526026815260200180610aae6026913960400191505060405180910390fd5b600080546040516001600160a01b03808516939216917f8be0079c531659141344cd1fd0a4f28419497f9722a3daafe3b4186f6b6457e091a3600080546001600160a01b0319166001600160a01b0392909216919091179055565b6003602052816000526040600020818154811061070257600080fd5b6000918252602090912001546001600160a01b03169150829050565b3390565b6103e282826040516024018080602001836001600160a01b03168152602001828103825284818151815260200191508051906020019080838360005b8381101561077657818101518382015260200161075e565b50505050905090810190601f1680156107a35780820380516001836020036101000a031916815260200191505b5060408051601f198184030181529190526020810180516001600160e01b031663319af33360e01b1790529350610a2792505050565b61089a8383836040516024018080602001846001600160a01b031681526020018315158152602001828103825285818151815260200191508051906020019080838360005b8381101561083657818101518382015260200161081e565b50505050905090810190601f1680156108635780820380516001836020036101000a031916815260200191505b5060408051601f198184030181529190526020810180516001600160e01b031663324757b560e21b1790529450610a279350505050565b505050565b6103e2828260405160240180806020018315158152602001828103825284818151815260200191508051906020019080838360005b838110156108ec5781810151838201526020016108d4565b50505050905090810190601f1680156109195780820380516001836020036101000a031916815260200191505b5060408051601f198184030181529190526020810180516001600160e01b031663c3b5563560e01b1790529350610a2792505050565b610a21848484846040516024018080602001856001600160a01b031681526020018415158152602001836001600160a01b03168152602001828103825286818151815260200191508051906020019080838360005b838110156109bc5781810151838201526020016109a4565b50505050905090810190601f1680156109e95780820380516001836020036101000a031916815260200191505b5060408051601f198184030181529190526020810180516001600160e01b031663223603bd60e01b1790529550610a27945050505050565b50505050565b80516a636f6e736f6c652e6c6f67602083016000808483855afa505050505056fe436f6e74726163743a3a4175646974506c6174666f726d52656769737472793a3a736574506c6174666f726d526567697374726174696f6e3a3a3031205265676973746572696e67202573206173206e6577206175646974696e6720706c6174666f726d2e4f776e61626c653a206e6577206f776e657220697320746865207a65726f2061646472657373436f6e74726163743a3a4175646974506c6174666f726d52656769737472793a3a736574506c6174666f726d526567697374726174696f6e3a3a30312052656769737465726564202573206173206e6577206175646974696e6720706c6174666f726d2e436f6e74726163743a3a4175646974506c6174666f726d52656769737472793a3a736574417070726f76616c466f7241756469746f72466f72506c6174666f726d3a3a3034202573204368616e67656420617070726f76616c20746f20257320666f722061756469746f7220257320666f7220746865697220706c6174666f726d2e436f6e74726163743a3a4175646974506c6174666f726d52656769737472793a3a736574417070726f76616c466f7241756469746f72466f72506c6174666f726d3a3a3033202573206973206368616e67696e6720617070726f76616c20746f20257320666f722061756469746f7220257320666f7220746865697220706c6174666f726d2e436f6e74726163743a3a4175646974506c6174666f726d52656769737472793a3a736574417070726f76616c466f7241756469746f72466f72506c6174666f726d3a3a303120497320257320706c6174666f726d20697320617070726f76656420746f2072656769737465722061756469746f72733f2025732e436f6e74726163743a3a4175646974506c6174666f726d52656769737472793a3a736574417070726f76616c466f7241756469746f72466f72506c6174666f726d3a3a303220257320706c6174666f726d20697320617070726f76656420746f2072656769737465722061756469746f72732ea264697066735822122007a2a439dfd9992ae7b8494ac10229eff52a1a1ba525e4be841560f0ed7eef7864736f6c63430007050033",
  "linkReferences": {},
  "deployedLinkReferences": {}
}