{
  "_format": "hh-sol-artifact-1",
  "contractName": "TestHelper",
  "sourceName": "contracts/dependencies/holyzeppelin/test/token/ERC20/examples/chi/contracts/TestHelper.sol",
  "abi": [
    {
      "inputs": [
        {
          "internalType": "uint256",
          "name": "burn",
          "type": "uint256"
        }
      ],
      "name": "burnGas",
      "outputs": [],
      "stateMutability": "nonpayable",
      "type": "function"
    },
    {
      "inputs": [
        {
          "internalType": "address",
          "name": "gas_token",
          "type": "address"
        },
        {
          "internalType": "uint256",
          "name": "burn",
          "type": "uint256"
        },
        {
          "internalType": "uint256",
          "name": "free",
          "type": "uint256"
        }
      ],
      "name": "burnGasAndFree",
      "outputs": [],
      "stateMutability": "nonpayable",
      "type": "function"
    },
    {
      "inputs": [
        {
          "internalType": "address",
          "name": "gas_token",
          "type": "address"
        },
        {
          "internalType": "uint256",
          "name": "burn",
          "type": "uint256"
        },
        {
          "internalType": "uint256",
          "name": "free",
          "type": "uint256"
        }
      ],
      "name": "burnGasAndFreeFrom",
      "outputs": [],
      "stateMutability": "nonpayable",
      "type": "function"
    },
    {
      "inputs": [
        {
          "internalType": "address",
          "name": "gas_token",
          "type": "address"
        },
        {
          "internalType": "uint256",
          "name": "burn",
          "type": "uint256"
        },
        {
          "internalType": "uint256",
          "name": "free",
          "type": "uint256"
        }
      ],
      "name": "burnGasAndFreeFromUpTo",
      "outputs": [],
      "stateMutability": "nonpayable",
      "type": "function"
    },
    {
      "inputs": [
        {
          "internalType": "address",
          "name": "gas_token",
          "type": "address"
        },
        {
          "internalType": "uint256",
          "name": "burn",
          "type": "uint256"
        },
        {
          "internalType": "uint256",
          "name": "free",
          "type": "uint256"
        }
      ],
      "name": "burnGasAndFreeUpTo",
      "outputs": [],
      "stateMutability": "nonpayable",
      "type": "function"
    },
    {
      "inputs": [],
      "name": "dummy",
      "outputs": [],
      "stateMutability": "pure",
      "type": "function"
    }
  ],
  "bytecode": "0x608060405234801561001057600080fd5b506104d5806100206000396000f3fe608060405234801561001057600080fd5b50600436106100625760003560e01c806301e569a91461006757806316edf3e31461009b57806332e43a11146100cd5780634ad5d16f146100d5578063a2063679146100f2578063f3389f6214610124575b600080fd5b6100996004803603606081101561007d57600080fd5b506001600160a01b038135169060208101359060400135610156565b005b610099600480360360608110156100b157600080fd5b506001600160a01b03813516906020810135906040013561021b565b6100996102de565b610099600480360360208110156100eb57600080fd5b50356102e0565b6100996004803603606081101561010857600080fd5b506001600160a01b0381351690602081013590604001356102fa565b6100996004803603606081101561013a57600080fd5b506001600160a01b0381351690602081013590604001356103ca565b61015f826102e0565b6000836001600160a01b031663d8ccd0f3836040518263ffffffff1660e01b815260040180828152602001915050602060405180830381600087803b1580156101a757600080fd5b505af11580156101bb573d6000803e3d6000fd5b505050506040513d60208110156101d157600080fd5b505111610216576040805162461bcd60e51b815260206004820152600e60248201526d6275726e476173416e644672656560901b604482015290519081900360640190fd5b505050565b610224826102e0565b826001600160a01b0316636366b936826040518263ffffffff1660e01b815260040180828152602001915050602060405180830381600087803b15801561026a57600080fd5b505af115801561027e573d6000803e3d6000fd5b505050506040513d602081101561029457600080fd5b50518114610216576040805162461bcd60e51b81526020600482015260126024820152716275726e476173416e64467265655570546f60701b604482015290519081900360640190fd5bfe5b6332e43a1160e01b60005260008060046000803086f15050565b610303826102e0565b6040805163079d229f60e01b81523260048201526024810183905290516001600160a01b0385169163079d229f9160448083019260209291908290030181600087803b15801561035257600080fd5b505af1158015610366573d6000803e3d6000fd5b505050506040513d602081101561037c57600080fd5b50518114610216576040805162461bcd60e51b81526020600482015260166024820152756275726e476173416e644672656546726f6d5570546f60501b604482015290519081900360640190fd5b6103d3826102e0565b6000836001600160a01b0316635f2e2b4532846040518363ffffffff1660e01b815260040180836001600160a01b0316815260200182815260200192505050602060405180830381600087803b15801561042c57600080fd5b505af1158015610440573d6000803e3d6000fd5b505050506040513d602081101561045657600080fd5b505111610216576040805162461bcd60e51b81526020600482015260126024820152716275726e476173416e644672656546726f6d60701b604482015290519081900360640190fdfea2646970667358221220033d6ecb0d63779c6df94f57cdc1fd0843a038f4b06495c10b76868bd97479b464736f6c63430007050033",
  "linkReferences": {},
  "deployedLinkReferences": {}
}