{
  "_format": "hh-sol-artifact-1",
  "contractName": "ERC1820Registry",
  "sourceName": "contracts/dependencies/holyzeppelin/contracts/introspection/ERC1820/ERC1820Registry.sol",
  "abi": [
    {
      "inputs": [],
      "stateMutability": "nonpayable",
      "type": "constructor"
    },
    {
      "anonymous": false,
      "inputs": [
        {
          "indexed": true,
          "internalType": "address",
          "name": "account",
          "type": "address"
        },
        {
          "indexed": true,
          "internalType": "bytes32",
          "name": "interfaceHash",
          "type": "bytes32"
        },
        {
          "indexed": true,
          "internalType": "address",
          "name": "implementer",
          "type": "address"
        }
      ],
      "name": "InterfaceImplementerSet",
      "type": "event"
    },
    {
      "anonymous": false,
      "inputs": [
        {
          "indexed": true,
          "internalType": "address",
          "name": "account",
          "type": "address"
        },
        {
          "indexed": true,
          "internalType": "address",
          "name": "newManager",
          "type": "address"
        }
      ],
      "name": "ManagerChanged",
      "type": "event"
    },
    {
      "inputs": [],
      "name": "ERC165_IMPLEMENTER_ERC1820_COMPLIANT_INTERFACE_ID",
      "outputs": [
        {
          "internalType": "bytes32",
          "name": "",
          "type": "bytes32"
        }
      ],
      "stateMutability": "view",
      "type": "function"
    },
    {
      "inputs": [],
      "name": "ERC165_INTERFACE_ID",
      "outputs": [
        {
          "internalType": "bytes4",
          "name": "",
          "type": "bytes4"
        }
      ],
      "stateMutability": "view",
      "type": "function"
    },
    {
      "inputs": [],
      "name": "ERC1820_ACCEPT_MAGIC",
      "outputs": [
        {
          "internalType": "bytes32",
          "name": "",
          "type": "bytes32"
        }
      ],
      "stateMutability": "view",
      "type": "function"
    },
    {
      "inputs": [],
      "name": "ERC1820_IMPLEMENTER_ERC165_INTERFACE_ID",
      "outputs": [
        {
          "internalType": "bytes4",
          "name": "",
          "type": "bytes4"
        }
      ],
      "stateMutability": "view",
      "type": "function"
    },
    {
      "inputs": [],
      "name": "ERC1820_IMPLEMENTER_INTERFACE_ID",
      "outputs": [
        {
          "internalType": "bytes32",
          "name": "",
          "type": "bytes32"
        }
      ],
      "stateMutability": "view",
      "type": "function"
    },
    {
      "inputs": [],
      "name": "ERC1820_REGISTRAR_ERC165_INTERFACE_ID",
      "outputs": [
        {
          "internalType": "bytes4",
          "name": "",
          "type": "bytes4"
        }
      ],
      "stateMutability": "view",
      "type": "function"
    },
    {
      "inputs": [],
      "name": "ERC1820_REGISTRAR_ERC1820_INTERFACE_ID",
      "outputs": [
        {
          "internalType": "bytes32",
          "name": "",
          "type": "bytes32"
        }
      ],
      "stateMutability": "view",
      "type": "function"
    },
    {
      "inputs": [],
      "name": "ERC1820_REGISTRY_INTERFACE_ID",
      "outputs": [
        {
          "internalType": "bytes32",
          "name": "",
          "type": "bytes32"
        }
      ],
      "stateMutability": "view",
      "type": "function"
    },
    {
      "inputs": [
        {
          "internalType": "bytes32",
          "name": "interfaceHashQuery_",
          "type": "bytes32"
        },
        {
          "internalType": "address",
          "name": "account",
          "type": "address"
        }
      ],
      "name": "canImplementInterfaceForAddress",
      "outputs": [
        {
          "internalType": "bytes32",
          "name": "",
          "type": "bytes32"
        }
      ],
      "stateMutability": "view",
      "type": "function"
    },
    {
      "inputs": [
        {
          "internalType": "address",
          "name": "account",
          "type": "address"
        },
        {
          "internalType": "bytes32",
          "name": "interfaceHash_",
          "type": "bytes32"
        }
      ],
      "name": "getInterfaceImplementer",
      "outputs": [
        {
          "internalType": "address",
          "name": "",
          "type": "address"
        }
      ],
      "stateMutability": "view",
      "type": "function"
    },
    {
      "inputs": [
        {
          "internalType": "address",
          "name": "_addr",
          "type": "address"
        }
      ],
      "name": "getManager",
      "outputs": [
        {
          "internalType": "address",
          "name": "",
          "type": "address"
        }
      ],
      "stateMutability": "view",
      "type": "function"
    },
    {
      "inputs": [],
      "name": "getRegistries",
      "outputs": [
        {
          "internalType": "address[]",
          "name": "",
          "type": "address[]"
        }
      ],
      "stateMutability": "view",
      "type": "function"
    },
    {
      "inputs": [
        {
          "internalType": "address",
          "name": "_contract",
          "type": "address"
        },
        {
          "internalType": "bytes4",
          "name": "_interfaceId",
          "type": "bytes4"
        }
      ],
      "name": "implementsERC165Interface",
      "outputs": [
        {
          "internalType": "bool",
          "name": "",
          "type": "bool"
        }
      ],
      "stateMutability": "view",
      "type": "function"
    },
    {
      "inputs": [
        {
          "internalType": "address",
          "name": "_contract",
          "type": "address"
        },
        {
          "internalType": "bytes4",
          "name": "_interfaceId",
          "type": "bytes4"
        }
      ],
      "name": "implementsERC165InterfaceNoCache",
      "outputs": [
        {
          "internalType": "bool",
          "name": "",
          "type": "bool"
        }
      ],
      "stateMutability": "view",
      "type": "function"
    },
    {
      "inputs": [
        {
          "internalType": "string",
          "name": "_interfaceName",
          "type": "string"
        }
      ],
      "name": "interfaceHash",
      "outputs": [
        {
          "internalType": "bytes32",
          "name": "",
          "type": "bytes32"
        }
      ],
      "stateMutability": "pure",
      "type": "function"
    },
    {
      "inputs": [
        {
          "internalType": "address",
          "name": "newRegistry_",
          "type": "address"
        }
      ],
      "name": "registerWithNewRegistry",
      "outputs": [
        {
          "internalType": "bool",
          "name": "",
          "type": "bool"
        }
      ],
      "stateMutability": "nonpayable",
      "type": "function"
    },
    {
      "inputs": [],
      "name": "registryManager",
      "outputs": [
        {
          "internalType": "address",
          "name": "",
          "type": "address"
        }
      ],
      "stateMutability": "view",
      "type": "function"
    },
    {
      "inputs": [
        {
          "internalType": "address",
          "name": "_addr",
          "type": "address"
        },
        {
          "internalType": "bytes32",
          "name": "_interfaceHash",
          "type": "bytes32"
        },
        {
          "internalType": "address",
          "name": "_implementer",
          "type": "address"
        }
      ],
      "name": "setInterfaceImplementer",
      "outputs": [],
      "stateMutability": "nonpayable",
      "type": "function"
    },
    {
      "inputs": [
        {
          "internalType": "address",
          "name": "_addr",
          "type": "address"
        },
        {
          "internalType": "address",
          "name": "_newManager",
          "type": "address"
        }
      ],
      "name": "setManager",
      "outputs": [],
      "stateMutability": "nonpayable",
      "type": "function"
    },
    {
      "inputs": [
        {
          "internalType": "address",
          "name": "newRegistryManager_",
          "type": "address"
        }
      ],
      "name": "setRegistryManager",
      "outputs": [
        {
          "internalType": "bool",
          "name": "",
          "type": "bool"
        }
      ],
      "stateMutability": "nonpayable",
      "type": "function"
    },
    {
      "inputs": [
        {
          "internalType": "bytes4",
          "name": "interfaceId_",
          "type": "bytes4"
        }
      ],
      "name": "supportsInterface",
      "outputs": [
        {
          "internalType": "bool",
          "name": "",
          "type": "bool"
        }
      ],
      "stateMutability": "view",
      "type": "function"
    },
    {
      "inputs": [
        {
          "internalType": "address",
          "name": "_contract",
          "type": "address"
        },
        {
          "internalType": "bytes4",
          "name": "_interfaceId",
          "type": "bytes4"
        }
      ],
      "name": "updateERC165Cache",
      "outputs": [],
      "stateMutability": "nonpayable",
      "type": "function"
    }
  ],
  "bytecode": "0x60806040523480156200001157600080fd5b50620000416040518060800160405280605b815260200162003ef9605b91396200093a60201b62000b001760201c565b620000836040518060a00160405280606b815260200162003e09606b91396000805160206200448083398151915260001c620009ed60201b62000ba91760201c565b620000c66040518060a001604052806066815260200162003da3606691396000805160206200448083398151915260001c3062000ab260201b62000c601760201c565b620000e1600080516020620044808339815191523062000b89565b6200011060405180608001604052806058815260200162003a75605891396200093a60201b62000b001760201c565b6200013f6040518060a001604052806068815260200162004365606891396200093a60201b62000b001760201c565b6200016e60405180608001604052806044815260200162003766604491396200093a60201b62000b001760201c565b6200019d6040518060800160405280604f8152602001620048dc604f91396200093a60201b62000b001760201c565b620001af6301ffc9a760e01b62000c1b565b620001de6040518060800160405280604e8152602001620041bf604e91396200093a60201b62000b001760201c565b6200020d6040518060800160405280604381526020016200396b604391396200093a60201b62000b001760201c565b6200023c60405180606001604052806030815260200162004836603091396200093a60201b62000b001760201c565b620002886040518060600160405280603881526020016200486660389139600080516020620042908339815191526001600160e01b03191660001c620009ed60201b62000ba91760201c565b620002b760405180606001604052806034815260200162003732603491396200093a60201b62000b001760201c565b620002d16000805160206200429083398151915262000c1b565b6200030060405180606001604052806033815260200162003886603391396200093a60201b62000b001760201c565b6200034d6040518060800160405280604b8152602001620038b9604b9139600080516020620042908339815191526001600160e01b03191660001c3062000ab260201b62000c601760201c565b6200036063124e59fd60e11b3062000b89565b6200038f60405180606001604052806037815260200162004623603791396200093a60201b62000b001760201c565b620003d46040518060800160405280604b8152602001620038b9604b91396301ffc9a760e01b6001600160e01b03191660001c3062000ab260201b62000c601760201c565b620003e76301ffc9a760e01b3062000b89565b6200041660405180606001604052806037815260200162004623603791396200093a60201b62000b001760201c565b620004456040518060600160405280602f815260200162003c79602f91396200093a60201b62000b001760201c565b6200047460405180606001604052806030815260200162003b9f603091396200093a60201b62000b001760201c565b620004b6604051806080016040528060428152602001620046e060429139600080516020620039cf83398151915260001c620009ed60201b62000ba91760201c565b620004f9604051806080016040528060558152602001620043cd60559139600080516020620039cf83398151915260001c3062000ab260201b62000c601760201c565b62000514600080516020620039cf8339815191523062000b89565b62000543604051806080016040528060478152602001620047cf604791396200093a60201b62000b001760201c565b620005886040518060800160405280604b8152602001620038b9604b91396301ffc9a760e01b6001600160e01b03191660001c3062000ab260201b62000c601760201c565b6200059b6301ffc9a760e01b3062000b89565b620005ca60405180606001604052806037815260200162004623603791396200093a60201b62000b001760201c565b620005f96040518060600160405280602f815260200162003c4a602f91396200093a60201b62000b001760201c565b620006286040518060600160405280603e81526020016200489e603e91396200093a60201b62000b001760201c565b6200066a60405180608001604052806057815260200162003b0b605791396000805160206200481683398151915260001c620009ed60201b62000ba91760201c565b6200067c6301ffc9a760e01b62000ca3565b50620006976000805160206200429083398151915262000ca3565b50620006c37fd6cfd6a86c6b4a9c49c5f130309581eef4b69c1b791ca6cefa4e507d8f56ac3962000ca3565b50620006de600080516020620039cf83398151915262000e0d565b50620006f96000805160206200448083398151915262000e0d565b50620007146000805160206200481683398151915262000e0d565b50620007446040518060600160405280603e815260200162003acd603e91396200093a60201b62000b001760201c565b6200078f6040518060400160405280601e81526020017f496e7374616e74696174696e67204552433138323052656769737472792e00008152506200093a60201b62000b001760201c565b620007d16040518060600160405280602e81526020016200420d602e9139600080516020620037cc83398151915260001c620009ed60201b62000ba91760201c565b620007eb600080516020620037cc83398151915262000e0d565b506200081c6040518060600160405280603e815260200162003c0c603e913933620009ed60201b62000ba91760201c565b620008273362000f6f565b50620008646040518060600160405280603d815260200162003bcf603d91396006546001600160a01b0316620009ed602090811b62000ba917901c565b62000893604051806060016040528060218152602001620039ae602191396200093a60201b62000b001760201c565b6200089d62001135565b50620008e96040518060400160405280602081526020017f5265676973746572656420696e746572666163657320776968742073656c662e8152506200093a60201b62000b001760201c565b620009346040518060400160405280601d81526020017f496e7374616e746961746564204552433138323052656769737472792e0000008152506200093a60201b62000b001760201c565b62001567565b620009ea816040516024018080602001828103825283818151815260200191508051906020019080838360005b838110156200098157818101518382015260200162000967565b50505050905090810190601f168015620009af5780820380516001836020036101000a031916815260200191505b5060408051601f198184030181529190526020810180516001600160e01b0390811663104c13eb60e21b179091529093506200140416915050565b50565b62000aae82826040516024018080602001836001600160a01b03168152602001828103825284818151815260200191508051906020019080838360005b8381101562000a4457818101518382015260200162000a2a565b50505050905090810190601f16801562000a725780820380516001836020036101000a031916815260200191505b5060408051601f198184030181529190526020810180516001600160e01b0390811663319af33360e01b17909152909450620014041692505050565b5050565b62000b848383836040516024018080602001846001600160a01b03168152602001836001600160a01b03168152602001828103825285818151815260200191508051906020019080838360005b8381101562000b1957818101518382015260200162000aff565b50505050905090810190601f16801562000b475780820380516001836020036101000a031916815260200191505b5060408051601f198184030181529190526020810180516001600160e01b039081166307e763af60e51b1790915290955062001404169350505050565b505050565b62000bbd6040518060c001604052806096815260200162004569609691398360001c8362000ab260201b62000c601760201c565b6000828152602081815260408083206001600160a01b0385168452825291829020805460ff19166001179055815160c08101909252609680835262000aae929162004569908301398360001c8362000ab260201b62000c601760201c565b6001600160e01b0319808216141562000c7b576040805162461bcd60e51b815260206004820152601c60248201527f4552433136353a20696e76616c696420696e7465726661636520696400000000604482015290519081900360640190fd5b6001600160e01b0319166000908152600160208190526040909120805460ff19169091179055565b600062000cd46040518060a00160405280606c815260200162004763606c91396200093a60201b62000b001760201c565b62000d0360405180608001604052806052815260200162003cef605291396200093a60201b62000b001760201c565b62000d1e8260026200142560201b62000d2d1790919060201c565b1562000d5c5760405162461bcd60e51b8152600401808060200182810382526024815260200180620045ff6024913960400191505060405180910390fd5b62000d8b60405180608001604052806045815260200162003fba604591396200093a60201b62000b001760201c565b62000da68260026200144660201b62000d431790919060201c565b5062000dd6604051806080016040528060448152602001620044a0604491396200093a60201b62000b001760201c565b62000e056040518060800160405280604d815260200162004061604d91396200093a60201b62000b001760201c565b506001919050565b600062000e3e6040518060a00160405280606e81526020016200492b606e91396200093a60201b62000b001760201c565b62000e6d60405180608001604052806054815260200162003832605491396200093a60201b62000b001760201c565b62000e888260046200145e60201b62000d591790919060201c565b1562000ec65760405162461bcd60e51b8152600401808060200182810382526024815260200180620045ff6024913960400191505060405180910390fd5b62000ef560405180608001604052806047815260200162003ca8604791396200093a60201b62000b001760201c565b62000f108260046200146c60201b62000d651790919060201c565b5062000f40604051806080016040528060468152602001620037ec604691396200093a60201b62000b001760201c565b62000dd66040518060800160405280604e815260200162004317604e91396200093a60201b62000b001760201c565b600062000fa060405180608001604052806041815260200162004722604191396200093a60201b62000b001760201c565b62000fcf6040518060800160405280605581526020016200423b605591396200093a60201b62000b001760201c565b6001600160a01b03821662001059576200100f6040518060a001604052806062815260200162003fff60629139833062000ab260201b62000c601760201c565b600680546001600160a01b031916301790556040805160808101909152605e808252620010539190620044226020830139833062000ab260201b62000c601760201c565b620010d7565b6200108a6040518060a001604052806062815260200162003d4160629139833062000ab260201b62000c601760201c565b600680546001600160a01b0319166001600160a01b0384161790556040805160808101909152605e808252620010d79190620041616020830139833062000ab260201b62000c601760201c565b620011066040518060600160405280603d815260200162003b62603d91396200093a60201b62000b001760201c565b62000e056040518060800160405280604b8152602001620040ae604b91396200093a60201b62000b001760201c565b6000620011666040518060a0016040528060678152602001620042b0606791396200093a60201b62000b001760201c565b60005b8060ff166200118460026200147a60201b62000d711760201c565b11156200125d57620011e56040518060c00160405280608681526020016200465a60869139620011c78360ff1660026200148760201b62000d7c1790919060201c565b6001600160e01b03191660001c620009ed60201b62000ba91760201c565b62001218620012078260ff1660026200148760201b62000d7c1790919060201c565b6001600160e01b0319163062000b89565b620012546040518060c001604052806085815260200162003e7460859139620011c78360ff1660026200148760201b62000d7c1790919060201c565b60010162001169565b506200128d6040518060a001604052806066815260200162003f54606691396200093a60201b62000b001760201c565b620012bc6040518060a0016040528060688152602001620040f9606891396200093a60201b62000b001760201c565b60005b8060ff16620012da60046200147a60201b62000d711760201c565b11156200139f57620013316040518060c0016040528060868152602001620039ef608691396200131d8360ff1660046200148760201b62000d7c1790919060201c565b60001c620009ed60201b62000ba91760201c565b6200135a620013538260ff1660046200148760201b62000d7c1790919060201c565b3062000b89565b620013966040518060c0016040528060858152602001620044e4608591396200131d8360ff1660046200148760201b62000d7c1790919060201c565b600101620012bf565b50620013cf6040518060a001604052806067815260200162003904606791396200093a60201b62000b001760201c565b620013fe6040518060800160405280604d815260200162004061604d91396200093a60201b62000b001760201c565b50600190565b80516a636f6e736f6c652e6c6f67602083016000808483855afa5050505050565b60006200143d836001600160e01b0319841662001495565b90505b92915050565b60006200143d836001600160e01b03198416620014ad565b60006200143d838362001495565b60006200143d8383620014ad565b60006200144082620014fc565b60006200143d838362001500565b60009081526001919091016020526040902054151590565b6000620014bb838362001495565b620014f35750815460018181018455600084815260208082209093018490558454848252828601909352604090209190915562001440565b50600062001440565b5490565b81546000908210620015445760405162461bcd60e51b8152600401808060200182810382526022815260200180620037aa6022913960400191505060405180910390fd5b8260000182815481106200155457fe5b9060005260206000200154905092915050565b6121bb80620015776000396000f3fe608060405234801561001057600080fd5b50600436106101425760003560e01c806365ba36c1116100b8578063b70567651161007c578063b705676514610405578063d2e0e66f1461043b578063e1ed287414610443578063e4d07c5c14610469578063ec38fa4214610471578063f712f3e81461047957610142565b806365ba36c114610323578063950d7f6f14610393578063a3cff9b51461039b578063a41e7d51146103a3578063aabbb8ca146103d957610142565b8063249cb3fa1161010a578063249cb3fa146101ee57806329965a1d1461021a57806332671b5c1461025257806335884e5a146102775780633d584063146102cf5780635df8122f146102f557610142565b806301ffc9a71461014757806302aab086146101825780630a4e0228146101a85780630c63109e146101c25780630e2c2937146101e6575b600080fd5b61016e6004803603602081101561015d57600080fd5b50356001600160e01b0319166104af565b604080519115158252519081900360200190f35b61016e6004803603602081101561019857600080fd5b50356001600160a01b0316610516565b6101b06105d3565b60408051918252519081900360200190f35b6101ca6105f7565b604080516001600160a01b039092168252519081900360200190f35b6101b0610606565b6101b06004803603604081101561020457600080fd5b50803590602001356001600160a01b031661062a565b6102506004803603606081101561023057600080fd5b506001600160a01b038135811691602081013591604090910135166106cb565b005b61025a61074e565b604080516001600160e01b03199092168252519081900360200190f35b61027f610772565b60408051602080825283518183015283519192839290830191858101910280838360005b838110156102bb5781810151838201526020016102a3565b505050509050019250505060405180910390f35b6101ca600480360360208110156102e557600080fd5b50356001600160a01b0316610781565b6102506004803603604081101561030b57600080fd5b506001600160a01b038135811691602001351661078c565b6101b06004803603602081101561033957600080fd5b81019060208101813564010000000081111561035457600080fd5b82018360208201111561036657600080fd5b8035906020019184600183028401116401000000008311171561038857600080fd5b50909250905061079a565b61025a6107d4565b6101b06107df565b610250600480360360408110156103b957600080fd5b5080356001600160a01b031690602001356001600160e01b031916610803565b6101ca600480360360408110156103ef57600080fd5b506001600160a01b038135169060200135610882565b61016e6004803603604081101561041b57600080fd5b5080356001600160a01b031690602001356001600160e01b0319166108aa565b6101b061094c565b61016e6004803603602081101561045957600080fd5b50356001600160a01b0316610970565b61025a610a38565b6101b0610a5c565b61016e6004803603604081101561048f57600080fd5b5080356001600160a01b031690602001356001600160e01b031916610a80565b60006104f26040518060a0016040528060688152602001611a02606891396001600160e01b0319841660008181526001602052604090205430919060ff16610d88565b506001600160e01b0319811660009081526001602052604090205460ff165b919050565b60006105396040518060800160405280604a8152602001611bef604a9139610b00565b6006546001600160a01b031633146105825760405162461bcd60e51b81526004018080602001828103825260278152602001806121386027913960400191505060405180910390fd5b6105a3604051806080016040528060488152602001611cee60489139610b00565b6105c460405180608001604052806053815260200161195160539139610b00565b6105cd82610e5a565b92915050565b7f61190e595e8bf9c75d6e56bcb01a41463dfb9c5420d65e39f50189cf6aa499d081565b6006546001600160a01b031681565b7f9a07dc4536fef7756baeecd7d7cd7d7c434650445546b9a9592954a60c3cb36981565b600061064e6040518060a0016040528060788152602001611d366078913984610ba9565b6000838152602081815260408083206001600160a01b038616845290915281205460ff1661067d57600061069f565b7fa2ef4600d742022d532d4747cb3547474667d6f13804902513b2ec01c848f4b45b90506106c46040518060a00160405280607c8152602001611b43607c91398286610c60565b9392505050565b60006001600160a01b038416156106e257836106e4565b335b9050336106f082610fb6565b6001600160a01b03161461073d576040805162461bcd60e51b815260206004820152600f60248201526e2737ba103a34329036b0b730b3b2b960891b604482015290519081900360640190fd5b610748848484610fff565b50505050565b7fd6cfd6a86c6b4a9c49c5f130309581eef4b69c1b791ca6cefa4e507d8f56ac3981565b606061077c61115c565b905090565b60006105cd82610fb6565b6107968282611168565b5050565b6000828260405160200180838380828437808301925050509250505060405160208183030381529060405280519060200120905092915050565b6301ffc9a760e01b81565b7f470b4a2a26dde857b9ba255135703cf0ab5f7ca71341df27a8b3d9cc5cb4b47581565b61080d82826108aa565b61081857600061081a565b815b6001600160a01b0392831660008181526009602090815260408083206001600160e01b03199690961680845295825280832080546001600160a01b0319169590971694909417909555908152600b84528181209281529190925220805460ff19166001179055565b6001600160a01b03918216600090815260096020908152604080832093835292905220541690565b600080806108bf856301ffc9a760e01b611241565b90925090508115806108cf575080155b156108df576000925050506105cd565b6108f1856001600160e01b0319611241565b909250905081158061090257508015155b15610912576000925050506105cd565b61091c8585611241565b90925090506001821480156109315750806001145b15610941576001925050506105cd565b506000949350505050565b7f385bbff703a06899061ed4429435f7c048ad373e3eb2af89c65aba709af58dd481565b60006109936040518060800160405280604a8152602001611bef604a9139610b00565b6006546001600160a01b031633146109dc5760405162461bcd60e51b81526004018080602001828103825260278152602001806121386027913960400191505060405180910390fd5b6109fd604051806080016040528060488152602001611cee60489139610b00565b610a0682611275565b610a0f57600080fd5b610a188261136f565b610a2157600080fd5b6006546105cd9083906001600160a01b0316611616565b7f249cb3faca845c567fa2f484b639425561d6b04f52c4e4f9c659e684f0d02d0481565b7fa2ef4600d742022d532d4747cb3547474667d6f13804902513b2ec01c848f4b481565b6001600160a01b0382166000908152600b602090815260408083206001600160e01b03198516845290915281205460ff16610ac657610abf83836108aa565b90506105cd565b506001600160a01b0380831660008181526009602090815260408083206001600160e01b0319871684529091529020549091161492915050565b610ba6816040516024018080602001828103825283818151815260200191508051906020019080838360005b83811015610b44578181015183820152602001610b2c565b50505050905090810190601f168015610b715780820380516001836020036101000a031916815260200191505b5060408051601f198184030181529190526020810180516001600160e01b031663104c13eb60e21b1790529250611707915050565b50565b61079682826040516024018080602001836001600160a01b03168152602001828103825284818151815260200191508051906020019080838360005b83811015610bfd578181015183820152602001610be5565b50505050905090810190601f168015610c2a5780820380516001836020036101000a031916815260200191505b5060408051601f198184030181529190526020810180516001600160e01b031663319af33360e01b179052935061170792505050565b610d288383836040516024018080602001846001600160a01b03168152602001836001600160a01b03168152602001828103825285818151815260200191508051906020019080838360005b83811015610cc4578181015183820152602001610cac565b50505050905090810190601f168015610cf15780820380516001836020036101000a031916815260200191505b5060408051601f198184030181529190526020810180516001600160e01b03166307e763af60e51b17905294506117079350505050565b505050565b60006106c4836001600160e01b03198416611728565b60006106c4836001600160e01b03198416611740565b60006106c48383611728565b60006106c48383611740565b60006105cd8261178a565b60006106c4838361178e565b610748848484846040516024018080602001856001600160a01b03168152602001846001600160a01b031681526020018315158152602001828103825286818151815260200191508051906020019080838360005b83811015610df5578181015183820152602001610ddd565b50505050905090810190601f168015610e225780820380516001836020036101000a031916815260200191505b5060408051601f198184030181529190526020810180516001600160e01b03166305acedeb60e51b1790529550611707945050505050565b6000610e7d6040518060800160405280604181526020016120c760419139610b00565b610e9e604051806080016040528060558152602001611f7760559139610b00565b6001600160a01b038216610f0a57610ecf6040518060a0016040528060628152602001611e3b606291398330610c60565b600680546001600160a01b031916301790556040805160808101909152605e808252610f059190611fcc60208301398330610c60565b610f6c565b610f2d6040518060a0016040528060628152602001611c8c606291398330610c60565b600680546001600160a01b0319166001600160a01b0384161790556040805160808101909152605e808252610f6c9190611f1960208301398330610c60565b610f8d6040518060600160405280603d8152602001611b06603d9139610b00565b610fae6040518060800160405280604b8152602001611ece604b9139610b00565b506001919050565b6001600160a01b038181166000908152600a6020526040812054909116610fde575080610511565b506001600160a01b038082166000908152600a602052604090205416610511565b611011816001600160a01b03166117f2565b61101a57600080fd5b611023826117f8565b15611075576040805162461bcd60e51b815260206004820152601a60248201527f4d757374206e6f7420626520616e204552433136352068617368000000000000604482015290519081900360640190fd5b6001600160a01b0381161580159061109657506001600160a01b0381163314155b156110f7576110a6818484611805565b6110f7576040805162461bcd60e51b815260206004820181905260248201527f446f6573206e6f7420696d706c656d656e742074686520696e74657266616365604482015290519081900360640190fd5b6001600160a01b03838116600081815260096020908152604080832087845290915280822080546001600160a01b0319169486169485179055518592917f93baa6efbd2244243bfee6ce4cfdd1d04fc4c0e9a786abd3a41313bd352db15391a4505050565b606061077c60076118b2565b3361117283610fb6565b6001600160a01b0316146111bf576040805162461bcd60e51b815260206004820152600f60248201526e2737ba103a34329036b0b730b3b2b960891b604482015290519081900360640190fd5b816001600160a01b0316816001600160a01b0316146111de57806111e1565b60005b6001600160a01b038381166000818152600a602052604080822080546001600160a01b0319169585169590951790945592519184169290917f605c2dbf762e5f7d60a546d42e7205dcb1b011ebc62a61736a57c9089d3a43509190a35050565b6040516301ffc9a760e01b8082526004820183905260009182919060208160248189617530fa905190969095509350505050565b60006112986040518060a0016040528060658152602001611dae60659139610b00565b6112a3600783611904565b156112df5760405162461bcd60e51b815260040180806020018281038252605281526020018061202a6052913960600191505060405180910390fd5b611300604051806080016040528060538152602001611c3960539139610b00565b6113216040518060800160405280604b815260200161207c604b9139610b00565b61132c600783611919565b5061134e6040518060800160405280604a8152602001611a6a604a9139610b00565b610fae6040518060800160405280605e81526020016119a4605e9139610b00565b60006113af6040518060400160405280601e81526020017f5265676973746572696e672077697468206e65772072656769737472792e0000815250610b00565b60005b8060ff166113c06002610d71565b11156114b857611400604051806060016040528060308152602001612108603091396113f0600260ff8516610d7c565b6001600160e01b03191685610c60565b6001600160a01b03831663a41e7d513061141e600260ff8616610d7c565b6040518363ffffffff1660e01b815260040180836001600160a01b03168152602001826001600160e01b031916815260200192505050600060405180830381600087803b15801561146e57600080fd5b505af1158015611482573d6000803e3d6000fd5b505050506114b06040518060600160405280602f8152602001611ab4602f91396113f0600260ff8516610d7c565b6001016113b2565b5060005b8060ff166114ca6004610d71565b11156115bf57611500604051806060016040528060318152602001611e9d603191396114fa600460ff8516610d7c565b85610c60565b6001600160a01b0383166329965a1d3061151e600460ff8616610d7c565b306040518463ffffffff1660e01b815260040180846001600160a01b03168152602001838152602001826001600160a01b031681526020019350505050600060405180830381600087803b15801561157557600080fd5b505af1158015611589573d6000803e3d6000fd5b505050506115b7604051806060016040528060308152602001611bbf603091396114fa600460ff8516610d7c565b6001016114bc565b506006546115d79083906001600160a01b0316611616565b50610fae6040518060400160405280601d81526020017f526567697374657265642077697468206e65772072656769737472792e000000815250610b00565b6000611646604051806060016040528060288152602001611e13602891396006546001600160a01b031685610c60565b60408051635df8122f60e01b81523060048201526001600160a01b038481166024830152915191851691635df8122f9160448082019260009290919082900301818387803b15801561169757600080fd5b505af11580156116ab573d6000803e3d6000fd5b505050506116dd60405180606001604052806027815260200161215f602791396006546001600160a01b031685610c60565b6116fe604051806060016040528060238152602001611ae360239139610b00565b50600192915050565b80516a636f6e736f6c652e6c6f67602083016000808483855afa5050505050565b60009081526001919091016020526040902054151590565b600061174c8383611728565b611782575081546001818101845560008481526020808220909301849055845484825282860190935260409020919091556105cd565b5060006105cd565b5490565b815460009082106117d05760405162461bcd60e51b815260040180806020018281038252602281526020018061192f6022913960400191505060405180910390fd5b8260000182815481106117df57fe5b9060005260206000200154905092915050565b3b151590565b6001600160e01b03161590565b60007fa2ef4600d742022d532d4747cb3547474667d6f13804902513b2ec01c848f4b4846001600160a01b031663249cb3fa84866040518363ffffffff1660e01b815260040180838152602001826001600160a01b031681526020019250505060206040518083038186803b15801561187d57600080fd5b505afa158015611891573d6000803e3d6000fd5b505050506040513d60208110156118a757600080fd5b505114949350505050565b60608060005b806118c28561178a565b106118fd576118d18482610d7c565b8282815181106118dd57fe5b6001600160a01b03909216602092830291909101909101526001016118b8565b5092915050565b60006106c4836001600160a01b038416611728565b60006106c4836001600160a01b03841661174056fe456e756d657261626c655365743a20696e646578206f7574206f6620626f756e6473455243313832305265676973747261723a3a73657452656769737472794d616e616765723a312053657474696e67207265676973747279206d616e616765722066726f6d2065787465726e616c2063616c6c2e436f6e7472616374733a3a686f6c797a657070656c696e3a3a455243313832305265676973747261723a3a5f61646452656769737472793a30372052657475726e696e67207472756520746f20696e64696361746520737563636573732c436f6e74726163743a3a686f6c797a657070656c696e3a3a4552433136353a3a737570706f727473496e746572666163653a303120446f6573207468697320636f6e747261637420617420257320696d706c656d656e7420696e746572666163652025733f202573436f6e7472616374733a3a686f6c797a657070656c696e3a3a455243313832305265676973747261723a3a5f61646452656769737472793a30352041646465642072656769737472792e526567697374657265642045524331363520697465726661636520257320776974682072656769737472792025732e52657475726e696e67207472756520746f20696e64696361746520737563636573732e455243313832305265676973747261723a3a5f73657452656769737472794d616e616765723a3720536574207265676973747279206d616e616765722e436f6e74726163743a3a686f6c797a657070656c696e3a3a45524331383230496d706c656d656e7465723a3a63616e496d706c656d656e74496e74657266616365466f72416464726573733a322052657475726e696e672025732074686174207468697320636f6e747261637420696d70656c6d656e74732025732e52656769737465726564204552433138323020697465726661636520257320776974682072656769737472792025732e455243313832305265676973747261723a3a6f6e6c794d616e616765723a3120436f6e66696d67696e67206d73672e73656e646572206973207265676973747279206d616e616765722e436f6e7472616374733a3a686f6c797a657070656c696e3a3a455243313832305265676973747261723a3a5f61646452656769737472793a3033205265676973747279206973206e6f742070726573656e742e455243313832305265676973747261723a3a5f73657452656769737472794d616e616765723a35206e657752656769737472794d616e616765725f2069732025732c2073657474696e6720746f2061646472657373287468697329206f662025732e455243313832305265676973747261723a3a6f6e6c794d616e616765723a3220436f6e66696d6564206d73672e73656e646572206973207265676973747279206d616e616765722e436f6e74726163743a3a686f6c797a657070656c696e3a3a45524331383230496d706c656d656e7465723a3a63616e496d706c656d656e74496e74657266616365466f72416464726573733a3120436865636b696e672074686174207468697320636f6e747261637420696d70656c6d656e74732025732e436f6e7472616374733a3a686f6c797a657070656c696e3a3a455243313832305265676973747261723a3a5f61646452656769737472793a303120436f6e6669726d696e6720726567697374727920776173206e6f7420616c72656164792061646465642c5265676973746572696e67206d616e6167657220257320776974682072656769737472792025732e455243313832305265676973747261723a3a5f73657452656769737472794d616e616765723a33206e657752656769737472794d616e616765725f2069732025732c2073657474696e6720746f2061646472657373287468697329206f662025732e5265676973746572696e67204552433138323020697465726661636520257320776974682072656769737472792025732e455243313832305265676973747261723a3a5f73657452656769737472794d616e616765723a382052657475726e696e67207472756520746f20696e64696361746520737563636573732e455243313832305265676973747261723a3a5f73657452656769737472794d616e616765723a36206e657752656769737472794d616e616765725f2069732025732c2073657420746f2061646472657373287468697329206f662025732e455243313832305265676973747261723a3a5f73657452656769737472794d616e616765723a3220436865636b696e67206966206e657752656769737472794d616e616765725f206973206164647265737320302e455243313832305265676973747261723a3a5f73657452656769737472794d616e616765723a34206e657752656769737472794d616e616765725f2069732025732c2073657420746f2061646472657373287468697329206f662025732e436f6e7472616374733a3a686f6c797a657070656c696e3a3a455243313832305265676973747261723a3a5f61646452656769737472793a303220526567697374727920616c72656164792061646465642e436f6e7472616374733a3a686f6c797a657070656c696e3a3a455243313832305265676973747261723a3a5f61646452656769737472793a303420416464696e672072656769737472792e455243313832305265676973747261723a3a5f73657452656769737472794d616e616765723a312053657474696e67207265676973747279206d616e616765722e5265676973746572696e672045524331363520697465726661636520257320776974682072656769737472792025732e6d73672e73656e646572206973206e6f742074686520726567697374727920616d616e6765722e52656769737465726564206d616e6167657220257320776974682072656769737472792025732ea2646970667358221220c0c7c7d590bc95a027d0e80c3f3bfaa2e91a3de4e9b3267b5028538c5cdf5ee564736f6c634300070500335265676973746572696e6720455243313832305f494d504c454d454e5445525f4552433136355f494e544552464143455f49442e436f6e74726163743a3a686f6c797a657070656c696e3a3a4552433136353a3a636f6e7374727563746f723a303120496e7374616e74696174696e67204552433136352e456e756d657261626c655365743a20696e646578206f7574206f6620626f756e64739a07dc4536fef7756baeecd7d7cd7d7c434650445546b9a9592954a60c3cb369455243313832305265676973747261723a3a5f61646445524331383230496e7465726661636549443a34204164646564204552433138323020696e746572666163652049442e455243313832305265676973747261723a3a5f61646445524331383230496e7465726661636549443a3220436f6e6669726d696e67204552433138323020696e74657266616365206e6f742070726573656e742e5265676973746572656420455243313832305f494d504c454d454e5445525f4552433136355f494e544552464143455f49442e5265676973746572696e6720455243313832305f494d504c454d454e5445525f4552433136355f494e544552464143455f4944206f6620257320666f7220257320776974682073656c662e455243313832305265676973747261723a3a5f7265676973746572496e74657266616365735769746853656c663a38204164646564204552433138323020696e74657266616365204944732066726f6d20636f6e7374727563746f7220617267756d656e74732e436f6e74726163743a3a686f6c797a657070656c696e3a3a4552433136353a3a636f6e7374727563746f723a303420496e7374616e746961746564204552433136352e5265676973746572696e6720696e746572666163657320776968742073656c662e385bbff703a06899061ed4429435f7c048ad373e3eb2af89c65aba709af58dd4455243313832305265676973747261723a3a5f7265676973746572496e74657266616365735769746853656c663a3620416464696e67204552433136355f494e544552464143455f494420696e74657266616365204944206f6620257320746f20696e74657266616365206172726179206f662045524331363520696e74657266616365732e436f6e74726163743a3a686f6c797a657070656c696e3a3a45524331383230496d706c656d656e7465723a3a636f6e7374727563746f723a3420526567697374657265642045524331383230496d706c656d656e7465722e455243313832305265676973747261723a3a636f6e7374727563746f723a333720496e7374616e746961746564204552433138323052656769737461722e455243313832305265676973747261723a3a636f6e7374727563746f723a3220455243313832305f5245474953545241525f455243313832305f494e544552464143455f494420696e746572666163652049443a202573455243313832305265676973747261723a3a5f73657452656769737472794d616e616765723a3720536574207265676973747279206d616e616765722e496e7374616e74696174696e672045524331363545524331383230436f6d706c69616e74496d706c656d656e7465722e455243313832305265676973747261723a3a636f6e7374727563746f723a38205361766564207265676973747279206d616e61676572206f662025732e455243313832305265676973747261723a3a636f6e7374727563746f723a3720536176696e67207265676973747279206d616e61676572206f662025732e496e7374616e7469617465642045524331363545524331383230436f6d706c69616e74496d706c656d656e7465722e496e7374616e7469617465642045524331383230496d706c656d656e746572455243313635436f6d706c69616e742e455243313832305265676973747261723a3a5f61646445524331383230496e7465726661636549443a3320416464696e67204552433138323020696e746572666163652049442e455243313832305265676973747261723a3a5f616464455243313635496e7465726661636549443a3220436f6e6669726d696e672045524331363520696e74657266616365206e6f742070726573656e742e455243313832305265676973747261723a3a5f73657452656769737472794d616e616765723a35206e657752656769737472794d616e616765725f2069732025732c2073657474696e6720746f2061646472657373287468697329206f662025732e436f6e74726163743a3a686f6c797a657070656c696e3a3a45524331383230496d706c656d656e7465723a3a636f6e7374727563746f723a33205265676973746572696e672045524331383230496d706c656d656e746572206f6620257320666f722025732e436f6e74726163743a3a686f6c797a657070656c696e3a3a45524331383230496d706c656d656e7465723a3a636f6e7374727563746f723a3220455243313832305f494d504c454d454e5445525f494e544552464143455f494420696e746572666163652049443a202573455243313832305265676973747261723a3a5f7265676973746572496e74657266616365735769746853656c663a32204164646564204552433136355f494e544552464143455f494420696e74657266616365204944206f6620257320746f20696e74657266616365206172726179206f662045524331363520696e74657266616365732e436f6e74726163743a3a686f6c797a657070656c696e3a3a45524331383230496d706c656d656e7465723a3a636f6e7374727563746f723a3120496e7374616e74696174696e672045524331383230496d706c656d656e7465722e455243313832305265676973747261723a3a5f7265676973746572496e74657266616365735769746853656c663a342041646465642045524331363520696e74657266616365204944732066726f6d20636f6e7374727563746f7220617267756d656e74732e455243313832305265676973747261723a3a5f616464455243313635496e7465726661636549443a3320416464696e672045524331363520696e746572666163652049442e455243313832305265676973747261723a3a5f73657452656769737472794d616e616765723a33206e657752656769737472794d616e616765725f2069732025732c2073657474696e6720746f2061646472657373287468697329206f662025732e455243313832305265676973747261723a3a5f616464455243313635496e7465726661636549443a352052657475726e696e67207472756520746f20696e64696361746520737563636573732e455243313832305265676973747261723a3a5f73657452656769737472794d616e616765723a382052657475726e696e67207472756520746f20696e64696361746520737563636573732e455243313832305265676973747261723a3a5f7265676973746572496e74657266616365735769746853656c663a3520416464696e67204552433138323020696e74657266616365204944732066726f6d20636f6e7374727563746f7220617267756d656e74732e455243313832305265676973747261723a3a5f73657452656769737472794d616e616765723a36206e657752656769737472794d616e616765725f2069732025732c2073657420746f2061646472657373287468697329206f662025732e436f6e74726163743a3a686f6c797a657070656c696e3a3a4552433136353a3a636f6e7374727563746f723a30332052656769737465726564204552433136355f494e544552464143455f49442e455243313832305f52454749535452595f494e544552464143455f494420696e746572666163652049443a202573455243313832305265676973747261723a3a5f73657452656769737472794d616e616765723a3220436865636b696e67206966206e657752656769737472794d616e616765725f206973206164647265737320302e249cb3faca845c567fa2f484b639425561d6b04f52c4e4f9c659e684f0d02d04455243313832305265676973747261723a3a5f7265676973746572496e74657266616365735769746853656c663a3120416464696e672045524331363520696e74657266616365204944732066726f6d20636f6e7374727563746f7220617267756d656e74732e455243313832305265676973747261723a3a5f61646445524331383230496e7465726661636549443a352052657475726e696e67207472756520746f20696e64696361746520737563636573732e436f6e74726163743a3a686f6c797a657070656c696e3a3a45524331383230496d706c656d656e7465723a3a636f6e7374727563746f723a3520496e7374616e74696174656420455243313832305f494d504c454d454e5445525f494e544552464143455f49442e5265676973746572696e67204552433136355f494d504c454d454e5445525f455243313832305f434f4d504c49414e545f494e544552464143455f4944206f6620257320666f7220257320776974682073656c662e455243313832305265676973747261723a3a5f73657452656769737472794d616e616765723a34206e657752656769737472794d616e616765725f2069732025732c2073657420746f2061646472657373287468697329206f662025732e470b4a2a26dde857b9ba255135703cf0ab5f7ca71341df27a8b3d9cc5cb4b475455243313832305265676973747261723a3a5f616464455243313635496e7465726661636549443a342041646465642045524331363520696e746572666163652049442e455243313832305265676973747261723a3a5f7265676973746572496e74657266616365735769746853656c663a37204164646564204552433136355f494e544552464143455f494420696e74657266616365204944206f6620257320746f20696e74657266616365206172726179206f662045524331363520696e74657266616365732e436f6e74726163743a3a686f6c797a657070656c696e3a3a45524331383230496d706c656d656e7465723a3a5f7265676973746572496e74657266616365466f72416464726573733a312053656c66207265676973746572696e672074686174207468697320636f6e747261637420696d706c656d656e747320696e7465726661636520257320666f7220616464726573732025732e45524331363520696e7465726661636520494420616c72656164792070726573656e742e526567697374657265642045524331383230496d706c656d656e746572455243313635436f6d706c69616e7420776974682073656c662e455243313832305265676973747261723a3a5f7265676973746572496e74657266616365735769746853656c663a3220416464696e67204552433136355f494e544552464143455f494420696e74657266616365204944206f6620257320746f20696e74657266616365206172726179206f662045524331363520696e74657266616365732e4552433136355f494d504c454d454e5445525f455243313832305f434f4d504c49414e545f494e544552464143455f494420696e746572666163652049443a202573455243313832305265676973747261723a3a5f73657452656769737472794d616e616765723a312053657474696e67207265676973747279206d616e616765722e455243313832305265676973747261723a3a5f616464455243313635496e7465726661636549443a3120416464696e672045524331363520696e74657266616365204944206f6620257320746f20736574206f6620696d706c656d656e74656420696e74657266616365732e52656769737465726564204552433136355f494d504c454d454e5445525f455243313832305f434f4d504c49414e545f494e544552464143455f494420776974682073656c662e61190e595e8bf9c75d6e56bcb01a41463dfb9c5420d65e39f50189cf6aa499d0496e7374616e74696174696e672045524331383230496d706c656d656e746572455243313635436f6d706c69616e742e455243313832305f494d504c454d454e5445525f4552433136355f494e544552464143455f494420696e746572666163652049443a202573455243313832305265676973747261723a3a636f6e7374727563746f723a3120496e7374616e74696174696e67204552433138323052656769737461722e436f6e74726163743a3a686f6c797a657070656c696e3a3a4552433136353a3a636f6e7374727563746f723a3032205265676973746572696e67204552433136355f494e544552464143455f49442e455243313832305265676973747261723a3a5f61646445524331383230496e7465726661636549443a3120416464696e67204552433138323020696e74657266616365204944206f6620257320746f20736574206f6620696d706c656d656e74656420696e74657266616365732e",
  "linkReferences": {},
  "deployedLinkReferences": {}
}