{
  "_format": "hh-sol-artifact-1",
  "contractName": "ERC721",
  "sourceName": "contracts/dependencies/authorization-platform/contracts/dependencies/holyzeppelin/contracts/token/ERC721/ERC721.sol",
  "abi": [
    {
      "inputs": [
        {
          "internalType": "string",
          "name": "name_",
          "type": "string"
        },
        {
          "internalType": "string",
          "name": "symbol_",
          "type": "string"
        }
      ],
      "stateMutability": "nonpayable",
      "type": "constructor"
    },
    {
      "anonymous": false,
      "inputs": [
        {
          "indexed": true,
          "internalType": "address",
          "name": "owner",
          "type": "address"
        },
        {
          "indexed": true,
          "internalType": "address",
          "name": "approved",
          "type": "address"
        },
        {
          "indexed": true,
          "internalType": "uint256",
          "name": "tokenId",
          "type": "uint256"
        }
      ],
      "name": "Approval",
      "type": "event"
    },
    {
      "anonymous": false,
      "inputs": [
        {
          "indexed": true,
          "internalType": "address",
          "name": "owner",
          "type": "address"
        },
        {
          "indexed": true,
          "internalType": "address",
          "name": "operator",
          "type": "address"
        },
        {
          "indexed": false,
          "internalType": "bool",
          "name": "approved",
          "type": "bool"
        }
      ],
      "name": "ApprovalForAll",
      "type": "event"
    },
    {
      "anonymous": false,
      "inputs": [
        {
          "indexed": true,
          "internalType": "address",
          "name": "from",
          "type": "address"
        },
        {
          "indexed": true,
          "internalType": "address",
          "name": "to",
          "type": "address"
        },
        {
          "indexed": true,
          "internalType": "uint256",
          "name": "tokenId",
          "type": "uint256"
        }
      ],
      "name": "Transfer",
      "type": "event"
    },
    {
      "inputs": [],
      "name": "ERC165_INTERFACE_ID",
      "outputs": [
        {
          "internalType": "bytes4",
          "name": "",
          "type": "bytes4"
        }
      ],
      "stateMutability": "view",
      "type": "function"
    },
    {
      "inputs": [
        {
          "internalType": "address",
          "name": "to",
          "type": "address"
        },
        {
          "internalType": "uint256",
          "name": "tokenId",
          "type": "uint256"
        }
      ],
      "name": "approve",
      "outputs": [],
      "stateMutability": "nonpayable",
      "type": "function"
    },
    {
      "inputs": [
        {
          "internalType": "address",
          "name": "owner",
          "type": "address"
        }
      ],
      "name": "balanceOf",
      "outputs": [
        {
          "internalType": "uint256",
          "name": "",
          "type": "uint256"
        }
      ],
      "stateMutability": "view",
      "type": "function"
    },
    {
      "inputs": [],
      "name": "baseURI",
      "outputs": [
        {
          "internalType": "string",
          "name": "",
          "type": "string"
        }
      ],
      "stateMutability": "view",
      "type": "function"
    },
    {
      "inputs": [
        {
          "internalType": "uint256",
          "name": "tokenId",
          "type": "uint256"
        }
      ],
      "name": "getApproved",
      "outputs": [
        {
          "internalType": "address",
          "name": "",
          "type": "address"
        }
      ],
      "stateMutability": "view",
      "type": "function"
    },
    {
      "inputs": [
        {
          "internalType": "address",
          "name": "owner",
          "type": "address"
        },
        {
          "internalType": "address",
          "name": "operator",
          "type": "address"
        }
      ],
      "name": "isApprovedForAll",
      "outputs": [
        {
          "internalType": "bool",
          "name": "",
          "type": "bool"
        }
      ],
      "stateMutability": "view",
      "type": "function"
    },
    {
      "inputs": [],
      "name": "name",
      "outputs": [
        {
          "internalType": "string",
          "name": "",
          "type": "string"
        }
      ],
      "stateMutability": "view",
      "type": "function"
    },
    {
      "inputs": [
        {
          "internalType": "uint256",
          "name": "tokenId",
          "type": "uint256"
        }
      ],
      "name": "ownerOf",
      "outputs": [
        {
          "internalType": "address",
          "name": "",
          "type": "address"
        }
      ],
      "stateMutability": "view",
      "type": "function"
    },
    {
      "inputs": [
        {
          "internalType": "address",
          "name": "from",
          "type": "address"
        },
        {
          "internalType": "address",
          "name": "to",
          "type": "address"
        },
        {
          "internalType": "uint256",
          "name": "tokenId",
          "type": "uint256"
        }
      ],
      "name": "safeTransferFrom",
      "outputs": [],
      "stateMutability": "nonpayable",
      "type": "function"
    },
    {
      "inputs": [
        {
          "internalType": "address",
          "name": "from",
          "type": "address"
        },
        {
          "internalType": "address",
          "name": "to",
          "type": "address"
        },
        {
          "internalType": "uint256",
          "name": "tokenId",
          "type": "uint256"
        },
        {
          "internalType": "bytes",
          "name": "_data",
          "type": "bytes"
        }
      ],
      "name": "safeTransferFrom",
      "outputs": [],
      "stateMutability": "nonpayable",
      "type": "function"
    },
    {
      "inputs": [
        {
          "internalType": "address",
          "name": "operator",
          "type": "address"
        },
        {
          "internalType": "bool",
          "name": "approved",
          "type": "bool"
        }
      ],
      "name": "setApprovalForAll",
      "outputs": [],
      "stateMutability": "nonpayable",
      "type": "function"
    },
    {
      "inputs": [
        {
          "internalType": "bytes4",
          "name": "interfaceId_",
          "type": "bytes4"
        }
      ],
      "name": "supportsInterface",
      "outputs": [
        {
          "internalType": "bool",
          "name": "",
          "type": "bool"
        }
      ],
      "stateMutability": "view",
      "type": "function"
    },
    {
      "inputs": [],
      "name": "symbol",
      "outputs": [
        {
          "internalType": "string",
          "name": "",
          "type": "string"
        }
      ],
      "stateMutability": "view",
      "type": "function"
    },
    {
      "inputs": [
        {
          "internalType": "uint256",
          "name": "index",
          "type": "uint256"
        }
      ],
      "name": "tokenByIndex",
      "outputs": [
        {
          "internalType": "uint256",
          "name": "",
          "type": "uint256"
        }
      ],
      "stateMutability": "view",
      "type": "function"
    },
    {
      "inputs": [
        {
          "internalType": "address",
          "name": "owner",
          "type": "address"
        },
        {
          "internalType": "uint256",
          "name": "index",
          "type": "uint256"
        }
      ],
      "name": "tokenOfOwnerByIndex",
      "outputs": [
        {
          "internalType": "uint256",
          "name": "",
          "type": "uint256"
        }
      ],
      "stateMutability": "view",
      "type": "function"
    },
    {
      "inputs": [
        {
          "internalType": "uint256",
          "name": "tokenId",
          "type": "uint256"
        }
      ],
      "name": "tokenURI",
      "outputs": [
        {
          "internalType": "string",
          "name": "",
          "type": "string"
        }
      ],
      "stateMutability": "view",
      "type": "function"
    },
    {
      "inputs": [],
      "name": "totalSupply",
      "outputs": [
        {
          "internalType": "uint256",
          "name": "",
          "type": "uint256"
        }
      ],
      "stateMutability": "view",
      "type": "function"
    },
    {
      "inputs": [
        {
          "internalType": "address",
          "name": "from",
          "type": "address"
        },
        {
          "internalType": "address",
          "name": "to",
          "type": "address"
        },
        {
          "internalType": "uint256",
          "name": "tokenId",
          "type": "uint256"
        }
      ],
      "name": "transferFrom",
      "outputs": [],
      "stateMutability": "nonpayable",
      "type": "function"
    }
  ],
  "bytecode": "0x60806040523480156200001157600080fd5b506040516200261438038062002614833981810160405260408110156200003757600080fd5b81019080805160405193929190846401000000008211156200005857600080fd5b9083019060208201858111156200006e57600080fd5b82516401000000008111828201881017156200008957600080fd5b82525081516020918201929091019080838360005b83811015620000b85781810151838201526020016200009e565b50505050905090810190601f168015620000e65780820380516001836020036101000a031916815260200191505b50604052602001805160405193929190846401000000008211156200010a57600080fd5b9083019060208201858111156200012057600080fd5b82516401000000008111828201881017156200013b57600080fd5b82525081516020918201929091019080838360005b838110156200016a57818101518382015260200162000150565b50505050905090810190601f168015620001985780820380516001836020036101000a031916815260200191505b5060608101604052602b808252620001ca94509092509050620025e960208301396200032760201b62000d581760201c565b620002166040518060600160405280602d81526020016200242a602d9139600080516020620024578339815191526001600160e01b03191660001c620003da60201b62000e011760201c565b6200024560405180606001604052806040815260200162002559604091396200032760201b62000d581760201c565b6200025f600080516020620024578339815191526200049f565b6200028e6040518060600160405280603f8152602001620024c9603f91396200032760201b62000d581760201c565b620002bd6040518060600160405280602a815260200162002400602a91396200032760201b62000d581760201c565b8151620002d290600690602085019062000638565b508051620002e890600790602084019062000638565b50620002fb6380ac58cd60e01b6200049f565b6200030d635b5e139f60e01b6200049f565b6200031f63780e9d6360e01b6200049f565b5050620006e4565b620003d7816040516024018080602001828103825283818151815260200191508051906020019080838360005b838110156200036e57818101518382015260200162000354565b50505050905090810190601f1680156200039c5780820380516001836020036101000a031916815260200191505b5060408051601f198184030181529190526020810180516001600160e01b0390811663104c13eb60e21b179091529093506200061716915050565b50565b6200049b82826040516024018080602001836001600160a01b03168152602001828103825284818151815260200191508051906020019080838360005b838110156200043157818101518382015260200162000417565b50505050905090810190601f1680156200045f5780820380516001836020036101000a031916815260200191505b5060408051601f198184030181529190526020810180516001600160e01b0390811663319af33360e01b17909152909450620006171692505050565b5050565b620004dc6040518060800160405280605281526020016200247760529139826001600160e01b03191660001c620003da60201b62000e011760201c565b6001600160e01b031980821614156200053c576040805162461bcd60e51b815260206004820152601c60248201527f4552433136353a20696e76616c696420696e7465726661636520696400000000604482015290519081900360640190fd5b620005796040518060800160405280605181526020016200250860519139826001600160e01b03191660001c620003da60201b62000e011760201c565b620005b66040518060800160405280605081526020016200259960509139826001600160e01b03191660001c620003da60201b62000e011760201c565b6001600160e01b0319811660009081526020818152604091829020805460ff19166001179055815160808101909252604c808352620003d79291620023b490830139826001600160e01b03191660001c620003da60201b62000e011760201c565b80516a636f6e736f6c652e6c6f67602083016000808483855afa5050505050565b828054600181600116156101000203166002900490600052602060002090601f016020900481019282620006705760008555620006bb565b82601f106200068b57805160ff1916838001178555620006bb565b82800160010185558215620006bb579182015b82811115620006bb5782518255916020019190600101906200069e565b50620006c9929150620006cd565b5090565b5b80821115620006c95760008155600101620006ce565b611cc080620006f46000396000f3fe608060405234801561001057600080fd5b50600436106101165760003560e01c80636352211e116100a257806395d89b411161007157806395d89b4114610379578063a22cb46514610381578063b88d4fde146103af578063c87b56dd14610475578063e985e9c51461049257610116565b80636352211e146103095780636c0360eb1461032657806370a082311461032e578063950d7f6f1461035457610116565b806318160ddd116100e957806318160ddd1461023a57806323b872dd146102545780632f745c591461028a57806342842e0e146102b65780634f6ccce7146102ec57610116565b806301ffc9a71461011b57806306fdde0314610156578063081812fc146101d3578063095ea7b31461020c575b600080fd5b6101426004803603602081101561013157600080fd5b50356001600160e01b0319166104c0565b604080519115158252519081900360200190f35b61015e610513565b6040805160208082528351818301528351919283929083019185019080838360005b83811015610198578181015183820152602001610180565b50505050905090810190601f1680156101c55780820380516001836020036101000a031916815260200191505b509250505060405180910390f35b6101f0600480360360208110156101e957600080fd5b50356105a9565b604080516001600160a01b039092168252519081900360200190f35b6102386004803603604081101561022257600080fd5b506001600160a01b03813516906020013561060b565b005b6102426106e6565b60408051918252519081900360200190f35b6102386004803603606081101561026a57600080fd5b506001600160a01b038135811691602081013590911690604001356106f7565b610242600480360360408110156102a057600080fd5b506001600160a01b03813516906020013561074e565b610238600480360360608110156102cc57600080fd5b506001600160a01b03813581169160208101359091169060400135610779565b6102426004803603602081101561030257600080fd5b5035610794565b6101f06004803603602081101561031f57600080fd5b50356107aa565b61015e6107d2565b6102426004803603602081101561034457600080fd5b50356001600160a01b0316610833565b61035c61089b565b604080516001600160e01b03199092168252519081900360200190f35b61015e6108bf565b6102386004803603604081101561039757600080fd5b506001600160a01b0381351690602001351515610920565b610238600480360360808110156103c557600080fd5b6001600160a01b0382358116926020810135909116916040820135919081019060808101606082013564010000000081111561040057600080fd5b82018360208201111561041257600080fd5b8035906020019184600183028401116401000000008311171561043457600080fd5b91908080601f016020809104026020016040519081016040528093929190818152602001838380828437600092019190915250929550610a25945050505050565b61015e6004803603602081101561048b57600080fd5b5035610a83565b610142600480360360408110156104a857600080fd5b506001600160a01b0381358116916020013516610d2a565b60006104ef6040518060800160405280604d8152602001611abb604d9139306001600160e01b03198516610ebc565b506001600160e01b0319811660009081526020819052604090205460ff165b919050565b60068054604080516020601f600260001961010060018816150201909516949094049384018190048102820181019092528281526060939092909183018282801561059f5780601f106105745761010080835404028352916020019161059f565b820191906000526020600020905b81548152906001019060200180831161058257829003601f168201915b5050505050905090565b60006105b482610f84565b6105ef5760405162461bcd60e51b815260040180806020018281038252602c815260200180611bb5602c913960400191505060405180910390fd5b506000908152600460205260409020546001600160a01b031690565b6000610616826107aa565b9050806001600160a01b0316836001600160a01b031614156106695760405162461bcd60e51b8152600401808060200182810382526021815260200180611c396021913960400191505060405180910390fd5b806001600160a01b031661067b610f91565b6001600160a01b0316148061069c575061069c81610697610f91565b610d2a565b6106d75760405162461bcd60e51b8152600401808060200182810382526038815260200180611b086038913960400191505060405180910390fd5b6106e18383610f95565b505050565b60006106f26002611003565b905090565b610708610702610f91565b8261100e565b6107435760405162461bcd60e51b8152600401808060200182810382526031815260200180611c5a6031913960400191505060405180910390fd5b6106e18383836110b2565b6001600160a01b038216600090815260016020526040812061077090836111fe565b90505b92915050565b6106e183838360405180602001604052806000815250610a25565b6000806107a260028461120a565b509392505050565b600061077382604051806060016040528060298152602001611b6a6029913960029190611226565b60098054604080516020601f600260001961010060018816150201909516949094049384018190048102820181019092528281526060939092909183018282801561059f5780601f106105745761010080835404028352916020019161059f565b60006001600160a01b03821661087a5760405162461bcd60e51b815260040180806020018281038252602a815260200180611b40602a913960400191505060405180910390fd5b6001600160a01b038216600090815260016020526040902061077390611003565b7f01ffc9a7a5cef8baa21ed3c5c0d7e23accb804b619e9333b597f47a0d84076e281565b60078054604080516020601f600260001961010060018816150201909516949094049384018190048102820181019092528281526060939092909183018282801561059f5780601f106105745761010080835404028352916020019161059f565b610928610f91565b6001600160a01b0316826001600160a01b0316141561098e576040805162461bcd60e51b815260206004820152601960248201527f4552433732313a20617070726f766520746f2063616c6c657200000000000000604482015290519081900360640190fd5b806005600061099b610f91565b6001600160a01b03908116825260208083019390935260409182016000908120918716808252919093529120805460ff1916921515929092179091556109df610f91565b6001600160a01b03167f17307eab39ab6107e8899845ad3d59bd9653f200f220920489ca2b5937696c318360405180821515815260200191505060405180910390a35050565b610a36610a30610f91565b8361100e565b610a715760405162461bcd60e51b8152600401808060200182810382526031815260200180611c5a6031913960400191505060405180910390fd5b610a7d8484848461123d565b50505050565b6060610a8e82610f84565b610ac95760405162461bcd60e51b815260040180806020018281038252602f815260200180611c0a602f913960400191505060405180910390fd5b60008281526008602090815260409182902080548351601f6002600019610100600186161502019093169290920491820184900484028101840190945280845260609392830182828015610b5e5780601f10610b3357610100808354040283529160200191610b5e565b820191906000526020600020905b815481529060010190602001808311610b4157829003601f168201915b505060095493945050505060026000196101006001841615020190911604610b8757905061050e565b805115610c58576009816040516020018083805460018160011615610100020316600290048015610bef5780601f10610bcd576101008083540402835291820191610bef565b820191906000526020600020905b815481529060010190602001808311610bdb575b5050825160208401908083835b60208310610c1b5780518252601f199092019160209182019101610bfc565b6001836020036101000a0380198251168184511680821785525050505050509050019250505060405160208183030381529060405291505061050e565b6009610c638461128f565b6040516020018083805460018160011615610100020316600290048015610cc15780601f10610c9f576101008083540402835291820191610cc1565b820191906000526020600020905b815481529060010190602001808311610cad575b5050825160208401908083835b60208310610ced5780518252601f199092019160209182019101610cce565b6001836020036101000a03801982511681845116808217855250505050505090500192505050604051602081830303815290604052915050919050565b6001600160a01b03918216600090815260056020908152604080832093909416825291909152205460ff1690565b610dfe816040516024018080602001828103825283818151815260200191508051906020019080838360005b83811015610d9c578181015183820152602001610d84565b50505050905090810190601f168015610dc95780820380516001836020036101000a031916815260200191505b5060408051601f198184030181529190526020810180516001600160e01b031663104c13eb60e21b179052925061136a915050565b50565b610eb882826040516024018080602001836001600160a01b03168152602001828103825284818151815260200191508051906020019080838360005b83811015610e55578181015183820152602001610e3d565b50505050905090810190601f168015610e825780820380516001836020036101000a031916815260200191505b5060408051601f198184030181529190526020810180516001600160e01b031663319af33360e01b179052935061136a92505050565b5050565b6106e18383836040516024018080602001846001600160a01b03168152602001836001600160a01b03168152602001828103825285818151815260200191508051906020019080838360005b83811015610f20578181015183820152602001610f08565b50505050905090810190601f168015610f4d5780820380516001836020036101000a031916815260200191505b5060408051601f198184030181529190526020810180516001600160e01b03166307e763af60e51b179052945061136a9350505050565b600061077360028361138b565b3390565b600081815260046020526040902080546001600160a01b0319166001600160a01b0384169081179091558190610fca826107aa565b6001600160a01b03167f8c5be1e5ebec7d5bd14f71427d1e84f3dd0314c0f7b2291e5b200ac8c7c3b92560405160405180910390a45050565b600061077382611397565b600061101982610f84565b6110545760405162461bcd60e51b815260040180806020018281038252602c815260200180611a8f602c913960400191505060405180910390fd5b600061105f836107aa565b9050806001600160a01b0316846001600160a01b0316148061109a5750836001600160a01b031661108f846105a9565b6001600160a01b0316145b806110aa57506110aa8185610d2a565b949350505050565b826001600160a01b03166110c5826107aa565b6001600160a01b03161461110a5760405162461bcd60e51b8152600401808060200182810382526029815260200180611be16029913960400191505060405180910390fd5b6001600160a01b03821661114f5760405162461bcd60e51b8152600401808060200182810382526024815260200180611a6b6024913960400191505060405180910390fd5b61115a8383836106e1565b611165600082610f95565b6001600160a01b0383166000908152600160205260409020611187908261139b565b506001600160a01b03821660009081526001602052604090206111aa90826113a7565b506111b7600282846113b3565b5080826001600160a01b0316846001600160a01b03167fddf252ad1be2c89b69c2b068fc378daa952ba7f163c4a11628f55a4df523b3ef60405160405180910390a4505050565b600061077083836113c9565b6000808080611219868661142d565b9097909650945050505050565b60006112338484846114a8565b90505b9392505050565b6112488484846110b2565b61125484848484611572565b610a7d5760405162461bcd60e51b8152600401808060200182810382526032815260200180611a396032913960400191505060405180910390fd5b6060816112b457506040805180820190915260018152600360fc1b602082015261050e565b8160005b81156112cc57600101600a820491506112b8565b60608167ffffffffffffffff811180156112e557600080fd5b506040519080825280601f01601f191660200182016040528015611310576020820181803683370190505b50859350905060001982015b831561136157600a840660300160f81b8282806001900393508151811061133f57fe5b60200101906001600160f81b031916908160001a905350600a8404935061131c565b50949350505050565b80516a636f6e736f6c652e6c6f67602083016000808483855afa5050505050565b600061077083836116da565b5490565b600061077083836116f2565b600061077083836117b8565b600061123384846001600160a01b038516611802565b8154600090821061140b5760405162461bcd60e51b8152600401808060200182810382526022815260200180611a176022913960400191505060405180910390fd5b82600001828154811061141a57fe5b9060005260206000200154905092915050565b8154600090819083106114715760405162461bcd60e51b8152600401808060200182810382526022815260200180611b936022913960400191505060405180910390fd5b600084600001848154811061148257fe5b906000526020600020906002020190508060000154816001015492509250509250929050565b600082815260018401602052604081205482816115435760405162461bcd60e51b81526004018080602001828103825283818151815260200191508051906020019080838360005b838110156115085781810151838201526020016114f0565b50505050905090810190601f1680156115355780820380516001836020036101000a031916815260200191505b509250505060405180910390fd5b5084600001600182038154811061155657fe5b9060005260206000209060020201600101549150509392505050565b6000611586846001600160a01b0316611899565b611592575060016110aa565b60606116a0630a85bd0160e11b6115a7610f91565b88878760405160240180856001600160a01b03168152602001846001600160a01b0316815260200183815260200180602001828103825283818151815260200191508051906020019080838360005b8381101561160e5781810151838201526020016115f6565b50505050905090810190601f16801561163b5780820380516001836020036101000a031916815260200191505b5095505050505050604051602081830303815290604052906001600160e01b0319166020820180516001600160e01b038381831617835250505050604051806060016040528060328152602001611a39603291396001600160a01b038816919061189f565b905060008180602001905160208110156116b957600080fd5b50516001600160e01b031916630a85bd0160e11b1492505050949350505050565b60009081526001919091016020526040902054151590565b600081815260018301602052604081205480156117ae578354600019808301919081019060009087908390811061172557fe5b906000526020600020015490508087600001848154811061174257fe5b60009182526020808320909101929092558281526001898101909252604090209084019055865487908061177257fe5b60019003818190600052602060002001600090559055866001016000878152602001908152602001600020600090556001945050505050610773565b6000915050610773565b60006117c483836116da565b6117fa57508154600181810184556000848152602080822090930184905584548482528286019093526040902091909155610773565b506000610773565b600082815260018401602052604081205480611867575050604080518082018252838152602080820184815286546001818101895560008981528481209551600290930290950191825591519082015586548684528188019092529290912055611236565b8285600001600183038154811061187a57fe5b9060005260206000209060020201600101819055506000915050611236565b3b151590565b6060611233848460008560606118b485611899565b611905576040805162461bcd60e51b815260206004820152601d60248201527f416464726573733a2063616c6c20746f206e6f6e2d636f6e7472616374000000604482015290519081900360640190fd5b60006060866001600160a01b031685876040518082805190602001908083835b602083106119445780518252601f199092019160209182019101611925565b6001836020036101000a03801982511681845116808217855250505050505090500191505060006040518083038185875af1925050503d80600081146119a6576040519150601f19603f3d011682016040523d82523d6000602084013e6119ab565b606091505b509150915081156119bf5791506110aa9050565b8051156119cf5780518082602001fd5b60405162461bcd60e51b81526020600482018181528651602484015286518793919283926044019190850190808383600083156115085781810151838201526020016114f056fe456e756d657261626c655365743a20696e646578206f7574206f6620626f756e64734552433732313a207472616e7366657220746f206e6f6e20455243373231526563656976657220696d706c656d656e7465724552433732313a207472616e7366657220746f20746865207a65726f20616464726573734552433732313a206f70657261746f7220717565727920666f72206e6f6e6578697374656e7420746f6b656e4552433136353a3a737570706f727473496e746572666163653a312053656c66206964656e74696679696e67207468617420257320696d706c656d656e747320696e746572666163652025732e4552433732313a20617070726f76652063616c6c6572206973206e6f74206f776e6572206e6f7220617070726f76656420666f7220616c6c4552433732313a2062616c616e636520717565727920666f7220746865207a65726f20616464726573734552433732313a206f776e657220717565727920666f72206e6f6e6578697374656e7420746f6b656e456e756d657261626c654d61703a20696e646578206f7574206f6620626f756e64734552433732313a20617070726f76656420717565727920666f72206e6f6e6578697374656e7420746f6b656e4552433732313a207472616e73666572206f6620746f6b656e2074686174206973206e6f74206f776e4552433732314d657461646174613a2055524920717565727920666f72206e6f6e6578697374656e7420746f6b656e4552433732313a20617070726f76616c20746f2063757272656e74206f776e65724552433732313a207472616e736665722063616c6c6572206973206e6f74206f776e6572206e6f7220617070726f766564a264697066735822122094c113784f1ccb29bad03635e5bf916796ddb4eb3b1b3983c0a131bfde5d634664736f6c634300070500334552433136353a3a5f7265676973746572496e746572666163653a342053657420696d706c656d656e746174696f6e2073656c66207265706f7274206f6620696e746572666163652025732e4552433136353a3a636f6e7374727563746f723a3520496e7374616e746961746564204552433136352e4552433136353a3a636f6e7374727563746f723a322045524331363520696e746572666163652049443a20257301ffc9a7a5cef8baa21ed3c5c0d7e23accb804b619e9333b597f47a0d84076e24552433136353a3a5f7265676973746572496e746572666163653a3120436f6e6669726d696e6720696e746572666163652025732069732076616c69642045524331363520696e746572666163652049442e4552433136353a3a636f6e7374727563746f723a342052656769737465726564204552433136355f494e544552464143455f494420776974682073656c662e4552433136353a3a5f7265676973746572496e746572666163653a3220436f6e6669726d656420696e746572666163652025732069732076616c69642045524331363520696e746572666163652049442e4552433136353a3a636f6e7374727563746f723a33205265676973746572696e67204552433136355f494e544552464143455f494420776974682073656c662e4552433136353a3a5f7265676973746572496e746572666163653a332053657474696e6720696d706c656d656e746174696f6e2073656c66207265706f7274206f6620696e746572666163652025732e4552433136353a3a636f6e7374727563746f723a3120496e7374616e74696174696e67204552433136352e",
  "linkReferences": {},
  "deployedLinkReferences": {}
}