{
  "_format": "hh-sol-artifact-1",
  "contractName": "ERC1155Holder",
  "sourceName": "contracts/dependencies/holyzeppelin/contracts/token/ERC1155/ERC1155Holder.sol",
  "abi": [
    {
      "inputs": [],
      "name": "ERC165_INTERFACE_ID",
      "outputs": [
        {
          "internalType": "bytes4",
          "name": "",
          "type": "bytes4"
        }
      ],
      "stateMutability": "view",
      "type": "function"
    },
    {
      "inputs": [
        {
          "internalType": "address",
          "name": "",
          "type": "address"
        },
        {
          "internalType": "address",
          "name": "",
          "type": "address"
        },
        {
          "internalType": "uint256[]",
          "name": "",
          "type": "uint256[]"
        },
        {
          "internalType": "uint256[]",
          "name": "",
          "type": "uint256[]"
        },
        {
          "internalType": "bytes",
          "name": "",
          "type": "bytes"
        }
      ],
      "name": "onERC1155BatchReceived",
      "outputs": [
        {
          "internalType": "bytes4",
          "name": "",
          "type": "bytes4"
        }
      ],
      "stateMutability": "nonpayable",
      "type": "function"
    },
    {
      "inputs": [
        {
          "internalType": "address",
          "name": "",
          "type": "address"
        },
        {
          "internalType": "address",
          "name": "",
          "type": "address"
        },
        {
          "internalType": "uint256",
          "name": "",
          "type": "uint256"
        },
        {
          "internalType": "uint256",
          "name": "",
          "type": "uint256"
        },
        {
          "internalType": "bytes",
          "name": "",
          "type": "bytes"
        }
      ],
      "name": "onERC1155Received",
      "outputs": [
        {
          "internalType": "bytes4",
          "name": "",
          "type": "bytes4"
        }
      ],
      "stateMutability": "nonpayable",
      "type": "function"
    },
    {
      "inputs": [
        {
          "internalType": "bytes4",
          "name": "interfaceId_",
          "type": "bytes4"
        }
      ],
      "name": "supportsInterface",
      "outputs": [
        {
          "internalType": "bool",
          "name": "",
          "type": "bool"
        }
      ],
      "stateMutability": "view",
      "type": "function"
    }
  ],
  "bytecode": "0x608060405234801561001057600080fd5b5061003c60405180608001604052806044815260200161084f604491396100e260201b6103cb1760201c565b6100676040518060800160405280604f8152602001610924604f91396100e260201b6103cb1760201c565b6100776301ffc9a760e01b610190565b6100a26040518060800160405280604e81526020016108d6604e91396100e260201b6103cb1760201c565b6100cd604051806080016040528060438152602001610893604391396100e260201b6103cb1760201c565b6100dd630271189760e51b610190565b610235565b61018d816040516024018080602001828103825283818151815260200191508051906020019080838360005b8381101561012657818101518382015260200161010e565b50505050905090810190601f1680156101535780820380516001836020036101000a031916815260200191505b5060408051601f198184030181529190526020810180516001600160e01b0390811663104c13eb60e21b1790915290935061021416915050565b50565b6001600160e01b031980821614156101ef576040805162461bcd60e51b815260206004820152601c60248201527f4552433136353a20696e76616c696420696e7465726661636520696400000000604482015290519081900360640190fd5b6001600160e01b0319166000908152602081905260409020805460ff19166001179055565b80516a636f6e736f6c652e6c6f67602083016000808483855afa5050505050565b61060b806102446000396000f3fe608060405234801561001057600080fd5b506004361061004c5760003560e01c806301ffc9a714610051578063950d7f6f1461008c578063bc197c81146100b1578063f23a6e6114610272575b600080fd5b6100786004803603602081101561006757600080fd5b50356001600160e01b03191661033b565b604080519115158252519081900360200190f35b61009461039e565b604080516001600160e01b03199092168252519081900360200190f35b610094600480360360a08110156100c757600080fd5b6001600160a01b038235811692602081013590911691810190606081016040820135600160201b8111156100fa57600080fd5b82018360208201111561010c57600080fd5b803590602001918460208302840111600160201b8311171561012d57600080fd5b9190808060200260200160405190810160405280939291908181526020018383602002808284376000920191909152509295949360208101935035915050600160201b81111561017c57600080fd5b82018360208201111561018e57600080fd5b803590602001918460208302840111600160201b831117156101af57600080fd5b9190808060200260200160405190810160405280939291908181526020018383602002808284376000920191909152509295949360208101935035915050600160201b8111156101fe57600080fd5b82018360208201111561021057600080fd5b803590602001918460018302840111600160201b8311171561023157600080fd5b91908080601f0160208091040260200160405190810160405280939291908181526020018383808284376000920191909152509295506103a9945050505050565b610094600480360360a081101561028857600080fd5b6001600160a01b03823581169260208101359091169160408201359160608101359181019060a081016080820135600160201b8111156102c757600080fd5b8201836020820111156102d957600080fd5b803590602001918460018302840111600160201b831117156102fa57600080fd5b91908080601f0160208091040260200160405190810160405280939291908181526020018383808284376000920191909152509295506103ba945050505050565b600061037e6040518060a001604052806068815260200161056e606891396001600160e01b0319841660008181526020819052604090205430919060ff16610474565b506001600160e01b03191660009081526020819052604090205460ff1690565b6301ffc9a760e01b81565b63bc197c8160e01b95945050505050565b63f23a6e6160e01b95945050505050565b610471816040516024018080602001828103825283818151815260200191508051906020019080838360005b8381101561040f5781810151838201526020016103f7565b50505050905090810190601f16801561043c5780820380516001836020036101000a031916815260200191505b5060408051601f198184030181529190526020810180516001600160e01b031663104c13eb60e21b179052925061054c915050565b50565b610546848484846040516024018080602001856001600160a01b03168152602001846001600160a01b031681526020018315158152602001828103825286818151815260200191508051906020019080838360005b838110156104e15781810151838201526020016104c9565b50505050905090810190601f16801561050e5780820380516001836020036101000a031916815260200191505b5060408051601f198184030181529190526020810180516001600160e01b03166305acedeb60e51b179052955061054c945050505050565b50505050565b80516a636f6e736f6c652e6c6f67602083016000808483855afa505050505056fe436f6e74726163743a3a686f6c797a657070656c696e3a3a4552433136353a3a737570706f727473496e746572666163653a303120446f6573207468697320636f6e747261637420617420257320696d706c656d656e7420696e746572666163652025733f202573a26469706673582212203018efc418f7fda22c4a4f1782edb25e096ce16fef3c011beb7afacfbf54710264736f6c63430007050033436f6e74726163743a3a686f6c797a657070656c696e3a3a4552433136353a3a636f6e7374727563746f723a303120496e7374616e74696174696e67204552433136352e436f6e74726163743a3a686f6c797a657070656c696e3a3a4552433136353a3a636f6e7374727563746f723a303420496e7374616e746961746564204552433136352e436f6e74726163743a3a686f6c797a657070656c696e3a3a4552433136353a3a636f6e7374727563746f723a30332052656769737465726564204552433136355f494e544552464143455f49442e436f6e74726163743a3a686f6c797a657070656c696e3a3a4552433136353a3a636f6e7374727563746f723a3032205265676973746572696e67204552433136355f494e544552464143455f49442e",
  "linkReferences": {},
  "deployedLinkReferences": {}
}