{
  "_format": "hh-sol-artifact-1",
  "contractName": "IntArray",
  "sourceName": "contracts/wip/solidity-standard-library/Array.sol",
  "abi": [
    {
      "inputs": [
        {
          "internalType": "uint256",
          "name": "i",
          "type": "uint256"
        }
      ],
      "name": "at",
      "outputs": [
        {
          "internalType": "int256",
          "name": "",
          "type": "int256"
        }
      ],
      "stateMutability": "view",
      "type": "function"
    },
    {
      "inputs": [],
      "name": "get",
      "outputs": [
        {
          "internalType": "int256[]",
          "name": "",
          "type": "int256[]"
        }
      ],
      "stateMutability": "view",
      "type": "function"
    },
    {
      "inputs": [],
      "name": "imax",
      "outputs": [
        {
          "internalType": "uint256",
          "name": "",
          "type": "uint256"
        }
      ],
      "stateMutability": "view",
      "type": "function"
    },
    {
      "inputs": [],
      "name": "imin",
      "outputs": [
        {
          "internalType": "uint256",
          "name": "",
          "type": "uint256"
        }
      ],
      "stateMutability": "view",
      "type": "function"
    },
    {
      "inputs": [],
      "name": "max",
      "outputs": [
        {
          "internalType": "int256",
          "name": "",
          "type": "int256"
        }
      ],
      "stateMutability": "view",
      "type": "function"
    },
    {
      "inputs": [],
      "name": "min",
      "outputs": [
        {
          "internalType": "int256",
          "name": "",
          "type": "int256"
        }
      ],
      "stateMutability": "view",
      "type": "function"
    },
    {
      "inputs": [
        {
          "internalType": "int256[]",
          "name": "_data",
          "type": "int256[]"
        }
      ],
      "name": "set",
      "outputs": [],
      "stateMutability": "nonpayable",
      "type": "function"
    },
    {
      "inputs": [],
      "name": "sort",
      "outputs": [],
      "stateMutability": "nonpayable",
      "type": "function"
    },
    {
      "inputs": [],
      "name": "sum",
      "outputs": [
        {
          "internalType": "int256",
          "name": "",
          "type": "int256"
        }
      ],
      "stateMutability": "view",
      "type": "function"
    }
  ],
  "bytecode": "0x608060405234801561001057600080fd5b506105cc806100206000396000f3fe608060405234801561001057600080fd5b50600436106100935760003560e01c80636d4ce63c116100665780636d4ce63c14610167578063853255cc146101bf5780638cdc86a6146101c7578063e0886f90146101cf578063f8897945146101ec57610093565b806316c8b3ef146100985780633ca45490146100b25780635ca3aa56146101575780636ac5db191461015f575b600080fd5b6100a06101f4565b60408051918252519081900360200190f35b610155600480360360208110156100c857600080fd5b8101906020810181356401000000008111156100e357600080fd5b8201836020820111156100f557600080fd5b8035906020019184602083028401116401000000008311171561011757600080fd5b91908080602002602001604051908101604052809392919081815260200183836020028082843760009201919091525092955061024b945050505050565b005b6100a0610262565b6100a06102b3565b61016f61031f565b60408051602080825283518183015283519192839290830191858101910280838360005b838110156101ab578181015183820152602001610193565b505050509050019250505060405180910390f35b6100a0610377565b6101556103ad565b6100a0600480360360208110156101e557600080fd5b50356103d3565b6100a06103f4565b600080805b600054811015610245576000828154811061021057fe5b90600052602060002001546000828154811061022857fe5b9060005260206000200154131561023d578091505b6001016101f9565b50905090565b805161025e906000906020840190610536565b5050565b600080805b600054811015610245576000828154811061027e57fe5b90600052602060002001546000828154811061029657fe5b906000526020600020015412156102ab578091505b600101610267565b600080600080815481106102c357fe5b9060005260206000200154905060005b6000548110156102455781600082815481106102eb57fe5b90600052602060002001541315610317576000818154811061030957fe5b906000526020600020015491505b6001016102d3565b6060600080548060200260200160405190810160405280929190818152602001828054801561036d57602002820191906000526020600020905b815481526020019060010190808311610359575b5050505050905090565b60008060005b600054811015610245576000818154811061039457fe5b600091825260209091200154919091019060010161037d565b60005b600054600019018110156103d0576103c781610460565b506001016103b0565b50565b60008082815481106103e157fe5b906000526020600020015490505b919050565b6000806000808154811061040457fe5b9060005260206000200154905060005b60005481101561024557816000828154811061042c57fe5b90600052602060002001541215610458576000818154811061044a57fe5b906000526020600020015491505b600101610414565b600081805b6000548110156104b1576000828154811061047c57fe5b90600052602060002001546000828154811061049457fe5b906000526020600020015412156104a9578091505b600101610465565b50828114156104c45760009150506103ef565b60008084815481106104d257fe5b90600052602060002001549050600082815481106104ec57fe5b90600052602060002001546000858154811061050457fe5b9060005260206000200181905550806000838154811061052057fe5b6000918252602090912001555060019392505050565b828054828255906000526020600020908101928215610571579160200282015b82811115610571578251825591602001919060010190610556565b5061057d929150610581565b5090565b5b8082111561057d576000815560010161058256fea26469706673582212207e54cb1d4ea0a98a0afa9fd96cf7be84d76d11ae73aec8344717adaabde5175764736f6c63430007050033",
  "linkReferences": {},
  "deployedLinkReferences": {}
}