{
  "_format": "hh-sol-artifact-1",
  "contractName": "ERC721PresetMinterPauserAutoId",
  "sourceName": "contracts/dependencies/holyzeppelin/contracts/token/ERC721/presets/ERC721PresetMinterPauserAutoId.sol",
  "abi": [
    {
      "inputs": [
        {
          "internalType": "string",
          "name": "name",
          "type": "string"
        },
        {
          "internalType": "string",
          "name": "symbol",
          "type": "string"
        },
        {
          "internalType": "string",
          "name": "baseURI",
          "type": "string"
        }
      ],
      "stateMutability": "nonpayable",
      "type": "constructor"
    },
    {
      "anonymous": false,
      "inputs": [
        {
          "indexed": true,
          "internalType": "address",
          "name": "owner",
          "type": "address"
        },
        {
          "indexed": true,
          "internalType": "address",
          "name": "approved",
          "type": "address"
        },
        {
          "indexed": true,
          "internalType": "uint256",
          "name": "tokenId",
          "type": "uint256"
        }
      ],
      "name": "Approval",
      "type": "event"
    },
    {
      "anonymous": false,
      "inputs": [
        {
          "indexed": true,
          "internalType": "address",
          "name": "owner",
          "type": "address"
        },
        {
          "indexed": true,
          "internalType": "address",
          "name": "operator",
          "type": "address"
        },
        {
          "indexed": false,
          "internalType": "bool",
          "name": "approved",
          "type": "bool"
        }
      ],
      "name": "ApprovalForAll",
      "type": "event"
    },
    {
      "anonymous": false,
      "inputs": [
        {
          "indexed": false,
          "internalType": "address",
          "name": "account",
          "type": "address"
        }
      ],
      "name": "Paused",
      "type": "event"
    },
    {
      "anonymous": false,
      "inputs": [
        {
          "indexed": true,
          "internalType": "bytes32",
          "name": "role",
          "type": "bytes32"
        },
        {
          "indexed": true,
          "internalType": "bytes32",
          "name": "previousAdminRole",
          "type": "bytes32"
        },
        {
          "indexed": true,
          "internalType": "bytes32",
          "name": "newAdminRole",
          "type": "bytes32"
        }
      ],
      "name": "RoleAdminChanged",
      "type": "event"
    },
    {
      "anonymous": false,
      "inputs": [
        {
          "indexed": true,
          "internalType": "bytes32",
          "name": "role",
          "type": "bytes32"
        },
        {
          "indexed": true,
          "internalType": "address",
          "name": "account",
          "type": "address"
        },
        {
          "indexed": true,
          "internalType": "address",
          "name": "sender",
          "type": "address"
        }
      ],
      "name": "RoleGranted",
      "type": "event"
    },
    {
      "anonymous": false,
      "inputs": [
        {
          "indexed": true,
          "internalType": "bytes32",
          "name": "role",
          "type": "bytes32"
        },
        {
          "indexed": true,
          "internalType": "address",
          "name": "account",
          "type": "address"
        },
        {
          "indexed": true,
          "internalType": "address",
          "name": "sender",
          "type": "address"
        }
      ],
      "name": "RoleRevoked",
      "type": "event"
    },
    {
      "anonymous": false,
      "inputs": [
        {
          "indexed": true,
          "internalType": "address",
          "name": "from",
          "type": "address"
        },
        {
          "indexed": true,
          "internalType": "address",
          "name": "to",
          "type": "address"
        },
        {
          "indexed": true,
          "internalType": "uint256",
          "name": "tokenId",
          "type": "uint256"
        }
      ],
      "name": "Transfer",
      "type": "event"
    },
    {
      "anonymous": false,
      "inputs": [
        {
          "indexed": false,
          "internalType": "address",
          "name": "account",
          "type": "address"
        }
      ],
      "name": "Unpaused",
      "type": "event"
    },
    {
      "inputs": [],
      "name": "DEFAULT_ADMIN_ROLE",
      "outputs": [
        {
          "internalType": "bytes32",
          "name": "",
          "type": "bytes32"
        }
      ],
      "stateMutability": "view",
      "type": "function"
    },
    {
      "inputs": [],
      "name": "ERC165_INTERFACE_ID",
      "outputs": [
        {
          "internalType": "bytes4",
          "name": "",
          "type": "bytes4"
        }
      ],
      "stateMutability": "view",
      "type": "function"
    },
    {
      "inputs": [],
      "name": "MINTER_ROLE",
      "outputs": [
        {
          "internalType": "bytes32",
          "name": "",
          "type": "bytes32"
        }
      ],
      "stateMutability": "view",
      "type": "function"
    },
    {
      "inputs": [],
      "name": "PAUSER_ROLE",
      "outputs": [
        {
          "internalType": "bytes32",
          "name": "",
          "type": "bytes32"
        }
      ],
      "stateMutability": "view",
      "type": "function"
    },
    {
      "inputs": [
        {
          "internalType": "address",
          "name": "to",
          "type": "address"
        },
        {
          "internalType": "uint256",
          "name": "tokenId",
          "type": "uint256"
        }
      ],
      "name": "approve",
      "outputs": [],
      "stateMutability": "nonpayable",
      "type": "function"
    },
    {
      "inputs": [
        {
          "internalType": "address",
          "name": "owner",
          "type": "address"
        }
      ],
      "name": "balanceOf",
      "outputs": [
        {
          "internalType": "uint256",
          "name": "",
          "type": "uint256"
        }
      ],
      "stateMutability": "view",
      "type": "function"
    },
    {
      "inputs": [],
      "name": "baseURI",
      "outputs": [
        {
          "internalType": "string",
          "name": "",
          "type": "string"
        }
      ],
      "stateMutability": "view",
      "type": "function"
    },
    {
      "inputs": [
        {
          "internalType": "uint256",
          "name": "tokenId",
          "type": "uint256"
        }
      ],
      "name": "burn",
      "outputs": [],
      "stateMutability": "nonpayable",
      "type": "function"
    },
    {
      "inputs": [
        {
          "internalType": "uint256",
          "name": "tokenId",
          "type": "uint256"
        }
      ],
      "name": "getApproved",
      "outputs": [
        {
          "internalType": "address",
          "name": "",
          "type": "address"
        }
      ],
      "stateMutability": "view",
      "type": "function"
    },
    {
      "inputs": [
        {
          "internalType": "bytes32",
          "name": "role",
          "type": "bytes32"
        }
      ],
      "name": "getRoleAdmin",
      "outputs": [
        {
          "internalType": "bytes32",
          "name": "",
          "type": "bytes32"
        }
      ],
      "stateMutability": "view",
      "type": "function"
    },
    {
      "inputs": [
        {
          "internalType": "bytes32",
          "name": "role",
          "type": "bytes32"
        },
        {
          "internalType": "uint256",
          "name": "index",
          "type": "uint256"
        }
      ],
      "name": "getRoleMember",
      "outputs": [
        {
          "internalType": "address",
          "name": "",
          "type": "address"
        }
      ],
      "stateMutability": "view",
      "type": "function"
    },
    {
      "inputs": [
        {
          "internalType": "bytes32",
          "name": "role",
          "type": "bytes32"
        }
      ],
      "name": "getRoleMemberCount",
      "outputs": [
        {
          "internalType": "uint256",
          "name": "",
          "type": "uint256"
        }
      ],
      "stateMutability": "view",
      "type": "function"
    },
    {
      "inputs": [
        {
          "internalType": "bytes32",
          "name": "role",
          "type": "bytes32"
        },
        {
          "internalType": "address",
          "name": "account",
          "type": "address"
        }
      ],
      "name": "grantRole",
      "outputs": [],
      "stateMutability": "nonpayable",
      "type": "function"
    },
    {
      "inputs": [
        {
          "internalType": "bytes32",
          "name": "role",
          "type": "bytes32"
        },
        {
          "internalType": "address",
          "name": "account",
          "type": "address"
        }
      ],
      "name": "hasRole",
      "outputs": [
        {
          "internalType": "bool",
          "name": "",
          "type": "bool"
        }
      ],
      "stateMutability": "view",
      "type": "function"
    },
    {
      "inputs": [
        {
          "internalType": "address",
          "name": "owner",
          "type": "address"
        },
        {
          "internalType": "address",
          "name": "operator",
          "type": "address"
        }
      ],
      "name": "isApprovedForAll",
      "outputs": [
        {
          "internalType": "bool",
          "name": "",
          "type": "bool"
        }
      ],
      "stateMutability": "view",
      "type": "function"
    },
    {
      "inputs": [
        {
          "internalType": "address",
          "name": "to",
          "type": "address"
        }
      ],
      "name": "mint",
      "outputs": [],
      "stateMutability": "nonpayable",
      "type": "function"
    },
    {
      "inputs": [],
      "name": "name",
      "outputs": [
        {
          "internalType": "string",
          "name": "",
          "type": "string"
        }
      ],
      "stateMutability": "view",
      "type": "function"
    },
    {
      "inputs": [
        {
          "internalType": "uint256",
          "name": "tokenId",
          "type": "uint256"
        }
      ],
      "name": "ownerOf",
      "outputs": [
        {
          "internalType": "address",
          "name": "",
          "type": "address"
        }
      ],
      "stateMutability": "view",
      "type": "function"
    },
    {
      "inputs": [],
      "name": "pause",
      "outputs": [],
      "stateMutability": "nonpayable",
      "type": "function"
    },
    {
      "inputs": [],
      "name": "paused",
      "outputs": [
        {
          "internalType": "bool",
          "name": "",
          "type": "bool"
        }
      ],
      "stateMutability": "view",
      "type": "function"
    },
    {
      "inputs": [
        {
          "internalType": "bytes32",
          "name": "role",
          "type": "bytes32"
        },
        {
          "internalType": "address",
          "name": "account",
          "type": "address"
        }
      ],
      "name": "renounceRole",
      "outputs": [],
      "stateMutability": "nonpayable",
      "type": "function"
    },
    {
      "inputs": [
        {
          "internalType": "bytes32",
          "name": "role",
          "type": "bytes32"
        },
        {
          "internalType": "address",
          "name": "account",
          "type": "address"
        }
      ],
      "name": "revokeRole",
      "outputs": [],
      "stateMutability": "nonpayable",
      "type": "function"
    },
    {
      "inputs": [
        {
          "internalType": "address",
          "name": "from",
          "type": "address"
        },
        {
          "internalType": "address",
          "name": "to",
          "type": "address"
        },
        {
          "internalType": "uint256",
          "name": "tokenId",
          "type": "uint256"
        }
      ],
      "name": "safeTransferFrom",
      "outputs": [],
      "stateMutability": "nonpayable",
      "type": "function"
    },
    {
      "inputs": [
        {
          "internalType": "address",
          "name": "from",
          "type": "address"
        },
        {
          "internalType": "address",
          "name": "to",
          "type": "address"
        },
        {
          "internalType": "uint256",
          "name": "tokenId",
          "type": "uint256"
        },
        {
          "internalType": "bytes",
          "name": "_data",
          "type": "bytes"
        }
      ],
      "name": "safeTransferFrom",
      "outputs": [],
      "stateMutability": "nonpayable",
      "type": "function"
    },
    {
      "inputs": [
        {
          "internalType": "address",
          "name": "operator",
          "type": "address"
        },
        {
          "internalType": "bool",
          "name": "approved",
          "type": "bool"
        }
      ],
      "name": "setApprovalForAll",
      "outputs": [],
      "stateMutability": "nonpayable",
      "type": "function"
    },
    {
      "inputs": [
        {
          "internalType": "bytes4",
          "name": "interfaceId_",
          "type": "bytes4"
        }
      ],
      "name": "supportsInterface",
      "outputs": [
        {
          "internalType": "bool",
          "name": "",
          "type": "bool"
        }
      ],
      "stateMutability": "view",
      "type": "function"
    },
    {
      "inputs": [],
      "name": "symbol",
      "outputs": [
        {
          "internalType": "string",
          "name": "",
          "type": "string"
        }
      ],
      "stateMutability": "view",
      "type": "function"
    },
    {
      "inputs": [
        {
          "internalType": "uint256",
          "name": "index",
          "type": "uint256"
        }
      ],
      "name": "tokenByIndex",
      "outputs": [
        {
          "internalType": "uint256",
          "name": "",
          "type": "uint256"
        }
      ],
      "stateMutability": "view",
      "type": "function"
    },
    {
      "inputs": [
        {
          "internalType": "address",
          "name": "owner",
          "type": "address"
        },
        {
          "internalType": "uint256",
          "name": "index",
          "type": "uint256"
        }
      ],
      "name": "tokenOfOwnerByIndex",
      "outputs": [
        {
          "internalType": "uint256",
          "name": "",
          "type": "uint256"
        }
      ],
      "stateMutability": "view",
      "type": "function"
    },
    {
      "inputs": [
        {
          "internalType": "uint256",
          "name": "tokenId",
          "type": "uint256"
        }
      ],
      "name": "tokenURI",
      "outputs": [
        {
          "internalType": "string",
          "name": "",
          "type": "string"
        }
      ],
      "stateMutability": "view",
      "type": "function"
    },
    {
      "inputs": [],
      "name": "totalSupply",
      "outputs": [
        {
          "internalType": "uint256",
          "name": "",
          "type": "uint256"
        }
      ],
      "stateMutability": "view",
      "type": "function"
    },
    {
      "inputs": [
        {
          "internalType": "address",
          "name": "from",
          "type": "address"
        },
        {
          "internalType": "address",
          "name": "to",
          "type": "address"
        },
        {
          "internalType": "uint256",
          "name": "tokenId",
          "type": "uint256"
        }
      ],
      "name": "transferFrom",
      "outputs": [],
      "stateMutability": "nonpayable",
      "type": "function"
    },
    {
      "inputs": [],
      "name": "unpause",
      "outputs": [],
      "stateMutability": "nonpayable",
      "type": "function"
    }
  ],
  "bytecode": "0x60806040523480156200001157600080fd5b506040516200322338038062003223833981810160405260608110156200003757600080fd5b81019080805160405193929190846401000000008211156200005857600080fd5b9083019060208201858111156200006e57600080fd5b82516401000000008111828201881017156200008957600080fd5b82525081516020918201929091019080838360005b83811015620000b85781810151838201526020016200009e565b50505050905090810190601f168015620000e65780820380516001836020036101000a031916815260200191505b50604052602001805160405193929190846401000000008211156200010a57600080fd5b9083019060208201858111156200012057600080fd5b82516401000000008111828201881017156200013b57600080fd5b82525081516020918201929091019080838360005b838110156200016a57818101518382015260200162000150565b50505050905090810190601f168015620001985780820380516001836020036101000a031916815260200191505b5060405260200180516040519392919084640100000000821115620001bc57600080fd5b908301906020820185811115620001d257600080fd5b8251640100000000811182820188101715620001ed57600080fd5b82525081516020918201929091019080838360005b838110156200021c57818101518382015260200162000202565b50505050905090810190601f1680156200024a5780820380516001836020036101000a031916815260200191505b506080810160405260448082528794508693506200027d9250620030ff60208301396200043460201b620013461760201c565b620002ac6040518060800160405280604f8152602001620031d4604f91396200043460201b620013461760201c565b620002be6301ffc9a760e01b620004e7565b620002ed6040518060800160405280604e815260200162003186604e91396200043460201b620013461760201c565b6200031c60405180608001604052806043815260200162003143604391396200043460201b620013461760201c565b815162000331906007906020850190620006c4565b50805162000347906008906020840190620006c4565b506200035a6380ac58cd60e01b620004e7565b6200036c635b5e139f60e01b620004e7565b6200037e63780e9d6360e01b620004e7565b5050600b805460ff19169055620003ac6000620003a66200056f602090811b620013ec17901c565b62000573565b620003e67f9f2df0fed2c77648de5860a4cc508cd0818c85b8b8a1ab4ceeef8d981c8956a6620003a66200056f60201b620013ec1760201c565b620004207f65d7a28e3265b37a6474929f336521b332c1681b933f6cb9f3376673440d862a620003a66200056f60201b620013ec1760201c565b6200042b8162000583565b50505062000770565b620004e4816040516024018080602001828103825283818151815260200191508051906020019080838360005b838110156200047b57818101518382015260200162000461565b50505050905090810190601f168015620004a95780820380516001836020036101000a031916815260200191505b5060408051601f198184030181529190526020810180516001600160e01b0390811663104c13eb60e21b179091529093506200059816915050565b50565b6001600160e01b0319808216141562000547576040805162461bcd60e51b815260206004820152601c60248201527f4552433136353a20696e76616c696420696e7465726661636520696400000000604482015290519081900360640190fd5b6001600160e01b0319166000908152600160208190526040909120805460ff19169091179055565b3390565b6200057f8282620005b9565b5050565b80516200057f90600a906020840190620006c4565b80516a636f6e736f6c652e6c6f67602083016000808483855afa5050505050565b600082815260208181526040909120620005de918390620013f06200063d821b17901c565b156200057f57620005f96200056f60201b620013ec1760201c565b6001600160a01b0316816001600160a01b0316837f2f8788117e7eff1d82e926ec794901d17c78024a50270940304540a733656f0d60405160405180910390a45050565b600062000654836001600160a01b0384166200065d565b90505b92915050565b60006200066b8383620006ac565b620006a35750815460018181018455600084815260208082209093018490558454848252828601909352604090209190915562000657565b50600062000657565b60009081526001919091016020526040902054151590565b828054600181600116156101000203166002900490600052602060002090601f016020900481019282620006fc576000855562000747565b82601f106200071757805160ff191683800117855562000747565b8280016001018555821562000747579182015b82811115620007475782518255916020019190600101906200072a565b506200075592915062000759565b5090565b5b808211156200075557600081556001016200075a565b61297f80620007806000396000f3fe608060405234801561001057600080fd5b50600436106101fb5760003560e01c80636a6278421161011a578063a217fddf116100ad578063ca15c8731161007c578063ca15c8731461069e578063d5391393146106bb578063d547741f146106c3578063e63ab1e9146106ef578063e985e9c5146106f7576101fb565b8063a217fddf14610585578063a22cb4651461058d578063b88d4fde146105bb578063c87b56dd14610681576101fb565b80639010d07c116100e95780639010d07c1461050957806391d148541461052c578063950d7f6f1461055857806395d89b411461057d576101fb565b80636a627842146104ad5780636c0360eb146104d357806370a08231146104db5780638456cb5914610501576101fb565b80632f745c591161019257806342966c681161016157806342966c681461044e5780634f6ccce71461046b5780635c975abb146104885780636352211e14610490576101fb565b80632f745c59146103b857806336568abe146103e45780633f4ba83a1461041057806342842e0e14610418576101fb565b806318160ddd116101ce57806318160ddd1461031f57806323b872dd14610339578063248a9ca31461036f5780632f2ff15d1461038c576101fb565b806301ffc9a71461020057806306fdde031461023b578063081812fc146102b8578063095ea7b3146102f1575b600080fd5b6102276004803603602081101561021657600080fd5b50356001600160e01b031916610725565b604080519115158252519081900360200190f35b61024361078c565b6040805160208082528351818301528351919283929083019185019080838360005b8381101561027d578181015183820152602001610265565b50505050905090810190601f1680156102aa5780820380516001836020036101000a031916815260200191505b509250505060405180910390f35b6102d5600480360360208110156102ce57600080fd5b5035610822565b604080516001600160a01b039092168252519081900360200190f35b61031d6004803603604081101561030757600080fd5b506001600160a01b038135169060200135610884565b005b61032761095f565b60408051918252519081900360200190f35b61031d6004803603606081101561034f57600080fd5b506001600160a01b03813581169160208101359091169060400135610970565b6103276004803603602081101561038557600080fd5b50356109c7565b61031d600480360360408110156103a257600080fd5b50803590602001356001600160a01b03166109dc565b610327600480360360408110156103ce57600080fd5b506001600160a01b038135169060200135610a48565b61031d600480360360408110156103fa57600080fd5b50803590602001356001600160a01b0316610a73565b61031d610ad4565b61031d6004803603606081101561042e57600080fd5b506001600160a01b03813581169160208101359091169060400135610b45565b61031d6004803603602081101561046457600080fd5b5035610b60565b6103276004803603602081101561048157600080fd5b5035610bb2565b610227610bc8565b6102d5600480360360208110156104a657600080fd5b5035610bd1565b61031d600480360360208110156104c357600080fd5b50356001600160a01b0316610bf9565b610243610c7d565b610327600480360360208110156104f157600080fd5b50356001600160a01b0316610cde565b61031d610d46565b6102d56004803603604081101561051f57600080fd5b5080359060200135610db5565b6102276004803603604081101561054257600080fd5b50803590602001356001600160a01b0316610dcd565b610560610de5565b604080516001600160e01b03199092168252519081900360200190f35b610243610df0565b610327610e51565b61031d600480360360408110156105a357600080fd5b506001600160a01b0381351690602001351515610e56565b61031d600480360360808110156105d157600080fd5b6001600160a01b0382358116926020810135909116916040820135919081019060808101606082013564010000000081111561060c57600080fd5b82018360208201111561061e57600080fd5b8035906020019184600183028401116401000000008311171561064057600080fd5b91908080601f016020809104026020016040519081016040528093929190818152602001838380828437600092019190915250929550610f5b945050505050565b6102436004803603602081101561069757600080fd5b5035610fb9565b610327600480360360208110156106b457600080fd5b5035611260565b610327611277565b61031d600480360360408110156106d957600080fd5b50803590602001356001600160a01b031661129b565b6103276112f4565b6102276004803603604081101561070d57600080fd5b506001600160a01b0381358116916020013516611318565b60006107686040518060a00160405280606881526020016125c5606891396001600160e01b0319841660008181526001602052604090205430919060ff16611405565b506001600160e01b0319811660009081526001602052604090205460ff165b919050565b60078054604080516020601f60026000196101006001881615020190951694909404938401819004810282018101909252828152606093909290918301828280156108185780601f106107ed57610100808354040283529160200191610818565b820191906000526020600020905b8154815290600101906020018083116107fb57829003601f168201915b5050505050905090565b600061082d826114d7565b6108685760405162461bcd60e51b815260040180806020018281038252602c815260200180612798602c913960400191505060405180910390fd5b506000908152600560205260409020546001600160a01b031690565b600061088f82610bd1565b9050806001600160a01b0316836001600160a01b031614156108e25760405162461bcd60e51b815260040180806020018281038252602181526020018061281c6021913960400191505060405180910390fd5b806001600160a01b03166108f46113ec565b6001600160a01b031614806109155750610915816109106113ec565b611318565b6109505760405162461bcd60e51b81526004018080602001828103825260388152602001806126eb6038913960400191505060405180910390fd5b61095a83836114e4565b505050565b600061096b6003611552565b905090565b61098161097b6113ec565b8261155d565b6109bc5760405162461bcd60e51b815260040180806020018281038252603181526020018061283d6031913960400191505060405180910390fd5b61095a838383611601565b60009081526020819052604090206002015490565b6000828152602081905260409020600201546109ff906109fa6113ec565b610dcd565b610a3a5760405162461bcd60e51b815260040180806020018281038252602f815260200180612564602f913960400191505060405180910390fd5b610a44828261174d565b5050565b6001600160a01b0382166000908152600260205260408120610a6a90836117b6565b90505b92915050565b610a7b6113ec565b6001600160a01b0316816001600160a01b031614610aca5760405162461bcd60e51b815260040180806020018281038252602f81526020018061291b602f913960400191505060405180910390fd5b610a4482826117c2565b610b007f65d7a28e3265b37a6474929f336521b332c1681b933f6cb9f3376673440d862a6109fa6113ec565b610b3b5760405162461bcd60e51b81526004018080602001828103825260408152602001806128db6040913960400191505060405180910390fd5b610b4361182b565b565b61095a83838360405180602001604052806000815250610f5b565b610b6b61097b6113ec565b610ba65760405162461bcd60e51b81526004018080602001828103825260308152602001806128ab6030913960400191505060405180910390fd5b610baf816118c9565b50565b600080610bc0600384611996565b509392505050565b600b5460ff1690565b6000610a6d8260405180606001604052806029815260200161274d60299139600391906119b2565b610c257f9f2df0fed2c77648de5860a4cc508cd0818c85b8b8a1ab4ceeef8d981c8956a66109fa6113ec565b610c605760405162461bcd60e51b815260040180806020018281038252603d81526020018061286e603d913960400191505060405180910390fd5b610c7381610c6e600c6119c9565b6119cd565b610baf600c611afb565b600a8054604080516020601f60026000196101006001881615020190951694909404938401819004810282018101909252828152606093909290918301828280156108185780601f106107ed57610100808354040283529160200191610818565b60006001600160a01b038216610d255760405162461bcd60e51b815260040180806020018281038252602a815260200180612723602a913960400191505060405180910390fd5b6001600160a01b0382166000908152600260205260409020610a6d90611552565b610d727f65d7a28e3265b37a6474929f336521b332c1681b933f6cb9f3376673440d862a6109fa6113ec565b610dad5760405162461bcd60e51b815260040180806020018281038252603e81526020018061262d603e913960400191505060405180910390fd5b610b43611b04565b6000828152602081905260408120610a6a90836117b6565b6000828152602081905260408120610a6a9083611b85565b6301ffc9a760e01b81565b60088054604080516020601f60026000196101006001881615020190951694909404938401819004810282018101909252828152606093909290918301828280156108185780601f106107ed57610100808354040283529160200191610818565b600081565b610e5e6113ec565b6001600160a01b0316826001600160a01b03161415610ec4576040805162461bcd60e51b815260206004820152601960248201527f4552433732313a20617070726f766520746f2063616c6c657200000000000000604482015290519081900360640190fd5b8060066000610ed16113ec565b6001600160a01b03908116825260208083019390935260409182016000908120918716808252919093529120805460ff191692151592909217909155610f156113ec565b6001600160a01b03167f17307eab39ab6107e8899845ad3d59bd9653f200f220920489ca2b5937696c318360405180821515815260200191505060405180910390a35050565b610f6c610f666113ec565b8361155d565b610fa75760405162461bcd60e51b815260040180806020018281038252603181526020018061283d6031913960400191505060405180910390fd5b610fb384848484611b9a565b50505050565b6060610fc4826114d7565b610fff5760405162461bcd60e51b815260040180806020018281038252602f8152602001806127ed602f913960400191505060405180910390fd5b60008281526009602090815260409182902080548351601f60026000196101006001861615020190931692909204918201849004840281018401909452808452606093928301828280156110945780601f1061106957610100808354040283529160200191611094565b820191906000526020600020905b81548152906001019060200180831161107757829003601f168201915b5050600a54939450505050600260001961010060018416150201909116046110bd579050610787565b80511561118e57600a8160405160200180838054600181600116156101000203166002900480156111255780601f10611103576101008083540402835291820191611125565b820191906000526020600020905b815481529060010190602001808311611111575b5050825160208401908083835b602083106111515780518252601f199092019160209182019101611132565b6001836020036101000a03801982511681845116808217855250505050505090500192505050604051602081830303815290604052915050610787565b600a61119984611bec565b60405160200180838054600181600116156101000203166002900480156111f75780601f106111d55761010080835404028352918201916111f7565b820191906000526020600020905b8154815290600101906020018083116111e3575b5050825160208401908083835b602083106112235780518252601f199092019160209182019101611204565b6001836020036101000a03801982511681845116808217855250505050505090500192505050604051602081830303815290604052915050919050565b6000818152602081905260408120610a6d90611552565b7f9f2df0fed2c77648de5860a4cc508cd0818c85b8b8a1ab4ceeef8d981c8956a681565b6000828152602081905260409020600201546112b9906109fa6113ec565b610aca5760405162461bcd60e51b81526004018080602001828103825260308152602001806126bb6030913960400191505060405180910390fd5b7f65d7a28e3265b37a6474929f336521b332c1681b933f6cb9f3376673440d862a81565b6001600160a01b03918216600090815260066020908152604080832093909416825291909152205460ff1690565b610baf816040516024018080602001828103825283818151815260200191508051906020019080838360005b8381101561138a578181015183820152602001611372565b50505050905090810190601f1680156113b75780820380516001836020036101000a031916815260200191505b5060408051601f198184030181529190526020810180516001600160e01b031663104c13eb60e21b1790529250611cc7915050565b3390565b6000610a6a836001600160a01b038416611ce8565b610fb3848484846040516024018080602001856001600160a01b03168152602001846001600160a01b031681526020018315158152602001828103825286818151815260200191508051906020019080838360005b8381101561147257818101518382015260200161145a565b50505050905090810190601f16801561149f5780820380516001836020036101000a031916815260200191505b5060408051601f198184030181529190526020810180516001600160e01b03166305acedeb60e51b1790529550611cc7945050505050565b6000610a6d600383611d32565b600081815260056020526040902080546001600160a01b0319166001600160a01b038416908117909155819061151982610bd1565b6001600160a01b03167f8c5be1e5ebec7d5bd14f71427d1e84f3dd0314c0f7b2291e5b200ac8c7c3b92560405160405180910390a45050565b6000610a6d826119c9565b6000611568826114d7565b6115a35760405162461bcd60e51b815260040180806020018281038252602c81526020018061268f602c913960400191505060405180910390fd5b60006115ae83610bd1565b9050806001600160a01b0316846001600160a01b031614806115e95750836001600160a01b03166115de84610822565b6001600160a01b0316145b806115f957506115f98185611318565b949350505050565b826001600160a01b031661161482610bd1565b6001600160a01b0316146116595760405162461bcd60e51b81526004018080602001828103825260298152602001806127c46029913960400191505060405180910390fd5b6001600160a01b03821661169e5760405162461bcd60e51b815260040180806020018281038252602481526020018061266b6024913960400191505060405180910390fd5b6116a9838383611d3e565b6116b46000826114e4565b6001600160a01b03831660009081526002602052604090206116d69082611d49565b506001600160a01b03821660009081526002602052604090206116f99082611d55565b5061170660038284611d61565b5080826001600160a01b0316846001600160a01b03167fddf252ad1be2c89b69c2b068fc378daa952ba7f163c4a11628f55a4df523b3ef60405160405180910390a4505050565b600082815260208190526040902061176590826113f0565b15610a44576117726113ec565b6001600160a01b0316816001600160a01b0316837f2f8788117e7eff1d82e926ec794901d17c78024a50270940304540a733656f0d60405160405180910390a45050565b6000610a6a8383611d77565b60008281526020819052604090206117da9082611ddb565b15610a44576117e76113ec565b6001600160a01b0316816001600160a01b0316837ff6391f5c32d9c69d2a47ea670b442974b53935d1edc7fd64eb21e047a839171b60405160405180910390a45050565b600b5460ff16611879576040805162461bcd60e51b815260206004820152601460248201527314185d5cd8589b194e881b9bdd081c185d5cd95960621b604482015290519081900360640190fd5b600b805460ff191690557f5db9ee0a495bf2e6ff9c91a7834c1ba4fdd244a5e8aa4e537bd38aeae4b073aa6118ac6113ec565b604080516001600160a01b039092168252519081900360200190a1565b60006118d482610bd1565b90506118e281600084611d3e565b6118ed6000836114e4565b600082815260096020526040902054600260001961010060018416150201909116041561192b57600082815260096020526040812061192b916124be565b6001600160a01b038116600090815260026020526040902061194d9083611d49565b50611959600383611df0565b5060405182906000906001600160a01b038416907fddf252ad1be2c89b69c2b068fc378daa952ba7f163c4a11628f55a4df523b3ef908390a45050565b60008080806119a58686611dfc565b9097909650945050505050565b60006119bf848484611e77565b90505b9392505050565b5490565b6001600160a01b038216611a28576040805162461bcd60e51b815260206004820181905260248201527f4552433732313a206d696e7420746f20746865207a65726f2061646472657373604482015290519081900360640190fd5b611a31816114d7565b15611a83576040805162461bcd60e51b815260206004820152601c60248201527f4552433732313a20746f6b656e20616c7265616479206d696e74656400000000604482015290519081900360640190fd5b611a8f60008383611d3e565b6001600160a01b0382166000908152600260205260409020611ab19082611d55565b50611abe60038284611d61565b5060405181906001600160a01b038416906000907fddf252ad1be2c89b69c2b068fc378daa952ba7f163c4a11628f55a4df523b3ef908290a45050565b80546001019055565b600b5460ff1615611b4f576040805162461bcd60e51b815260206004820152601060248201526f14185d5cd8589b194e881c185d5cd95960821b604482015290519081900360640190fd5b600b805460ff191660011790557f62e78cea01bee320cd4e420270b5ea74000d11b0c9f74754ebdbfc544b05a2586118ac6113ec565b6000610a6a836001600160a01b038416611f41565b611ba5848484611601565b611bb184848484611f59565b610fb35760405162461bcd60e51b81526004018080602001828103825260328152602001806125936032913960400191505060405180910390fd5b606081611c1157506040805180820190915260018152600360fc1b6020820152610787565b8160005b8115611c2957600101600a82049150611c15565b60608167ffffffffffffffff81118015611c4257600080fd5b506040519080825280601f01601f191660200182016040528015611c6d576020820181803683370190505b50859350905060001982015b8315611cbe57600a840660300160f81b82828060019003935081518110611c9c57fe5b60200101906001600160f81b031916908160001a905350600a84049350611c79565b50949350505050565b80516a636f6e736f6c652e6c6f67602083016000808483855afa5050505050565b6000611cf48383611f41565b611d2a57508154600181810184556000848152602080822090930184905584548482528286019093526040902091909155610a6d565b506000610a6d565b6000610a6a8383611f41565b61095a8383836120c1565b6000610a6a8383612110565b6000610a6a8383611ce8565b60006119bf84846001600160a01b0385166121d6565b81546000908210611db95760405162461bcd60e51b81526004018080602001828103825260228152602001806125176022913960400191505060405180910390fd5b826000018281548110611dc857fe5b9060005260206000200154905092915050565b6000610a6a836001600160a01b038416612110565b6000610a6a838361226d565b815460009081908310611e405760405162461bcd60e51b81526004018080602001828103825260228152602001806127766022913960400191505060405180910390fd5b6000846000018481548110611e5157fe5b906000526020600020906002020190508060000154816001015492509250509250929050565b60008281526001840160205260408120548281611f125760405162461bcd60e51b81526004018080602001828103825283818151815260200191508051906020019080838360005b83811015611ed7578181015183820152602001611ebf565b50505050905090810190601f168015611f045780820380516001836020036101000a031916815260200191505b509250505060405180910390fd5b50846000016001820381548110611f2557fe5b9060005260206000209060020201600101549150509392505050565b60009081526001919091016020526040902054151590565b6000611f6d846001600160a01b0316612341565b611f79575060016115f9565b6060612087630a85bd0160e11b611f8e6113ec565b88878760405160240180856001600160a01b03168152602001846001600160a01b0316815260200183815260200180602001828103825283818151815260200191508051906020019080838360005b83811015611ff5578181015183820152602001611fdd565b50505050905090810190601f1680156120225780820380516001836020036101000a031916815260200191505b5095505050505050604051602081830303815290604052906001600160e01b0319166020820180516001600160e01b038381831617835250505050604051806060016040528060328152602001612593603291396001600160a01b0388169190612347565b905060008180602001905160208110156120a057600080fd5b50516001600160e01b031916630a85bd0160e11b1492505050949350505050565b6120cc83838361095a565b6120d4610bc8565b1561095a5760405162461bcd60e51b815260040180806020018281038252602b815260200180612539602b913960400191505060405180910390fd5b600081815260018301602052604081205480156121cc578354600019808301919081019060009087908390811061214357fe5b906000526020600020015490508087600001848154811061216057fe5b60009182526020808320909101929092558281526001898101909252604090209084019055865487908061219057fe5b60019003818190600052602060002001600090559055866001016000878152602001908152602001600020600090556001945050505050610a6d565b6000915050610a6d565b60008281526001840160205260408120548061223b5750506040805180820182528381526020808201848152865460018181018955600089815284812095516002909302909501918255915190820155865486845281880190925292909120556119c2565b8285600001600183038154811061224e57fe5b90600052602060002090600202016001018190555060009150506119c2565b600081815260018301602052604081205480156121cc57835460001980830191908101906000908790839081106122a057fe5b90600052602060002090600202019050808760000184815481106122c057fe5b6000918252602080832084546002909302019182556001938401549184019190915583548252898301905260409020908401905586548790806122ff57fe5b6000828152602080822060026000199094019384020182815560019081018390559290935588815289820190925260408220919091559450610a6d9350505050565b3b151590565b60606119bf8484600085606061235c85612341565b6123ad576040805162461bcd60e51b815260206004820152601d60248201527f416464726573733a2063616c6c20746f206e6f6e2d636f6e7472616374000000604482015290519081900360640190fd5b60006060866001600160a01b031685876040518082805190602001908083835b602083106123ec5780518252601f1990920191602091820191016123cd565b6001836020036101000a03801982511681845116808217855250505050505090500191505060006040518083038185875af1925050503d806000811461244e576040519150601f19603f3d011682016040523d82523d6000602084013e612453565b606091505b509150915081156124675791506115f99050565b8051156124775780518082602001fd5b60405162461bcd60e51b8152602060048201818152865160248401528651879391928392604401919085019080838360008315611ed7578181015183820152602001611ebf565b50805460018160011615610100020316600290046000825580601f106124e45750610baf565b601f016020900490600052602060002090810190610baf91905b8082111561251257600081556001016124fe565b509056fe456e756d657261626c655365743a20696e646578206f7574206f6620626f756e64734552433732315061757361626c653a20746f6b656e207472616e73666572207768696c6520706175736564416363657373436f6e74726f6c3a2073656e646572206d75737420626520616e2061646d696e20746f206772616e744552433732313a207472616e7366657220746f206e6f6e20455243373231526563656976657220696d706c656d656e746572436f6e74726163743a3a686f6c797a657070656c696e3a3a4552433136353a3a737570706f727473496e746572666163653a303120446f6573207468697320636f6e747261637420617420257320696d706c656d656e7420696e746572666163652025733f2025734552433732315072657365744d696e7465725061757365724175746f49643a206d75737420686176652070617573657220726f6c6520746f2070617573654552433732313a207472616e7366657220746f20746865207a65726f20616464726573734552433732313a206f70657261746f7220717565727920666f72206e6f6e6578697374656e7420746f6b656e416363657373436f6e74726f6c3a2073656e646572206d75737420626520616e2061646d696e20746f207265766f6b654552433732313a20617070726f76652063616c6c6572206973206e6f74206f776e6572206e6f7220617070726f76656420666f7220616c6c4552433732313a2062616c616e636520717565727920666f7220746865207a65726f20616464726573734552433732313a206f776e657220717565727920666f72206e6f6e6578697374656e7420746f6b656e456e756d657261626c654d61703a20696e646578206f7574206f6620626f756e64734552433732313a20617070726f76656420717565727920666f72206e6f6e6578697374656e7420746f6b656e4552433732313a207472616e73666572206f6620746f6b656e2074686174206973206e6f74206f776e4552433732314d657461646174613a2055524920717565727920666f72206e6f6e6578697374656e7420746f6b656e4552433732313a20617070726f76616c20746f2063757272656e74206f776e65724552433732313a207472616e736665722063616c6c6572206973206e6f74206f776e6572206e6f7220617070726f7665644552433732315072657365744d696e7465725061757365724175746f49643a206d7573742068617665206d696e74657220726f6c6520746f206d696e744552433732314275726e61626c653a2063616c6c6572206973206e6f74206f776e6572206e6f7220617070726f7665644552433732315072657365744d696e7465725061757365724175746f49643a206d75737420686176652070617573657220726f6c6520746f20756e7061757365416363657373436f6e74726f6c3a2063616e206f6e6c792072656e6f756e636520726f6c657320666f722073656c66a26469706673582212209b9cb01478cd014d414801ec0fbe9578f4eebe5589eabe3f02b4d4597aa4c21b64736f6c63430007050033436f6e74726163743a3a686f6c797a657070656c696e3a3a4552433136353a3a636f6e7374727563746f723a303120496e7374616e74696174696e67204552433136352e436f6e74726163743a3a686f6c797a657070656c696e3a3a4552433136353a3a636f6e7374727563746f723a303420496e7374616e746961746564204552433136352e436f6e74726163743a3a686f6c797a657070656c696e3a3a4552433136353a3a636f6e7374727563746f723a30332052656769737465726564204552433136355f494e544552464143455f49442e436f6e74726163743a3a686f6c797a657070656c696e3a3a4552433136353a3a636f6e7374727563746f723a3032205265676973746572696e67204552433136355f494e544552464143455f49442e",
  "linkReferences": {},
  "deployedLinkReferences": {}
}