{
  "_format": "hh-sol-artifact-1",
  "contractName": "ERC1155Holder",
  "sourceName": "contracts/dependencies/authorization-platform/contracts/dependencies/holyzeppelin/contracts/token/ERC1155/ERC1155Holder.sol",
  "abi": [
    {
      "inputs": [],
      "name": "ERC165_INTERFACE_ID",
      "outputs": [
        {
          "internalType": "bytes4",
          "name": "",
          "type": "bytes4"
        }
      ],
      "stateMutability": "view",
      "type": "function"
    },
    {
      "inputs": [
        {
          "internalType": "address",
          "name": "",
          "type": "address"
        },
        {
          "internalType": "address",
          "name": "",
          "type": "address"
        },
        {
          "internalType": "uint256[]",
          "name": "",
          "type": "uint256[]"
        },
        {
          "internalType": "uint256[]",
          "name": "",
          "type": "uint256[]"
        },
        {
          "internalType": "bytes",
          "name": "",
          "type": "bytes"
        }
      ],
      "name": "onERC1155BatchReceived",
      "outputs": [
        {
          "internalType": "bytes4",
          "name": "",
          "type": "bytes4"
        }
      ],
      "stateMutability": "nonpayable",
      "type": "function"
    },
    {
      "inputs": [
        {
          "internalType": "address",
          "name": "",
          "type": "address"
        },
        {
          "internalType": "address",
          "name": "",
          "type": "address"
        },
        {
          "internalType": "uint256",
          "name": "",
          "type": "uint256"
        },
        {
          "internalType": "uint256",
          "name": "",
          "type": "uint256"
        },
        {
          "internalType": "bytes",
          "name": "",
          "type": "bytes"
        }
      ],
      "name": "onERC1155Received",
      "outputs": [
        {
          "internalType": "bytes4",
          "name": "",
          "type": "bytes4"
        }
      ],
      "stateMutability": "nonpayable",
      "type": "function"
    },
    {
      "inputs": [
        {
          "internalType": "bytes4",
          "name": "interfaceId_",
          "type": "bytes4"
        }
      ],
      "name": "supportsInterface",
      "outputs": [
        {
          "internalType": "bool",
          "name": "",
          "type": "bool"
        }
      ],
      "stateMutability": "view",
      "type": "function"
    }
  ],
  "bytecode": "0x60806040523480156200001157600080fd5b50620000416040518060600160405280602b815260200162000d47602b91396200014c60201b620003d01760201c565b6200008d6040518060600160405280602d815260200162000b88602d913960008051602062000bb58339815191526001600160e01b03191660001c620001ff60201b620004791760201c565b620000bc60405180606001604052806040815260200162000cb7604091396200014c60201b620003d01760201c565b620000d660008051602062000bb5833981519152620002c4565b620001056040518060600160405280603f815260200162000c27603f91396200014c60201b620003d01760201c565b620001346040518060600160405280602a815260200162000b5e602a91396200014c60201b620003d01760201c565b62000146630271189760e51b620002c4565b6200045d565b620001fc816040516024018080602001828103825283818151815260200191508051906020019080838360005b838110156200019357818101518382015260200162000179565b50505050905090810190601f168015620001c15780820380516001836020036101000a031916815260200191505b5060408051601f198184030181529190526020810180516001600160e01b0390811663104c13eb60e21b179091529093506200043c16915050565b50565b620002c082826040516024018080602001836001600160a01b03168152602001828103825284818151815260200191508051906020019080838360005b83811015620002565781810151838201526020016200023c565b50505050905090810190601f168015620002845780820380516001836020036101000a031916815260200191505b5060408051601f198184030181529190526020810180516001600160e01b0390811663319af33360e01b179091529094506200043c1692505050565b5050565b6200030160405180608001604052806052815260200162000bd560529139826001600160e01b03191660001c620001ff60201b620004791760201c565b6001600160e01b0319808216141562000361576040805162461bcd60e51b815260206004820152601c60248201527f4552433136353a20696e76616c696420696e7465726661636520696400000000604482015290519081900360640190fd5b6200039e60405180608001604052806051815260200162000c6660519139826001600160e01b03191660001c620001ff60201b620004791760201c565b620003db60405180608001604052806050815260200162000cf760509139826001600160e01b03191660001c620001ff60201b620004791760201c565b6001600160e01b0319811660009081526020818152604091829020805460ff19166001179055815160808101909252604c808352620001fc929162000b1290830139826001600160e01b03191660001c620001ff60201b620004791760201c565b80516a636f6e736f6c652e6c6f67602083016000808483855afa5050505050565b6106a5806200046d6000396000f3fe608060405234801561001057600080fd5b506004361061004c5760003560e01c806301ffc9a714610051578063950d7f6f1461008c578063bc197c81146100b1578063f23a6e6114610272575b600080fd5b6100786004803603602081101561006757600080fd5b50356001600160e01b03191661033b565b604080519115158252519081900360200190f35b61009461038a565b604080516001600160e01b03199092168252519081900360200190f35b610094600480360360a08110156100c757600080fd5b6001600160a01b038235811692602081013590911691810190606081016040820135600160201b8111156100fa57600080fd5b82018360208201111561010c57600080fd5b803590602001918460208302840111600160201b8311171561012d57600080fd5b9190808060200260200160405190810160405280939291908181526020018383602002808284376000920191909152509295949360208101935035915050600160201b81111561017c57600080fd5b82018360208201111561018e57600080fd5b803590602001918460208302840111600160201b831117156101af57600080fd5b9190808060200260200160405190810160405280939291908181526020018383602002808284376000920191909152509295949360208101935035915050600160201b8111156101fe57600080fd5b82018360208201111561021057600080fd5b803590602001918460018302840111600160201b8311171561023157600080fd5b91908080601f0160208091040260200160405190810160405280939291908181526020018383808284376000920191909152509295506103ae945050505050565b610094600480360360a081101561028857600080fd5b6001600160a01b03823581169260208101359091169160408201359160608101359181019060a081016080820135600160201b8111156102c757600080fd5b8201836020820111156102d957600080fd5b803590602001918460018302840111600160201b831117156102fa57600080fd5b91908080601f0160208091040260200160405190810160405280939291908181526020018383808284376000920191909152509295506103bf945050505050565b600061036a6040518060800160405280604d8152602001610623604d9139306001600160e01b03198516610534565b506001600160e01b03191660009081526020819052604090205460ff1690565b7f01ffc9a7a5cef8baa21ed3c5c0d7e23accb804b619e9333b597f47a0d84076e281565b63bc197c8160e01b95945050505050565b63f23a6e6160e01b95945050505050565b610476816040516024018080602001828103825283818151815260200191508051906020019080838360005b838110156104145781810151838201526020016103fc565b50505050905090810190601f1680156104415780820380516001836020036101000a031916815260200191505b5060408051601f198184030181529190526020810180516001600160e01b031663104c13eb60e21b1790529250610601915050565b50565b61053082826040516024018080602001836001600160a01b03168152602001828103825284818151815260200191508051906020019080838360005b838110156104cd5781810151838201526020016104b5565b50505050905090810190601f1680156104fa5780820380516001836020036101000a031916815260200191505b5060408051601f198184030181529190526020810180516001600160e01b031663319af33360e01b179052935061060192505050565b5050565b6105fc8383836040516024018080602001846001600160a01b03168152602001836001600160a01b03168152602001828103825285818151815260200191508051906020019080838360005b83811015610598578181015183820152602001610580565b50505050905090810190601f1680156105c55780820380516001836020036101000a031916815260200191505b5060408051601f198184030181529190526020810180516001600160e01b03166307e763af60e51b17905294506106019350505050565b505050565b80516a636f6e736f6c652e6c6f67602083016000808483855afa505050505056fe4552433136353a3a737570706f727473496e746572666163653a312053656c66206964656e74696679696e67207468617420257320696d706c656d656e747320696e746572666163652025732ea2646970667358221220d33e78dd05b3da648c2b6ffe555b8422976c2563b26eb9fe676218e2954fac4164736f6c634300070500334552433136353a3a5f7265676973746572496e746572666163653a342053657420696d706c656d656e746174696f6e2073656c66207265706f7274206f6620696e746572666163652025732e4552433136353a3a636f6e7374727563746f723a3520496e7374616e746961746564204552433136352e4552433136353a3a636f6e7374727563746f723a322045524331363520696e746572666163652049443a20257301ffc9a7a5cef8baa21ed3c5c0d7e23accb804b619e9333b597f47a0d84076e24552433136353a3a5f7265676973746572496e746572666163653a3120436f6e6669726d696e6720696e746572666163652025732069732076616c69642045524331363520696e746572666163652049442e4552433136353a3a636f6e7374727563746f723a342052656769737465726564204552433136355f494e544552464143455f494420776974682073656c662e4552433136353a3a5f7265676973746572496e746572666163653a3220436f6e6669726d656420696e746572666163652025732069732076616c69642045524331363520696e746572666163652049442e4552433136353a3a636f6e7374727563746f723a33205265676973746572696e67204552433136355f494e544552464143455f494420776974682073656c662e4552433136353a3a5f7265676973746572496e746572666163653a332053657474696e6720696d706c656d656e746174696f6e2073656c66207265706f7274206f6620696e746572666163652025732e4552433136353a3a636f6e7374727563746f723a3120496e7374616e74696174696e67204552433136352e",
  "linkReferences": {},
  "deployedLinkReferences": {}
}