{
  "_format": "hh-sol-artifact-1",
  "contractName": "VELOFeeCharger",
  "sourceName": "contracts/dependencies/holyzeppelin/contracts/token/ERC20/examples/velo/feeCharger/VELOFeeCharger.sol",
  "abi": [
    {
      "inputs": [],
      "stateMutability": "nonpayable",
      "type": "constructor"
    },
    {
      "inputs": [],
      "name": "beneficiary",
      "outputs": [
        {
          "internalType": "address",
          "name": "",
          "type": "address"
        }
      ],
      "stateMutability": "view",
      "type": "function"
    },
    {
      "inputs": [
        {
          "internalType": "uint256",
          "name": "max_gas_block_",
          "type": "uint256"
        },
        {
          "internalType": "uint256",
          "name": "min_gas_tx_",
          "type": "uint256"
        },
        {
          "internalType": "uint256",
          "name": "ema_long_",
          "type": "uint256"
        },
        {
          "internalType": "uint256",
          "name": "tx_size_",
          "type": "uint256"
        },
        {
          "internalType": "uint256",
          "name": "total_supply_",
          "type": "uint256"
        },
        {
          "internalType": "uint256",
          "name": "_gov_fee_factor",
          "type": "uint256"
        }
      ],
      "name": "calc_fee_gas",
      "outputs": [
        {
          "internalType": "uint256",
          "name": "",
          "type": "uint256"
        }
      ],
      "stateMutability": "pure",
      "type": "function"
    },
    {
      "inputs": [
        {
          "internalType": "uint256",
          "name": "sEMA",
          "type": "uint256"
        },
        {
          "internalType": "uint256",
          "name": "totalSupply",
          "type": "uint256"
        },
        {
          "internalType": "uint256",
          "name": "_amount",
          "type": "uint256"
        }
      ],
      "name": "chargeFee",
      "outputs": [],
      "stateMutability": "nonpayable",
      "type": "function"
    },
    {
      "inputs": [],
      "name": "chi",
      "outputs": [
        {
          "internalType": "contract ICHI",
          "name": "",
          "type": "address"
        }
      ],
      "stateMutability": "view",
      "type": "function"
    },
    {
      "inputs": [],
      "name": "chi_fee_remaining",
      "outputs": [
        {
          "internalType": "uint256",
          "name": "",
          "type": "uint256"
        }
      ],
      "stateMutability": "view",
      "type": "function"
    },
    {
      "inputs": [],
      "name": "gov",
      "outputs": [
        {
          "internalType": "address",
          "name": "",
          "type": "address"
        }
      ],
      "stateMutability": "view",
      "type": "function"
    },
    {
      "inputs": [],
      "name": "govFactor",
      "outputs": [
        {
          "internalType": "uint256",
          "name": "",
          "type": "uint256"
        }
      ],
      "stateMutability": "view",
      "type": "function"
    },
    {
      "inputs": [],
      "name": "gov_fee_factor",
      "outputs": [
        {
          "internalType": "uint256",
          "name": "",
          "type": "uint256"
        }
      ],
      "stateMutability": "view",
      "type": "function"
    },
    {
      "inputs": [],
      "name": "last_block_number",
      "outputs": [
        {
          "internalType": "uint256",
          "name": "",
          "type": "uint256"
        }
      ],
      "stateMutability": "view",
      "type": "function"
    },
    {
      "inputs": [],
      "name": "max_gas_block",
      "outputs": [
        {
          "internalType": "uint256",
          "name": "",
          "type": "uint256"
        }
      ],
      "stateMutability": "view",
      "type": "function"
    },
    {
      "inputs": [],
      "name": "min_gas_tx",
      "outputs": [
        {
          "internalType": "uint256",
          "name": "",
          "type": "uint256"
        }
      ],
      "stateMutability": "view",
      "type": "function"
    },
    {
      "inputs": [
        {
          "internalType": "address",
          "name": "beneficiary_",
          "type": "address"
        }
      ],
      "name": "setBeneficiary",
      "outputs": [],
      "stateMutability": "nonpayable",
      "type": "function"
    },
    {
      "inputs": [
        {
          "internalType": "address",
          "name": "newGov",
          "type": "address"
        }
      ],
      "name": "setGov",
      "outputs": [],
      "stateMutability": "nonpayable",
      "type": "function"
    },
    {
      "inputs": [
        {
          "internalType": "uint256",
          "name": "factor",
          "type": "uint256"
        }
      ],
      "name": "setGovFactor",
      "outputs": [],
      "stateMutability": "nonpayable",
      "type": "function"
    },
    {
      "inputs": [
        {
          "internalType": "uint256",
          "name": "value",
          "type": "uint256"
        }
      ],
      "name": "setGovFeeFactor",
      "outputs": [],
      "stateMutability": "nonpayable",
      "type": "function"
    },
    {
      "inputs": [
        {
          "internalType": "uint256",
          "name": "value",
          "type": "uint256"
        }
      ],
      "name": "setMaxGasBlock",
      "outputs": [],
      "stateMutability": "nonpayable",
      "type": "function"
    },
    {
      "inputs": [
        {
          "internalType": "uint256",
          "name": "value",
          "type": "uint256"
        }
      ],
      "name": "setMinGasTx",
      "outputs": [],
      "stateMutability": "nonpayable",
      "type": "function"
    }
  ],
  "bytecode": "0x608060405234801561001057600080fd5b50600180546001600160a01b03191633179055670de0b6b3a76400006005556807518058bd45bc0000600355671bc16d674ec800006004556000600681905560075561076e806100616000396000f3fe608060405234801561001057600080fd5b506004361061010b5760003560e01c8063c74090a4116100a2578063cfad57a211610071578063cfad57a214610212578063da6eb36a14610238578063f1949bde14610261578063fa7aa1611461029c578063ff9e2a23146102a45761010b565b8063c74090a4146101c8578063c7c34e98146101e5578063c92aecc4146101ed578063c9473379146101f55761010b565b80634df053fd116100de5780634df053fd1461017e5780638665ff1b146101865780639dd923dc146101a3578063c70b623e146101c05761010b565b806312d43a51146101105780631c31f710146101345780631eeaebb21461015c57806338af3eed14610176575b600080fd5b6101186102ac565b604080516001600160a01b039092168252519081900360200190f35b61015a6004803603602081101561014a57600080fd5b50356001600160a01b03166102bb565b005b610164610325565b60408051918252519081900360200190f35b61011861032b565b61016461033a565b61015a6004803603602081101561019c57600080fd5b5035610340565b61015a600480360360208110156101b957600080fd5b5035610345565b61016461034a565b61015a600480360360208110156101de57600080fd5b5035610350565b61016461039d565b6101186103a3565b61015a6004803603602081101561020b57600080fd5b50356103b5565b61015a6004803603602081101561022857600080fd5b50356001600160a01b03166103ba565b61015a6004803603606081101561024e57600080fd5b5080359060208101359060400135610424565b610164600480360360c081101561027757600080fd5b5080359060208101359060408101359060608101359060808101359060a0013561060d565b610164610649565b61016461064f565b6001546001600160a01b031681565b6001546001600160a01b03163314610303576040805162461bcd60e51b8152602060048083019190915260248201526310b3b7bb60e11b604482015290519081900360640190fd5b600280546001600160a01b0319166001600160a01b0392909216919091179055565b60065481565b6002546001600160a01b031681565b60055481565b600455565b600555565b60005481565b6001546001600160a01b03163314610398576040805162461bcd60e51b8152602060048083019190915260248201526310b3b7bb60e11b604482015290519081900360640190fd5b600055565b60075481565b6d4946c0e9f43f4dee607b0ef1fa1c81565b600355565b6001546001600160a01b03163314610402576040805162461bcd60e51b8152602060048083019190915260248201526310b3b7bb60e11b604482015290519081900360640190fd5b600180546001600160a01b0319166001600160a01b0392909216919091179055565b600061043a60035460045486858760055461060d565b90504360065414156104635780600754101561045557506007545b600780548290039055610471565b436006556003548190036007555b60008111801561048b57506002546001600160a01b031615155b15610607576d4946c0e9f43f4dee607b0ef1fa1c63a0712d68670de0b6b3a764000083046040518263ffffffff1660e01b815260040180828152602001915050600060405180830381600087803b1580156104e557600080fd5b505af11580156104f9573d6000803e3d6000fd5b5050600254604080516370a0823160e01b815230600482015290516d4946c0e9f43f4dee607b0ef1fa1c945063a9059cbb93506001600160a01b039092169184916370a08231916024808301926020929190829003018186803b15801561055f57600080fd5b505afa158015610573573d6000803e3d6000fd5b505050506040513d602081101561058957600080fd5b5051604080516001600160e01b031960e086901b1681526001600160a01b03909316600484015260248301919091525160448083019260209291908290030181600087803b1580156105da57600080fd5b505af11580156105ee573d6000803e3d6000fd5b505050506040513d602081101561060457600080fd5b50505b50505050565b600086868261061e88888888610655565b9050670de0b6b3a7640000606484830204048281101561063b5750815b9a9950505050505050505050565b60035481565b60045481565b600084678ac7230489e80000610254850486116106745750600661071b565b610171850486116106875750600961071b565b60e4850486116106995750600f61071b565b608d850486116106ab5750601761071b565b6057850486116106bd5750602561071b565b6036850486116106cf5750603761071b565b6021850486116106e15750604c61071b565b6015850486116106f35750605c61071b565b600d850486116107055750606261071b565b6006850486116107175750606361071b565b5060645b670de0b6b3a764000060648383020485020497965050505050505056fea26469706673582212205fe9cd54341d5cd27673b5a73806fef1ccbdf28104f42821ea41de3c7580ddcf64736f6c63430007050033",
  "linkReferences": {},
  "deployedLinkReferences": {}
}