{
  "_format": "hh-sol-artifact-1",
  "contractName": "BBronze",
  "sourceName": "contracts/dependencies/authorization-platform/contracts/dependencies/holyzeppelin/test/token/ERC20/examples/velo/contracts/BColor.sol",
  "abi": [
    {
      "inputs": [],
      "name": "getColor",
      "outputs": [
        {
          "internalType": "bytes32",
          "name": "",
          "type": "bytes32"
        }
      ],
      "stateMutability": "pure",
      "type": "function"
    }
  ],
  "bytecode": "0x6080604052348015600f57600080fd5b5060888061001e6000396000f3fe6080604052348015600f57600080fd5b506004361060285760003560e01c80639a86139b14602d575b600080fd5b60336045565b60408051918252519081900360200190f35b6542524f4e5a4560d01b9056fea2646970667358221220db5d0388d0e180f195c59e26aecced64a33beba638cf9b0d1651e71504a8fdce64736f6c63430007050033",
  "linkReferences": {},
  "deployedLinkReferences": {}
}