{
  "_format": "hh-sol-artifact-1",
  "contractName": "ERC1820ImplementerERC165CompliantImplementor",
  "sourceName": "contracts/dependencies/holyzeppelin/contracts/test/introspection/ERC1820/ERC1820ImplementerERC165CompliantImplementor.sol",
  "abi": [
    {
      "inputs": [],
      "name": "ERC165_INTERFACE_ID",
      "outputs": [
        {
          "internalType": "bytes4",
          "name": "",
          "type": "bytes4"
        }
      ],
      "stateMutability": "view",
      "type": "function"
    },
    {
      "inputs": [],
      "name": "ERC1820_ACCEPT_MAGIC",
      "outputs": [
        {
          "internalType": "bytes32",
          "name": "",
          "type": "bytes32"
        }
      ],
      "stateMutability": "view",
      "type": "function"
    },
    {
      "inputs": [],
      "name": "ERC1820_IMPLEMENTER_ERC165_INTERFACE_ID",
      "outputs": [
        {
          "internalType": "bytes4",
          "name": "",
          "type": "bytes4"
        }
      ],
      "stateMutability": "view",
      "type": "function"
    },
    {
      "inputs": [],
      "name": "ERC1820_IMPLEMENTER_INTERFACE_ID",
      "outputs": [
        {
          "internalType": "bytes32",
          "name": "",
          "type": "bytes32"
        }
      ],
      "stateMutability": "view",
      "type": "function"
    },
    {
      "inputs": [
        {
          "internalType": "bytes32",
          "name": "interfaceHashQuery_",
          "type": "bytes32"
        },
        {
          "internalType": "address",
          "name": "account",
          "type": "address"
        }
      ],
      "name": "canImplementInterfaceForAddress",
      "outputs": [
        {
          "internalType": "bytes32",
          "name": "",
          "type": "bytes32"
        }
      ],
      "stateMutability": "view",
      "type": "function"
    },
    {
      "inputs": [
        {
          "internalType": "bytes4",
          "name": "interfaceId_",
          "type": "bytes4"
        }
      ],
      "name": "supportsInterface",
      "outputs": [
        {
          "internalType": "bool",
          "name": "",
          "type": "bool"
        }
      ],
      "stateMutability": "view",
      "type": "function"
    }
  ],
  "bytecode": "0x60806040523480156200001157600080fd5b50620000416040518060800160405280605b8152602001620011ca605b91396200044b60201b620002981760201c565b620000836040518060a00160405280606b81526020016200115f606b9139600080516020620012fb83398151915260001c620004fe60201b620003411760201c565b620000c66040518060a0016040528060668152602001620010f960669139600080516020620012fb83398151915260001c30620005c360201b620003fc1760201c565b620000e1600080516020620012fb833981519152306200069a565b6200011060405180608001604052806058815260200162001072605891396200044b60201b620002981760201c565b6200013f6040518060a001604052806068815260200162001293606891396200044b60201b620002981760201c565b6200016e60405180608001604052806044815260200162000f6d604491396200044b60201b620002981760201c565b6200019d6040518060800160405280604f815260200162001450604f91396200044b60201b620002981760201c565b620001af6301ffc9a760e01b6200072c565b620001de6040518060800160405280604e815260200162001225604e91396200044b60201b620002981760201c565b6200020d6040518060800160405280604381526020016200102f604391396200044b60201b620002981760201c565b6200023c604051806060016040528060308152602001620013e8603091396200044b60201b620002981760201c565b620002886040518060600160405280603881526020016200141860389139600080516020620012738339815191526001600160e01b03191660001c620004fe60201b620003411760201c565b620002b760405180606001604052806034815260200162000f39603491396200044b60201b620002981760201c565b620002d1600080516020620012738339815191526200072c565b6200030060405180606001604052806033815260200162000fb1603391396200044b60201b620002981760201c565b6200034d6040518060800160405280604b815260200162000fe4604b9139600080516020620012738339815191526001600160e01b03191660001c30620005c360201b620003fc1760201c565b6200036063124e59fd60e11b306200069a565b6200038f604051806060016040528060378152602001620013b1603791396200044b60201b620002981760201c565b620003d46040518060800160405280604b815260200162000fe4604b91396301ffc9a760e01b6001600160e01b03191660001c30620005c360201b620003fc1760201c565b620003e76301ffc9a760e01b306200069a565b62000416604051806060016040528060378152602001620013b1603791396200044b60201b620002981760201c565b620004456040518060600160405280602f8152602001620010ca602f91396200044b60201b620002981760201c565b620007d5565b620004fb816040516024018080602001828103825283818151815260200191508051906020019080838360005b838110156200049257818101518382015260200162000478565b50505050905090810190601f168015620004c05780820380516001836020036101000a031916815260200191505b5060408051601f198184030181529190526020810180516001600160e01b0390811663104c13eb60e21b17909152909350620007b416915050565b50565b620005bf82826040516024018080602001836001600160a01b03168152602001828103825284818151815260200191508051906020019080838360005b83811015620005555781810151838201526020016200053b565b50505050905090810190601f168015620005835780820380516001836020036101000a031916815260200191505b5060408051601f198184030181529190526020810180516001600160e01b0390811663319af33360e01b17909152909450620007b41692505050565b5050565b620006958383836040516024018080602001846001600160a01b03168152602001836001600160a01b03168152602001828103825285818151815260200191508051906020019080838360005b838110156200062a57818101518382015260200162000610565b50505050905090810190601f168015620006585780820380516001836020036101000a031916815260200191505b5060408051601f198184030181529190526020810180516001600160e01b039081166307e763af60e51b17909152909550620007b4169350505050565b505050565b620006ce6040518060c00160405280609681526020016200131b609691398360001c83620005c360201b620003fc1760201c565b6000828152602081815260408083206001600160a01b0385168452825291829020805460ff19166001179055815160c081019092526096808352620005bf92916200131b908301398360001c83620005c360201b620003fc1760201c565b6001600160e01b031980821614156200078c576040805162461bcd60e51b815260206004820152601c60248201527f4552433136353a20696e76616c696420696e7465726661636520696400000000604482015290519081900360640190fd5b6001600160e01b0319166000908152600160208190526040909120805460ff19169091179055565b80516a636f6e736f6c652e6c6f67602083016000808483855afa5050505050565b61075480620007e56000396000f3fe608060405234801561001057600080fd5b50600436106100625760003560e01c806301ffc9a714610067578063249cb3fa146100a2578063950d7f6f146100e0578063a3cff9b514610105578063e4d07c5c1461010d578063ec38fa4214610115575b600080fd5b61008e6004803603602081101561007d57600080fd5b50356001600160e01b03191661011d565b604080519115158252519081900360200190f35b6100ce600480360360408110156100b857600080fd5b50803590602001356001600160a01b0316610180565b60408051918252519081900360200190f35b6100e8610221565b604080516001600160e01b03199092168252519081900360200190f35b6100ce61022c565b6100e8610250565b6100ce610274565b60006101606040518060a00160405280606881526020016105c3606891396001600160e01b0319841660008181526001602052604090205430919060ff166104c9565b506001600160e01b03191660009081526001602052604090205460ff1690565b60006101a46040518060a00160405280607881526020016106a76078913984610341565b6000838152602081815260408083206001600160a01b038616845290915281205460ff166101d35760006101f5565b7fa2ef4600d742022d532d4747cb3547474667d6f13804902513b2ec01c848f4b45b905061021a6040518060a00160405280607c815260200161062b607c913982866103fc565b9392505050565b6301ffc9a760e01b81565b7f470b4a2a26dde857b9ba255135703cf0ab5f7ca71341df27a8b3d9cc5cb4b47581565b7f249cb3faca845c567fa2f484b639425561d6b04f52c4e4f9c659e684f0d02d0481565b7fa2ef4600d742022d532d4747cb3547474667d6f13804902513b2ec01c848f4b481565b61033e816040516024018080602001828103825283818151815260200191508051906020019080838360005b838110156102dc5781810151838201526020016102c4565b50505050905090810190601f1680156103095780820380516001836020036101000a031916815260200191505b5060408051601f198184030181529190526020810180516001600160e01b031663104c13eb60e21b17905292506105a1915050565b50565b6103f882826040516024018080602001836001600160a01b03168152602001828103825284818151815260200191508051906020019080838360005b8381101561039557818101518382015260200161037d565b50505050905090810190601f1680156103c25780820380516001836020036101000a031916815260200191505b5060408051601f198184030181529190526020810180516001600160e01b031663319af33360e01b17905293506105a192505050565b5050565b6104c48383836040516024018080602001846001600160a01b03168152602001836001600160a01b03168152602001828103825285818151815260200191508051906020019080838360005b83811015610460578181015183820152602001610448565b50505050905090810190601f16801561048d5780820380516001836020036101000a031916815260200191505b5060408051601f198184030181529190526020810180516001600160e01b03166307e763af60e51b17905294506105a19350505050565b505050565b61059b848484846040516024018080602001856001600160a01b03168152602001846001600160a01b031681526020018315158152602001828103825286818151815260200191508051906020019080838360005b8381101561053657818101518382015260200161051e565b50505050905090810190601f1680156105635780820380516001836020036101000a031916815260200191505b5060408051601f198184030181529190526020810180516001600160e01b03166305acedeb60e51b17905295506105a1945050505050565b50505050565b80516a636f6e736f6c652e6c6f67602083016000808483855afa505050505056fe436f6e74726163743a3a686f6c797a657070656c696e3a3a4552433136353a3a737570706f727473496e746572666163653a303120446f6573207468697320636f6e747261637420617420257320696d706c656d656e7420696e746572666163652025733f202573436f6e74726163743a3a686f6c797a657070656c696e3a3a45524331383230496d706c656d656e7465723a3a63616e496d706c656d656e74496e74657266616365466f72416464726573733a322052657475726e696e672025732074686174207468697320636f6e747261637420696d70656c6d656e74732025732e436f6e74726163743a3a686f6c797a657070656c696e3a3a45524331383230496d706c656d656e7465723a3a63616e496d706c656d656e74496e74657266616365466f72416464726573733a3120436865636b696e672074686174207468697320636f6e747261637420696d70656c6d656e74732025732ea2646970667358221220e4cfdc4a365b80f073b14eb35b90bad3083ee7d939cacbefcf8530c14a75991064736f6c634300070500335265676973746572696e6720455243313832305f494d504c454d454e5445525f4552433136355f494e544552464143455f49442e436f6e74726163743a3a686f6c797a657070656c696e3a3a4552433136353a3a636f6e7374727563746f723a303120496e7374616e74696174696e67204552433136352e5265676973746572656420455243313832305f494d504c454d454e5445525f4552433136355f494e544552464143455f49442e5265676973746572696e6720455243313832305f494d504c454d454e5445525f4552433136355f494e544552464143455f4944206f6620257320666f7220257320776974682073656c662e436f6e74726163743a3a686f6c797a657070656c696e3a3a4552433136353a3a636f6e7374727563746f723a303420496e7374616e746961746564204552433136352e436f6e74726163743a3a686f6c797a657070656c696e3a3a45524331383230496d706c656d656e7465723a3a636f6e7374727563746f723a3420526567697374657265642045524331383230496d706c656d656e7465722e496e7374616e7469617465642045524331383230496d706c656d656e746572455243313635436f6d706c69616e742e436f6e74726163743a3a686f6c797a657070656c696e3a3a45524331383230496d706c656d656e7465723a3a636f6e7374727563746f723a33205265676973746572696e672045524331383230496d706c656d656e746572206f6620257320666f722025732e436f6e74726163743a3a686f6c797a657070656c696e3a3a45524331383230496d706c656d656e7465723a3a636f6e7374727563746f723a3220455243313832305f494d504c454d454e5445525f494e544552464143455f494420696e746572666163652049443a202573436f6e74726163743a3a686f6c797a657070656c696e3a3a45524331383230496d706c656d656e7465723a3a636f6e7374727563746f723a3120496e7374616e74696174696e672045524331383230496d706c656d656e7465722e436f6e74726163743a3a686f6c797a657070656c696e3a3a4552433136353a3a636f6e7374727563746f723a30332052656769737465726564204552433136355f494e544552464143455f49442e249cb3faca845c567fa2f484b639425561d6b04f52c4e4f9c659e684f0d02d04436f6e74726163743a3a686f6c797a657070656c696e3a3a45524331383230496d706c656d656e7465723a3a636f6e7374727563746f723a3520496e7374616e74696174656420455243313832305f494d504c454d454e5445525f494e544552464143455f49442e470b4a2a26dde857b9ba255135703cf0ab5f7ca71341df27a8b3d9cc5cb4b475436f6e74726163743a3a686f6c797a657070656c696e3a3a45524331383230496d706c656d656e7465723a3a5f7265676973746572496e74657266616365466f72416464726573733a312053656c66207265676973746572696e672074686174207468697320636f6e747261637420696d706c656d656e747320696e7465726661636520257320666f7220616464726573732025732e526567697374657265642045524331383230496d706c656d656e746572455243313635436f6d706c69616e7420776974682073656c662e496e7374616e74696174696e672045524331383230496d706c656d656e746572455243313635436f6d706c69616e742e455243313832305f494d504c454d454e5445525f4552433136355f494e544552464143455f494420696e746572666163652049443a202573436f6e74726163743a3a686f6c797a657070656c696e3a3a4552433136353a3a636f6e7374727563746f723a3032205265676973746572696e67204552433136355f494e544552464143455f49442e",
  "linkReferences": {},
  "deployedLinkReferences": {}
}